:0300000002329237
:1032920078FFE4F6D8FD9000007F007E03E4F0A3FF
:0A32A200DFFCDEFA7581210232E73D
:10462B001241AE1242C51248AA123CA7123F1012F9
:0B463B003600124895782274FFF2222E
:1019400078A07401F212462B7F14124808782B7489
:1019500002F23003FDC2037818E275F00A84E5F064
:101960007035780DE2FF60096402602BEF6403605C
:1019700026782BE27014740AF21248FFEF6003120B
:10198000464612490D500312460F123881781AE26A
:10199000640660031227421248E1789FEFF260125A
:1019A000C394107480948050047F1480027F2812A6
:1019B0004808789FE224FE7003021A8F24FE700309
:1019C000021A9424F47003021B3624B07003021B25
:1019D00084245F6003021B8F780DE214B40B004077
:1019E00003021B8F9019F275F003A4C58325F0C57F
:1019F0008373021A13021A47021A52021A65021A54
:101A00008A021A8A021A8A021A8A021A8A021A8711
:101A1000021A8A780AE2FF24FD601A14601D24F875
:101A2000501F240A6003021B8F78227402F2780D83
:101A3000EFF2021B8F782274068003E4784DF28067
:101A400000780AE2021B717822E2701312446002ED
:101A50001B7D7822E264047006124327021B7D126C
:101A600044DF021B8F784DE2FF3395E0FEEF4E70AE
:101A7000057843E26006EF64094E7005123E33803C
:101A8000091245D7021B8F12479E7F01021B7F78E8
:101A9000A07401F2789FE2640470040874FFF27885
:101AA0000DE2B40C004003021B8F901AB1F82828F5
:101AB00073021AD5021AD7021AE1021AE1021AEBCE
:101AC000021AF5021AFF021B09021B12021B1B025B
:101AD0001B24021B2D804478A0E2FF12478A021BC0
:101AE0008F78A0E2FF12332C021B8F78A0E2FF1246
:101AF0003574021B8F78A0E2FF1246AF021B8F786D
:101B0000A0E2FF124661021B8F78A0E2FF12467B23
:101B1000807D78A0E2FF124695807478A0E2FF12E3
:101B20004572806B78A0E2FF1246C9806278A0E21D
:101B3000FF1246E38059780DE2B40C005051901B1F
:101B400045F8282873021B69021B70021B7D021BCB
:101B50007D021B76021B79021B79021B79021B791D
:101B6000021B79021B79021B79780D7401F2801F28
:101B7000E4780DF28019123F107F028002E4FF1218
:101B8000448B800B780DE224F57004E47840F27801
:101B90000DE2B40C005065901B9EF8282873021BC0
:101BA000C2021BC7021BCC021BD1021BD6021BDBCD
:101BB000021BE0021BE5021BEA021BEF021BF40200
:101BC0001BF9123F9E80351233BF8030122CCA8021
:101BD0002B122EBE802612124680211242F6801C45
:101BE0001248E8801712370C80121248EE800D124E
:101BF000378C80081228B980031248187819E2043B
:101C0000F27818E204F2300811781AE26406700AD9
:101C10007818E2540170031234517819E2D3943BDE
:101C2000748094804002E4F27818E2D3943B74808C
:101C300094805003021952E4F27805E204F2781A13
:101C4000E275F003A424A5F582E43421F583E4933E
:0D1C5000FE740193AA06F91209B10219529F
:101F2600007F7F40407F7F007F7F08087F7F000320
:101F36001F227E7F0300007F7F49497F3600404095
:101F46007F7F4040007F7F4848783000003E7F41D9
:101F5600416322007F7F4848783000031F227E7F3E
:101F6600030000707808087F7F0040407F7F404074
:101F7600007F7F49497F3600007F7F40407F7F009A
:101F860040407F7F4040007F7F08087F7F00003E03
:101F96007F414163220060731B0F7C70007F7F4985
:101FA600494F4600007F7F49497F36003E7F4141C9
:101FB6006322007F7F0814636300007C7C40407CC2
:101FC6007C007C7C10107C7C000C3C48787C0C00EF
:101FD600007C7C54547C280040407C7C4040007C43
:101FE6007C505070200000387C44446C28007C7C77
:101FF60050507020000C3C48787C0C00006070103B
:10200600107C7C0040407C7C4040007C7C54547CAE
:102016002800007C7C40407C7C0040407C7C40402A
:10202600007C7C10107C7C0000387C44446C2800CA
:1020360064741C187060007C7C54545C4800007CFE
:102046007C54547C2800387C44446C28007C7C10EA
:10205600386C440000607F7F60006F6F007F3F1028
:102066001F103F7F007F7F4949007F7F63361C003A
:102076001F3F6C6C3F1F00607F7F60007F7F494978
:102086003F7F4C7F3F007F7F0303003F7F4C7F3FB6
:10209600007F7F6C6C370000003E41417149493E2C
:1020A600000000063A433A06000000007F7F686899
:1020B600003E7F417F3E007F3F180C7E7F00607FA1
:1020C6007F607F7F41633E1C006F6F00327B496FEC
:1020D60026007F7F446C38007F3F101F103F7F0033
:1020E6006F6F007F7F63361C007F7F6C6C387F7F4D
:1020F600497F36007F7F6C6C37006F6F003E7F41F3
:102106004D2E0000003E41417149493E000000004D
:1021160000000011117D1111000000000000007F79
:102126007F417F7F007F7F381C7F7F00000000009B
:102136000000007F7F417F7F007F7F6C6C007F7F88
:102146006C6C00000000607F7F6000730B7E7C007B
:102156007F7F4C380036007F7F49497F36007F7F7E
:102166004C4E7B3100360000705070003E7F63415C
:10217600410000000011117D111100007F413E0059
:1021860032492600224936002345390022493600C5
:10219600207F0000123455555555555432100548C8
:1021A6007002380C02380C02380C02380C02380C5B
:0321B6000048D30B
:103CFB00810D00810A02810500811A00810000817B
:043D0B000100C18072
:1042C500E4F59375943FF5917592FFF5957596FF15
:1042D500F5B175B27F7835E27817F2C203A2C792BD
:1042E50002123D577807E4F2087400F2087408F2E8
:0142F50022A6
:0D000E0053B0807590FF75A0FF43803F2226
:102B7E007801E2FEC394057480948050117817E2B8
:102B8E00FDEEB5050312000E7801E204F222E478A0
:102B9E0001F212000E20020A18E2FEC374159EFF07
:102BAE0080047800E2FFEFB416004003022C5C9024
:102BBE002BC4F8282873022C06022C0A022C0E02B3
:102BCE002C12022C16022C1A022C1E022C22022C63
:102BDE0026022C2A022C2E022C32022C36022C3AE1
:102BEE00022C3E022C42022C46022C4A022C4E0291
:102BFE002C52022C56022C5AC2908052C291804EF8
:102C0E00C292804AC2938046C2948042C295803E50
:102C1E00C296803AC2978036C2A08032C2A1802E60
:102C2E00C2A2802AC2A38026C2A48022C2A5801E70
:102C3E00C2A6801AC2A78016C2808012C281800EE0
:102C4E00C282800AC2838006C2848002C2852002AC
:102C5E000CC374159F2408F8E6F5B0804474082F51
:102C6E00F8E6FEC45402FDEEC4131354014DFE7477
:102C7E00082FF8E6FD131354044EFEED54084EFED5
:102C8E0074082FF8E6FD25E025E054104EFEEDC445
:102C9E0054204EFE74082FF8E6C4333354404EF5DC
:102CAE00B07800E204F2E2D3941574809480400B65
:0B2CBE00E4F2A2C79202200302D2033E
:012CC90022E8
:10448B00EF24FE60030470173003FD12000EC2AF61
:10449B00EF64017005123FE480031241AED2AFE42A
:0A44AB00780DF27805F2781AF2227B
:10388100123969781BE27069300068C2007843E23E
:10389100603A781DE2FF7844E26F7030781CE2FFF5
:1038A1007845E2B50726781EE27E007BFE2445F9C5
:1038B100EE3400FA1206A9603A7834E2FF7C007D0A
:1038C1003C1207457827EEF208EFF2227844E2FF36
:1038D1003395E0FE781DE2D39FEE6480F874809802
:1038E1004011781CE2700C7830E260077F280248B2
:0338F10008D200FA
:0138F40022B1
:0C3D4B007807E4F2087400F2087408F233
:103D57007833E214601514601C14602314602A8001
:103D67000078137400F20874A0F22278137400F23A
:103D77000874C8F22278137400F20874F0F22278FB
:103D8700137401F2087418F22278137401F208749C
:033D970040F222D5
:0B454F00E4FF12455A12455A12455A6B
:10455A007807E2FB08E2FA08E2F9EF120711E2240F
:08456A0001F218E23400F22214
:103DE90078A17421F2087482F2E4FFEFC394167487
:103DF900809480503478A1E2FC08E2F5828C83E457
:103E090093FE7807E2FB08E2FA08E2F9EE120711DD
:103E19000F78A2E22401F218E23400F27809E224D0
:093E290001F218E23400F280C23B
:013E3200226D
:1023D9007832E224FE70030224851470030224DE9D
:1023E900147003022522240470297819E2FD7C0067
:1023F900C3940F748094805005E4FF022564C3EDF3
:10240900942DEC6480948050057F03022564E4FFD9
:102419000225647819E2FD7C00C3940574809480D8
:102429005005E4FF022564C3ED940DEC64809480AB
:1024390050057F01022564C3ED9416EC64809480F5
:1024490050057F02022564C3ED9427EC64809480D3
:1024590050057F03022564C3ED9430EC64809480B9
:1024690050057F02022564C3ED9438EC64809480A2
:1024790050057F01022564E4FF0225647819E2FD15
:102489007C00C39406748094805005E4FF0225649F
:10249900C3ED9412EC6480948050057F0302256497
:1024A900C3ED941EEC6480948050057F040225647A
:1024B900C3ED942AEC6480948050057F050225645D
:1024C900C3ED9436EC6480948050057F0602256440
:1024D900E4FF0225647819E2FD7C00C39407748047
:1024E90094805004E4FF8073C3ED9416EC648094E7
:1024F9008050047F078064C3ED9425EC6480948048
:1025090050047F038055C3ED9434EC64809480506B
:10251900047F088046E4FF80427819E2FD7C00C30D
:102529009407748094805004E4FF802FC3ED9416BF
:10253900EC6480948050047F018020C3ED9425ECE5
:102549006480948050047F028011C3ED9434EC645C
:1025590080948050047F018002E4FFE4FEEEC3947E
:102569000474809480503675F004EFA42EF582E44B
:1025790035F0F583E582241EF582E5833400F58381
:10258900E493FD7807E2FB08E2FA08E2F9ED1207A5
:0D259900110EE22401F218E23400F280C0BD
:0125A6002212
:093BF500E4FF12455A7810E2FFCA
:043BFE0078A7EFF2C3
:103C0200E408F278A8E2FDC3940474809480503EE4
:103C120018E275F004A47C002DFFEC35F0FE781458
:103C2200E22FFF18E23EFE8F82F583E493FD7807D0
:103C3200E2FB08E2FA08E2F9ED12071178A8E204C1
:0E3C4200F27809E22401F218E23400F280B5B3
:013C50002251
:10406E00E4FEEEC3940374809480503675F003EF33
:10407E00A42EF582E435F0F583E5822482F582E5FF
:10408E00833400F583E493FD7807E2FB08E2FA0837
:10409E00E2F9ED1207110EE22401F218E23400F2F9
:0240AE0080C0D0
:0140B00022ED
:053EC700E2FFE4FBFD39
:103ECC0078A5EFF208EDF2701FEB600F18E275F0B9
:103EDC000A84D3940074809480400D78A5E275F028
:103EEC000A84FF123BFE800312454FE4FF12455A31
:103EFC0078A6E2700B18E275F00A84AFF0023BFE74
:043F0C0012454F22E9
:10440A00781DE2FDD3941874809480500A18E294BF
:10441A003C748094804003023DE9AF05E4FBFD1241
:0B442A003ECC1223D9781C123EC722A2
:103C51007820E2D3940C74809480500A18E2942066
:103C6100748094804003023DE9781FE2FF7B01E408
:103C7100FD123ECCE4FFEFC3940474809480502085
:103C8100EF90002293FE7807E2FB08E2FA08E2F9DE
:103C9100EE1207110FE22401F218E23400F280D68D
:053CA1007820123EC76F
:013CA60022FB
:10311D00781EE214B40700507090313475F003A49A
:10312D00C58325F0C5837302314902315402315FE5
:10313D0002316A02317502318002318B78A1741F20
:10314D00F2087426F2804B78A1741FF208743CF2D9
:10315D00804078A1741FF2087452F2803578A17402
:10316D001FF2087468F2802A78A1741FF208747E29
:10317D00F2801F78A1741FF2087494F2801478A164
:10318D00741FF20874AAF2800978A17421F20874F0
:10319D0082F2E4FFEFC3941674809480503478A1CA
:1031AD00E2FC08E2F5828C83E493FE7807E2FB08EB
:1031BD00E2FA08E2F9EE1207110F78A2E22401F209
:1031CD0018E23400F27809E22401F218E23400F238
:0231DD0080C2AE
:0131DF0022CD
:1021B900E478A2F212490D50161248C37C007D053D
:1021C9001207AC78A2EFF230E01FE204F2801A1293
:1021D90048FFEF601D1200037C007D051207AC78F3
:1021E900A2EFF230E003E204F278A2E2A2E713F2EE
:1021F90080067823E278A2F27840E2FF78A2E22F03
:10220900F2E2FEFD3395E0FCD3ED9463EC64809437
:10221900804071E418F278A1E2C394047480948038
:1022290050207807E2FB08E2FA08E2F9E412071104
:1022390078A1E204F27809E22401F218E23400F20A
:1022490080D4E478A1F278A1E2FFC3940574809464
:10225900805026EF90007493FF7807E2FB08E2FABA
:1022690008E2F9EF12071178A1E204F27809E224F1
:1022790001F218E23400F280CDE4FF12455A12450A
:102289005A022399EEFF3395E0FED3EF9409EE64E9
:102299008094804063E478A1F278A1E2FFC39405B9
:1022A90074809480400302233108E2FE75F00A121B
:1022B9000687FD3395E08D82F583740512097AE569
:1022C900822FF582E43583F583E5822442F582E5A0
:1022D900833400F583E493FF7807E2FB08E2FA0808
:1022E900E2F9EF12071178A1E204F27809E2240178
:1022F900F218E23400F280A1E478A1F278A1E2C3F5
:1023090094057480948050207807E2FB08E2FA086B
:10231900E2F9E412071178A1E204F27809E2240152
:10232900F218E23400F280D4E4FF12455AE478A1AD
:10233900F278A1E2FFC3940574809480505208E2B8
:10234900FE75F00A120687AEF0EEFD3395E08D8238
:10235900F583740512097AE5822FF582E43583F550
:1023690083E5822442F582E5833400F583E493FF13
:102379007807E2FB08E2FA08E2F9EF12071178A1FF
:10238900E204F27809E22401F218E23400F280A1B1
:10239900E4FF12455A12455AE478A1F278A1E2FF06
:1023A900C39409748094805026EF90007993FF7844
:1023B90007E2FB08E2FA08E2F9EF12071178A1E255
:0F23C90004F27809E22401F218E23400F280CD28
:0123D80022E2
:103056001248B378A1EEF208EFF2E4FBEBFF3395EA
:10306600E0FEC3EF9404EE648094805009740E2B46
:10307600F8E4F20B80E67B03D378A2E2940018E230
:10308600648094805011EBFF3395E0FED3EF9400FB
:10309600EE64809480402C78A1E2FE08E2FF7C007A
:1030A6007D0A1207AC740E2BF8EDF21B78A1E2FE36
:1030B60008E2FF7C007D0A1207AC78A1EEF208EF69
:1030C600F280B5780EE2FF123BFEE4FF12455A7815
:1030D6000FE2FF123BFE123BF5E4FF12455A78075A
:1030E600E2FB08E2FA08E2F97403120711E224018E
:1030F600F218E23400F218E2FB08E2FA08E2F97488
:1031060003120711E22401F218E23400F212455AC2
:073116007811E2FF023BFE0D
:102A2400E478A1F208F212490D50051248CB800B4C
:102A34001248FFEF6460700A1248BB78A1EEF208F6
:102A4400EFF2E4FBEBFF3395E0FEC3EF9405EE6495
:102A54008094805009740E2BF8E4F20B80E67B041A
:102A6400D378A2E2940018E294005011EBFF33955E
:102A7400E0FED3EF9400EE64809480402C78A1E2D1
:102A8400FE08E2FF7C007D0A120757740E2BF8ED56
:102A9400F21B78A1E2FE08E2FF7C007D0A120757D0
:102AA40078A1EEF208EFF280B7780EE2703208E215
:102AB400FF123BFE123BF5E4FF12455A7807E2FB96
:102AC40008E2FA08E2F97403120711E22401F21889
:102AD400E23400F212455A7811E2FF123BFE8020E4
:102AE400E4FF12455A780EE2FF123BFEE4FF124562
:102AF4005A780FE2FF123BFE123BF5E4FF12455AEF
:102B0400E4FF12455A7807E2FB08E2FA08E2F97496
:102B140062120711E22401F218E23400F218E2FB17
:102B240008E2FA08E2F97464120711E22401F218C7
:102B3400E23400F218E2FB08E2FA08E2F97408123F
:102B44000711E22401F218E23400F218E2FB08E271
:102B5400FA08E2F97413120711E22401F218E234BC
:102B640000F218E2FB08E2FA08E2F97423120711F2
:092B7400E22401F218E23400F23F
:012B7D002235
:10425F00781DE2FFC394187480948050257835E25E
:10426F006406701EEF781D30E009E2C313902198A9
:10427F00938008E2C31390219893C4540FFF7817CB
:03428F00EFF22229
:103F9E00123D4B12425F781AE2B407005030903F48
:103FAE00B3F8282873023FC8023FCA023FCD023F32
:103FBE00D0023FD3023FD6023FD98016023C5102B7
:103FCE00311D0221B9023056022A24024133E4780F
:063FDE001AF212440A224F
:10429200ED1206EF1206A9FF78A6E2D36480F8EFCA
:1042A200648098400678A5E21207111206A9FF78E9
:1042B200A5E2C36480F8EF648098500678A6E21203
:0342C200071122BF
:10478A007BFE7A00790AAD0778A57402F208740BE9
:04479A00F202429253
:1033BF00780AE224FEB40A0050669033D775F00302
:1033CF00A4C58325F0C583730233F50233FB0234A2
:1033DF000102340702340D02341302341902341F70
:1033EF0002342502342B7E207F5A80347E207F705A
:1033FF00802E7E207F8680287E207F9C80227E20CC
:10340F007FB2801C7E207FC880167E207FDE8010DA
:10341F007E207FF4800A7E217F0A80047E217F6CCC
:10342F00E4FDEDC394167480948050158F828E83C3
:10343F00E493FC74082DF8A6040D0FBF00010E8055
:01344F00E19B
:013450002259
:102CCA00123D4B7818E2FF7E00C3940F7480948003
:102CDA005004C2048011C3EF942DEE648094805096
:102CEA0004D2048002C2047822E26003022D7778BB
:102CFA00A1F278A1E2C394097480948050207807E5
:102D0A00E2FB08E2FA08E2F9E412071178A1E20408
:102D1A00F27809E22401F218E23400F280D4E4786D
:102D2A00A1F278A1E2FFC39404748094805026EF44
:102D3A0090002A93FF7807E2FB08E2FA08E2F9EF2B
:102D4A0012071178A1E204F27809E22401F218E2EA
:102D5A003400F280CD781BE2FF7822E2FD700A305F
:102D6A000403ED60047D0180747D008070781DE2AB
:102D7A00FF7822E2FD6402700C300405ED64026003
:102D8A00047D0180027D00E4FB123ECCE478A1F2CE
:102D9A0078A1E2FFC39404748094805026EF9000D7
:102DAA002A93FF7807E2FB08E2FA08E2F9EF120732
:102DBA001178A1E204F27809E22401F218E234005F
:102DCA00F280CD781CE2FF7822E2FD6401700C30BB
:102DDA000405ED640160047D0180027D00E4FB12BC
:022DEA003ECCDD
:012DEC0022C4
:102EBE00123D4B7818E2FF7E00C3940F748094800D
:102ECE005004C2048011C3EF942DEE6480948050A0
:102EDE0004D2048002C2047822E264067037FF1224
:102EEE00455A12455AE4FBFD7F14123ECCE4FF1204
:102EFE00455A7821E2FF08E2FD6406700C300405A5
:102F0E00ED640660047D0180027D00E4FB123ECC80
:102F1E00E4FF02455A781FE2FF7822E2FD64047056
:102F2E000C300405ED640460047D0180027D007B9D
:102F3E0001123ECCE4FFEFC39404748094805020C1
:102F4E00EF90002293FE7807E2FB08E2FA08E2F91E
:102F5E00EE1207110FE22401F218E23400F280D6CD
:102F6E007820E2FF7822E2FD6405700C300405ED56
:0F2F7E00640560047D0180027D00E4FB123ECCFF
:012F8D002221
:10124600123D4B784DE2FF3395E0FEEF4E7050783D
:1012560043E278A360097421F2087420F2800774CF
:1012660021F2087436F2E478A1F278A1E2FDC39483
:10127600167480948040030215C578A3E2FA08E24A
:10128600F5828A83E493FC74082DF8A60478A1E21B
:1012960004F278A4E22401F218E23400F280CBEFE3
:1012A60064014E6011784DE2FF3395E0FEEF640273
:1012B6004E60030213637818E2FF7E00C3940F7436
:1012C6008094805004C2048011C3EF942DEE648094
:1012D60094805004D2048002C2047844E2FF784D20
:1012E600E2FD3395E0FCED64014C700D300406ED33
:1012F60064014C60047D0180027D00E4FB123ECC5B
:10130600E478A1F278A1E2FFC3940474809480503B
:1013160026EF90002A93FF7807E2FB08E2FA08E23C
:10132600F9EF12071178A1E204F27809E22401F23A
:1013360018E23400F280CD7845E2FF784DE2FD33C5
:1013460095E0FCED64024C700D300406ED64024C31
:1013560060047D0180027D00E4FB023ECC7818E249
:10136600FF7E00C3941B748094805004C2048011D5
:10137600C3EF9421EE648094805004D2048002C2AC
:1013860004784DE224FDB40700506E90139F75F06B
:1013960003A4C58325F0C583730213B40213BF02E9
:1013A60013CA0213D50213E00213EB0213F678A355
:1013B600741FF20874C0F2804078A3741FF2087498
:1013C600D6F2803578A3741FF20874ECF2802A787E
:1013D600A37420F2087402F2801F78A37420F20826
:1013E6007418F2801478A37420F208742EF280091F
:1013F60078A37420F2087444F2E478A1F278A1E2AA
:10140600FFC394167480948040030215C5E408F265
:10141600EF12098B144801144802147C04147C054D
:1014260014B00714B00814E40A14E40B15170D15CC
:10143600170E154110154111156B13156B1400008D
:101446001597784DE2FF3395E0FEEF64034E600595
:101456007846E27052EF64034E60030215977846B1
:10146600E2FF6003300440EF600302159720040397
:10147600021597021592784DE2FF3395E0FEEF6470
:10148600044E60057847E2701EEF64044E60030266
:1014960015977847E2FF600330040CEF60030215EE
:1014A60097200403021597021592784DE2FF3395B3
:1014B600E0FEEF64054E60057848E2701EEF6405B5
:1014C6004E60030215977848E2FF600330040CEF84
:1014D6006003021597200403021597021592784DB2
:1014E600E2FF3395E0FEEF64064E60057849E27050
:1014F6001EEF64064E60030215977849E2FF60030B
:1015060030040CEF60030215972004030215978040
:101516007B784DE2FF3395E0FEEF64074E60057879
:101526004AE27015EF64074E7067784AE2FF60037F
:10153600300406EF705B3004588051784DE2FF337B
:1015460095E0FEEF64084E6005784BE27015EF6497
:10155600084E703D784BE2FF6003300406EF7031B1
:1015660030042E8027784DE2FF3395E0FEEF6409C4
:101576004E600418E27015EF64094E7014784CE260
:10158600FF6003300406EF700830040578A274018A
:10159600F278A3E2FE08E2F5828E83E493FF78A256
:1015A600E2FEEF4EFF18E22408F8A60778A1E2044F
:0F15B600F278A4E22401F218E23400F2021403E6
:0115C5002203
:104661007BFE7A007933AD07904202E49378A5F29C
:0A467100904216E49308F202429210
:0648E800123D4B02440AE0
:10467B007BFE7A007931AD07904200E49378A5F286
:0A468B00904214E49308F2024292F8
:10370C007807E4F2087400F2087408F2E4FFEFC3DF
:10371C009410748094805020EF90214C93FE780785
:10372C00E2FB08E2FA08E2F9EE1207110FE22401BB
:10373C00F218E23400F280D6E4FF12455AEFC3943B
:10374C00057480948050387831E275F005A42FF51B
:10375C0082E435F0F583E5822442F582E58334007A
:10376C00F583E493FE7807E2FB08E2FA08E2F9EE4F
:0F377C001207110FE22401F218E23400F280BEAE
:01378B00221B
:104695007BFE7A007932AD07904201E49378A5F26A
:0A46A500904215E49308F2024292DD
:0648EE00123D4B02440ADA
:104572007BFE7A007935AD07904204E49378A5F288
:10458200904218E49308F21242927835E27817F2D8
:0345920002425F83
:10378C007807E4F2087400F2087408F2E4FFEFC35F
:10379C009410748094805020EF90215C93FE7807F5
:1037AC00E2FB08E2FA08E2F9EE1207110FE224013B
:1037BC00F218E23400F280D6E4FF12455AEFC394BB
:1037CC00057480948050387835E275F005A42FF597
:1037DC0082E435F0F583E5822442F582E5833400FA
:1037EC00F583E493FE7807E2FB08E2FA08E2F9EECF
:0F37FC001207110FE22401F218E23400F280BE2E
:01380B00229A
:1046AF007BFE7A007930AD079041FFE49378A5F255
:0A46BF00904213E49308F2024292C5
:1042F6007830E260067E217F2080047E217F36E4CE
:10430600FDEDC394167480948050158F828E83E4DD
:1043160093FC74082DF8A6040D0FBF00010E80E172
:014326002274
:1046C9007BFE7A007941AD07904210E49378A5F218
:0A46D900904224E49308F20242929A
:1028B9007807E4F2087400F2087408F27841E2FF3C
:1028C9003395E0C36480948040028001D392043040
:1028D9000405EFF40480037841E278A2F2E478A1D8
:1028E900F278A1E2FFFD3395E0FCC3ED9403EC64BB
:1028F900809480500D740E2FF8E4F278A1E204F26E
:1029090080DF78A17402F278A2E2FFD39400748088
:102919009480501218E2FD3395E0FCD3ED9400EC5D
:1029290064809480401CEF75F00A8478A1E2240E3B
:10293900F8E5F0F278A1E214F2EF75F00A8408F2F2
:1029490080C578A27403F2200404E22405F2780E0B
:10295900E2701178A2E22405F2780FE2700678A2FB
:10296900E22405F2E478A1F278A2E2FF18E2FD334D
:1029790095E0FCC3ED9F7480F86C9850207807E2CD
:10298900FB08E2FA08E2F9E412071178A1E204F27D
:102999007809E22401F218E23400F280CB30043DD8
:1029A900E478A1F278A1E2FF3395E0FEC3EF940445
:1029B900EE6480948050217807E2FB08E2FA08E28D
:1029C900F9740812071178A1E204F27809E22401E6
:1029D900F218E23400F280CCE4FF12455A780EE294
:1029E900FFD39400748094804008123BFEE4FF12E8
:1029F900455A780EE2D3940074809480500A08E214
:102A0900940074809480400C780FE2FF123BFEE43E
:0B2A1900FF12455A7810E2FF023BFE5E
:1046E3007BFE7A007940AD0790420FE49378A5F200
:0A46F300904223E49308F202429281
:0F4818007807E4F2087400F2087408F20221B97C
:10380C00781AE275F003A424A4F582E43421F5833C
:10381C00E493FF7805E2D39F405A781AE204F2E46D
:10382C007805F2781AE2D39407748094804002E40D
:10383C00F2781AE26404700B1248FFEF7005781AE4
:10384C007405F2781AE2640570121248FFEF646096
:10385C00600A12490D4005781A7406F2781AE2646F
:10386C00067011300808D20178067416F222E4783A
:05387C001AF2C2012256
:0D4870007831E2640170037805F202380C23
:0748D30020010312380C2242
:10450600EFFD7C00C394A074809480400574C02F96
:10451600FF22C3ED9420EC64809480400574E02F64
:05452600FF227F1F22AF
:102F8E00780CE278A1F27815E278A2F2C394057477
:102F9E008094804012E4FF12455A7816E204F278CB
:102FAE00A1E204F2E408F27816E2C3941674809457
:102FBE00804003023055780BE2FF78A1E2FEC39FFA
:102FCE0050697802E2FB08E2FA08E2F98E82758314
:102FDE00001206C2FEFF124506AE0778A2E2FFC33C
:102FEE00940574809480503B75F005EEA42FF58205
:102FFE00E435F0F583E5822468F582E5833401F546
:10300E0083E493FF64A5601B7816E2C39416748064
:10301E009480500812455A7816E204F278A2E2041F
:10302E00F280B878A1E204F2E408F27816E2C394D2
:10303E0016748094804003022FB5E4FF12455A782F
:07304E0016E204F2022FB5A7
:013055002258
:1047E800C201E4780CF27815F2781AF27805F22210
:103451002001030234E27806E2D394007480948060
:103461004005E214F280057815E204F2780BE2FFE0
:1034710008E2FEB5070280667815E2C39405748000
:103481009480503C7802E2FB08E2FA08E2F98E826D
:103491007583001206C2FF1245067815E2FE75F02B
:1034A10005EFA42EF582E435F0F583E5822468F575
:1034B10082E5833401F583E49364A570037405F216
:1034C1007815E2D39405748094804015780CE20459
:1034D100F2E47815F2780BE2FF08E2B50703124730
:0134E100E802
:0134E20022C7
:10413300E47816F22001030247E87806E2D39400FC
:104143007480948040247806E2FF7816E2FEC39FD1
:10415300500CE4FF12455A7816E204F280E8EEC3ED
:0E41630094167480948050058000122F8E22D6
:1047F800EF14780BF27802EBF208EAF208E9F222F9
:10001E000000000000080800001C1C00003636001E
:10002E00002436000024240000240000003030009C
:10003E00000606007F7F417F7F00007F7F000F4F0D
:10004E004979794149497F7F7878087F7F79794965
:10005E004F0F7F7F494F0F4040407F7F7F7F497F0B
:10006E007F7879497F7F3040454830705070003E30
:10007E007F6341417C447C00007C5C547454547C0E
:10008E0070107C75545C7C544940407C7C547C746C
:10009E00547C7F41417F00007F004F494979494997
:1000AE00497F7808087F7949494F7F49494F404039
:1000BE00407F7F49497F7949497F3E45413E002136
:1000CE007F0123454931425169460C14245F725118
:1000DE00514E1E294906404F5060367F49363049F1
:1000EE004A3C7E41413F00407F000F494939494912
:1000FE00493E7C04041F7849490F7F4949076040F7
:10010E00403F7E49493F7849493F7F63637F0060A6
:10011E007F006F6B6B7B6B6B6B7F7878087F7B7B65
:10012E004B4F7F7F494F40407F7F7F6B6B7F79695D
:10013E00497F007F417F00007F00004F49790049D1
:10014E00497F0078087F0079494F007F494F004072
:10015E00407F007F497F0079497F000000A5A57D83
:10016E00A5A5A5A5700070A5A5147F147F14122A4D
:10017E007F2A24626408132336495522055060A550
:10018E00A5A51C2241A5A541221CA5A514083E0823
:10019E001408083E08080506A5A5A504040404A530
:1001AE0001A5A5A5A502040810203E41413EA500CB
:1001BE00217F01A521434539A522414936A50C14BD
:1001CE00247FA57251514EA53E494926A540474868
:1001DE0070A536494936A53249493EA512A5A5A5B1
:1001EE00A50112A5A5A508142241A51414141414D2
:1001FE0041221408A520404548303E415D553C1F24
:10020E002444241F7F494949363E414141227F41C2
:10021E0041221C7F494949417F484848403E414957
:10022E00492F7F0808087F417F41A5A50201417E25
:10023E00407F081422417F010101A57F2018207FF5
:10024E007F1008047F3E4141413E7F484848303E82
:10025E004145423D7F484C4A31324949492640404A
:10026E007F40407E0101017E700C030C707E010EFA
:10027E00017E6314081463700807087043454951E2
:10028E00617F4141A5A50C123F120441417FA5A5F6
:10029E00102040201001010101014020A5A5A5025A
:1002AE001515150F7F0911110E0E111111020E11D8
:1002BE0011097F0E1515150C083F484020182525ED
:1002CE00253E7F0810100F115F01A5A50201115EDA
:1002DE00A57F040A11A5417F01A5A51F100C100FC3
:1002EE001F08100FA50E1111110E3F2422221C1CE7
:1002FE002222243F1F081008A50815151502107E8E
:10030E001101021E0101021F18060106181E010628
:10031E00011E110A040A11180505051E11131519DF
:10032E0011083641A5A57FA5A5A5A5413608A5A509
:10033E0008100810A5A5A5A5A5A5021E3F1E0230F2
:10034E0049294936184525451E0201417E402A1C81
:10035E00771C2A3F202020607F7F7F7F7F7F7F7FDB
:10036E007F7F3F692969217F7F7F7F7F3E4949419A
:10037E002208142A14227F7F7F7F7F1E2927211EA9
:10038E007F7F7F7F7F413F41A5A5003048483009E0
:10039E00097D0909417F41A5A5115F01A5A51F1082
:1003AE001058A57F7F7F7F7F7F7F7F7F7F7F7F7FBF
:1003BE007F7F0E5515550C7F7F7F7F7F0E15151194
:1003CE000A22142A14087F7F7F7F7F7F7F7F7F7FA3
:1003DE007F7F7F7F7F511F51A5A53F4444443F7FC0
:1003EE00494949467F494949367F40404060033E6E
:1003FE00427E037F4949494177087F087741494941
:10040E0049367F0408107F3F0264083F7F0814229C
:10041E0041011E20407F7F2018207F7F0808087F23
:10042E003E4141413E7F4040407F7F484848303EFC
:10043E004141412240407F4040700909097E3C42C3
:10044E00FF423C63140814637F01017F01700808AA
:10045E00087F7F017F017F7E027E027F407F090938
:10046E00067F0906007F7F0911110E224149493E80
:10047E007F083E413E314A4C487F021515150F1E2E
:10048E00292949061F15150AA51F101018A5030EB8
:10049E00121E030E1515150C1B041F041B1115152A
:1004AE000AA51F0204081F1F4224481F1F040A1119
:1004BE00A50708101FA51F0804081F1F04041FA569
:1004CE000E1111110E1F10101FA51F1412120C0E5B
:1004DE001111110210101F1010180505051E0C1217
:1004EE009F120C110A040A111F01011F01180404A6
:1004FE001FA51F011F011F1E021E021F101F050533
:10050E00021F0502001F1F050502A50A1115150E73
:0A051E001F040E110E081516141F1D
:1044B50000000001010100FF003B3B17071F0C63D3
:1044C500FF630000001F003B005A0078009700B50D
:0A44D50000D400F301110130014E84
:103B8F007820E2FFD394027480948040047E0080FA
:103B9F00027E017821E2240CC39EFDEE75F00CA489
:103BAF002F24FEF9EDFF781FE22FFFE433FEED1314
:103BBF0013543F7C002FFBEC3EFAE975F01FA4FF76
:103BCF00AEF07D0C1207ACEF2BFFEE3ACF24FFCFF8
:103BDF0034FFFE7C007D07120757AF05781EEFF20A
:053BEF0070037407F2F1
:013BF40022AE
:104435007820E2FFFD7C006402700F08E2540360FF
:10444500047E1D80027E1CAF0622D3ED9407EC642A
:0A44550080948040010FEF441EFF29
:01445F00223A
:103CA7007FD01247167F0A1243567F81124356125E
:103CB70048367FD01247167F0D1243567F81124335
:103CC700567F04124356E4FF1243567841E2FF122F
:103CD7004356124836123969781EE278A1F2123B30
:103CE7008F781EE2FF78A1E26F600878217413F2E3
:033CF7001243274E
:013CFA0022A7
:104460007FD0124716E4FF124356E478A1F278A1F8
:10447000E2FFD3940274809480500D12459512434C
:0B4480005678A1E204F280E602483604
:10432700123B8F7FD01247167F0312435678A27431
:1043370003F278A2E2FFD3940674809480500D12A2
:0F434700459512435678A2E204F280E60248360A
:10479E007FD01247167F101243567841E2FF124324
:0447AE005602483631
:103969007FD0124716E4FF1243561248367FD11210
:103979004716E478A2F278A2E2FF7E00D394067497
:10398900809480502CEF64067003C38001D39205A4
:1039990012422678A3EFF212482778A2E27C007B34
:1039A900FE241BF9EC3400FAEF120711E204F2804D
:1039B900C51248367FD01247167F11124356124856
:1039C900367FD1124716C2051242267823EFF2023A
:0239D90048366E
:04332C0078A1EFF2A3
:103330007822E2FFFD7C00241BF9EC3400FA78A22D
:1033400074FEF208EAF208E9F27BFF74BE2DF9EC94
:103350003444FA1206A9FEEF24B5F9EC3444FA120B
:1033600006A908F27822E264047005124435AE071B
:1033700078A1E2FF08E2FB08E2FA08E2F9EF1206A0
:10338000EF78A2E2FB08E2FA08E2F91206A9FFD3FD
:10339000EE6480F8EF648098400678A5E212071189
:1033A00078A2E2FB08E2FA08E2F91206A9FF08E2B5
:0E33B000C36480F8EF6480985004EE12071199
:0133BE0022EC
:1044DF007822E2601024FE600A24FE24FD5004249A
:1044EF0006700E800678227404F2227822E214F20B
:0744FF002278227402F22270
:104171007821E25403701118E2D394027480948080
:1041810040067E007F0180047E007F007820E225CA
:10419100E024C5F582E43444F58318E2FD7401930B
:0D41A1002DFDE4933400CD2FFFED3EFE22F6
:0F482700EFC4540F75F00AA4FEEF540F2EFF22BA
:104595007E007BFE741B2FF9EE3400FA1206A9FF8C
:1045A500EF75F00A84C454F0FEEF75F00A84E5F067
:0345B5002EFF22B4
:1047D7001248FAD2C11248FAA2C29207C2C1A2076E
:0147E70022AF
:0748DA00A20692C20247D7BB
:1046FD0078A1EFF2D2C1D2C21248FAC2C21248FA60
:09470D00C2C178A1E2FF0243845D
:1047160078D1EFF2D2C1D2C21248FAC2C21248FA16
:09472600C2C178D1E2FF02435642
:0F483600C2C1C2C21248FAD2C11248FAD2C2227B
:0443560078D2EFF238
:10435A00E408F2F278D3E2C394087480948050158A
:10436A0018E23392061248DA78D2E2FF25E0F20820
:0A437A00E204F280DFD2060248DA06
:0443840078A2EFF23A
:10438800E408F2F278A3E2C394087480948050158C
:1043980018E23392061248DA78A2E2FF25E0F20822
:0A43A800E204F280DFD2C20247D720
:10422600D2C2E478D2F218F278D1E2C3940874804C
:104236009480501808E2FF25E0F21247D75006781E
:10424600D2E24401F278D1E204F280DCA205B39214
:08425600061248DA78D2E2FFFB
:01425E00223D
:0448FA007F02DFFE5C
:0148FE002297
:0A488A00EF60077E13DEFE1F80F6CC
:014894002201
:0E484500EF600B7E127DEBDDFEDEFC1F80F2CD
:014853002242
:103D0F00812B0081290082270000812A00812CFA53
:0A3D1F00812D00822400008126009F
:102DED00E4FF20C6010F20C504EF4402FF20C404F8
:102DFD00EF4404FFEF602A7826E2FEB5071D18E2C6
:102E0D002401F218E23400F208E2647D700218E247
:102E1D007035EEC454F0782DF2802C7826EFF280C8
:102E2D00267824E2FE08E2FFD39419EE64809480A4
:102E3D00400FEF947DEE64809480500508E2782D6C
:102E4D00F2E47824F208F2782CE26005E214F280C4
:102E5D0028782C74FAF218E26003E214F27829E271
:102E6D006003E214F27828E2700218E2600B782811
:102E7D00E224FFF218E234FFF2782AE26005E21450
:102E8D00F2800E7828E2700218E26005782A74FA52
:102E9D00F2782AE2540ED3940874809480400F780F
:102EAD002CE2D3947D748094804005C2C322D2C39A
:012EBD0022F2
:10480800782AEFF2782C74FAF2E47827F208F22288
:0648E100782DE2FFE4F275
:0148E70022AE
:1041EA00FF00020000010500071E01010101010094
:1041FA0000000000FF0001000000000000000000B5
:10420A000000000000F78000FF0105040401060118
:0C421A00173B01010101010101097F02B5
:033D2900812E00E8
:103B2500D204E478A2F278A2E2FFC39409748094E7
:103B350080501D7E007BFE74362FF9EE3400FA129C
:103B450006A9F46004C204800778A2E204F280D6D4
:103B5500300436E478A2F278A2E2FFC394147480AC
:103B650094805022EF7C007BFF24EAF9EC3441FA83
:103B75001206A9FEEF1B242FF9EC3400FAEE12070A
:093B850011E204F280D1123FE4C8
:013B8E002214
:1041AE00E478A1F278A1E2FD7C00C39414748094AB
:1041BE00805026782EE225E0FEE42DFFEC3EFE1226
:1041CE00474878A1E27C007BFE242FF9EC3400FAFC
:0C41DE00EF120711E204F280CB023B2537
:103FE400782EE2FF7E00124775E478A3F278A3E20C
:103FF400C3941474809480502C782EE225E0FE78CB
:10400400A3E2FD7A002400FFEA3EFE7C007BFE74FE
:104014002F2DF9EC3400FA1206A9FD12472F78A3CC
:05402400E204F280C877
:014029002274
:10475F0000000000000000000000FF01173B0101F6
:06476F000101010101FF40
:103F1000E478A1F278A1E2FFFD3395E0FCC3ED94D3
:103F20000AEC648094805029EF3395E0FC7BFE74AA
:103F3000362DF974003CFA1206A9FEEF3395E0FC29
:103F400074432DF974003CFAEE120711E204F2807A
:063F5000C3784D74FFF27E
:013F56002248
:103E3300E478A1F278A1E2FFFD3395E0FCC3ED94B1
:103E43000AEC648094805029EF3395E0FC7BFE7488
:103E5300432DF974003CFA1206A9FEEF3395E0FCFA
:103E630074362DF974003CFAEE120711E204F28065
:093E7300C3123FE4784D74FFF224
:013E7C002223
:1045D700784DE2FF3395E0FEC3EF9409EE648094D3
:0C45E700804003E4F222784DE204F2224E
:0435740078A1EFF259
:10357800784DE2FFFD3395E0FC74432DF974003C6F
:10358800FA78A274FEF208EAF208E9F27BFF746A9C
:103598002DF974473CFA1206A9FEEFFD3395E0FCBD
:1035A800745F2DF974473CFA1206A9FF78A1E2FD71
:1035B80008E2FB08E2FA08E2F9ED1206EF78A2E267
:1035C800FB08E2FA08E2F91206A9FDD3EE6480F8D6
:1035D800ED6480984004EF12071178A2E2FB08E23C
:1035E800FA08E2F91206A9FDC3EF6480F8ED6480D9
:0735F800985004EE120711C8
:0135FF0022A9
:0D487D00E4F5C7F5C5F5C675C380F5C42286
:1047480075C78275C5018FC4EEF5C375C65A75C69F
:07475800A500AFC202487D7D
:10472F0075C78275C5028FC4EEF5C3AF058FC2750D
:09473F00C65A75C6A50002487DAA
:1047750075C78275C5038FC4EEF5C375C65A75C670
:05478500A50002487DC3
:014910002284
:1047B200438E805389F0E4F58A758CF7C28DD28CD2
:0347C200D2A92257
:0948AA001247B2124910D2AF22EC
:03000B00023D9A19
:103D9A00C0E0C0F0C083C082C0D075D000C000C0EF
:103DAA0001C002C003C004C005C006C007122B7EB2
:103DBA00784EE204F2E2D39420748094804005E4C1
:103DCA00F2122DEDD007D006D005D004D003D002D0
:0F3DDA00D001D000D0D0D082D083D0F0D0E03252
:03001B0002491186
:014911003273
:1015C600D120CDCEC2DBCC20C3CEC4CECC212121AE
:1015D60000D0EEE6E4E5F1F2E2EE20F5F0E8F1F215
:1015E600EEE2EE2E00D1F2E0F0FBE920CDEEE2FBDA
:1015F600E920E3EEE42E00CAF0E5F9E5EDE8E520A2
:10160600C3EEF1EFEEE4EDE52E00D2E0F2FCFFEDE5
:10161600E8ED20E4E5EDFC2E00C4E5EDFC20E2F16A
:10162600E5F520E2EBFEE1EBB8EDEDFBF52E00C4AF
:10163600E5EDFC20E7E0F9E8F2EDE8EAE020CEF29D
:10164600E5F7E5F1F2E2E02E00CCE5E6E4F3EDE0C5
:10165600F0EEE4EDFBE920E6E5EDF1EAE8E920E469
:10166600E5EDFC2E00C4E5EDFC20ECEEF0FFEAE033
:101676002DEFEEE4E2EEE4EDE8EAE02E00C4E5ED5F
:10168600FC20F1ECE5F5E02E00C4E5EDFC20EAEEE9
:10169600F1ECEEEDE0E2F2E8EAE82E00CFF0E0E76A
:1016A600E4EDE8EA20C2E5F1EDFB20E820D2F0F314
:1016B600E4E02E00C4E5EDFC20EFEEE1E5E4FB21DD
:1016C600212100C4E5EDFC20EFE8EEEDE5F0E8E8C9
:1016D6002E00C4E5EDFC20EFEEE3F0E0EDE8F7EDDB
:1016E600E8EAE02E00C4E5EDFC20E7E0F9E8F2FBCD
:1016F60020E4E5F2E5E92E00C4E5EDFC20D0CED1EC
:10170600D1C8C82E00C4E5EDFC20ECEEEBEEE4E516
:10171600E6E82E00C4E5EDFC20F1E5ECFCE82C2023
:10172600EBFEE1E2E820E820E2E5F0EDEEF1F2E89A
:101736002E00C4E5EDFC20C2EEE7E4F3F8EDEE2D55
:10174600E4E5F1E0EDF2EDFBF520E2EEE9F1EA2E5B
:1017560000C4E5EDFC20C2EEE5EDEDEE2DE2EEE790
:10176600E4F3F8EDFBF520F1E8EB2E00C4E5EDFC23
:1017760020E7EDE0EDE8E92E00C4E5EDFC20F2E51A
:10178600F1F2E8F0EEE2F9E8EAE02E00C4E5EDFC5D
:1017960020F3F7E8F2E5EBFF2E00C4E5EDFC20F0C0
:1017A600EEE6E4E5EDE8FF20C4E5E4E020CCEEF06B
:1017B600EEE7E02E00C4E5EDFC20FDEDE5F0E3E507
:1017C600F2E8EAE02E00C4E5EDFC20EFF0EEE3F0EF
:1017D600E0ECECE8F1F2E02E00C4E5EDFC20ECE5EF
:1017E600E4E8F6E8EDF1EAEEE3EE20F0E0E1EEF211
:1017F600EDE8EAE02E00C4E5EDFC20F1E8F1F2E5C3
:10180600ECEDEEE3EE20E0E4ECE8EDE8F1F2F0E0FA
:10181600F2EEF0E02E00C4E5EDFC20C2EEE5EDEDC3
:10182600EE2DCCEEF0F1EAEEE3EE20D4EBEEF2E0B4
:101836002E00CCE5E6E4F3EDE0F0EEE4EDFBE92086
:10184600E4E5EDFC20EFE8E2E02E00C4E5EDFC2047
:10185600F1F2F0EEE8F2E5EBFF2E00C4E5EDFC2038
:10186600F2E0EDEAE8F1F2E02E00C4E5EDFC20E05E
:10187600E2F2EEECEEE1E8EBE8F1F2E02E00C4E590
:10188600EDFC20ECE0F2E5F0E82E0001011115C6B2
:1018960001071415D7010E1215EB01131315FD01DF
:1018A600190F1610020E16161F02171A1635030800
:1018B6001C164F031318166B04010C1683040C1325
:1018C600168F05011816A205090F16BA05130F166D
:1018D600C9051C1316D806011316EB060C0D16FEC9
:1018E600061B0F170B07081E171A08021F173808C2
:1018F6000C1B175709010D1772090913177F0A05E3
:101906000E17920B121B17A00C161117BB610013B2
:1019160017CC36071D17DF77052017FC77071C182D
:101926001C1805191838280710185129070F1861AF
:0A1936007A071418707B070D18845F
:023D2C00C108CC
:1039DB00781EE278A2F2E4FFEFC394057480948022
:1039EB005009744F2FF8E4F20F80ED781FE278A2A4
:1039FB00F278A2E2FD3395E0FCD3ED9407EC648002
:103A0B0094804006E224F9F280E7124435AE07E4D5
:103A1B00FFEFC39405748094805024EEFD78A2E2EE
:103A2B00F9FB3395E0FAD3EB9D7480F86A98500F4D
:0F3A3B00744F2FF8E9F20F78A2E22407F280D23D
:013A4A002259
:1045F3007853E2FF700C781FE2FE7852E2B5060AA8
:0C460300D322781FE2B50702D322C322A5
:1047C500744F2FF8E2FF781FE2FEEFB50602D32201
:0247D500C322FD
:10274200C2081239DBE478A1F278A1E2FFC3942334
:102752007480948040030228B83008030228B8EF3E
:1027620075F005A42491F582E43418F583E493FF0F
:1027720054F0FEC4540F1424FB503F700302280887
:10278200147003022842240760030228AE78A1E2F3
:1027920075F005A42492F582E43418F583E493FEDF
:1027A200781FE2FDEE6D60030228B0EF540FFF08C0
:1027B200E26F60030228B002287A78A1E2FF75F086
:1027C20005A42491F582E43418F583E493FE540FB2
:1027D200FD7820E26D60030228B0EF75F005A424B5
:1027E20092F582E43418F583E493FF781EE26F6079
:1027F200030228B0EE5470C4540F14FF1247C540B0
:10280200030228B08072124171AC06AD0778A1E2D2
:10281200FB75F005A42491F582E43418F583E49362
:102822005401FEEB75F005A42492F582E43418F508
:1028320083E493FBEB6D7002EC6E7072D208803C05
:1028420078A1E2FF75F005A42491F582E43418F52D
:1028520083E493540FFE7820E26E7052EF75F00518
:10286200A42492F582E43418F583E493FF781EE2FF
:102872006F703B1245F35036D20878A1E2FE75F034
:1028820005A42493F582E43418F583E493FFEE75EE
:10289200F005A42494F582E43418F583E493FC74DF
:1028A2000193AA04F97BFF1247F88002C20878A1BB
:0628B200E204F202274BD4
:0128B80022FD
:103D2E008173EC815A00825B000082540000827421
:023D3E00000083
:1045B80078A1EFF208EDF27873E2FF12471678A1BE
:0F45C800E2FF12435678A2E2FF12435602483632
:0443B20078A1EFF20D
:1043B6007873E2FF12471678A1E2FF12435678732C
:1043C600E24401FF124716C20512422678A2EFF216
:0743D60012483678A2E2FF55
:0143DD0022BD
:0440B10078CEEFF2E4
:1040B5007873E2FF12471678CEE2FF124356787303
:1040C500E24401FF124716D205124226EFF8E479C1
:1040D500D0F3E819F3C20512422678CFE2F208E2DE
:0C40E5004FF212483678CFE2FE08E2FFEE
:0140F10022AC
:0440F20078A1EFF2D0
:1040F6007873E2FF12471678A1E2FF1243567873EF
:10410600E24401FF124716D20512422678A2E4F2D3
:1041160008EFF2C205124226EFFE78A2E24EF2083E
:0C412600E2F212483678A2E2FE08E2FF46
:01413200226A
:034904000240B1BD
:034907000240F279
:0431E00078B9EFF2D9
:1031E4007873E2FF12471678B9E2FF1243567873F8
:1031F400E24401FF124716D205124226E4FCFDFE0A
:10320400780C12095B78BA12096E78BAE2FB08E20C
:10321400F908E2FA08E2CBF8C000C001C002C0031A
:10322400D205124226E4FCFDFE780412095BD003A9
:10323400D002D001D000EB4FFFEA4EFEE94DFDE88D
:103244004CFC78BA12096E78BAE2FB08E2F908E29B
:10325400FA08E2CBF8C000C001C002C003C20512E4
:103264004226EFC4540FFFD003D002D001D000EBAC
:103274004FFFEAFEE9FDE8FC78BA12096E124836FF
:0D32840078BAE2FC08E2FD08E2FE08E2FF75
:01329100221A
:103687007FAA1240B1785DEEF208EFF27FAC1240EC
:10369700B1785FEEF208EFF27FAE1240B17861EEDB
:1036A700F208EFF27FB01240B17863EEF208EFF262
:1036B7007FB21240B17865EEF208EFF27FB41240A4
:1036C700B17867EEF208EFF27FB61240B17869EE93
:1036D700F208EFF27FB81240B1786BEEF208EFF222
:1036E7007FBA1240B1786DEEF208EFF27FBC12405C
:1036F700B1786FEEF208EFF27FBE1240B17871EE4B
:05370700F208EFF222C0
:1034E3007F881240F2787AEEF208EFF27F8A12496F
:1034F30007787CEEF208EFF27F8C124907787EEEB4
:10350300F208EFF27F8E1240F27880EEF208EFF2CB
:103513007F901249077882EEF208EFF27F92124908
:10352300077884EEF208EFF27F941249077886EE6B
:10353300F208EFF27F961249077888EEF208EFF26D
:103543007F98124907788AEEF208EFF27F9A1249C0
:1035530007788CEEF208EFF27F9C124907788EEE23
:10356300F208EFF27F9E1249077890EEF208EFF22D
:013573002235
:1038F5001234E37FA11243B27892EFF27FE11249CD
:10390500077893EEF208EFF27FE31243B27895EF72
:10391500F27FE41243B2EF75F010A4FFAEF0C007DA
:10392500C0067FE51243B2EF540FFDD0E07896F262
:10393500D0E04D08F27FE61243B2EF75F010A4FF18
:10394500AEF0C007C0067FE51243B2EFC4540FFDC9
:10395500D0E07898F2D0E04D08F27FE71243B278D4
:043965009AEFF222C1
:0E485400E4FD7FF51245B87DAB7FF40245B858
:0A48A0007D057FF21245B80248546E
:04452B0078CDEFF266
:10452F007873E2FF1247167FF412435678CDE2FFFD
:10453F001243561248367F051248457FF60240B1A6
:0D4862007FF31243B2EF54016002D322C372
:01486F002226
:103600007FEC1246FDB392041248363004077873FB
:1036100074ECF280137FEE1246FDB392041248362A
:10362000300405787374EEF23004097FD01243B28F
:10363000785AEFF2785AE2FF7E006003F47005E4F6
:10364000785AF222EF64554E601C7DB67FE0124539
:10365000B87F951248457F95800712486250077FD2
:103660006412484580F4785AE224AA24FD500B24C1
:10367000F9600D240B700F0236871234E3024854B0
:063680001238F51248A00B
:013686002221
:100DFF007F2E12452B78C9EEF208EFF27F341245A1
:100E0F002B78CBEEF208EFF2785AE26455600302CA
:100E1F00124578C9E2FE08E2FFE4FCFDC006C007F8
:100E2F007867E2FE08E2FBAA06D007D006C3EF9B65
:100E3F00FFEE9AFEED9400FDEC9400FCC004A905B2
:100E4F00AA06AB077865E2FE08E2FFE4FCFDD000DE
:100E5F001207E2780F12094778A112096E786FE234
:100E6F00FE08E2FFEE3395E0FDFC780B12095BC044
:100E7F0004C005C006C0077871E2FE08E2FFEE333A
:100E8F0095E0FDFC78A1E2FB08E2F908E2FA08E23E
:100E9F00CBF8EB2FFBEA3EFAE93DF9E83CF8D00737
:100EAF00D006D005D00412402A78A512096E78A575
:100EBF00E2FC08E2FD08E2FE08E2FF78A1E2FB088F
:100ECF00E2F908E2FA08E2CBF8EB2FFFEA3EFEE97F
:100EDF003DFDE83CFC78B112096E78B1E2FC08E206
:100EEF00FD08E2FE08E22408FFE43EFEE43DFDE4D7
:100EFF003CFC7804120947785BEEF208EFF278B108
:100F0F00E2FC08E2FD08E2FE08E22460FFEE34F0A6
:100F1F00FEED34FFFDEC34FFFC0812096E78B5E2EC
:100F2F00FC08E2FD08E2FE08E2FFA804A905AA06F4
:100F3F00FB1207E2780C12094778B912096E785F35
:100F4F00E2FE08E2FFEE3395E0FDFC78B5E2FB0828
:100F5F00E2F908E2FA08E2CBF81207E2C004C00592
:100F6F00C006C007786BE2FE08E2FFEE3395E0FDA6
:100F7F00FC78B9E2FB08E2F908E2FA08E2CBF812D2
:100F8F0007E2D003D002D001D000EF2BFFEE3AFEE4
:100F9F00ED39FDEC38FC780B12094778A912096E70
:100FAF00785DE2FE08E2FFEE3395E0FDFCE47B04A2
:100FBF00FAF9F81207E278A9E2FB08E2F908E2FA77
:100FCF0008E2CBF8EB2FFFEA3EFEE93DFDE83CFCE3
:100FDF00EF2402FFE43EFEE43DFDE43CFC78021208
:100FEF00094778AD12096E7861E2FE08E2FFEE3331
:100FFF0095E0FDFC78B5E2FB08E2F908E2FA08E2B9
:10100F00CBF81207E2780D12094778A112096E7812
:10101F0069E2FE08E2FFEE3395E0FDFC78B9E2FBF2
:10102F0008E2F908E2FA08E2CBF81207E2781012A8
:10103F00094778A512096E78A5E2FC08E2FD08E2DF
:10104F00FE08E2FF78A1E2FB08E2F908E2FA08E203
:10105F00CBF8EB2FFFEA3EFEE93DFDE83CFCEF2429
:10106F0002FFE43EFEE43DFDE43CFC78021209473A
:10107F0078A912096E78A9E2FC08E2FD08E2FE08E1
:10108F00E22400FFEE3480FEE43DFDE43CFCC004AE
:10109F00A905AA06AB077863E2FE08E2FFE4FCFDB0
:1010AF00D0001207E2780F12093478C112096E7856
:1010BF00CBE2FE08E2FFE4FCFDC004C005C006C0A1
:1010CF000778ADE2FC08E2FD08E2FE08E2FBAA06A3
:1010DF00A905A804D007D006D005D004C3EF9BFF05
:1010EF00EE9AFEED99FDEC98FCE47B507AC3F9F88B
:1010FF001207E278C512096E78C1E2FB08E2F9081F
:10110F00E2FA08E2CBF8C00078C5E2FC08E2FD087D
:10111F00E2FE08E2FFD00012086D780112095B7839
:10112F00BD12096E78BDE2FC08E2FD08E2FE08E29E
:10113F00FF7808120947C004C005C006C00778BD74
:10114F00E2FC08E2FD08E2FE08E2FF780812094718
:10115F00D003D002D001D0001207E278A112096E9D
:10116F00E47FDE7E0BFDFC78A1E2FB08E2F908E2EA
:10117F00FA08E2CBF81207E2781012094778A112A9
:10118F00096E7F437EE37DFF7CFF78BDE2FB08E2C3
:10119F00F908E2FA08E2CBF81207E27810120947D1
:1011AF0078A512096E78A5E2FC08E2FD08E2FE08B8
:1011BF00E2FF78A1E2FB08E2F908E2FA08E2CBF8D5
:1011CF00EB2FFFEA3EFEE93DFDE83CFCEF24CFFFAD
:1011DF00EE340EFEE43DFDE43CFC78041209477842
:1011EF00BDE2FB08E2F908E2FA08E2CBF8EB2FFFC9
:1011FF00EA3EFEE93DFDE83CFC78A912096E78A9AC
:10120F00E2FC08E2FD08E2FE08E2FFEC1205C87BF3
:10121F00B07A507955784112052B785612096E78AD
:10122F0056E2FC08E2FD08E2FE08E2FF120606782D
:06123F0054EEF208EFF28C
:011245002286
:1025A7007FFA1231E078B512096EE4FFFE7D08FC70
:1025B70078B5E2FB08E2F908E2FA08E2CBF8C312C1
:1025C70009237003022741787AE2FE08E2FFE4FC60
:1025D700FD780112095BAB07AA06A905C004C0056F
:1025E700C006C00778B5E2FC08E2FD08E2FE08E293
:1025F700FF7803120934D003D002D001D000C3EF13
:102607009BFFEE9AFEED99FDEC98FCC004A905AA84
:1026170006AB07787CE2FE08E2FFEE3395E0FDFCAF
:10262700D0001207E2780B12093478B112096E78DC
:102637007AE2FE08E2FFE4FCFDAB07AA06F9C00454
:10264700C005C006C00778B5E2FC08E2FD08E2FE57
:1026570008E2FF7804120934D003D002D001D00079
:10266700C3EF9BFFEE9AFEED99FDEC98FCC004C00A
:1026770005C006C007787AE2FE08E2FFE4FCFDAB7E
:1026870007AA06F9C004C005C006C00778B5E2FC72
:1026970008E2FD08E2FE08E2FF7804120934D003DD
:1026A700D002D001D000C3EF9BFFEE9AFEED99FD5B
:1026B700EC98FCD003D002D001D0001207E2780CCE
:1026C700120934C004A905AA06AB07787EE2FE0802
:1026D700E2FFEE3395E0FDFCD0001207E2780E1220
:1026E700093478B1E2FB08E2F908E2FA08E2CBF82C
:1026F700EB2FFFEA3EFEE93DFDE83CFC7876120948
:102707006EE47F05FEFDFC7876E2FB08E2F908E25D
:10271700FA08E2CBF81207E2EF2480FFE43EFEE47A
:102727003DFDE43CFC7808120947E47B0AFAF9F816
:0A27370012402A785BEEF208EFF280
:012741002275
:1009B7001225A77FF71231E078A112096E7876E247
:1009C700FC08E2FD08E2FE08E2FF7801120947E4AD
:1009D7002FFFEE3406FEED34FFFDEC34FFFC78A567
:1009E70012096E78A5E2FC08E2FD08E2FE08E2FFC4
:1009F7007802120947C004C005C006C00778A5E2FF
:100A0700FC08E2FD08E2FE08E2FF7802120947D07F
:100A170003D002D001D0001207E2780B120947C0B9
:100A270004A905AA06AB07788AE2FE08E2FFEE33BF
:100A370095E0FDFCD0001207E278A912096E78A9AB
:100A4700E2FB08E2F908E2FA08E2CBF8C000C001CD
:100A5700C002C0037888E2FE08E2FFEE3395E0FDAE
:100A6700FC78A5E2FB08E2F908E2FA08E2CBF81203
:100A770007E2780112095BD003D002D001D000EB66
:100A87002FFFEA3EFEE93DFDE83CFC78A912096E1E
:100A97007886E2FE08E2FFEE3395E0FDFC7810125F
:100AA700095BC004C005C006C00778A9E2FC08E2DC
:100AB700FD08E2FE08E2FF7802120947D003D002E0
:100AC700D001D000EF2BFFEE3AFEED39FDEC38FCFC
:100AD70078A912096E78A5E2FC08E2FD08E2FE0893
:100AE700E2FF7802120947C004C005C006C00778B4
:100AF700A5E2FC08E2FD08E2FE08E2FF780212091F
:100B070047D003D002D001D0001207E2780D1209B6
:100B170047C004A905AA06AB077884E2FE08E2FFEE
:100B2700EE3395E0FDFCD0001207E2780312094787
:100B3700C004C005C006C0077882E2FE08E2FFEEE7
:100B47003395E0FDFC78A5E2FB08E2F908E2FA0834
:100B5700E2CBF81207E27801120947D003D002D09E
:100B670001D000EB2FFFEA3EFEE93DFDE83CFC78B3
:100B77001212094778A512096E78A5E2FC08E2FD72
:100B870008E2FE08E22400FFEE3480FEE43DFDE4C7
:100B97003CFCC004A905AA06AB077880E2FE08E280
:100BA700FFE4FCFDD0001207E2780F12094778A591
:100BB70012096E78A5E2FC08E2FD08E2FE08E2FFF2
:100BC700EC4D4E4F7003020DFE08E2FC08E2FD08F3
:100BD700E2FE08E2FF780C120947C004C005C00610
:100BE700C00778A1E2FB08E2F908E2FA08E2CBF8CD
:100BF700C3E49BFFE49AFE741099FDE498FCD003CC
:100C0700D002D001D000C3EF9BFFEE9AFEED99FD15
:100C1700EC98FCE47B357A0CF9F81207E278AD1210
:100C2700096EE4FFFEFD7C8078ADE2FB08E2F9087F
:100C3700E2FA08E2CBF8C3120923503A78ADE2FC96
:100C470008E2FD08E2FE08E2FF780112095BC00432
:100C5700C005C006C00778A5E2FC08E2FD08E2FE71
:100C670008E2FBAA06A905A804D007D006D005D03C
:100C77000412086D803078A5E2FC08E2FD08E2FE68
:100C870008E2FFC004A905AA06AB0778ADE2FC0895
:100C9700E2FD08E2FE08E2FFD00012086DE47B02E5
:100CA700FAF9F81207E278AD12096E78ADE2FC089E
:100CB700E2FD08E2FE08E2FF7803120934C004C02F
:100CC70005C006C00778ADE2FC08E2FD08E2FE08B1
:100CD700E2FF7803120934D003D002D001D000120A
:100CE70007E2780D120934C004A905AA06AB0778F4
:100CF70090E2FE08E2FFEE3395E0FDFCD00012071C
:100D0700E2780C12094778A512096E78ADE2FC0863
:100D1700E2FD08E2FE08E2FF7802120934C004A9E6
:100D270005AA06AB07788EE2FE08E2FFEE3395E0F0
:100D3700FDFCD0001207E2780D12094778A91209C5
:100D47006E78ADE2FB08E2F908E2FA08E2CBF8C0F8
:100D570000C001C002C00378A9E2FC08E2FD08E276
:100D6700FE08E2FF78A5E2FB08E2F908E2FA08E2EA
:100D7700CBF8EB2FFFEA3EFEE93DFDE83CFCC00463
:100D8700A905AA06AB07788CE2FE08E2FFEE3395C9
:100D9700E0FDFCD000EB2FFFEA3EFEE93DFDE83C1D
:100DA700FC7804120947D003D002D001D000EB2F02
:100DB700FFEA3EFEE93DFDE83CFC78AD12096E789E
:100DC700ADE2FC08E2FD08E2FE08E2FFE41205C816
:100DD7007BB07A507955784112052B785612096EF7
:100DE7007856E2FC08E2FD08E2FE08E2FF1206067A
:070DF7007854EEF208EFF260
:010DFE0022D2
:101C5D001225A77FFD1240B1E4FCFD78A112096E9B
:101C6D00E4FF7E80FDFC78A1E2FB08E2F908E2FAD0
:101C7D0008E2CBF8C312090D7003021F257876E236
:101C8D00FC08E2FD08E2FE08E22400FFEE34D4FE7B
:101C9D00ED34FEFDEC34FFFC78A512096E7895E26B
:101CAD00FFE4FCFDFE78A5E2FB08E2F908E2FA0884
:101CBD00E2CBF81207E2780B120947E42FFFEE345E
:101CCD0080FEE43DFDE43CFCC004C005C006C00739
:101CDD00789AE2FF3395E0FEFDFC78A5E2FB08E281
:101CED00F908E2FA08E2CBF81207E2780A1209477E
:101CFD00D003D002D001D0001207E2780A120947B2
:101D0D00E42FFFE43EFEED3420FDE43CFCC004A9CD
:101D1D0005AA06AB077893E2FE08E2FFEE3395E0E5
:101D2D00FDFCD0001207E2E42FFFEE3420FEE43D6F
:101D3D00FDE43CFC780E120947C004C005C006C086
:101D4D00077896E2FE08E2FFEE3395E0FDFC78148D
:101D5D0012095BC004C005C006C00778A1E2FC08EB
:101D6D00E2FD08E2FE08E2FF780E12095BD003D017
:101D7D0002D001D000C3EF9BFFEE9AFEED99FDEC72
:101D8D0098FCC004C005C006C0077898E2FE08E2C2
:101D9D00FFEE3395E0FDFC78A5E2FB08E2F908E2E1
:101DAD00FA08E2CBF81207E2A804A905AA06AB07C8
:101DBD00D007D006D005D004C3EF9BFFEE9AFEED01
:101DCD0099FDEC98FCE42FFFEE3440FEE43DFDE47C
:101DDD003CFC780F120947D003D002D001D000127D
:101DED0007E278A512096E78A5E2FC08E2FD08E28B
:101DFD00FE08E2FFC004C005C006C00778A5E2FCDE
:101E0D0008E2FD08E2FE08E2FF780F120947C00460
:101E1D00C005C006C00778A5E2FC08E2FD08E2FE99
:101E2D0008E2FF780F120947D003D002D001D0008D
:101E3D001207E27807120947C004A905AA06AB07E5
:101E4D007892E2FFE4FCFDFED0001207E278041266
:101E5D000947A804A905AA06AB07D007D006D005E7
:101E6D00D004C3EF9BFFEE9AFEED99FDEC98FC7844
:101E7D00A512096E78A5E2FCEC335007E4FFFEFDD8
:101E8D00FC800D78A5E2FC08E2FD08E2FE08E2FF09
:101E9D0078A512096EE4FFFEFD7C1978A5E2FB081A
:101EAD00E2F908E2FA08E2CBF8D312090D4008E492
:101EBD00FFFEFD7C19800D78A5E2FC08E2FD08E22D
:101ECD00FE08E2FF78A512096E78A5E2FC08E2FD96
:101EDD0008E2FE08E2FF780C12094778A512096E98
:101EED0078A5E2FC08E2FD08E2FE08E2FFEC12052F
:101EFD00C87B0A7AD77923784112052B78561209B7
:101F0D006E7856E2FC08E2FD08E2FE08E2FF1206DA
:081F1D00067874EEF208EFF201
:011F25002299
:03490A000209B7E8
:0648F4001209B7021C5D71
:10464600785AE224AA24FD500B24F9600A240B7040
:0B46560009020DFF02490A1248F4227D
:08000300785BE2FE08E2FF2237
:0848B3007854E2FE08E2FF2246
:0848BB007874E2FE08E2FF221E
:0548FF00785AE2FF22DF
:0A3D4000C109829B0000829D000073
:0D3F570078ABEBF208EAF208E9F208EDF2AF
:103F64007F80124716E478AFF278AEE2FF08E2FEF3
:103F7400C39F5023EEFF78ADE22FF218E23400F233
:103F840018E2FB08E2FA08E2F91206A9FF12435606
:0A3F940078AFE204F280D202483652
:0D3E7D0078ABEBF208EAF208E9F208EDF28A
:103E8A007F81124716E478AFF278AEE2FF08E2C308
:103E9A009F5022D20512422678ABE2FB08E2FA08CA
:103EAA00E2F978AFE2F582758300EF12072378AF63
:0D3EBA00E204F280D4C2051242260248360E
:1043DE0078A7EFF208EBF208EAF208E9F27BFE7A30
:1043EE000079A77D01123F577F1412484578A8E245
:0C43FE00FB08E2FA08E2F97D02023E7DB5
:103A4B007BFE7A0079A57FF31243DE78A5E2FFE4D3
:103A5B00FCFDFE780812095BC004A905AA06AB079A
:103A6B0078A6E2FFD000EB4FFFEAFEE9FDE8FC7819
:103A7B00A112096E78A10808E2FE08E254FCFFE4EB
:103A8B00FDFC78A112096EE47FA47E44FDFC78A1B5
:103A9B00E2FB08E2F908E2FA08E2CBF81207E27857
:0C3AAB0010120947EF24B3FFEE34EDFECB
:013AB70022EC
:103AB8007BFE7A0079A57FF51243DE78A5E2FFE464
:103AC800FCFDFE780812095BC004A905AA06AB072D
:103AD80078A6E2FFD000EB4FFFEAFEE9FDE8FC78AC
:103AE800A112096E78A10808E2FE08E254FCFFE47E
:103AF800FDFC78A112096EE47FD47E30FDFC78A12C
:103B0800E2FB08E2F908E2FA08E2CBF81207E278E9
:0C3B180010120947EF24A8FFEE34FDFE58
:013B2400227E
:0B4895007F801246FDB39209024836F6
:10460F00123A4B7C007D0A1207AC789BEEF208EF52
:0C461F00F2123AB8789DEEF208EFF22299
:0848C300789BE2FE08E2FF22EF
:0848CB00789DE2FE08E2FF22E5
:03490D00A20922DA
:1005280002067CEC5D046005E8590470030206725B
:1005380012063D580460F6EC4860F2EC7004FDFECB
:10054800FF22C860DB2481C85009C39860025006A6
:100558000206799850CAF582E9294B4A7005AB82A0
:1005680002066875F0007C1A7880C3EF9BEE9AED5E
:1005780099400DC3EF9BFFEE9AFEED99FDE842F01E
:10058800DC23ACF0D0E0FFD0E0FED0E0FDAB822071
:10059800E7101BEB60BAEC2CFCEF33FFEE33FEEDFB
:1005A80033FD020654E803F830E705C0F075F000A3
:1005B800EF2FFFEE33FEED33FD40B830E7C280AADF
:1005C80075F020800E75F010800575F0087D007EAE
:1005D800007F003392D530D5031208FFEC3340106A
:1005E800EF33FFEE33FEED33FDEC33FCD5F0ED22B7
:0E05F800E5F0247EA2D513CC92E7CDCEFF22F3
:10060600EDD2E7CD33EC3392D524814006E4FFFEEC
:10061600FDFC22FCE4CFCECDCC24E0501174FF804B
:10062600EDC3CC13CCCD13CDCE13CECF13CF0470E8
:07063600F030D5DE0208FFE1
:10063D00E9D2E7C933E833F892D5EDD2E7CD33EC03
:07064D0033FC5002B2D5227C
:10065400EC30E7100FBF000C0EBE00080DBD000407
:100664000BEB6014A2D5EB13FCED92E7FD2274FFB3
:10067400FCFDFEFF22E480F8A2D574FF13FC7D800C
:03068400E480EF20
:1032AC00021940E493A3F8E493A34003F68001F2DF
:1032BC0008DFF48029E493A3F85407240CC8C33323
:1032CC00C4540F4420C8834004F456800146F6DFF2
:1032DC00E4800B0102040810204080903CFBE47E4B
:1032EC00019360BCA3FF543F30E509541FFEE493E7
:1032FC00A360010ECF54C025E060A840B8E493A3AE
:10330C00FAE493A3F8E493A3C8C582C8CAC583CAD8
:10331C00F0A3C8C582C8CAC583CADFE9DEE780BE90
:013D4A000078
:10068700C2D530F707B2D563F0FF05F030E70CB2FB
:10069700D5F4048463F0FF05F080018430D502F4BB
:0206A70004222B
:1006A900BB010689828A83E0225002E722BBFE024F
:0906B900E32289828A83E4932282
:1006C200BB010CE58229F582E5833AF583E02250ED
:1006D20006E92582F8E622BBFE06E92582F8E22237
:0D06E200E58229F582E5833AF583E4932251
:1006EF00BB010989828A83F8E028F022500327F79B
:1006FF0022BBFE05F8E328F3228A838982F8E4936C
:02070F0028229E
:10071100BB010689828A83F0225002F722BBFE01C7
:02072100F322C1
:10072300F8BB010DE58229F582E5833AF583E8F00C
:10073300225006E92582C8F622BBFE05E92582C8B8
:02074300F222A0
:10074500EF8DF0A4A8F0CF8CF0A428CE8DF0A42EC8
:02075500FE2282
:10075700BC000BBE0029EF8DF084FFADF022E4CC86
:10076700F875F008EF2FFFEE33FEEC33FCEE9DEC4F
:10077700984005FCEE9DFE0FD5F0E9E4CEFD22ED95
:10078700F8F5F0EE8420D21CFEADF075F008EF2FDF
:10079700FFED33FD4007985006D5F0F222C398FDD0
:0507A7000FD5F0EA226D
:1007AC00C2D5EC30E709B2D5E4C39DFDE49CFCEE68
:1007BC0030E715B2D5E4C39FFFE49EFE120757C382
:1007CC00E49DFDE49CFC800312075730D507C3E47D
:0607DC009FFFE49EFE22D7
:1007E200E88FF0A4CC8BF0A42CFCE98EF0A42CFCB6
:1007F2008AF0EDA42CFCEA8EF0A4CDA8F08BF0A434
:100802002DCC3825F0FDE98FF0A42CCD35F0FCEB92
:100812008EF0A4FEA9F0EB8FF0A4CFC5F02ECD3957
:0F082200FEE43CFCEAA42DCE35F0FDE43CFC22C4
:1008310075F008758200EF2FFFEE33FECD33CDCC7E
:1008410033CCC58233C5829BED9AEC99E582984001
:100851000CF582EE9BFEED9AFDEC99FC0FD5F0D6DE
:10086100E4CEFBE4CDFAE4CCF9A88222B800C1B908
:100871000059BA002DEC8BF084CFCECDFCE5F0CB46
:10088100F97818EF2FFFEE33FEED33FDEC33FCEB7F
:1008910033FB10D703994004EB99FB0FD8E5E4F93A
:1008A100FA227818EF2FFFEE33FEED33FDEC33FC27
:1008B100C933C910D7059BE99A4007EC9BFCE99A1B
:1008C100F90FD8E0E4C9FAE4CCFB2275F010EF2F60
:1008D100FFEE33FEED33FDCC33CCC833C810D70760
:1008E1009BEC9AE899400AED9BFDEC9AFCE899F89B
:0E08F1000FD5F0DAE4CDFBE4CCFAE4C8F9222E
:10402A00C2D5E830E70FB2D5E4C39BFBE49AFAE4C1
:10403A0099F9E498F8EC30E717B2D5124060120803
:10404A006DE4C39BFBE49AFAE499F9E498F88003D7
:10405A0012086D30D50DE4C39FFFE49EFEE49DFD7A
:04406A00E49CFC22B4
:0E08FF00C3E49FFFE49EFEE49DFDE49CFC220A
:10090D00EB9FF5F0EA9E42F0E99D42F0EC6480C861
:06091D0064809845F02201
:10092300EB9FF5F0EA9E42F0E99D42F0E89C45F02A
:0109330022A1
:10093400E8600FECC313FCED13FDEE13FEEF13FFA1
:03094400D8F122C5
:10094700E86010ECA2E713FCED13FDEE13FEEF13C6
:04095700FFD8F022B3
:10095B00E8600FEFC333FFEE33FEED33FDEC33FCFA
:03096B00D8F1229E
:0C096E00ECF208EDF208EEF208EFF222C5
:10097A00F5F0C582A4C582C5F0C583A42583F58395
:01098A00224A
:10098B00D083D082F8E4937012740193700DA3A3FB
:10099B0093F8740193F5828883E47374029368600F
:0609AB00EFA3A3A380DF0F
:0609B1008A838982E473D1
:00000001FF
