:0300000002328A3F
:10328A0078FFE4F6D8FD9000007F007E03E4F0A307
:0A329A00DFFCDEFA7581210232DF4D
:104620001241A31242BA12489F123C9F123F051238
:0B46300035F812488A782274FFF2224D
:10194000789F7401F21246207F141247FD782A74A2
:1019500002F23003FDC2037818E275F00A84E5F064
:101960007035780DE2FF60096402602BEF6403605C
:1019700026782AE27014740AF21248F4EF60031217
:10198000463B1249025003124604123879781AE293
:10199000640660031227421248D6789EEFF2601266
:1019A000C394107480948050047F1480027F2812A6
:1019B00047FD789EE224FE7003021A8F24FE700316
:1019C000021A9424F47003021B3624B07003021B25
:1019D00084245F6003021B8F780DE214B40B004077
:1019E00003021B8F9019F275F003A4C58325F0C57F
:1019F0008373021A13021A47021A52021A65021A54
:101A00008A021A8A021A8A021A8A021A8A021A8711
:101A1000021A8A780AE2FF24FD601A14601D24F875
:101A2000501F240A6003021B8F78227402F2780D83
:101A3000EFF2021B8F782274068003E4784CF28068
:101A400000780AE2021B717822E2701312445502F8
:101A50001B7D7822E26404700612431C021B7D1277
:101A600044D4021B8F784CE2FF3395E0FEEF4E70BA
:101A7000057842E26006EF64094E7005123E288048
:101A8000091245CC021B8F1247937F01021B7F78FE
:101A90009F7401F2789EE2640470040874FFF27887
:101AA0000DE2B40C004003021B8F901AB1F82828F5
:101AB00073021AD5021AD7021AE1021AE1021AEBCE
:101AC000021AF5021AFF021B09021B12021B1B025B
:101AD0001B24021B2D8044789FE2FF12477F021BCC
:101AE0008F789FE2FF123324021B8F789FE2FF1250
:101AF000356C021B8F789FE2FF1246A4021B8F7881
:101B00009FE2FF124656021B8F789FE2FF1246703B
:101B1000807D789FE2FF12468A8074789FE2FF12F0
:101B20004567806B789FE2FF1246BE8062789FE235
:101B3000FF1246D88059780DE2B40C005051901B2A
:101B400045F8282873021B69021B70021B7D021BCB
:101B50007D021B76021B79021B79021B79021B791D
:101B6000021B79021B79021B79780D7401F2801F28
:101B7000E4780DF28019123F057F028002E4FF1223
:101B80004480800B780DE224F57004E4783FF2780D
:101B90000DE2B40C005065901B9EF8282873021BC0
:101BA000C2021BC7021BCC021BD1021BD6021BDBCD
:101BB000021BE0021BE5021BEA021BEF021BF40200
:101BC0001BF9123F9380351233B78030122CCA8034
:101BD0002B122DED802612124680211242EB801C22
:101BE0001248DD801712370480121248E3800D126C
:101BF000378480081228B9800312480D7819E2044E
:101C0000F27818E204F2300811781AE26406700AD9
:101C10007818E2540170031234497819E2D3943BE6
:101C2000748094804002E4F27818E2D3943B74808C
:101C300094805003021952E4F27805E204F2781A13
:101C4000E275F003A424A5F582E43421F583E4933E
:0D1C5000FE740193AA06F91209B10219529F
:101F2600007F7F40407F7F007F7F08087F7F000320
:101F36001F227E7F0300007F7F49497F3600404095
:101F46007F7F4040007F7F4848783000003E7F41D9
:101F5600416322007F7F4848783000031F227E7F3E
:101F6600030000707808087F7F0040407F7F404074
:101F7600007F7F49497F3600007F7F40407F7F009A
:101F860040407F7F4040007F7F08087F7F00003E03
:101F96007F414163220060731B0F7C70007F7F4985
:101FA600494F4600007F7F49497F36003E7F4141C9
:101FB6006322007F7F0814636300007C7C40407CC2
:101FC6007C007C7C10107C7C000C3C48787C0C00EF
:101FD600007C7C54547C280040407C7C4040007C43
:101FE6007C505070200000387C44446C28007C7C77
:101FF60050507020000C3C48787C0C00006070103B
:10200600107C7C0040407C7C4040007C7C54547CAE
:102016002800007C7C40407C7C0040407C7C40402A
:10202600007C7C10107C7C0000387C44446C2800CA
:1020360064741C187060007C7C54545C4800007CFE
:102046007C54547C2800387C44446C28007C7C10EA
:10205600386C440000607F7F60006F6F007F3F1028
:102066001F103F7F007F7F4949007F7F63361C003A
:102076001F3F6C6C3F1F00607F7F60007F7F494978
:102086003F7F4C7F3F007F7F0303003F7F4C7F3FB6
:10209600007F7F6C6C370000003E41417149493E2C
:1020A600000000063A433A06000000007F7F686899
:1020B600003E7F417F3E007F3F180C7E7F00607FA1
:1020C6007F607F7F41633E1C006F6F00327B496FEC
:1020D60026007F7F446C38007F3F101F103F7F0033
:1020E6006F6F007F7F63361C007F7F6C6C387F7F4D
:1020F600497F36007F7F6C6C37006F6F003E7F41F3
:102106004D2E0000003E41417149493E000000004D
:1021160000000011117D1111000000000000007F79
:102126007F417F7F007F7F381C7F7F00000000009B
:102136000000007F7F417F7F007F7F6C6C007F7F88
:102146006C6C00000000607F7F6000730B7E7C007B
:102156007F7F4C380036007F7F49497F36007F7F7E
:102166004C4E7B3100360000705070003E7F63415C
:10217600410000000011117D111100007F413E0059
:1021860032492600224936002345390022493600C5
:10219600207F0000123455555555555432100548C8
:1021A600650238040238040238040238040238048E
:0321B6000048C816
:103D9100810D00810A02810500811A0081000081E4
:043DA1000100C180DC
:1042BA00E4F59375943FF5917592FFF5957596FF20
:1042CA00F5B175B27F7834E27817F2C203A2C792C9
:1042DA0002123CFF7807E4F2087400F2087408F24C
:0142EA0022B1
:0D000E0053B0807590FF75A0FF43803F2226
:102B7E007801E2FEC394057480948050117817E2B8
:102B8E00FDEEB5050312000E7801E204F222E478A0
:102B9E0001F212000E20020A18E2FEC374159EFF07
:102BAE0080047800E2FFEFB416004003022C5C9024
:102BBE002BC4F8282873022C06022C0A022C0E02B3
:102BCE002C12022C16022C1A022C1E022C22022C63
:102BDE0026022C2A022C2E022C32022C36022C3AE1
:102BEE00022C3E022C42022C46022C4A022C4E0291
:102BFE002C52022C56022C5AC2908052C291804EF8
:102C0E00C292804AC2938046C2948042C295803E50
:102C1E00C296803AC2978036C2A08032C2A1802E60
:102C2E00C2A2802AC2A38026C2A48022C2A5801E70
:102C3E00C2A6801AC2A78016C2808012C281800EE0
:102C4E00C282800AC2838006C2848002C2852002AC
:102C5E000CC374159F2408F8E6F5B0804474082F51
:102C6E00F8E6FEC45402FDEEC4131354014DFE7477
:102C7E00082FF8E6FD131354044EFEED54084EFED5
:102C8E0074082FF8E6FD25E025E054104EFEEDC445
:102C9E0054204EFE74082FF8E6C4333354404EF5DC
:102CAE00B07800E204F2E2C3941674809480400B74
:0B2CBE00E4F2A2C79202200302D2033E
:012CC90022E8
:10448000EF24FE60030470173003FD12000EC2AF6C
:10449000EF64017005123FD980031241A3D2AFE44B
:0A44A000780DF27805F2781AF22286
:10387900123961781BE27069300068C2007842E24F
:10388900603A781DE2FF7843E26F7030781CE2FFFE
:103899007844E2B50726781EE27E007BFE2444F9CF
:1038A900EE3400FA1206A9603A7833E2FF7C007D13
:1038B9003C1207457827EEF208EFF2227843E2FF3F
:1038C9003395E0FE781DE2D39FEE6480F87480980A
:1038D9004011781CE2700C782FE260077F280247BC
:0338E900FDD2000D
:0138EC0022B9
:0C3CF3007807E4F2087400F2087408F28C
:103CFF007832E214601514601C14602314602A805B
:103D0F000078137400F20874A0F22278137400F292
:103D1F000874C8F22278137400F20874F0F2227853
:103D2F00137401F2087418F22278137401F20874F4
:033D3F0040F2222D
:0B454400E4FF12454F12454F12454F97
:10454F007807E2FB08E2FA08E2F9EF120711E2241A
:08455F0001F218E23400F2221F
:103DDE0078A07421F2087482F2E4FFEFC394167493
:103DEE00809480503478A0E2FC08E2F5828C83E463
:103DFE0093FE7807E2FB08E2FA08E2F9EE120711E9
:103E0E000F78A1E22401F218E23400F27809E224DC
:093E1E0001F218E23400F280C246
:013E27002278
:1023D9007831E224FE70030224851470030224DE9E
:1023E900147003022522240470297819E2FD7C0067
:1023F900C3940F748094805005E4FF022564C3EDF3
:10240900942DEC6480948050057F03022564E4FFD9
:102419000225647819E2FD7C00C3940574809480D8
:102429005005E4FF022564C3ED940DEC64809480AB
:1024390050057F01022564C3ED9416EC64809480F5
:1024490050057F02022564C3ED9427EC64809480D3
:1024590050057F03022564C3ED9430EC64809480B9
:1024690050057F02022564C3ED9438EC64809480A2
:1024790050057F01022564E4FF0225647819E2FD15
:102489007C00C39406748094805005E4FF0225649F
:10249900C3ED9412EC6480948050057F0302256497
:1024A900C3ED941EEC6480948050057F040225647A
:1024B900C3ED942AEC6480948050057F050225645D
:1024C900C3ED9436EC6480948050057F0602256440
:1024D900E4FF0225647819E2FD7C00C39407748047
:1024E90094805004E4FF8073C3ED9416EC648094E7
:1024F9008050047F078064C3ED9425EC6480948048
:1025090050047F038055C3ED9434EC64809480506B
:10251900047F088046E4FF80427819E2FD7C00C30D
:102529009407748094805004E4FF802FC3ED9416BF
:10253900EC6480948050047F018020C3ED9425ECE5
:102549006480948050047F028011C3ED9434EC645C
:1025590080948050047F018002E4FFE4FEEEC3947E
:102569000474809480503675F004EFA42EF582E44B
:1025790035F0F583E582241EF582E5833400F58381
:10258900E493FD7807E2FB08E2FA08E2F9ED1207A5
:0D259900110EE22401F218E23400F280C0BD
:0125A6002212
:093BED00E4FF12454F7810E2FFDD
:043BF60078A6EFF2CC
:103BFA00E408F278A7E2FDC3940474809480503EEE
:103C0A0018E275F004A47C002DFFEC35F0FE781460
:103C1A00E22FFF18E23EFE8F82F583E493FD7807D8
:103C2A00E2FB08E2FA08E2F9ED12071178A7E204CA
:0E3C3A00F27809E22401F218E23400F280B5BB
:013C48002259
:10406300E4FEEEC3940374809480503675F003EF3E
:10407300A42EF582E435F0F583E5822482F582E50A
:10408300833400F583E493FD7807E2FB08E2FA0842
:10409300E2F9ED1207110EE22401F218E23400F204
:0240A30080C0DB
:0140A50022F8
:053EBC00E2FFE4FBFD44
:103EC10078A4EFF208EDF2701FEB600F18E275F0C5
:103ED1000A84D3940074809480400D78A4E275F034
:103EE1000A84FF123BF68003124544E4FF12454F5A
:103EF10078A5E2700B18E275F00A84AFF0023BF688
:043F010012454422FF
:1043FF00781DE2FDD3941874809480500A18E294CB
:10440F003C748094804003023DDEAF05E4FBFD1257
:0B441F003EC11223D9781C123EBC22C3
:103C49007820E2D3940C74809480500A18E294206E
:103C5900748094804003023DDE781FE2FF7B01E41B
:103C6900FD123EC1E4FFEFC3940474809480502098
:103C7900EF90002293FE7807E2FB08E2FA08E2F9E6
:103C8900EE1207110FE22401F218E23400F280D695
:053C99007820123EBC82
:013C9E002203
:10311500781EE214B40700507090312C75F003A4AA
:10312500C58325F0C5837302314102314C02315705
:1031350002316202316D02317802318378A0741F49
:10314500F2087426F2804B78A0741FF208743CF2E2
:10315500804078A0741FF2087452F2803578A0740C
:103165001FF2087468F2802A78A0741FF208747E32
:10317500F2801F78A0741FF2087494F2801478A06E
:10318500741FF20874AAF2800978A07421F20874F9
:1031950082F2E4FFEFC3941674809480503478A0D3
:1031A500E2FC08E2F5828C83E493FE7807E2FB08F3
:1031B500E2FA08E2F9EE1207110F78A1E22401F212
:1031C50018E23400F27809E22401F218E23400F240
:0231D50080C2B6
:0131D70022D5
:1021B900E478A1F212490250161248B87C007D0554
:1021C9001207AC78A1EFF230E01FE204F2801A1294
:1021D90048F4EF601D1200037C007D051207AC78FE
:1021E900A1EFF230E003E204F278A1E2A2E713F2F0
:1021F90080067823E278A1F2783FE2FF78A1E22F06
:10220900F2E2FEFD3395E0FCD3ED9463EC64809437
:10221900804071E418F278A0E2C394047480948039
:1022290050207807E2FB08E2FA08E2F9E412071104
:1022390078A0E204F27809E22401F218E23400F20B
:1022490080D4E478A0F278A0E2FFC3940574809466
:10225900805026EF90007493FF7807E2FB08E2FABA
:1022690008E2F9EF12071178A0E204F27809E224F2
:1022790001F218E23400F280CDE4FF12454F124515
:102289004F022399EEFF3395E0FED3EF9409EE64F4
:102299008094804063E478A0F278A0E2FFC39405BB
:1022A90074809480400302233108E2FE75F00A121B
:1022B9000687FD3395E08D82F583740512097AE569
:1022C900822FF582E43583F583E5822442F582E5A0
:1022D900833400F583E493FF7807E2FB08E2FA0808
:1022E900E2F9EF12071178A0E204F27809E2240179
:1022F900F218E23400F280A1E478A0F278A0E2C3F7
:1023090094057480948050207807E2FB08E2FA086B
:10231900E2F9E412071178A0E204F27809E2240153
:10232900F218E23400F280D4E4FF12454FE478A0B9
:10233900F278A0E2FFC3940574809480505208E2B9
:10234900FE75F00A120687AEF0EEFD3395E08D8238
:10235900F583740512097AE5822FF582E43583F550
:1023690083E5822442F582E5833400F583E493FF13
:102379007807E2FB08E2FA08E2F9EF12071178A000
:10238900E204F27809E22401F218E23400F280A1B1
:10239900E4FF12454F12454FE478A0F278A0E2FF1E
:1023A900C39409748094805026EF90007993FF7844
:1023B90007E2FB08E2FA08E2F9EF12071178A0E256
:0F23C90004F27809E22401F218E23400F280CD28
:0123D80022E2
:10304E001248A878A0EEF208EFF2E4FBEBFF3395FE
:10305E00E0FEC3EF9404EE648094805009740E2B4E
:10306E00F8E4F20B80E67B03D378A1E2940018E239
:10307E00648094805011EBFF3395E0FED3EF940003
:10308E00EE64809480402C78A0E2FE08E2FF7C0083
:10309E007D0A1207AC740E2BF8EDF21B78A0E2FE3F
:1030AE0008E2FF7C007D0A1207AC78A0EEF208EF72
:1030BE00F280B5780EE2FF123BF6E4FF12454F7830
:1030CE000FE2FF123BF6123BEDE4FF12454F78077D
:1030DE00E2FB08E2FA08E2F97403120711E2240196
:1030EE00F218E23400F218E2FB08E2FA08E2F97490
:1030FE0003120711E22401F218E23400F212454FD6
:07310E007811E2FF023BF61D
:102A2400E478A0F208F212490250051248C0800B63
:102A34001248F4EF6460700A1248B078A0EEF2080D
:102A4400EFF2E4FBEBFF3395E0FEC3EF9405EE6495
:102A54008094805009740E2BF8E4F20B80E67B041A
:102A6400D378A1E2940018E294005011EBFF33955F
:102A7400E0FED3EF9400EE64809480402C78A0E2D2
:102A8400FE08E2FF7C007D0A120757740E2BF8ED56
:102A9400F21B78A0E2FE08E2FF7C007D0A120757D1
:102AA40078A0EEF208EFF280B7780EE2703208E216
:102AB400FF123BF6123BEDE4FF12454F7807E2FBB1
:102AC40008E2FA08E2F97403120711E22401F21889
:102AD400E23400F212454F7811E2FF123BF68020F7
:102AE400E4FF12454F780EE2FF123BF6E4FF124575
:102AF4004F780FE2FF123BF6123BEDE4FF12454F15
:102B0400E4FF12454F7807E2FB08E2FA08E2F974A1
:102B140062120711E22401F218E23400F218E2FB17
:102B240008E2FA08E2F97464120711E22401F218C7
:102B3400E23400F218E2FB08E2FA08E2F97408123F
:102B44000711E22401F218E23400F218E2FB08E271
:102B5400FA08E2F97413120711E22401F218E234BC
:102B640000F218E2FB08E2FA08E2F97423120711F2
:092B7400E22401F218E23400F23F
:012B7D002235
:10425400781DE2FFC394187480948050257834E26A
:104264006406701EEF781D30E009E2C313902198B4
:10427400938008E2C31390219893C4540FFF7817D6
:03428400EFF22234
:103F9300123CF3124254781AE2B407005030903FB7
:103FA300A8F8282873023FBD023FBF023FC2023F69
:103FB300C5023FC8023FCB023FCE8016023C4902F6
:103FC30031150221B902304E022A24024128E47835
:063FD3001AF21243FF2266
:10428700ED1206EF1206A9FF78A5E2D36480F8EFD6
:10429700648098400678A4E21207111206A9FF78F5
:1042A700A4E2C36480F8EF648098500678A5E21210
:0342B700071122CA
:10477F007BFE7A00790AAD0778A47402F208740BF5
:04478F00F202428769
:1033B700780AE224FEB40A0050669033CF75F00312
:1033C700A4C58325F0C583730233ED0233F30233BB
:1033D700F90233FF02340502340B023411023417A9
:1033E70002341D0234237E207F5A80347E207F7072
:1033F700802E7E207F8680287E207F9C80227E20D4
:103407007FB2801C7E207FC880167E207FDE8010E2
:103417007E207FF4800A7E217F0A80047E217F6CD4
:10342700E4FDEDC394167480948050158F828E83CB
:10343700E493FC74082DF8A6040D0FBF00010E805D
:01344700E1A3
:013448002261
:102CCA00123CF37818E2FF7E00C3940F748094805C
:102CDA005004C2048011C3EF942DEE648094805096
:102CEA0004D2048002C2047822E26003022D7778BB
:102CFA00A0F278A0E2C394097480948050207807E7
:102D0A00E2FB08E2FA08E2F9E412071178A0E20409
:102D1A00F27809E22401F218E23400F280D4E4786D
:102D2A00A0F278A0E2FFC39404748094805026EF46
:102D3A0090002A93FF7807E2FB08E2FA08E2F9EF2B
:102D4A0012071178A0E204F27809E22401F218E2EB
:102D5A003400F280CD781BE2FF7822E2FD700A305F
:102D6A000403ED60047D0180747D008070781DE2AB
:102D7A00FF7822E2FD6402700C300405ED64026003
:102D8A00047D0180027D00E4FB123EC1E478A0F2DA
:102D9A0078A0E2FFC39404748094805026EF9000D8
:102DAA002A93FF7807E2FB08E2FA08E2F9EF120732
:102DBA001178A0E204F27809E22401F218E2340060
:102DCA00F280CD781CE2FF7822E2FD6401700C30BB
:102DDA000405ED640160047D0180027D00E4FB12BC
:022DEA003EC1E8
:012DEC0022C4
:102DED00123CF37818E2FF7E00C3940F7480948038
:102DFD005004C2048011C3EF942DEE648094805072
:102E0D0004D2048002C2047822E264067037FF12F5
:102E1D00454F12454FE4FBFD7F14123EC1E4FF12F6
:102E2D00454F7821E2FF08E2FD6406700C30040581
:102E3D00ED640660047D0180027D00E4FB123EC15D
:102E4D00E4FF02454F781FE2FF7822E2FD64047033
:102E5D000C300405ED640460047D0180027D007B6F
:102E6D0001123EC1E4FFEFC394047480948050209E
:102E7D00EF90002293FE7807E2FB08E2FA08E2F9F0
:102E8D00EE1207110FE22401F218E23400F280D69F
:102E9D007820E2FF7822E2FD6405700C300405ED28
:0F2EAD00640560047D0180027D00E4FB123EC1DC
:012EBC0022F3
:10124600123CF3784CE2FF3395E0FEEF4E70507897
:1012560042E278A260097421F2087420F2800774D1
:1012660021F2087436F2E478A0F278A0E2FDC39485
:10127600167480948040030215C578A2E2FA08E24B
:10128600F5828A83E493FC74082DF8A60478A0E21C
:1012960004F278A3E22401F218E23400F280CBEFE4
:1012A60064014E6011784CE2FF3395E0FEEF640274
:1012B6004E60030213637818E2FF7E00C3940F7436
:1012C6008094805004C2048011C3EF942DEE648094
:1012D60094805004D2048002C2047843E2FF784C22
:1012E600E2FD3395E0FCED64014C700D300406ED33
:1012F60064014C60047D0180027D00E4FB123EC166
:10130600E478A0F278A0E2FFC3940474809480503D
:1013160026EF90002A93FF7807E2FB08E2FA08E23C
:10132600F9EF12071178A0E204F27809E22401F23B
:1013360018E23400F280CD7844E2FF784CE2FD33C7
:1013460095E0FCED64024C700D300406ED64024C31
:1013560060047D0180027D00E4FB023EC17818E254
:10136600FF7E00C3941B748094805004C2048011D5
:10137600C3EF9421EE648094805004D2048002C2AC
:1013860004784CE224FDB40700506E90139F75F06C
:1013960003A4C58325F0C583730213B40213BF02E9
:1013A60013CA0213D50213E00213EB0213F678A256
:1013B600741FF20874C0F2804078A2741FF2087499
:1013C600D6F2803578A2741FF20874ECF2802A787F
:1013D600A27420F2087402F2801F78A27420F20828
:1013E6007418F2801478A27420F208742EF2800920
:1013F60078A27420F2087444F2E478A0F278A0E2AD
:10140600FFC394167480948040030215C5E408F265
:10141600EF12098B144801144802147C04147C054D
:1014260014B00714B00814E40A14E40B15170D15CC
:10143600170E154110154111156B13156B1400008D
:101446001597784CE2FF3395E0FEEF64034E600596
:101456007845E27052EF64034E60030215977845B3
:10146600E2FF6003300440EF600302159720040397
:10147600021597021592784CE2FF3395E0FEEF6471
:10148600044E60057846E2701EEF64044E60030267
:1014960015977846E2FF600330040CEF60030215EF
:1014A60097200403021597021592784CE2FF3395B4
:1014B600E0FEEF64054E60057847E2701EEF6405B6
:1014C6004E60030215977847E2FF600330040CEF85
:1014D6006003021597200403021597021592784CB3
:1014E600E2FF3395E0FEEF64064E60057848E27051
:1014F6001EEF64064E60030215977848E2FF60030C
:1015060030040CEF60030215972004030215978040
:101516007B784CE2FF3395E0FEEF64074E6005787A
:1015260049E27015EF64074E70677849E2FF600381
:10153600300406EF705B3004588051784CE2FF337C
:1015460095E0FEEF64084E6005784AE27015EF6498
:10155600084E703D784AE2FF6003300406EF7031B2
:1015660030042E8027784CE2FF3395E0FEEF6409C5
:101576004E600418E27015EF64094E7014784BE261
:10158600FF6003300406EF700830040578A174018B
:10159600F278A2E2FE08E2F5828E83E493FF78A158
:1015A600E2FEEF4EFF18E22408F8A60778A0E20450
:0F15B600F278A3E22401F218E23400F2021403E7
:0115C5002203
:104656007BFE7A007932AD079041F7E49378A4F2B5
:0A46660090420BE49308F202428731
:0648DD00123CF30243FF50
:104670007BFE7A007930AD079041F5E49378A4F29F
:0A468000904209E49308F202428719
:103704007807E4F2087400F2087408F2E4FFEFC3E7
:103714009410748094805020EF90214C93FE78078D
:10372400E2FB08E2FA08E2F9EE1207110FE22401C3
:10373400F218E23400F280D6E4FF12454FEFC3944E
:10374400057480948050387830E275F005A42FF524
:1037540082E435F0F583E5822442F582E583340082
:10376400F583E493FE7807E2FB08E2FA08E2F9EE57
:0F3774001207110FE22401F218E23400F280BEB6
:013783002223
:10468A007BFE7A007931AD079041F6E49378A4F283
:0A469A0090420AE49308F2024287FE
:0648E300123CF30243FF4A
:104567007BFE7A007934AD079041F9E49378A4F2A1
:1045770090420DE49308F21242877834E27817F2FA
:0345870002425499
:103784007807E4F2087400F2087408F2E4FFEFC367
:103794009410748094805020EF90215C93FE7807FD
:1037A400E2FB08E2FA08E2F9EE1207110FE2240143
:1037B400F218E23400F280D6E4FF12454FEFC394CE
:1037C400057480948050387834E275F005A42FF5A0
:1037D40082E435F0F583E5822442F582E583340002
:1037E400F583E493FE7807E2FB08E2FA08E2F9EED7
:0F37F4001207110FE22401F218E23400F280BE36
:0138030022A2
:1046A4007BFE7A00792FAD079041F4E49378A4F26D
:0A46B400904208E49308F2024287E6
:1042EB00782FE260067E217F2080047E217F36E4DA
:1042FB00FDEDC394167480948050158F828E83E4E9
:10430B0093FC74082DF8A6040D0FBF00010E80E17D
:01431B00227F
:1046BE007BFE7A007940AD07904205E49378A4F230
:0A46CE00904219E49308F2024287BB
:1028B9007807E4F2087400F2087408F27840E2FF3D
:1028C9003395E0C36480948040028001D392043040
:1028D9000405EFF40480037840E278A1F2E478A0DB
:1028E900F278A0E2FFFD3395E0FCC3ED9403EC64BC
:1028F900809480500D740E2FF8E4F278A0E204F26F
:1029090080DF78A07402F278A1E2FFD3940074808A
:102919009480501218E2FD3395E0FCD3ED9400EC5D
:1029290064809480401CEF75F00A8478A0E2240E3C
:10293900F8E5F0F278A0E214F2EF75F00A8408F2F3
:1029490080C578A17403F2200404E22405F2780E0C
:10295900E2701178A1E22405F2780FE2700678A1FD
:10296900E22405F2E478A0F278A1E2FF18E2FD334F
:1029790095E0FCC3ED9F7480F86C9850207807E2CD
:10298900FB08E2FA08E2F9E412071178A0E204F27E
:102999007809E22401F218E23400F280CB30043DD8
:1029A900E478A0F278A0E2FF3395E0FEC3EF940447
:1029B900EE6480948050217807E2FB08E2FA08E28D
:1029C900F9740812071178A0E204F27809E22401E7
:1029D900F218E23400F280CCE4FF12454F780EE29F
:1029E900FFD39400748094804008123BF6E4FF12F0
:1029F900454F780EE2D3940074809480500A08E21F
:102A0900940074809480400C780FE2FF123BF6E446
:0B2A1900FF12454F7810E2FF023BF671
:1046D8007BFE7A00793FAD07904204E49378A4F218
:0A46E800904218E49308F2024287A2
:0F480D007807E4F2087400F2087408F20221B987
:10380400781AE275F003A424A4F582E43421F58344
:10381400E493FF7805E2D39F405A781AE204F2E475
:103824007805F2781AE2D39407748094804002E415
:10383400F2781AE26404700B1248F4EF7005781AF7
:103844007405F2781AE2640570121248F4EF6460A9
:10385400600A1249024005781A7406F2781AE26482
:10386400067011300808D20178067416F222E47842
:053874001AF2C201225E
:0D4865007830E2640170037805F202380437
:0748C8002001031238042255
:1044FB00EFFD7C00C394A074809480400574C02FA2
:10450B00FF22C3ED9420EC64809480400574E02F6F
:05451B00FF227F1F22BA
:102F8600780CE278A0F27815E278A1F2C394057481
:102F96008094804012E4FF12454F7816E204F278DE
:102FA600A0E204F2E408F27816E2C3941674809460
:102FB60080400302304D780BE2FF78A0E2FEC39F0B
:102FC60050697802E2FB08E2FA08E2F98E8275831C
:102FD600001206C2FEFF1244FBAE0778A1E2FFC351
:102FE600940574809480503B75F005EEA42FF5820D
:102FF600E435F0F583E5822468F582E5833401F54E
:1030060083E493FF64A5601B7816E2C3941674806C
:103016009480500812454F7816E204F278A1E20433
:10302600F280B878A0E204F2E408F27816E2C394DB
:1030360016748094804003022FADE4FF12454F784A
:0730460016E204F2022FADB7
:01304D002260
:1047DD00C201E4780CF27815F2781AF27805F2221B
:103449002001030234DA7806E2D394007480948070
:103459004005E214F280057815E204F2780BE2FFE8
:1034690008E2FEB5070280667815E2C39405748008
:103479009480503C7802E2FB08E2FA08E2F98E8275
:103489007583001206C2FF1244FB7815E2FE75F03F
:1034990005EFA42EF582E435F0F583E5822468F57D
:1034A90082E5833401F583E49364A570037405F21E
:1034B9007815E2D39405748094804015780CE20461
:1034C900F2E47815F2780BE2FF08E2B50703124738
:0134D900DD15
:0134DA0022CF
:10412800E47816F22001030247DD7806E2D3940012
:104138007480948040247806E2FF7816E2FEC39FDC
:10414800500CE4FF12454F7816E204F280E8EEC303
:0E41580094167480948050058000122F8622E9
:1047ED00EF14780BF27802EBF208EAF208E9F22204
:10001E000000000000080800001C1C00003636001E
:10002E00002436000024240000240000003030009C
:10003E00000606007F7F417F7F00007F7F000F4F0D
:10004E004979794149497F7F7878087F7F79794965
:10005E004F0F7F7F494F0F4040407F7F7F7F497F0B
:10006E007F7879497F7F3040454830705070003E30
:10007E007F6341417C447C00007C5C547454547C0E
:10008E0070107C75545C7C544940407C7C547C746C
:10009E00547C7F41417F00007F004F494979494997
:1000AE00497F7808087F7949494F7F49494F404039
:1000BE00407F7F49497F7949497F3E45413E002136
:1000CE007F0123454931425169460C14245F725118
:1000DE00514E1E294906404F5060367F49363049F1
:1000EE004A3C7E41413F00407F000F494939494912
:1000FE00493E7C04041F7849490F7F4949076040F7
:10010E00403F7E49493F7849493F7F63637F0060A6
:10011E007F006F6B6B7B6B6B6B7F7878087F7B7B65
:10012E004B4F7F7F494F40407F7F7F6B6B7F79695D
:10013E00497F007F417F00007F00004F49790049D1
:10014E00497F0078087F0079494F007F494F004072
:10015E00407F007F497F0079497F000000A5A57D83
:10016E00A5A5A5A5700070A5A5147F147F14122A4D
:10017E007F2A24626408132336495522055060A550
:10018E00A5A51C2241A5A541221CA5A514083E0823
:10019E001408083E08080506A5A5A504040404A530
:1001AE0001A5A5A5A502040810203E41413EA500CB
:1001BE00217F01A521434539A522414936A50C14BD
:1001CE00247FA57251514EA53E494926A540474868
:1001DE0070A536494936A53249493EA512A5A5A5B1
:1001EE00A50112A5A5A508142241A51414141414D2
:1001FE0041221408A520404548303E415D553C1F24
:10020E002444241F7F494949363E414141227F41C2
:10021E0041221C7F494949417F484848403E414957
:10022E00492F7F0808087F417F41A5A50201417E25
:10023E00407F081422417F010101A57F2018207FF5
:10024E007F1008047F3E4141413E7F484848303E82
:10025E004145423D7F484C4A31324949492640404A
:10026E007F40407E0101017E700C030C707E010EFA
:10027E00017E6314081463700807087043454951E2
:10028E00617F4141A5A50C123F120441417FA5A5F6
:10029E00102040201001010101014020A5A5A5025A
:1002AE001515150F7F0911110E0E111111020E11D8
:1002BE0011097F0E1515150C083F484020182525ED
:1002CE00253E7F0810100F115F01A5A50201115EDA
:1002DE00A57F040A11A5417F01A5A51F100C100FC3
:1002EE001F08100FA50E1111110E3F2422221C1CE7
:1002FE002222243F1F081008A50815151502107E8E
:10030E001101021E0101021F18060106181E010628
:10031E00011E110A040A11180505051E11131519DF
:10032E0011083641A5A57FA5A5A5A5413608A5A509
:10033E0008100810A5A5A5A5A5A5021E3F1E0230F2
:10034E0049294936184525451E0201417E402A1C81
:10035E00771C2A3F202020607F7F7F7F7F7F7F7FDB
:10036E007F7F3F692969217F7F7F7F7F3E4949419A
:10037E002208142A14227F7F7F7F7F1E2927211EA9
:10038E007F7F7F7F7F413F41A5A5003048483009E0
:10039E00097D0909417F41A5A5115F01A5A51F1082
:1003AE001058A57F7F7F7F7F7F7F7F7F7F7F7F7FBF
:1003BE007F7F0E5515550C7F7F7F7F7F0E15151194
:1003CE000A22142A14087F7F7F7F7F7F7F7F7F7FA3
:1003DE007F7F7F7F7F511F51A5A53F4444443F7FC0
:1003EE00494949467F494949367F40404060033E6E
:1003FE00427E037F4949494177087F087741494941
:10040E0049367F0408107F3F0264083F7F0814229C
:10041E0041011E20407F7F2018207F7F0808087F23
:10042E003E4141413E7F4040407F7F484848303EFC
:10043E004141412240407F4040700909097E3C42C3
:10044E00FF423C63140814637F01017F01700808AA
:10045E00087F7F017F017F7E027E027F407F090938
:10046E00067F0906007F7F0911110E224149493E80
:10047E007F083E413E314A4C487F021515150F1E2E
:10048E00292949061F15150AA51F101018A5030EB8
:10049E00121E030E1515150C1B041F041B1115152A
:1004AE000AA51F0204081F1F4224481F1F040A1119
:1004BE00A50708101FA51F0804081F1F04041FA569
:1004CE000E1111110E1F10101FA51F1412120C0E5B
:1004DE001111110210101F1010180505051E0C1217
:1004EE009F120C110A040A111F01011F01180404A6
:1004FE001FA51F011F011F1E021E021F101F050533
:10050E00021F0502001F1F050502A50A1115150E73
:0A051E001F040E110E081516141F1D
:1044AA0000000001010100FF003B3B17071F0C63DE
:1044BA00FF630000001F003B005A0078009700B518
:0A44CA0000D400F301110130014E8F
:103B87007820E2FFD394027480948040047E008002
:103B9700027E017821E2240CC39EFDEE75F00CA491
:103BA7002F24FEF9EDFF781FE22FFFE433FEED131C
:103BB70013543F7C002FFBEC3EFAE975F01FA4FF7E
:103BC700AEF07D0C1207ACEF2BFFEE3ACF24FFCF00
:103BD70034FFFE7C007D07120757AF05781EEFF212
:053BE70070037407F2F9
:013BEC0022B6
:10442A007820E2FFFD7C006402700F08E25403600A
:10443A00047E1D80027E1CAF0622D3ED9407EC6435
:0A444A0080948040010FEF441EFF34
:014454002245
:103C9F007FD012470B7F0A12434B7F8112434B1287
:103CAF00482B7FD012470B7F0D12434B7F8112435E
:103CBF004B7F0412434BE4FF12434B7840E2FF1259
:103CCF00434B12482B123961781EE278A0F2123B57
:103CDF0087781EE2FF78A0E26F600878217413F2F4
:033CEF0012431C61
:013CF20022AF
:104455007FD012470BE4FF12434BE478A0F278A01B
:10446500E2FFD3940274809480500D12458A124362
:0B4475004B78A0E204F280E602482B26
:10431C00123B877FD012470B7F0312434B78A1745B
:10432C0003F278A1E2FFD3940674809480500D12AE
:0F433C00458A12434B78A1E204F280E602482B37
:104793007FD012470B7F1012434B7840E2FF124346
:0447A3004B02482B52
:103961007FD012470BE4FF12434B12482B7FD11239
:10397100470BE478A1F278A1E2FF7E00D3940674AC
:10398100809480502CEF64067003C38001D39205AC
:1039910012421B78A2EFF212481C78A1E27C007B54
:1039A100FE241BF9EC3400FAEF120711E204F28055
:1039B100C512482B7FD012470B7F1112434B12487F
:1039C1002B7FD112470BC20512421B7823EFF20263
:0239D100482B81
:0433240078A0EFF2AC
:103328007822E2FFFD7C00241BF9EC3400FA78A136
:1033380074FEF208EAF208E9F27BFF74B32DF9ECA7
:103348003444FA1206A9FEEF24AAF9EC3444FA121E
:1033580006A908F27822E26404700512442AAE072E
:1033680078A0E2FF08E2FB08E2FA08E2F9EF1206A9
:10337800EF78A1E2FB08E2FA08E2F91206A9FFD306
:10338800EE6480F8EF648098400678A4E212071192
:1033980078A1E2FB08E2FA08E2F91206A9FF08E2BE
:0E33A800C36480F8EF6480985004EE120711A1
:0133B60022F4
:1044D4007822E2601024FE600A24FE24FD500424A5
:1044E40006700E800678227404F2227822E214F216
:0744F4002278227402F2227B
:104166007821E25403701118E2D39402748094808B
:1041760040067E007F0180047E007F007820E225D5
:10418600E024BAF582E43444F58318E2FD74019321
:0D4196002DFDE4933400CD2FFFED3EFE2201
:0F481C00EFC4540F75F00AA4FEEF540F2EFF22C5
:10458A007E007BFE741B2FF9EE3400FA1206A9FF97
:10459A00EF75F00A84C454F0FEEF75F00A84E5F072
:0345AA002EFF22BF
:1047CC001248EFD2C11248EFA2C29207C2C1A2078F
:0147DC0022BA
:0748CF00A20692C20247CCD1
:1046F20078A0EFF2D2C1D2C21248EFC2C21248EF82
:09470200C2C178A0E2FF02437974
:10470B0078D0EFF2D2C1D2C21248EFC2C21248EF38
:09471B00C2C178D0E2FF02434B59
:0F482B00C2C1C2C21248EFD2C11248EFD2C2229C
:04434B0078D1EFF244
:10434F00E408F2F278D2E2C3940874809480501596
:10435F0018E23392061248CF78D1E2FF25E0F20837
:0A436F00E204F280DFD2060248CF1C
:0443790078A1EFF246
:10437D00E408F2F278A2E2C3940874809480501598
:10438D0018E23392061248CF78A1E2FF25E0F20839
:0A439D00E204F280DFD2C20247CC36
:10421B00D2C2E478D1F218F278D0E2C39408748059
:10422B009480501808E2FF25E0F21247CC50067834
:10423B00D1E24401F278D0E204F280DCA205B39221
:08424B00061248CF78D1E2FF12
:014253002248
:0448EF007F02DFFE67
:0148F30022A2
:0A487F00EF60077E13DEFE1F80F6D7
:01488900220C
:0E483A00EF600B7E127DEBDDFEDEFC1F80F2D8
:01484800224D
:103DA500812A0082270000812900812BFA812C00BD
:073DB50082240000812600BA
:102EBD00E4FF20C6010F20C504EF4402FF20C40427
:102ECD00EF4404FFEF602A7826E2FEB5071D18E2F5
:102EDD002401F218E23400F208E2647D700218E277
:102EED007035EEC454F0782CF2802C7826EFF280F9
:102EFD00267824E2FE08E2FFD39419EE64809480D4
:102F0D00400FEF947DEE64809480500508E2782C9C
:102F1D00F2E47824F208F2782BE26005E214F280F4
:102F2D0020782B74FAF218E26003E214F27828E2AA
:102F3D00700218E2600B7828E224FFF218E234FFE9
:102F4D00F27829E26005E214F2800E7828E2700230
:102F5D0018E26005782974FAF27829E2540ED394B8
:102F6D000874809480400F782BE2D3947D74809404
:082F7D00804005C2C322D2C34B
:012F85002229
:1047FD007829EFF2782B74FAF2E47827F208F22296
:0648D600782CE2FFE4F281
:0148DC0022B9
:1041DF00FF00020000010500071E0101010101009F
:1041EF0000000000FF0001000000000000000000C0
:1041FF000000000000F78000FF0105040401060124
:0C420F00173B01010101010101097F02C0
:033DBC00812D0056
:103B1D00D204E478A1F278A1E2FFC39409748094F1
:103B2D0080501D7E007BFE74352FF9EE3400FA12A5
:103B3D0006A9F46004C204800778A1E204F280D6DD
:103B4D00300436E478A1F278A1E2FFC394147480B6
:103B5D0094805022EF7C007BFF24DFF9EC3441FA96
:103B6D001206A9FEEF1B242EF9EC3400FAEE120713
:093B7D0011E204F280D1123FD9DB
:013B8600221C
:1041A300E478A0F278A0E2FD7C00C39414748094B8
:1041B300805026782DE225E0FEE42DFFEC3EFE1232
:1041C300473D78A0E27C007BFE242EF9EC3400FA14
:0C41D300EF120711E204F280CB023B1D4A
:103FD900782DE2FF7E0012476AE478A2F278A2E225
:103FE900C3941474809480502C782DE225E0FE78D7
:103FF900A2E2FD7A002400FFEA3EFE7C007BFE740B
:104009002E2DF9EC3400FA1206A9FD12472478A2E4
:05401900E204F280C882
:01401E00227F
:1047540000000000000000000000FF01173B010101
:064764000101010101FF4B
:103F0500E478A0F278A0E2FFFD3395E0FCC3ED94E0
:103F15000AEC648094805029EF3395E0FC7BFE74B5
:103F2500352DF974003CFA1206A9FEEF3395E0FC35
:103F350074422DF974003CFAEE120711E204F28086
:063F4500C3784C74FFF28A
:013F4B002253
:103E2800E478A0F278A0E2FFFD3395E0FCC3ED94BE
:103E38000AEC648094805029EF3395E0FC7BFE7493
:103E4800422DF974003CFA1206A9FEEF3395E0FC06
:103E580074352DF974003CFAEE120711E204F28071
:093E6800C3123FD9784C74FFF23B
:013E7100222E
:1045CC00784CE2FF3395E0FEC3EF9409EE648094DF
:0C45DC00804003E4F222784CE204F2225A
:04356C0078A0EFF262
:10357000784CE2FFFD3395E0FC74422DF974003C79
:10358000FA78A174FEF208EAF208E9F27BFF745FB0
:103590002DF974473CFA1206A9FEEFFD3395E0FCC5
:1035A00074542DF974473CFA1206A9FF78A0E2FD85
:1035B00008E2FB08E2FA08E2F9ED1206EF78A1E270
:1035C000FB08E2FA08E2F91206A9FDD3EE6480F8DE
:1035D000ED6480984004EF12071178A1E2FB08E245
:1035E000FA08E2F91206A9FDC3EF6480F8ED6480E1
:0735F000985004EE120711D0
:0135F70022B1
:0D487200E4F5C7F5C5F5C675C380F5C42291
:10473D0075C78275C5018FC4EEF5C375C65A75C6AA
:07474D00A500AFC202487293
:1047240075C78275C5028FC4EEF5C3AF058FC27518
:09473400C65A75C6A500024872C0
:10476A0075C78275C5038FC4EEF5C375C65A75C67B
:05477A00A500024872D9
:01490500228F
:1047A700438E805389F0E4F58A758CF7C28DD28CDD
:0347B700D2A92262
:09489F001247A7124905D2AF220D
:03000B00023D4271
:103D4200C0E0C0F0C083C082C0D075D000C000C047
:103D520001C002C003C004C005C006C007122B7E0A
:103D6200784DE204F2E2D39420748094804005E41A
:103D7200F2122EBDD007D006D005D004D003D00257
:0F3D8200D001D000D0D0D082D083D0F0D0E032AA
:03001B0002490691
:01490600327E
:1015C600D120CDCEC2DBCC20C3CEC4CECC212121AE
:1015D60000D0EEE6E4E5F1F2E2EE20F5F0E8F1F215
:1015E600EEE2EE2E00D1F2E0F0FBE920CDEEE2FBDA
:1015F600E920E3EEE42E00CAF0E5F9E5EDE8E520A2
:10160600C3EEF1EFEEE4EDE52E00D2E0F2FCFFEDE5
:10161600E8ED20E4E5EDFC2E00C4E5EDFC20E2F16A
:10162600E5F520E2EBFEE1EBB8EDEDFBF52E00C4AF
:10163600E5EDFC20E7E0F9E8F2EDE8EAE020CEF29D
:10164600E5F7E5F1F2E2E02E00CCE5E6E4F3EDE0C5
:10165600F0EEE4EDFBE920E6E5EDF1EAE8E920E469
:10166600E5EDFC2E00C4E5EDFC20ECEEF0FFEAE033
:101676002DEFEEE4E2EEE4EDE8EAE02E00C4E5ED5F
:10168600FC20F1ECE5F5E02E00C4E5EDFC20EAEEE9
:10169600F1ECEEEDE0E2F2E8EAE82E00CFF0E0E76A
:1016A600E4EDE8EA20C2E5F1EDFB20E820D2F0F314
:1016B600E4E02E00C4E5EDFC20EFEEE1E5E4FB21DD
:1016C600212100C4E5EDFC20EFE8EEEDE5F0E8E8C9
:1016D6002E00C4E5EDFC20EFEEE3F0E0EDE8F7EDDB
:1016E600E8EAE02E00C4E5EDFC20E7E0F9E8F2FBCD
:1016F60020E4E5F2E5E92E00C4E5EDFC20D0CED1EC
:10170600D1C8C82E00C4E5EDFC20ECEEEBEEE4E516
:10171600E6E82E00C4E5EDFC20F1E5ECFCE82C2023
:10172600EBFEE1E2E820E820E2E5F0EDEEF1F2E89A
:101736002E00C4E5EDFC20C2EEE7E4F3F8EDEE2D55
:10174600E4E5F1E0EDF2EDFBF520E2EEE9F1EA2E5B
:1017560000C4E5EDFC20C2EEE5EDEDEE2DE2EEE790
:10176600E4F3F8EDFBF520F1E8EB2E00C4E5EDFC23
:1017760020E7EDE0EDE8E92E00C4E5EDFC20F2E51A
:10178600F1F2E8F0EEE2F9E8EAE02E00C4E5EDFC5D
:1017960020F3F7E8F2E5EBFF2E00C4E5EDFC20F0C0
:1017A600EEE6E4E5EDE8FF20C4E5E4E020CCEEF06B
:1017B600EEE7E02E00C4E5EDFC20FDEDE5F0E3E507
:1017C600F2E8EAE02E00C4E5EDFC20EFF0EEE3F0EF
:1017D600E0ECECE8F1F2E02E00C4E5EDFC20ECE5EF
:1017E600E4E8F6E8EDF1EAEEE3EE20F0E0E1EEF211
:1017F600EDE8EAE02E00C4E5EDFC20F1E8F1F2E5C3
:10180600ECEDEEE3EE20E0E4ECE8EDE8F1F2F0E0FA
:10181600F2EEF0E02E00C4E5EDFC20C2EEE5EDEDC3
:10182600EE2DCCEEF0F1EAEEE3EE20D4EBEEF2E0B4
:101836002E00CCE5E6E4F3EDE0F0EEE4EDFBE92086
:10184600E4E5EDFC20EFE8E2E02E00C4E5EDFC2047
:10185600F1F2F0EEE8F2E5EBFF2E00C4E5EDFC2038
:10186600F2E0EDEAE8F1F2E02E00C4E5EDFC20E05E
:10187600E2F2EEECEEE1E8EBE8F1F2E02E00C4E590
:10188600EDFC20ECE0F2E5F0E82E0001011115C6B2
:1018960001071415D7010E1215EB01131315FD01DF
:1018A600190F1610020E16161F02171A1635030800
:1018B6001C164F031318166B04010C1683040C1325
:1018C600168F05011816A205090F16BA05130F166D
:1018D600C9051C1316D806011316EB060C0D16FEC9
:1018E600061B0F170B07081E171A08021F173808C2
:1018F6000C1B175709010D1772090913177F0A05E3
:101906000E17920B121B17A00C161117BB610013B2
:1019160017CC36071D17DF77052017FC77071C182D
:101926001C1805191838280710185129070F1861AF
:0A1936007A071418707B070D18845F
:023DBF00C10839
:1039D300781EE278A1F2E4FFEFC39405748094802B
:1039E3005009744E2FF8E4F20F80ED781FE278A1AE
:1039F300F278A1E2FD3395E0FCD3ED9407EC64800B
:103A030094804006E224F9F280E712442AAE07E4E8
:103A1300FFEFC39405748094805024EEFD78A1E2F7
:103A2300F9FB3395E0FAD3EB9D7480F86A98500F55
:0F3A3300744E2FF8E9F20F78A1E22407F280D247
:013A42002261
:1045E8007852E2FF700C781FE2FE7851E2B5060AB5
:0C45F800D322781FE2B50702D322C322B1
:1047BA00744E2FF8E2FF781FE2FEEFB50602D3220D
:0247CA00C32208
:10274200C2081239D3E478A0F278A0E2FFC394233E
:102752007480948040030228B83008030228B8EF3E
:1027620075F005A42491F582E43418F583E493FF0F
:1027720054F0FEC4540F1424FB503F700302280887
:10278200147003022842240760030228AE78A0E2F4
:1027920075F005A42492F582E43418F583E493FEDF
:1027A200781FE2FDEE6D60030228B0EF540FFF08C0
:1027B200E26F60030228B002287A78A0E2FF75F087
:1027C20005A42491F582E43418F583E493FE540FB2
:1027D200FD7820E26D60030228B0EF75F005A424B5
:1027E20092F582E43418F583E493FF781EE26F6079
:1027F200030228B0EE5470C4540F14FF1247BA40BB
:10280200030228B08072124166AC06AD0778A0E2DE
:10281200FB75F005A42491F582E43418F583E49362
:102822005401FEEB75F005A42492F582E43418F508
:1028320083E493FBEB6D7002EC6E7072D208803C05
:1028420078A0E2FF75F005A42491F582E43418F52E
:1028520083E493540FFE7820E26E7052EF75F00518
:10286200A42492F582E43418F583E493FF781EE2FF
:102872006F703B1245E85036D20878A0E2FE75F040
:1028820005A42493F582E43418F583E493FFEE75EE
:10289200F005A42494F582E43418F583E493FC74DF
:1028A2000193AA04F97BFF1247ED8002C20878A0C7
:0628B200E204F202274BD4
:0128B80022FD
:103DC1008172EC815900825A000082530000827393
:023DD1000000F0
:1045AD0078A0EFF208EDF27872E2FF12470B78A0D7
:0F45BD00E2FF12434B78A1E2FF12434B02482B5F
:0443A70078A0EFF219
:1043AB007872E2FF12470B78A0E2FF12434B787250
:1043BB00E24401FF12470BC20512421B78A1EFF238
:0743CB0012482B78A1E2FF6C
:0143D20022C8
:0440A60078CDEFF2F0
:1040AA007872E2FF12470B78CDE2FF12434B787227
:1040BA00E24401FF12470BD20512421BEFF8E479E2
:1040CA00CFF3E819F3C20512421B78CEE2F208E2F6
:0C40DA004FF212482B78CEE2FE08E2FF05
:0140E60022B7
:0440E70078A0EFF2DC
:1040EB007872E2FF12470B78A0E2FF12434B787213
:1040FB00E24401FF12470BD20512421B78A1E4F2F6
:10410B0008EFF2C20512421BEFFE78A1E24EF20855
:0C411B00E2F212482B78A1E2FE08E2FF5D
:014127002275
:0348F9000240A6D4
:0348FC000240E790
:0431D80078B8EFF2E2
:1031DC007872E2FF12470B78B8E2FF12434B787219
:1031EC00E24401FF12470BD20512421BE4FCFDFE28
:1031FC00780C12095B78B912096E78B9E2FB08E217
:10320C00F908E2FA08E2CBF8C000C001C002C00322
:10321C00D20512421BE4FCFDFE780412095BD003BC
:10322C00D002D001D000EB4FFFEA4EFEE94DFDE895
:10323C004CFC78B912096E78B9E2FB08E2F908E2A5
:10324C00FA08E2CBF8C000C001C002C003C20512EC
:10325C00421BEFC4540FFFD003D002D001D000EBBF
:10326C004FFFEAFEE9FDE8FC78B912096E12482B13
:0D327C0078B9E2FC08E2FD08E2FE08E2FF7E
:013289002222
:10367F007FAA1240A6785CEEF208EFF27FAC124000
:10368F00A6785EEEF208EFF27FAE1240A67860EEFB
:10369F00F208EFF27FB01240A67862EEF208EFF276
:1036AF007FB21240A67864EEF208EFF27FB41240B8
:1036BF00A67866EEF208EFF27FB61240A67868EEB3
:1036CF00F208EFF27FB81240A6786AEEF208EFF236
:1036DF007FBA1240A6786CEEF208EFF27FBC124070
:1036EF00A6786EEEF208EFF27FBE1240A67870EE6B
:0536FF00F208EFF222C9
:1034DB007F881240E77879EEF208EFF27F8A124884
:1034EB00FC787BEEF208EFF27F8C1248FC787DEED5
:1034FB00F208EFF27F8E1240E7787FEEF208EFF2E0
:10350B007F901248FC7881EEF208EFF27F9212481E
:10351B00FC7883EEF208EFF27F941248FC7885EE8C
:10352B00F208EFF27F961248FC7887EEF208EFF282
:10353B007F981248FC7889EEF208EFF27F9A1248D6
:10354B00FC788BEEF208EFF27F9C1248FC788DEE44
:10355B00F208EFF27F9E1248FC788FEEF208EFF242
:01356B00223D
:1038ED001234DB7FA11243A77891EFF27FE11248EA
:1038FD00FC7892EEF208EFF27FE31243A77894EF93
:10390D00F27FE41243A7EF75F010A4FFAEF0C007ED
:10391D00C0067FE51243A7EF540FFDD0E07895F276
:10392D00D0E04D08F27FE61243A7EF75F010A4FF2B
:10393D00AEF0C007C0067FE51243A7EFC4540FFDDC
:10394D00D0E07897F2D0E04D08F27FE71243A778E8
:04395D0099EFF222CA
:0E484900E4FD7FF51245AD7DAB7FF40245AD79
:0A4895007D057FF21245AD0248498F
:0445200078CCEFF272
:104524007872E2FF12470B7FF412434B78CCE2FF20
:1045340012434B12482B7F0512483A7FF60240A6DD
:0D4857007FF31243A7EF54016002D322C388
:014864002231
:1035F8007FEC1246F2B3920412482B30040778721B
:1036080074ECF280137FEE1246F2B3920412482B48
:10361800300405787274EEF23004097FD01243A7A3
:103628007859EFF27859E2FF7E006003F47005E400
:103638007859F222EF64554E601C7DB67FE0124542
:10364800AD7F9512483A7F95800712485750077FFB
:103658006412483A80F47859E224AA24FD500B24D5
:10366800F9600D240B700F02367F1234DB024849D3
:063678001238ED12489526
:01367E002229
:100DFF007F2E12452078C8EEF208EFF27F341245AD
:100E0F002078CAEEF208EFF27859E26455600302D7
:100E1F00124578C8E2FE08E2FFE4FCFDC006C007F9
:100E2F007866E2FE08E2FBAA06D007D006C3EF9B66
:100E3F00FFEE9AFEED9400FDEC9400FCC004A905B2
:100E4F00AA06AB077864E2FE08E2FFE4FCFDD000DF
:100E5F001207E2780F12094778A012096E786EE236
:100E6F00FE08E2FFEE3395E0FDFC780B12095BC044
:100E7F0004C005C006C0077870E2FE08E2FFEE333B
:100E8F0095E0FDFC78A0E2FB08E2F908E2FA08E23F
:100E9F00CBF8EB2FFBEA3EFAE93DF9E83CF8D00737
:100EAF00D006D005D00412401F78A412096E78A482
:100EBF00E2FC08E2FD08E2FE08E2FF78A0E2FB0890
:100ECF00E2F908E2FA08E2CBF8EB2FFFEA3EFEE97F
:100EDF003DFDE83CFC78B012096E78B0E2FC08E208
:100EEF00FD08E2FE08E22408FFE43EFEE43DFDE4D7
:100EFF003CFC7804120947785AEEF208EFF278B00A
:100F0F00E2FC08E2FD08E2FE08E22460FFEE34F0A6
:100F1F00FEED34FFFDEC34FFFC0812096E78B4E2ED
:100F2F00FC08E2FD08E2FE08E2FFA804A905AA06F4
:100F3F00FB1207E2780C12094778B812096E785E37
:100F4F00E2FE08E2FFEE3395E0FDFC78B4E2FB0829
:100F5F00E2F908E2FA08E2CBF81207E2C004C00592
:100F6F00C006C007786AE2FE08E2FFEE3395E0FDA7
:100F7F00FC78B8E2FB08E2F908E2FA08E2CBF812D3
:100F8F0007E2D003D002D001D000EF2BFFEE3AFEE4
:100F9F00ED39FDEC38FC780B12094778A812096E71
:100FAF00785CE2FE08E2FFEE3395E0FDFCE47B04A3
:100FBF00FAF9F81207E278A8E2FB08E2F908E2FA78
:100FCF0008E2CBF8EB2FFFEA3EFEE93DFDE83CFCE3
:100FDF00EF2402FFE43EFEE43DFDE43CFC78021208
:100FEF00094778AC12096E7860E2FE08E2FFEE3333
:100FFF0095E0FDFC78B4E2FB08E2F908E2FA08E2BA
:10100F00CBF81207E2780D12094778A012096E7813
:10101F0068E2FE08E2FFEE3395E0FDFC78B8E2FBF4
:10102F0008E2F908E2FA08E2CBF81207E2781012A8
:10103F00094778A412096E78A4E2FC08E2FD08E2E1
:10104F00FE08E2FF78A0E2FB08E2F908E2FA08E204
:10105F00CBF8EB2FFFEA3EFEE93DFDE83CFCEF2429
:10106F0002FFE43EFEE43DFDE43CFC78021209473A
:10107F0078A812096E78A8E2FC08E2FD08E2FE08E3
:10108F00E22400FFEE3480FEE43DFDE43CFCC004AE
:10109F00A905AA06AB077862E2FE08E2FFE4FCFDB1
:1010AF00D0001207E2780F12093478C012096E7857
:1010BF00CAE2FE08E2FFE4FCFDC004C005C006C0A2
:1010CF000778ACE2FC08E2FD08E2FE08E2FBAA06A4
:1010DF00A905A804D007D006D005D004C3EF9BFF05
:1010EF00EE9AFEED99FDEC98FCE47B507AC3F9F88B
:1010FF001207E278C412096E78C0E2FB08E2F90821
:10110F00E2FA08E2CBF8C00078C4E2FC08E2FD087E
:10111F00E2FE08E2FFD00012086D780112095B7839
:10112F00BC12096E78BCE2FC08E2FD08E2FE08E2A0
:10113F00FF7808120947C004C005C006C00778BC75
:10114F00E2FC08E2FD08E2FE08E2FF780812094718
:10115F00D003D002D001D0001207E278A012096E9E
:10116F00E47FDE7E0BFDFC78A0E2FB08E2F908E2EB
:10117F00FA08E2CBF81207E2781012094778A012AA
:10118F00096E7F437EE37DFF7CFF78BCE2FB08E2C4
:10119F00F908E2FA08E2CBF81207E27810120947D1
:1011AF0078A412096E78A4E2FC08E2FD08E2FE08BA
:1011BF00E2FF78A0E2FB08E2F908E2FA08E2CBF8D6
:1011CF00EB2FFFEA3EFEE93DFDE83CFCEF24CFFFAD
:1011DF00EE340EFEE43DFDE43CFC78041209477842
:1011EF00BCE2FB08E2F908E2FA08E2CBF8EB2FFFCA
:1011FF00EA3EFEE93DFDE83CFC78A812096E78A8AE
:10120F00E2FC08E2FD08E2FE08E2FFEC1205C87BF3
:10121F00B07A507955784112052B785512096E78AE
:10122F0055E2FC08E2FD08E2FE08E2FF120606782E
:06123F0053EEF208EFF28D
:011245002286
:1025A7007FFA1231D878B412096EE4FFFE7D08FC79
:1025B70078B4E2FB08E2F908E2FA08E2CBF8C312C2
:1025C700092370030227417879E2FE08E2FFE4FC61
:1025D700FD780112095BAB07AA06A905C004C0056F
:1025E700C006C00778B4E2FC08E2FD08E2FE08E294
:1025F700FF7803120934D003D002D001D000C3EF13
:102607009BFFEE9AFEED99FDEC98FCC004A905AA84
:1026170006AB07787BE2FE08E2FFEE3395E0FDFCB0
:10262700D0001207E2780B12093478B012096E78DD
:1026370079E2FE08E2FFE4FCFDAB07AA06F9C00455
:10264700C005C006C00778B4E2FC08E2FD08E2FE58
:1026570008E2FF7804120934D003D002D001D00079
:10266700C3EF9BFFEE9AFEED99FDEC98FCC004C00A
:1026770005C006C0077879E2FE08E2FFE4FCFDAB7F
:1026870007AA06F9C004C005C006C00778B4E2FC73
:1026970008E2FD08E2FE08E2FF7804120934D003DD
:1026A700D002D001D000C3EF9BFFEE9AFEED99FD5B
:1026B700EC98FCD003D002D001D0001207E2780CCE
:1026C700120934C004A905AA06AB07787DE2FE0803
:1026D700E2FFEE3395E0FDFCD0001207E2780E1220
:1026E700093478B0E2FB08E2F908E2FA08E2CBF82D
:1026F700EB2FFFEA3EFEE93DFDE83CFC7875120949
:102707006EE47F05FEFDFC7875E2FB08E2F908E25E
:10271700FA08E2CBF81207E2EF2480FFE43EFEE47A
:102727003DFDE43CFC7808120947E47B0AFAF9F816
:0A27370012401F785AEEF208EFF28C
:012741002275
:1009B7001225A77FF71231D878A012096E7875E251
:1009C700FC08E2FD08E2FE08E2FF7801120947E4AD
:1009D7002FFFEE3406FEED34FFFDEC34FFFC78A468
:1009E70012096E78A4E2FC08E2FD08E2FE08E2FFC5
:1009F7007802120947C004C005C006C00778A4E200
:100A0700FC08E2FD08E2FE08E2FF7802120947D07F
:100A170003D002D001D0001207E2780B120947C0B9
:100A270004A905AA06AB077889E2FE08E2FFEE33C0
:100A370095E0FDFCD0001207E278A812096E78A8AD
:100A4700E2FB08E2F908E2FA08E2CBF8C000C001CD
:100A5700C002C0037887E2FE08E2FFEE3395E0FDAF
:100A6700FC78A4E2FB08E2F908E2FA08E2CBF81204
:100A770007E2780112095BD003D002D001D000EB66
:100A87002FFFEA3EFEE93DFDE83CFC78A812096E1F
:100A97007885E2FE08E2FFEE3395E0FDFC78101260
:100AA700095BC004C005C006C00778A8E2FC08E2DD
:100AB700FD08E2FE08E2FF7802120947D003D002E0
:100AC700D001D000EF2BFFEE3AFEED39FDEC38FCFC
:100AD70078A812096E78A4E2FC08E2FD08E2FE0895
:100AE700E2FF7802120947C004C005C006C00778B4
:100AF700A4E2FC08E2FD08E2FE08E2FF7802120920
:100B070047D003D002D001D0001207E2780D1209B6
:100B170047C004A905AA06AB077883E2FE08E2FFEF
:100B2700EE3395E0FDFCD0001207E2780312094787
:100B3700C004C005C006C0077881E2FE08E2FFEEE8
:100B47003395E0FDFC78A4E2FB08E2F908E2FA0835
:100B5700E2CBF81207E27801120947D003D002D09E
:100B670001D000EB2FFFEA3EFEE93DFDE83CFC78B3
:100B77001212094778A412096E78A4E2FC08E2FD74
:100B870008E2FE08E22400FFEE3480FEE43DFDE4C7
:100B97003CFCC004A905AA06AB07787FE2FE08E281
:100BA700FFE4FCFDD0001207E2780F12094778A492
:100BB70012096E78A4E2FC08E2FD08E2FE08E2FFF3
:100BC700EC4D4E4F7003020DFE08E2FC08E2FD08F3
:100BD700E2FE08E2FF780C120947C004C005C00610
:100BE700C00778A0E2FB08E2F908E2FA08E2CBF8CE
:100BF700C3E49BFFE49AFE741099FDE498FCD003CC
:100C0700D002D001D000C3EF9BFFEE9AFEED99FD15
:100C1700EC98FCE47B357A0CF9F81207E278AC1211
:100C2700096EE4FFFEFD7C8078ACE2FB08E2F90880
:100C3700E2FA08E2CBF8C3120923503A78ACE2FC97
:100C470008E2FD08E2FE08E2FF780112095BC00432
:100C5700C005C006C00778A4E2FC08E2FD08E2FE72
:100C670008E2FBAA06A905A804D007D006D005D03C
:100C77000412086D803078A4E2FC08E2FD08E2FE69
:100C870008E2FFC004A905AA06AB0778ACE2FC0896
:100C9700E2FD08E2FE08E2FFD00012086DE47B02E5
:100CA700FAF9F81207E278AC12096E78ACE2FC08A0
:100CB700E2FD08E2FE08E2FF7803120934C004C02F
:100CC70005C006C00778ACE2FC08E2FD08E2FE08B2
:100CD700E2FF7803120934D003D002D001D000120A
:100CE70007E2780D120934C004A905AA06AB0778F4
:100CF7008FE2FE08E2FFEE3395E0FDFCD00012071D
:100D0700E2780C12094778A412096E78ACE2FC0865
:100D1700E2FD08E2FE08E2FF7802120934C004A9E6
:100D270005AA06AB07788DE2FE08E2FFEE3395E0F1
:100D3700FDFCD0001207E2780D12094778A81209C6
:100D47006E78ACE2FB08E2F908E2FA08E2CBF8C0F9
:100D570000C001C002C00378A8E2FC08E2FD08E277
:100D6700FE08E2FF78A4E2FB08E2F908E2FA08E2EB
:100D7700CBF8EB2FFFEA3EFEE93DFDE83CFCC00463
:100D8700A905AA06AB07788BE2FE08E2FFEE3395CA
:100D9700E0FDFCD000EB2FFFEA3EFEE93DFDE83C1D
:100DA700FC7804120947D003D002D001D000EB2F02
:100DB700FFEA3EFEE93DFDE83CFC78AC12096E789F
:100DC700ACE2FC08E2FD08E2FE08E2FFE41205C817
:100DD7007BB07A507955784112052B785512096EF8
:100DE7007855E2FC08E2FD08E2FE08E2FF1206067B
:070DF7007853EEF208EFF261
:010DFE0022D2
:101C5D001225A77FFD1240A6E4FCFD78A012096EA7
:101C6D00E4FF7E80FDFC78A0E2FB08E2F908E2FAD1
:101C7D0008E2CBF8C312090D7003021F257875E237
:101C8D00FC08E2FD08E2FE08E22400FFEE34D4FE7B
:101C9D00ED34FEFDEC34FFFC78A412096E7894E26D
:101CAD00FFE4FCFDFE78A4E2FB08E2F908E2FA0885
:101CBD00E2CBF81207E2780B120947E42FFFEE345E
:101CCD0080FEE43DFDE43CFCC004C005C006C00739
:101CDD007899E2FF3395E0FEFDFC78A4E2FB08E283
:101CED00F908E2FA08E2CBF81207E2780A1209477E
:101CFD00D003D002D001D0001207E2780A120947B2
:101D0D00E42FFFE43EFEED3420FDE43CFCC004A9CD
:101D1D0005AA06AB077892E2FE08E2FFEE3395E0E6
:101D2D00FDFCD0001207E2E42FFFEE3420FEE43D6F
:101D3D00FDE43CFC780E120947C004C005C006C086
:101D4D00077895E2FE08E2FFEE3395E0FDFC78148E
:101D5D0012095BC004C005C006C00778A0E2FC08EC
:101D6D00E2FD08E2FE08E2FF780E12095BD003D017
:101D7D0002D001D000C3EF9BFFEE9AFEED99FDEC72
:101D8D0098FCC004C005C006C0077897E2FE08E2C3
:101D9D00FFEE3395E0FDFC78A4E2FB08E2F908E2E2
:101DAD00FA08E2CBF81207E2A804A905AA06AB07C8
:101DBD00D007D006D005D004C3EF9BFFEE9AFEED01
:101DCD0099FDEC98FCE42FFFEE3440FEE43DFDE47C
:101DDD003CFC780F120947D003D002D001D000127D
:101DED0007E278A412096E78A4E2FC08E2FD08E28D
:101DFD00FE08E2FFC004C005C006C00778A4E2FCDF
:101E0D0008E2FD08E2FE08E2FF780F120947C00460
:101E1D00C005C006C00778A4E2FC08E2FD08E2FE9A
:101E2D0008E2FF780F120947D003D002D001D0008D
:101E3D001207E27807120947C004A905AA06AB07E5
:101E4D007891E2FFE4FCFDFED0001207E278041267
:101E5D000947A804A905AA06AB07D007D006D005E7
:101E6D00D004C3EF9BFFEE9AFEED99FDEC98FC7844
:101E7D00A412096E78A4E2FCEC335007E4FFFEFDDA
:101E8D00FC800D78A4E2FC08E2FD08E2FE08E2FF0A
:101E9D0078A412096EE4FFFEFD7C1978A4E2FB081C
:101EAD00E2F908E2FA08E2CBF8D312090D4008E492
:101EBD00FFFEFD7C19800D78A4E2FC08E2FD08E22E
:101ECD00FE08E2FF78A412096E78A4E2FC08E2FD98
:101EDD0008E2FE08E2FF780C12094778A412096E99
:101EED0078A4E2FC08E2FD08E2FE08E2FFEC120530
:101EFD00C87B0A7AD77923784112052B78551209B8
:101F0D006E7855E2FC08E2FD08E2FE08E2FF1206DB
:081F1D00067873EEF208EFF202
:011F25002299
:0348FF000209B7F4
:0648E9001209B7021C5D7C
:10463B007859E224AA24FD500B24F9600A240B704C
:0B464B0009020DFF0248FF1248E9229F
:08000300785AE2FE08E2FF2238
:0848A8007853E2FE08E2FF2252
:0848B0007873E2FE08E2FF222A
:0548F4007859E2FF22EB
:0A3DD300C109829A0000829C0000E2
:0D3F4C0078AAEBF208EAF208E9F208EDF2BB
:103F59007F8012470BE478AEF278ADE2FF08E2FE0B
:103F6900C39F5023EEFF78ACE22FF218E23400F23F
:103F790018E2FB08E2FA08E2F91206A9FF12434B1C
:0A3F890078AEE204F280D202482B69
:0D3E720078AAEBF208EAF208E9F208EDF296
:103E7F007F8112470BE478AEF278ADE2FF08E2C320
:103E8F009F5022D20512421B78AAE2FB08E2FA08E1
:103E9F00E2F978AEE2F582758300EF12072378AE70
:0D3EAF00E204F280D4C20512421B02482B2F
:1043D30078A6EFF208EBF208EAF208E9F27BFE7A3C
:1043E3000079A67D01123F4C7F1412483A78A7E268
:0C43F300FB08E2FA08E2F97D02023E72CB
:103A43007BFE7A0079A47FF31243D378A4E2FFE4E8
:103A5300FCFDFE780812095BC004A905AA06AB07A2
:103A630078A5E2FFD000EB4FFFEAFEE9FDE8FC7822
:103A7300A012096E78A00808E2FE08E254FCFFE4F5
:103A8300FDFC78A012096EE47FA47E44FDFC78A0BF
:103A9300E2FB08E2F908E2FA08E2CBF81207E2785F
:0C3AA30010120947EF24B3FFEE34EDFED3
:013AAF0022F4
:103AB0007BFE7A0079A47FF51243D378A4E2FFE479
:103AC000FCFDFE780812095BC004A905AA06AB0735
:103AD00078A5E2FFD000EB4FFFEAFEE9FDE8FC78B5
:103AE000A012096E78A00808E2FE08E254FCFFE488
:103AF000FDFC78A012096EE47FD47E30FDFC78A036
:103B0000E2FB08E2F908E2FA08E2CBF81207E278F1
:0C3B100010120947EF24A8FFEE34FDFE60
:013B1C002286
:0B488A007F801246F2B3920902482B17
:10460400123A437C007D0A1207AC789AEEF208EF66
:0C461400F2123AB0789CEEF208EFF222AD
:0848B800789AE2FE08E2FF22FB
:0848C000789CE2FE08E2FF22F1
:03490200A20922E5
:1005280002067CEC5D046005E8590470030206725B
:1005380012063D580460F6EC4860F2EC7004FDFECB
:10054800FF22C860DB2481C85009C39860025006A6
:100558000206799850CAF582E9294B4A7005AB82A0
:1005680002066875F0007C1A7880C3EF9BEE9AED5E
:1005780099400DC3EF9BFFEE9AFEED99FDE842F01E
:10058800DC23ACF0D0E0FFD0E0FED0E0FDAB822071
:10059800E7101BEB60BAEC2CFCEF33FFEE33FEEDFB
:1005A80033FD020654E803F830E705C0F075F000A3
:1005B800EF2FFFEE33FEED33FD40B830E7C280AADF
:1005C80075F020800E75F010800575F0087D007EAE
:1005D800007F003392D530D5031208FFEC3340106A
:1005E800EF33FFEE33FEED33FDEC33FCD5F0ED22B7
:0E05F800E5F0247EA2D513CC92E7CDCEFF22F3
:10060600EDD2E7CD33EC3392D524814006E4FFFEEC
:10061600FDFC22FCE4CFCECDCC24E0501174FF804B
:10062600EDC3CC13CCCD13CDCE13CECF13CF0470E8
:07063600F030D5DE0208FFE1
:10063D00E9D2E7C933E833F892D5EDD2E7CD33EC03
:07064D0033FC5002B2D5227C
:10065400EC30E7100FBF000C0EBE00080DBD000407
:100664000BEB6014A2D5EB13FCED92E7FD2274FFB3
:10067400FCFDFEFF22E480F8A2D574FF13FC7D800C
:03068400E480EF20
:1032A400021940E493A3F8E493A34003F68001F2E7
:1032B40008DFF48029E493A3F85407240CC8C3332B
:1032C400C4540F4420C8834004F456800146F6DFFA
:1032D400E4800B0102040810204080903D91E47EBC
:1032E400019360BCA3FF543F30E509541FFEE493EF
:1032F400A360010ECF54C025E060A840B8E493A3B6
:10330400FAE493A3F8E493A3C8C582C8CAC583CAE0
:10331400F0A3C8C582C8CAC583CADFE9DEE780BE98
:013DDD0000E5
:10068700C2D530F707B2D563F0FF05F030E70CB2FB
:10069700D5F4048463F0FF05F080018430D502F4BB
:0206A70004222B
:1006A900BB010689828A83E0225002E722BBFE024F
:0906B900E32289828A83E4932282
:1006C200BB010CE58229F582E5833AF583E02250ED
:1006D20006E92582F8E622BBFE06E92582F8E22237
:0D06E200E58229F582E5833AF583E4932251
:1006EF00BB010989828A83F8E028F022500327F79B
:1006FF0022BBFE05F8E328F3228A838982F8E4936C
:02070F0028229E
:10071100BB010689828A83F0225002F722BBFE01C7
:02072100F322C1
:10072300F8BB010DE58229F582E5833AF583E8F00C
:10073300225006E92582C8F622BBFE05E92582C8B8
:02074300F222A0
:10074500EF8DF0A4A8F0CF8CF0A428CE8DF0A42EC8
:02075500FE2282
:10075700BC000BBE0029EF8DF084FFADF022E4CC86
:10076700F875F008EF2FFFEE33FEEC33FCEE9DEC4F
:10077700984005FCEE9DFE0FD5F0E9E4CEFD22ED95
:10078700F8F5F0EE8420D21CFEADF075F008EF2FDF
:10079700FFED33FD4007985006D5F0F222C398FDD0
:0507A7000FD5F0EA226D
:1007AC00C2D5EC30E709B2D5E4C39DFDE49CFCEE68
:1007BC0030E715B2D5E4C39FFFE49EFE120757C382
:1007CC00E49DFDE49CFC800312075730D507C3E47D
:0607DC009FFFE49EFE22D7
:1007E200E88FF0A4CC8BF0A42CFCE98EF0A42CFCB6
:1007F2008AF0EDA42CFCEA8EF0A4CDA8F08BF0A434
:100802002DCC3825F0FDE98FF0A42CCD35F0FCEB92
:100812008EF0A4FEA9F0EB8FF0A4CFC5F02ECD3957
:0F082200FEE43CFCEAA42DCE35F0FDE43CFC22C4
:1008310075F008758200EF2FFFEE33FECD33CDCC7E
:1008410033CCC58233C5829BED9AEC99E582984001
:100851000CF582EE9BFEED9AFDEC99FC0FD5F0D6DE
:10086100E4CEFBE4CDFAE4CCF9A88222B800C1B908
:100871000059BA002DEC8BF084CFCECDFCE5F0CB46
:10088100F97818EF2FFFEE33FEED33FDEC33FCEB7F
:1008910033FB10D703994004EB99FB0FD8E5E4F93A
:1008A100FA227818EF2FFFEE33FEED33FDEC33FC27
:1008B100C933C910D7059BE99A4007EC9BFCE99A1B
:1008C100F90FD8E0E4C9FAE4CCFB2275F010EF2F60
:1008D100FFEE33FEED33FDCC33CCC833C810D70760
:1008E1009BEC9AE899400AED9BFDEC9AFCE899F89B
:0E08F1000FD5F0DAE4CDFBE4CCFAE4C8F9222E
:10401F00C2D5E830E70FB2D5E4C39BFBE49AFAE4CC
:10402F0099F9E498F8EC30E717B2D5124055120819
:10403F006DE4C39BFBE49AFAE499F9E498F88003E2
:10404F0012086D30D50DE4C39FFFE49EFEE49DFD85
:04405F00E49CFC22BF
:0E08FF00C3E49FFFE49EFEE49DFDE49CFC220A
:10090D00EB9FF5F0EA9E42F0E99D42F0EC6480C861
:06091D0064809845F02201
:10092300EB9FF5F0EA9E42F0E99D42F0E89C45F02A
:0109330022A1
:10093400E8600FECC313FCED13FDEE13FEEF13FFA1
:03094400D8F122C5
:10094700E86010ECA2E713FCED13FDEE13FEEF13C6
:04095700FFD8F022B3
:10095B00E8600FEFC333FFEE33FEED33FDEC33FCFA
:03096B00D8F1229E
:0C096E00ECF208EDF208EEF208EFF222C5
:10097A00F5F0C582A4C582C5F0C583A42583F58395
:01098A00224A
:10098B00D083D082F8E4937012740193700DA3A3FB
:10099B0093F8740193F5828883E47374029368600F
:0609AB00EFA3A3A380DF0F
:0609B1008A838982E473D1
:00000001FF
