:0300000002301EAD
:10301E0078FFE4F6D8FD9000007F007E03E4F0A375
:0A302E00DFFCDEFA75812102307329
:10439100123F5A12406B124637123ABB123F931228
:0B43A1003527124616782274FFF22226
:1015C10078A07401F21243917F141245A2782B7412
:1015D10002F23003FDC2037818E275F00A84E5F0E7
:1015E1007035780DE2FF60096402602BEF640360DF
:1015F10026782BE27014740AF212468FEF60031200
:1016010043C71246A0500312437512370F781AE2EE
:10161100640660031224AA12467C789FEFF2600FE1
:10162100E2C3941050047F1480027F281245A278EF
:101631009FE224FE700302170424FE7003021709BF
:1016410024F470030217AA24B070030217F8245F70
:101651006003021803780DE214B40B004003021872
:101661000390167075F003A4C58325F0C58373023A
:1016710016910216C50216D00216E20216FF0216D4
:10168100FF0216FF0216FF0216FF0216FC0216FFEA
:10169100780AE2FF24FD601A14601D24F8501F240B
:1016A1000A600302180378227402F2780DEFF20245
:1016B1001803782274068003E4784DF28000780ADA
:1016C100E20217E57822E270121241D00217F17896
:1016D10022E2B404061241250217F112424802180F
:1016E10003784DE2FF70057843E26004EFB4090529
:1016F100123EE480091245280218031245137F01A6
:101701000217F378A07401F2789FE2B4040408741C
:10171100FFF2780DE2B40C00400302180390172584
:10172100F828287302174902174B0217550217555B
:1017310002175F02176902177302177D02178602EB
:10174100178F0217980217A1804478A0E2FF124474
:10175100FE02180378A0E2FF12330302180378A0F7
:10176100E2FF12339102180378A0E2FF12448D02C6
:10177100180378A0E2FF12444802180378A0E2FFA0
:1017810012445F807D78A0E2FF124476807478A0D5
:10179100E2FF1242FC806B78A0E2FF1244A4806257
:1017A10078A0E2FF1244BB8059780DE2B40C0050DE
:1017B100519017B9F82828730217DD0217E40217B0
:1017C100F10217F10217EA0217ED0217ED0217ED08
:1017D1000217ED0217ED0217ED0217ED780D7401F6
:1017E100F2801FE4780DF28019123F937F0280028C
:1017F100E4FF1241A7800B780DE224F57004E47830
:1018010040F2780DE2B40C005065901812F82828C7
:101811007302183602183B02184002184502184A92
:1018210002184F02185402185902185E0218630276
:10183100186802186D123D20803512327580301201
:101841002C28802B122EB580261218C78021124019
:10185100CB801C12466080171235AB80121246678E
:10186100800D12362380081228B580031245727844
:1018710019E204F27818E204F230080F781AE2B49F
:1018810006097818E220E00312341D7819E2D39496
:101891003B4002E4F27818E2D3943B50030215D3A3
:1018A100E4F27805E204F2781AE275F003A4241256
:1018B100F582E43421F583E493FE740193AA06F9D9
:0618C1001209B10215D36B
:101E9300007F7F40407F7F007F7F08087F7F0003B4
:101EA3001F227E7F0300007F7F49497F3600404029
:101EB3007F7F4040007F7F4848783000003E7F416D
:101EC300416322007F7F4848783000031F227E7FD2
:101ED300030000707808087F7F0040407F7F404008
:101EE300007F7F49497F3600007F7F40407F7F002E
:101EF30040407F7F4040007F7F08087F7F00003E97
:101F03007F414163220060731B0F7C70007F7F4918
:101F1300494F4600007F7F49497F36003E7F41415C
:101F23006322007F7F0814636300007C7C40407C55
:101F33007C007C7C10107C7C000C3C48787C0C0082
:101F4300007C7C54547C280040407C7C4040007CD6
:101F53007C505070200000387C44446C28007C7C0A
:101F630050507020000C3C48787C0C0000607010CE
:101F7300107C7C0040407C7C4040007C7C54547C42
:101F83002800007C7C40407C7C0040407C7C4040BE
:101F9300007C7C10107C7C0000387C44446C28005E
:101FA30064741C187060007C7C54545C4800007C92
:101FB3007C54547C2800387C44446C28007C7C107E
:101FC300386C440000607F7F60006F6F007F3F10BC
:101FD3001F103F7F007F7F4949007F7F63361C00CE
:101FE3001F3F6C6C3F1F00607F7F60007F7F49490C
:101FF3003F7F4C7F3F007F7F0303003F7F4C7F3F4A
:10200300007F7F6C6C370000003E41417149493EBF
:10201300000000063A433A06000000007F7F68682C
:10202300003E7F417F3E007F3F180C7E7F00607F34
:102033007F607F7F41633E1C006F6F00327B496F7F
:1020430026007F7F446C38007F3F101F103F7F00C6
:102053006F6F007F7F63361C007F7F6C6C387F7FE0
:10206300497F36007F7F6C6C37006F6F003E7F4186
:102073004D2E0000003E41417149493E00000000E1
:1020830000000011117D1111000000000000007F0D
:102093007F417F7F007F7F381C7F7F00000000002F
:1020A3000000007F7F417F7F007F7F6C6C007F7F1C
:1020B3006C6C00000000607F7F6000730B7E7C000F
:1020C3007F7F4C380036007F7F49497F36007F7F12
:1020D3004C4E7B3100360000705070003E7F6341F0
:1020E300410000000011117D111100007F413E00ED
:1020F3003249260022493600234539002249360059
:10210300207F00001234555555555554321005455E
:10211300DF02378202378202378202378202378236
:0321230000466E05
:103B0F00810D00810A02810500811A008100008168
:043B1F000100C18060
:10406B00E4F59375943FF5917592FFF5957596FF71
:10407B00F5B175B27F7835E27817F2C203A2C79219
:10408B0002123B6B7807E4F2087400F2087408F232
:01409B002202
:0D000E0053B0807590FF75A0FF43803F2226
:102771007801E2FEC3940550117817E2FDEEB5052C
:102781000312000E7801E204F222E47801F2120051
:102791000E20020A18E2FEC374159EFF8004780021
:1027A100E2FFEFB41600400302284B9027B3F8284C
:1027B10028730227F50227F90227FD0228010228C2
:1027C1000502280902280D022811022815022819DC
:1027D10002281D02282102282502282902282D026B
:1027E100283102283502283902283D0228410228D1
:1027F10045022849C2908052C291804EC292804ABD
:10280100C2938046C2948042C295803EC296803A6D
:10281100C2978036C2A08032C2A1802EC2A2802A75
:10282100C2A38026C2A48022C2A5801EC2A6801A8D
:10283100C2A78016C2808012C281800EC282800A25
:10284100C2838006C2848002C28520020CC3741533
:102851009F2408F8E6F5B0804474082FF8E6FEC41A
:102861005402FDEEC4131354014DFE74082FF8E613
:10287100FD131354044EFEED54084EFE74082FF858
:10288100E6FD25E025E054104EFEEDC454204EFE39
:1028910074082FF8E6C4333354404EF5B07800E2A3
:1028A10004F2E2D39415400BE4F2A2C79202200392
:0328B10002D2034D
:0128B4002201
:1041A700EF24FE60030470163003FD12000EC2AF49
:1041B700EFB40105123E6B8003123F5AD2AFE47889
:0941C7000DF27805F2781AF222DB
:10370F00123936781BE27068300067C2007843E2E6
:10371F00603908E2FF781DE26F70307845E2FF787C
:10372F001CE2B50726781EE27E007BFE2445F9EEEB
:10373F003400FA1206A9603A7834E2FF7C007D3C2F
:10374F001207457827EEF208EFF2227844E2FF33B2
:10375F0095E0FE781DE2D39FEE6480F87480984068
:10376F0011781CE2700C7830E260077F280245A2C6
:02377F00D20076
:013781002225
:0C3B5F007807E4F2087400F2087408F221
:103B6B007833E214601514601C14602314602A80EF
:103B7B000078137400F20874A0F22278137400F228
:103B8B000874C8F22278137400F20874F0F22278E9
:103B9B00137401F2087418F22278137401F208748A
:033BAB0040F222C3
:05433C00E4FF12434103
:104341007807E2FB08E2FA08E2F9EF120711E2242A
:0843510001F218E23400F2222F
:103CDA0078A17420F20874EFF2E4FFEFC39416504F
:103CEA003478A1E2FC08E2F5828C83E493FE78073B
:103CFA00E2FB08E2FA08E2F9EE1207110F78A2E2F3
:103D0A002401F218E23400F27809E22401F218E2FE
:053D1A003400F280C638
:013D1F002281
:10261D007832E224FE60781470030226D61470031B
:10262D000227052404701E7819E2FEC3940F50058D
:10263D00E4FF022732EEC3942D50057F03022732AB
:10264D00E4FF0227327819E2FEC394055005E4FF3A
:10265D00022732EEC3940D50057F01022732EEC3DF
:10266D00941650057F02022732EEC3942750057F42
:10267D0003022732EEC3943050057F02022732EE5B
:10268D00C3943850057F01022732E4FF02273278C8
:10269D0019E2FEC394065005E4FF022732EEC394FF
:1026AD001250047F03807EEEC3941E50047F04807D
:1026BD0074EEC3942A50047F05806AEEC39436509D
:1026CD00047F068060E4FF805C7819E2FEC3940706
:1026DD005004E4FF804FEEC3941650047F078045ED
:1026ED00EEC3942550047F03803BEEC39434500415
:1026FD007F088031E4FF802D7819E2FEC3940750E6
:10270D0004E4FF8020EEC3941650047F018016EE82
:10271D00C3942550047F02800CEEC3943450047F83
:10272D00018002E4FFE4FEEEC39404503675F0041C
:10273D00EFA42EF582E435F0F583E582241EF582B3
:10274D00E5833400F583E493FD7807E2FB08E2FAB4
:10275D0008E2F9ED1207110EE22401F218E234003D
:03276D00F280C433
:012770002246
:1038CA00E2FB08E2FA08E2F97403120711E22401A2
:0D38DA00F218E23400F21243417811E2FFCF
:0438E70078A3EFF2E1
:1038EB00E408F278A4E2FDC39404503E18E275F0AC
:1038FB0004A47C002DFFEC35F0FE7814E22FFF18AA
:10390B00E23EFE8F82F583E493FD7807E2FB08E24B
:10391B00FA08E2F9ED12071178A4E204F27809E251
:0A392B002401F218E23400F280B922
:01393500226F
:103E2C00E4FEEEC39403503675F003EFA42EF58236
:103E3C00E435F0F583E5822482F582E5833400F5E0
:103E4C0083E493FD7807E2FB08E2FA08E2F9ED124D
:0E3E5C0007110EE22401F218E23400F280C4D5
:013E6A002235
:032B2300E4FBFDD3
:0A2B260078A5EFF208EDF208EBF2DB
:102B3000E408F278A8E2FDC39404506B78A6E27032
:102B40004608E2600C78A5E275F00A84D394004050
:102B50003678A5E275F00A8475F004A47C002DFF98
:102B6000EC35F0FE7814E22FFF18E23EFE78A9F271
:102B700008EFF2F5828E83E493FF7807E2FB08E228
:102B8000FA08E2F9EF800B7807E2FB08E2FA08E2C4
:102B9000F9E412071178A8E204F27809E22401F2BC
:102BA00018E23400F2808C7807E2FB08E2FA08E2CF
:102BB000F9E4120711E22401F218E23400F2E47899
:102BC000A8F278A8E2FDC39404505C78A6E27037BE
:102BD00018E275F00A84E5F075F004A47C002DFF7E
:102BE000EC35F0FE7814E22FFF18E23EFE78A9F2F1
:102BF00008EFF2F5828E83E493FF7807E2FB08E2A8
:102C0000FA08E2F9EF800B7807E2FB08E2FA08E243
:102C1000F9E412071178A8E204F27809E22401F23B
:072C200018E23400F2809B72
:012C2700228A
:1042DA00781DE2FDD39418500618E2943C4003027C
:1042EA003CDAAF05122B2312261D781CE2FF122B93
:0242FA0023227D
:103BAE007820E2D3940C500718E2FD9420400302D3
:103BBE003CDAAF057B01E4FD122B26E4FFEFC39444
:103BCE00045020EF90002293FE7807E2FB08E2FA01
:103BDE0008E2F9EE1207110FE22401F218E23400A6
:0D3BEE00F280DA7820E2FFE4FBFD122B26C6
:013BFB0022A7
:102DF600781EE214B407005070902E0D75F003A4EF
:102E0600C58325F0C58373022E22022E2D022E388D
:102E1600022E43022E4E022E59022E6478A1741EF3
:102E2600F2087493F2804B78A1741EF20874A9F22A
:102E3600804078A1741EF20874BFF2803578A174C0
:102E46001EF20874D5F2802A78A1741EF20874EB7B
:102E5600F2801F78A1741FF2087401F2801478A121
:102E6600741FF2087417F2800978A17420F20874AE
:102E7600EFF2E4FFEFC39416503478A1E2FC08E2C7
:102E8600F5828C83E493FE7807E2FB08E2FA08E217
:102E9600F9EE1207110F78A2E22401F218E23400CB
:0E2EA600F27809E22401F218E23400F280C64C
:012EB40022FB
:10212600E478A2F21246A050161246507C007D05B5
:102136001207AC78A2EFF230E01FE204F2801A1226
:10214600468FEF601D1200037C007D051207AC78F8
:10215600A2EFF230E003E204F278A2E2A2E713F281
:1021660080067823E278A2F27840E2FF78A2E22F96
:10217600F2E2FED3648094E34064E418F278A1E2CC
:10218600C3940450207807E2FB08E2FA08E2F9E477
:1021960012071178A1E204F27809E22401F218E2AA
:1021A6003400F280D8E478A1F278A1E2FFC3940566
:1021B6005026EF90007493FF7807E2FB08E2FA08D6
:1021C600E2F9EF12071178A1E204F27809E224019C
:1021D600F218E23400F280D112433C0222D8D3EE48
:1021E60064809489405CE478A1F278A1E2FFC3940C
:1021F60005507B08E2FE75F00A120687FD3395E06E
:102206008D82F583740512097AE5822FF582E4350D
:1022160083F583E5822442F582E5833400F583E481
:1022260093FF7807E2FB08E2FA08E2F9EF120711DA
:1022360078A1E204F27809E22401F218E23400F20D
:1022460080A8E478A1F278A1E2C39405502078072B
:10225600E2FB08E2FA08E2F9E412071178A1E204C7
:10226600F27809E22401F218E23400F280D8E4FFA1
:10227600124341E478A1F278A1E2FFC394055052DB
:1022860008E2FE75F00A120687AEF0EEFD3395E021
:102296008D82F583740512097AE5822FF582E4357D
:1022A60083F583E5822442F582E5833400F583E4F1
:1022B60093FF7807E2FB08E2FA08E2F9EF1207114A
:1022C60078A1E204F27809E22401F218E23400F27D
:1022D60080A512433CE478A1F278A1E2FFC39409F9
:1022E6005026EF90007993FF7807E2FB08E2FA08A0
:1022F600E2F9EF12071178A1E204F27809E224016B
:08230600F218E23400F280D16C
:01230E0022AC
:1030B80012464078A1EEF208EFF27B04780EE4F2B3
:1030C80008DBFC7B03D378A2E2940018E2648094C6
:1030D800805007EB64809480402C78A1E2FE08E2DF
:1030E800FF7C007D0A1207AC740E2BF8EDF21B78FA
:1030F800A1E2FE08E2FF7C007D0A1207AC78A1EE8F
:10310800F208EFF280BF780EE2FF1238E7E4FF1210
:103118004341780FE2FF1238E7E4FF124341781089
:10312800E2FF1238E7E4FF1243417807E2FB08E2C6
:10313800FA08E2F97403120711E22401F218E234E2
:0631480000F2181238CA63
:01314E00225E
:1029F300E478A1F208F21246A05005124658800965
:102A030012468FBF600A12464878A1EEF208EFF231
:102A13007B05780EE4F208DBFC7B04D378A2E29416
:102A23000018E294005007EB64809480402C78A156
:102A3300E2FE08E2FF7C007D0A120757740E2BF8B2
:102A4300EDF21B78A1E2FE08E2FF7C007D0A12078B
:102A53005778A1EEF208EFF280C1780EE2701E08FB
:102A6300E2FF1238E7E4FF1243417810E2FF123825
:102A7300E7E4FF12434178071238CA8029E4FF12C2
:102A83004341780EE2FF1238E7E4FF124341780F27
:102A9300E2FF1238E7E4FF1243417810E2FF1238F5
:102AA300E7E4FF124341E4FF1243417807E2FB08E6
:102AB300E2FA08E2F97462120711E22401F218E261
:102AC3003400F218E2FB08E2FA08E2F97464120730
:102AD30011E22401F218E23400F218E2FB08E2FAF0
:102AE30008E2F97408120711E22401F218E2340033
:102AF300F218E2FB08E2FA08E2F97413120711E292
:102B03002401F218E23400F218E2FB08E2FA08E2C8
:0F2B1300F97423120711E22401F218E23400F2E0
:012B22002290
:10409C00781DE2FFC3941850257835E26406701E33
:1040AC00EF781D30E009E2C313902105938008E2FC
:0F40BC00C31390210593C4540FFF7817EFF2221E
:103D2000123B5F12409C781AE2B407005030903D7D
:103D300035F8282873023D4A023D4C023D4F023DB2
:103D400052023D55023D58023D5B8016023BAE02D9
:103D50002DF60221260230B80229F3024003E4784E
:063D60001AF21242DA2201
:043FCC00E49308F280
:103FD000ED1206EF1206A9FF78A6E2D36480F8EF8F
:103FE000648098400678A5E21207111206A9FF78AE
:103FF000A5E2C36480F8EF648098500678A6E212C8
:0340000007112283
:1044FE007BFE7A00790AAD0778A57402F208740B78
:05450E00F2123FD02273
:10327500780AE224FEB40A00506690328D75F00398
:10328500A4C58325F0C583730232AB0232B1023285
:10329500B70232BD0232C30232C90232CF0232D581
:1032A5000232DB0232E17E1F7FC780347E1F7FDD65
:1032B500802E7E1F7FF380287E207F0980227E203E
:1032C5007F1F801C7E207F3580167E207F4B8010DF
:1032D5007E207F61800A7E207F7780047E207FD9D3
:1032E500E4FDEDC3941650158F828E83E493FC7430
:0D32F500082DF8A6040D0FBF00010E80E5A6
:0133020022A8
:102C2800123B5F7818E2FFC3940F5004C204800C73
:102C3800EFC3942D5004D2048002C2047822E270BB
:102C48007678A1F278A1E2C3940950207807E2FBD4
:102C580008E2FA08E2F9E412071178A1E204F2782E
:102C680009E22401F218E23400F280D8E478A1F2F3
:102C780078A1E2FFC394045026EF90002A93FF78CE
:102C880007E2FB08E2FA08E2F9EF12071178A1E27D
:102C980004F27809E22401F218E23400F280D178D3
:102CA8001BE2FF7822E2FE700A300403EE60047D26
:102CB80001806C7D008068781DE2FF7822E2FEB416
:102CC800020B300404640260047D0180027D00E48C
:102CD800FB122B26E478A1F278A1E2FFC3940450FA
:102CE80026EF90002A93FF7807E2FB08E2FA08E251
:102CF800F9EF12071178A1E204F27809E22401F24F
:102D080018E23400F280D1781CE2FF7822E2FEB4A7
:102D1800010B300404640160047D0180027D00E43D
:042D2800FB122B2649
:012D2C002284
:102EB500123B5F7818E2FFC3940F5004C204800CE4
:102EC500EFC3942D5004D2048002C2047822E26438
:102ED50006703112433DE4FBFD7F14122B26E4FFFF
:102EE5001243417821E2FF08E2FEB4060B300404E8
:102EF500640660047D0180027D00E4FB122B26E45C
:102F0500FF024341781FE2FF7822E2FEB4040B3052
:102F15000404640460047D0180027D007B01122BA2
:102F250026E4FFEFC394045020EF90002293FE782F
:102F350007E2FB08E2FA08E2F9EE1207110FE224B4
:102F450001F218E23400F280DA7820E2FF7822E21A
:102F5500FEB4050B300404640560047D0180027D28
:062F650000E4FB122B2624
:012F6B002243
:1018C700123B5F784DE2FF704C7843E278A36009E2
:1018D7007420F208748DF280077420F20874A3F262
:1018E700E478A1F278A1E2FEC394164003021BC973
:1018F70078A3E2FC08E2F5828C83E493FD74082E5A
:10190700F8A60578A1E204F278A4E22401F218E22D
:101917003400F280CFEF6401600A784DE264026020
:10192700030219B17818E2FFC3940F5004C2048070
:101937000CEFC3942D5004D2048002C2047844E211
:10194700FF784DE2FEB4010B300404640160047DAE
:101957000180027D00E4FB122B26E478A1F278A136
:10196700E2FFC394045026EF90002A93FF7807E222
:10197700FB08E2FA08E2F9EF12071178A1E204F294
:101987007809E22401F218E23400F280D17845E2C6
:10199700FF784DE2FEB4020B300404640260047D5C
:1019A7000180027D00E4FB022B267818E2FFC39436
:1019B7001B5004C204800CEFC394215004D204804E
:1019C70002C204784DE224FDB40700506E9019E27C
:1019D70075F003A4C58325F0C583730219F7021AAE
:1019E70002021A0D021A18021A23021A2E021A39B3
:1019F70078A3741FF208742DF2804078A3741FF245
:101A0700087443F2803578A3741FF2087459F28082
:101A17002A78A3741FF208746FF2801F78A3741FCB
:101A2700F2087485F2801478A3741FF208749BF28D
:101A3700800978A3741FF20874B1F2E478A1F278F0
:101A4700A1E2FFC394164003021BC9E408F2EF1298
:101A5700098B1A87011A87021AB4041AB4051AE106
:101A6700071AE1081B0E0A1B0E0B1B310D1B310E4B
:101A77001B54101B54111B77131B771400001B9B5F
:101A8700784DE2FF640360057846E2704AEF64032D
:101A97006003021B9B7846E2FF6003300439EF6066
:101AA70003021B9B200403021B9B021B96784DE23B
:101AB700FF640460057847E2701DEF640460030269
:101AC7001B9B7847E2FF600330040CEF6003021BA7
:101AD7009B200403021B9B021B96784DE2FF6405C3
:101AE70060057848E2701DEF64056003021B9B7870
:101AF70048E2FF600330040CEF6003021B9B2004E5
:101B070003021B9B021B96784DE2FF640660057873
:101B170049E27014EF6406707B7849E2FF60033096
:101B27000406EF706F30046C8065784DE2FF640740
:101B37006005784AE27014EF64077058784AE2FF4C
:101B47006003300406EF704C3004498042784DE260
:101B5700FF64086005784BE27014EF64087035780D
:101B67004BE2FF6003300406EF7029300426801F24
:101B7700784DE2FF6409600418E27013EFB40914AA
:101B8700784CE2FF6003300406EF700830040578F4
:101B9700A27401F278A3E2FE08E2F5828E83E49351
:101BA700FF78A2E2FEEF4EFF18E22408F8A60778B6
:101BB700A1E204F278A4E22401F218E23400F2026E
:021BC7001A46BC
:011BC90022F9
:104448007BFE7A007933AD07903EC0E49378A5F2FD
:07445800903ED4123FCC227C
:07466000123B5F1242DA2257
:10445F007BFE7A007931AD07903EBEE49378A5F2EA
:07446F00903ED2123FCC2267
:1035AB007807E4F2087400F2087408F2E4FFEFC342
:1035BB0094105020EF9020B993FE7807E2FB08E2BD
:1035CB00FA08E2F9EE1207110FE22401F218E234C5
:1035DB0000F280DAE4FF124341EFC39405503878D0
:1035EB0031E275F005A42FF582E435F0F583E58221
:1035FB002442F582E5833400F583E493FE7807E2F9
:10360B00FB08E2FA08E2F9EE1207110FE22401F2CD
:07361B0018E23400F280C246
:013622002285
:104476007BFE7A007932AD07903EBFE49378A5F2D1
:07448600903ED3123FCC224F
:07466700123B5F1242DA2250
:1042FC007BFE7A007935AD07903EC2E49378A5F247
:10430C00903ED6123FCC7835E27817F212409C22C0
:103623007807E4F2087400F2087408F2E4FFEFC3C9
:1036330094105020EF9020C993FE7807E2FB08E234
:10364300FA08E2F9EE1207110FE22401F218E2344C
:1036530000F280DAE4FF124341EFC3940550387857
:1036630035E275F005A42FF582E435F0F583E582A4
:103673002442F582E5833400F583E493FE7807E280
:10368300FB08E2FA08E2F9EE1207110FE22401F255
:0736930018E23400F280C2CE
:01369A00220D
:10448D007BFE7A007930AD07903EBDE49378A5F2BE
:07449D00903ED1123FCC223A
:1040CB007830E260067E207F8D80047E207FA3E423
:1040DB00FDEDC3941650158F828E83E493FC740808
:0C40EB002DF8A6040D0FBF00010E80E5AB
:0140F70022A6
:1044A4007BFE7A007941AD07903ECEE49378A5F285
:0744B400903EE2123FCC2212
:1028B5007807E4F2087400F2087408F27841E2FF40
:1028C500C36480948040028001D39204300405EFF4
:1028D500F40480037841E278A2F2E478A1F278A1C9
:1028E500E2FFC364809483500D740E2FF8E4F278F0
:1028F500A1E204F280E878A17402F278A2E2D3940E
:1029050000500818E264809480401E78A2E2FF75AA
:10291500F00A8418E2240EF8E5F0F278A1E214F248
:10292500EF75F00A8408F280D278A27403F22004CD
:1029350004E22405F2780EE2701178A2E22405F291
:10294500780FE2700678A2E22405F2E478A1F27825
:10295500A2E2FF18E2FD3395E0FCC3ED9F7480F819
:102965006C9850207807E2FB08E2FA08E2F9E412D5
:10297500071178A1E204F27809E22401F218E234A1
:1029850000F280CB300434E478A1F278A1E2C3648C
:1029950080948450217807E2FB08E2FA08E2F97492
:1029A5000812071178A1E204F27809E22401F2186D
:1029B500E23400F280D5E4FF124341780EE2FFD302
:1029C500940040081238E7E4FF124341780EE2D341
:1029D5009400500608E29400400C780FE2FF12388C
:0D29E500E7E4FF1243417810E2FF1238E7EB
:0129F20022C2
:1044BB007BFE7A007940AD07903ECDE49378A5F270
:0744CB00903EE1123FCC22FC
:104572007807E4F2087400F2087408F21221262285
:10378200781AE275F003A42411F582E43421F5835A
:10379200E493FF7805E2D39F4053781AE204F2E4FF
:1037A2007805F2781AE2D394074002E4F2781AE23A
:1037B200B4040B12468FEF7005781A7405F2781A6A
:1037C200E2B4051212468FEF6460600A1246A0400E
:1037D20005781A7406F2781AE2B40611300808D293
:0E37E2000178067416F222E4781AF2C201226F
:0E45DF007831E2B40104E47805F2123782224A
:07466E002001031237822234
:1043AC00EFC394A0400674C02FFF800EEFC394207F
:0B43BC00400674E02FFF80027F1F22EC
:10314F00780CE2FE7815E2FDC39405400DE4FF1202
:10315F0043417816E204F20EE4FD7816E2C39416AA
:10316F005072780BE2FFEEC39F50557802E2FB08D6
:10317F00E2FA08E2F98E827583001206C2FCFF1292
:10318F0043ACAC07EDC39405503375F005ECA42D9B
:10319F00F582E435F0F583E5822468F582E5833422
:1031AF0001F583E493FF64A560137816E2C39416C8
:1031BF0050081243417816E204F20D80C70EE4FD69
:1031CF007816E2C394165092E4FF1243417816E248
:0431DF0004F28086F0
:0131E30022C9
:10458200C201E4780CF27815F2781AF27805F22278
:10341D002001030234A17806E2D394004005E214A2
:10342D00F280057815E204F2780BE2FF08E2FEB5B2
:10343D000702805D7815E2C39405503B7802E2FBEC
:10344D0008E2FA08E2F98E827583001206C2FF12B5
:10345D0043AC7815E2FE75F005EFA42EF582E43548
:10346D00F0F583E5822468F582E5833401F583E484
:10347D0093B4A5037405F27815E2D394054015783D
:10348D000CE204F2E47815F2780BE2FF08E2B507DE
:04349D00031245824F
:0134A1002208
:10400300E47816F22001030245827806E2D3940095
:1040130040207806E2FF7816E2FEC39F500CE4FFCF
:104023001243417816E204F280E8EEC39416500579
:06403300800012314F2253
:10459200EF14780BF27802EBF208EAF208E9F22261
:10001E000000000000080800001C1C00003636001E
:10002E00002436000024240000240000003030009C
:10003E00000606007F7F417F7F00007F7F000F4F0D
:10004E004979794149497F7F7878087F7F79794965
:10005E004F0F7F7F494F0F4040407F7F7F7F497F0B
:10006E007F7879497F7F3040454830705070003E30
:10007E007F6341417C447C00007C5C547454547C0E
:10008E0070107C75545C7C544940407C7C547C746C
:10009E00547C7F41417F00007F004F494979494997
:1000AE00497F7808087F7949494F7F49494F404039
:1000BE00407F7F49497F7949497F3E45413E002136
:1000CE007F0123454931425169460C14245F725118
:1000DE00514E1E294906404F5060367F49363049F1
:1000EE004A3C7E41413F00407F000F494939494912
:1000FE00493E7C04041F7849490F7F4949076040F7
:10010E00403F7E49493F7849493F7F63637F0060A6
:10011E007F006F6B6B7B6B6B6B7F7878087F7B7B65
:10012E004B4F7F7F494F40407F7F7F6B6B7F79695D
:10013E00497F007F417F00007F00004F49790049D1
:10014E00497F0078087F0079494F007F494F004072
:10015E00407F007F497F0079497F000000A5A57D83
:10016E00A5A5A5A5700070A5A5147F147F14122A4D
:10017E007F2A24626408132336495522055060A550
:10018E00A5A51C2241A5A541221CA5A514083E0823
:10019E001408083E08080506A5A5A504040404A530
:1001AE0001A5A5A5A502040810203E41413EA500CB
:1001BE00217F01A521434539A522414936A50C14BD
:1001CE00247FA57251514EA53E494926A540474868
:1001DE0070A536494936A53249493EA512A5A5A5B1
:1001EE00A50112A5A5A508142241A51414141414D2
:1001FE0041221408A520404548303E415D553C1F24
:10020E002444241F7F494949363E414141227F41C2
:10021E0041221C7F494949417F484848403E414957
:10022E00492F7F0808087F417F41A5A50201417E25
:10023E00407F081422417F010101A57F2018207FF5
:10024E007F1008047F3E4141413E7F484848303E82
:10025E004145423D7F484C4A31324949492640404A
:10026E007F40407E0101017E700C030C707E010EFA
:10027E00017E6314081463700807087043454951E2
:10028E00617F4141A5A50C123F120441417FA5A5F6
:10029E00102040201001010101014020A5A5A5025A
:1002AE001515150F7F0911110E0E111111020E11D8
:1002BE0011097F0E1515150C083F484020182525ED
:1002CE00253E7F0810100F115F01A5A50201115EDA
:1002DE00A57F040A11A5417F01A5A51F100C100FC3
:1002EE001F08100FA50E1111110E3F2422221C1CE7
:1002FE002222243F1F081008A50815151502107E8E
:10030E001101021E0101021F18060106181E010628
:10031E00011E110A040A11180505051E11131519DF
:10032E0011083641A5A57FA5A5A5A5413608A5A509
:10033E0008100810A5A5A5A5A5A5021E3F1E0230F2
:10034E0049294936184525451E0201417E402A1C81
:10035E00771C2A3F202020607F7F7F7F7F7F7F7FDB
:10036E007F7F3F692969217F7F7F7F7F3E4949419A
:10037E002208142A14227F7F7F7F7F1E2927211EA9
:10038E007F7F7F7F7F413F41A5A5003048483009E0
:10039E00097D0909417F41A5A5115F01A5A51F1082
:1003AE001058A57F7F7F7F7F7F7F7F7F7F7F7F7FBF
:1003BE007F7F0E5515550C7F7F7F7F7F0E15151194
:1003CE000A22142A14087F7F7F7F7F7F7F7F7F7FA3
:1003DE007F7F7F7F7F511F51A5A53F4444443F7FC0
:1003EE00494949467F494949367F40404060033E6E
:1003FE00427E037F4949494177087F087741494941
:10040E0049367F0408107F3F0264083F7F0814229C
:10041E0041011E20407F7F2018207F7F0808087F23
:10042E003E4141413E7F4040407F7F484848303EFC
:10043E004141412240407F4040700909097E3C42C3
:10044E00FF423C63140814637F01017F01700808AA
:10045E00087F7F017F017F7E027E027F407F090938
:10046E00067F0906007F7F0911110E224149493E80
:10047E007F083E413E314A4C487F021515150F1E2E
:10048E00292949061F15150AA51F101018A5030EB8
:10049E00121E030E1515150C1B041F041B1115152A
:1004AE000AA51F0204081F1F4224481F1F040A1119
:1004BE00A50708101FA51F0804081F1F04041FA569
:1004CE000E1111110E1F10101FA51F1412120C0E5B
:1004DE001111110210101F1010180505051E0C1217
:1004EE009F120C110A040A111F01011F01180404A6
:1004FE001FA51F011F011F1E021E021F101F050533
:10050E00021F0502001F1F050502A50A1115150E73
:0A051E001F040E110E081516141F1D
:10417D0000000001010100FF003B3B17071F0C630E
:10418D00FF630000001F003B005A0078009700B548
:0A419D0000D400F301110130014EBF
:1039A2007820E2FFD3940240047E0080027E0178F8
:1039B20021E2240CC39EFDEE75F00CA42F24FEF927
:1039C200EDFF781FE22FFFE433FEED1313543F7C2B
:1039D200002FFBEC3EFAE975F01FA4FFAEF07D0C60
:1039E200120757EF2BFFEE3ACF24FFCF34FFFE7CB6
:1039F200007D07120757AF05781EEFF270037407B8
:013A0200F2D1
:013A030022A0
:104294007820E2FFB4021008E2540360047E1D801B
:1042A400027E1CAF06800BEFD3940740010FEF444E
:0242B4001EFFEB
:0142B60022E5
:103ABB007FD01243FC7F0A1241F87F811241F8122A
:103ACB0045C17FD01243FC7F0D1241F87F8112411B
:103ADB00F87F041241F8E4FF1241F87841E2FF123B
:103AEB0041F81245C1123936781EE278A1F212392B
:103AFB00A2781EE2FF78A1E26F600878217413F2BE
:033B0B001241253F
:013B0E002294
:1041D0007FD01243FCE4FF1241F8E478A1F278A109
:1041E000E2FFD39402500D1242B71241F878A1E2D7
:0741F00004F280EA1245C150
:0141F70022A5
:104125001239A27FD01243FC7F031241F878A274A2
:1041350003F278A2E2FFD39406500D1242B7124162
:0B414500F878A2E204F280EA1245C103
:01415000224C
:104513007FD01243FC7F101241F87841E2FF124131
:05452300F81245C12261
:103936007FD01243FCE4FF1241F81245C17FD11239
:1039460043FCE478A2F278A2E2FFD39406502BEF70
:10395600B40603C38001D3920512403978A3EFF26F
:103966001245B278A2E27C007BFE241BF9EC3400FF
:10397600FAEF120711E204F280CC1245C17FD01291
:1039860043FC7F111241F81245C17FD11243FCC29C
:0B399600051240397823EFF21245C102
:0139A1002203
:0433030078A1EFF2CC
:103307007822E2FFFD7C00241BF9EC3400FA78A256
:1033170074FEF208EAF208E9F27BFF74862DF9ECF5
:103327003441FA1206A9FEEF247DF9EC3441FA1272
:1033370006A9FD7822E2B40405124294AE0778A1EB
:10334700E2FF08E2FB08E2FA08E2F9EF1206EF787B
:10335700A2E2FB08E2FA08E2F91206A9FFD3EE643B
:1033670080F8EF6480984004ED12071178A2E2FB21
:1033770008E2FA08E2F91206A9FFC3ED6480F8EF44
:093387006480985004EE12071155
:01339000221A
:104248007822E2601024FE600A24FE24FD50042433
:1042580006700E800678227404F2227822E214F2A4
:074268002278227402F22209
:103F20007820E2FF25E0248DF582E43441F5831802
:103F3000E2FD7401932DFDE4933400FC7821E254FA
:103F400003700CEFD3940240067E007F0180047E54
:0A3F5000007F00ED2FFFEC3EFE2283
:0F45B200EFC4540F75F00AA4FEEF540F2EFF2232
:1042B7007E007BFE741B2FF9EE3400FA1206A9FF6D
:1042C700EF75F00A84C454F0FEEF75F00A84E5F048
:0342D7002EFF2295
:1045610012468AD2C112468AA2C29207C2C1A207CA
:014571002227
:07467500A20692C20245619A
:1043E20078A1EFF2D2C1D2C212468AC2C212468A62
:0A43F200C2C178A1E2FF12422022AE
:1043FC0078D1EFF2D2C1D2C212468AC2C212468A18
:0A440C00C2C178D1E2FF1241F8228C
:0F45C100C2C1C2C212468AD2C112468AD2C222D7
:0441F80078D2EFF298
:1041FC00E408F2F278D2E233920612467578D2E2F3
:10420C00FF25E0F208E204F2E2C3940840E6D2068D
:03421C00124675D2
:01421F00227C
:0442200078A2EFF29F
:10422400E408F2F278A2E233920612467578A2E22A
:10423400FF25E0F208E204F2E2C3940840E6D2C2A9
:03424400124561BF
:014247002254
:10403900D2C2E478D2F218F278D2E2FF25E0F21285
:104049004561500678D2E24401F278D1E204F2E205
:10405900C3940840E3A205B3920612467578D2E2EA
:01406900FF57
:01406A002233
:04468A007F02DFFECE
:01468E002209
:0A462200EF60077E13DEFE1F80F636
:01462C00226B
:0E45D000EF600B7E127DEBDDFEDEFC1F80F245
:0145DE0022BA
:103B2300812B0081290082270000812A00812CFA41
:0A3B3300812D00822400008126008D
:102D2D00E4FF20C6010F20C504EF4402FF20C404B8
:102D3D00EF4404FFEF602A7826E2FEB5071D18E286
:102D4D002401F218E23400F208E2647D700218E208
:102D5D007035EEC454F0782DF2802C7826EFF28089
:102D6D00267824E2FE08E2FFD39419EE6480948065
:102D7D00400FEF947DEE64809480500508E2782D2D
:102D8D00F2E47824F208F2782CE26005E214F28085
:102D9D0028782C74FAF218E26003E214F27829E232
:102DAD006003E214F27828E2700218E2600B7828D2
:102DBD00E224FFF218E234FFF2782AE26005E21411
:102DCD00F2800E7828E2700218E26005782A74FA13
:102DDD00F2782AE2540ED39408400B782CE2D39467
:082DED007D4005C2C322D2C3E0
:012DF50022BB
:1045A200782AEFF2782C74FAF2E47827F208F222F1
:06467C00782DE2FFE4F2DC
:014682002215
:103EA800FF00020000010500071E010101010100D9
:103EB80000000000FF0001000000000000000000FA
:103EC8000000000000F78000FF010504040106015E
:0C3ED800173B01010101010101097F02FB
:033B3D00812E00D6
:103A0400D204E478A2F278A2E2FFC39409501D7EA6
:103A1400007BFE74362FF9EE3400FA1206A9F46026
:103A240004C204800778A2E204F280DA30042EE4AF
:103A340078A2F278A2E2FF7C007BFF24A8F9EC34A0
:103A44003EFA1206A9FEEF1B242FF9EC3400FAEE1D
:0D3A5400120711E204F2E2B414D9123E6B25
:013A61002242
:103F5A00E478A1F278A1E2FDC394145028782EE205
:103F6A0025E0FE7C00E42DFFEC3EFE12443078A1F1
:103F7A00E27C007BFE242FF9EC3400FAEF120711E1
:083F8A00E204F280CF123A04B8
:013F9200220C
:103E6B00782EE2FF7E001244E8E478A3F278A3E216
:103E7B00FDC394145026782EE225E0FE7C00E42D41
:103E8B00FFEC3EFE7BFE742F2DF9EC3400FA12068C
:0C3E9B00A9FD12441678A3E204F280D1C5
:013EA70022F8
:1044D20000000000000000000000FF01173B010186
:0644E2000101010101FFD0
:103F9300E478A1F278A1E2FFFD3395E0FC7BFE74A7
:103FA300362DF974003CFA1206A9FEEF3395E0FCB6
:103FB30074432DF974003CFAEE120711E204F2E2A5
:083FC300B40AD1784D74FFF23D
:013FCB0022D3
:103EE400E478A1F278A1E2FFFD3395E0FC7BFE7457
:103EF400432DF974003CFA1206A9FEEF3395E0FC59
:103F040074362DF974003CFAEE120711E204F2E261
:0B3F1400B40AD1123E6B784D74FFF22E
:013F1F00227F
:10452800784DE2C3648094894003E4F222784DE236
:0345380004F22268
:0433910078A1EFF23E
:10339500784DE2FFFD3395E0FC74432DF974003C54
:1033A500FA78A274FEF208EAF208E9F27BFF74DD0E
:1033B5002DF974443CFA1206A9FEEFFD3395E0FCA5
:1033C50074D22DF974443CFA1206A9FF78A1E2FDE6
:1033D50008E2FB08E2FA08E2F9ED1206EF78A2E24C
:1033E500FB08E2FA08E2F91206A9FDD3EE6480F8BB
:1033F500ED6480984004EF12071178A2E2FB08E221
:10340500FA08E2F91206A9FDC3EF6480F8ED6480BD
:07341500985004EE120711AC
:01341C00228D
:0D460900E4F5C7F5C5F5C675C380F5C422FC
:1044300075C78275C5018FC4EEF5C375C65A75C6BA
:07444000A500AFC2124609FE
:014447002252
:1044160075C78275C5028FC4EEF5C3AF058FC27529
:0A442600C65A75C6A5001246092209
:1044E80075C78275C5038FC4EEF5C375C65A75C600
:0644F800A5001246092296
:0146A30022F4
:10453B00438E805389F0E4F58A758CF7C28DD28C4B
:03454B00D2A922D0
:0946370012453B1246A3D2AF224A
:03000B00023BFCB9
:103BFC00C0E0C0F0C083C082C0D075D000C000C08F
:103C0C0001C002C003C004C005C006C00712277162
:103C1C00784EE204F2E2D394204005E4F2122D2D0A
:103C2C00D007D006D005D004D003D002D001D000EC
:0B3C3C00D0D0D082D083D0F0D0E03296
:03001B000246A4F6
:0146A40032E3
:10124700D120CDCEC2DBCC20C3CEC4CECC21212130
:1012570000D0EEE6E4E5F1F2E2EE20F5F0E8F1F297
:10126700EEE2EE2E00D1F2E0F0FBE920CDEEE2FB5C
:10127700E920E3EEE42E00CAF0E5F9E5EDE8E52024
:10128700C3EEF1EFEEE4EDE52E00D2E0F2FCFFED68
:10129700E8ED20E4E5EDFC2E00C4E5EDFC20E2F1ED
:1012A700E5F520E2EBFEE1EBB8EDEDFBF52E00C432
:1012B700E5EDFC20E7E0F9E8F2EDE8EAE020CEF220
:1012C700E5F7E5F1F2E2E02E00CCE5E6E4F3EDE048
:1012D700F0EEE4EDFBE920E6E5EDF1EAE8E920E4EC
:1012E700E5EDFC2E00C4E5EDFC20ECEEF0FFEAE0B6
:1012F7002DEFEEE4E2EEE4EDE8EAE02E00C4E5EDE2
:10130700FC20F1ECE5F5E02E00C4E5EDFC20EAEE6B
:10131700F1ECEEEDE0E2F2E8EAE82E00CFF0E0E7EC
:10132700E4EDE8EA20C2E5F1EDFB20E820D2F0F396
:10133700E4E02E00C4E5EDFC20EFEEE1E5E4FB215F
:10134700212100C4E5EDFC20EFE8EEEDE5F0E8E84B
:101357002E00C4E5EDFC20EFEEE3F0E0EDE8F7ED5D
:10136700E8EAE02E00C4E5EDFC20E7E0F9E8F2FB4F
:1013770020E4E5F2E5E92E00C4E5EDFC20D0CED16E
:10138700D1C8C82E00C4E5EDFC20ECEEEBEEE4E599
:10139700E6E82E00C4E5EDFC20F1E5ECFCE82C20A6
:1013A700EBFEE1E2E820E820E2E5F0EDEEF1F2E81D
:1013B7002E00C4E5EDFC20C2EEE7E4F3F8EDEE2DD8
:1013C700E4E5F1E0EDF2EDFBF520E2EEE9F1EA2EDE
:1013D70000C4E5EDFC20C2EEE5EDEDEE2DE2EEE713
:1013E700E4F3F8EDFBF520F1E8EB2E00C4E5EDFCA6
:1013F70020E7EDE0EDE8E92E00C4E5EDFC20F2E59D
:10140700F1F2E8F0EEE2F9E8EAE02E00C4E5EDFCDF
:1014170020F3F7E8F2E5EBFF2E00C4E5EDFC20F042
:10142700EEE6E4E5EDE8FF20C4E5E4E020CCEEF0ED
:10143700EEE7E02E00C4E5EDFC20FDEDE5F0E3E589
:10144700F2E8EAE02E00C4E5EDFC20EFF0EEE3F071
:10145700E0ECECE8F1F2E02E00C4E5EDFC20ECE571
:10146700E4E8F6E8EDF1EAEEE3EE20F0E0E1EEF293
:10147700EDE8EAE02E00C4E5EDFC20F1E8F1F2E545
:10148700ECEDEEE3EE20E0E4ECE8EDE8F1F2F0E07D
:10149700F2EEF0E02E00C4E5EDFC20C2EEE5EDED46
:1014A700EE2DCCEEF0F1EAEEE3EE20D4EBEEF2E037
:1014B7002E00CCE5E6E4F3EDE0F0EEE4EDFBE92009
:1014C700E4E5EDFC20EFE8E2E02E00C4E5EDFC20CA
:1014D700F1F2F0EEE8F2E5EBFF2E00C4E5EDFC20BB
:1014E700F2E0EDEAE8F1F2E02E00C4E5EDFC20E0E1
:1014F700E2F2EEECEEE1E8EBE8F1F2E02E00C4E513
:10150700EDFC20ECE0F2E5F0E82E000101111247B6
:101517000107141258010E12126C011313127E01E7
:10152700190F1291020E1612A002171A12B603080B
:101537001C12D003131812EC04010C1304040C132F
:101547001310050118132305090F133B05130F1378
:101557004A051C131359060113136C060C0D137F50
:10156700061B0F138C07081E139B08021F13B908CD
:101577000C1B13D809010D13F309091314000A05ED
:101587000E14130B121B14210C1611143C610013BB
:10159700144D36071D1460770520147D77071C143A
:1015A7009D18051914B928071014D229070F14E23A
:0A15B7007A071414F17B070D1505E7
:023B4000C108BA
:103A6200781EE278A2F27F05784FE4F208DFFC7F4D
:103A720005781FE278A2F278A2E2D36480948740AC
:103A820006E224F9F280F0124294AE07E4FFEFC39B
:103A920094055024EEFD78A2E2F9FB3395E0FAD3C7
:103AA200EB9D7480F86A98500F744F2FF8E9F20F6B
:083AB20078A2E22407F280D69D
:013ABA0022E9
:104359007853E2FF700C781FE2FE7852E2B5060A44
:0C436900D322781FE2B50702D322C32242
:10454E00744F2FF8E2FF781FE2FEEFB50603D3801B
:03455E0001C32274
:1024AA00C208123A62E478A1F278A1E2FFC3942347
:1024BA00400302261C30080302261CEF75F005A40F
:1024CA002412F582E43415F583E493FF54F0FEC434
:1024DA00540F1424FB503F700302256C147003023E
:1024EA0025A62407600302261278A1E275F005A446
:1024FA002413F582E43415F583E493FE781FE2FD94
:10250A00EE6D6003022614EF540FFF08E26F6003BA
:10251A000226140225DE78A1E2FF75F005A4241232
:10252A00F582E43415F583E493FE540FFD7820E236
:10253A006D6003022614EF75F005A42413F582E4F6
:10254A003415F583E493FF781EE26F6003022614C4
:10255A00EE5470C4540F14FF12454E400302261461
:10256A008072123F20AC06AD0778A1E2FB75F00538
:10257A00A42412F582E43415F583E4935401FEEBA6
:10258A0075F005A42413F582E43415F583E493FB6E
:10259A00EB6D7002EC6E7072D208803C78A1E2FF9B
:1025AA0075F005A42412F582E43415F583E49354F6
:1025BA000FFE7820E26E7052EF75F005A42413F531
:1025CA0082E43415F583E493FF781EE26F703B12C0
:1025DA0043595036D20878A1E2FE75F005A42414B6
:1025EA00F582E43415F583E493FFEE75F005A4242F
:1025FA0015F582E43415F583E493FC740193AA0477
:10260A00F97BFF1245928002C20878A1E204F20225
:02261A0024B3E7
:01261C00229B
:103B42008173EC815A00825B00008254000082740F
:023B5200000071
:10431C0078A1EFF208EDF27873E2FF1243FC78A17A
:10432C00E2FF1241F878A2E2FF1241F81245C122D5
:0441510078A1EFF270
:104155007873E2FF1243FC78A1E2FF1241F878730D
:10416500E24401FF1243FCC20512403978A2EFF286
:074175001245C178A2E2FF30
:01417C002220
:043DAA0078CEEFF2EE
:103DAE007873E2FF1243FC78CEE2FF1241F878738B
:103DBE00E24401FF1243FCD205124039EFF8E479D8
:103DCE00D0F3E819F3C20512403978CFE2F208E2D7
:0C3DDE004FF21245C178CFE2FE08E2FF70
:013DEA0022B6
:043DEB0078A1EFF2DA
:103DEF007873E2FF1243FC78A1E2FF1241F8787377
:103DFF00E24401FF1243FCD20512403978A2E4F2EB
:103E0F0008EFF2C205124039EFFE78A2E24EF20837
:0C3E1F00E2F21245C178A2E2FE08E2FFC8
:013E2B002274
:04469400123DAA2207
:04469800123DEB22C2
:042F6C0078B9EFF24F
:102F70007873E2FF1243FC78B9E2FF1241F87873EC
:102F8000E24401FF1243FCD205124039E4FCFDFE8D
:102F9000780C12095B78BA12096E78BAE2FB08E283
:102FA000F908E2FA08E2CBF8C000C001C002C00391
:102FB000D205124039E4FCFDFE780412095BD0030F
:102FC000D002D001D000EB4FFFEA4EFEE94DFDE804
:102FD0004CFC78BA12096E78BAE2FB08E2F908E212
:102FE000FA08E2CBF8C000C001C002C003C205125B
:102FF0004039EFC4540FFFD003D002D001D000EB12
:103000004FFFEAFEE9FDE8FC78BA12096E1245C1ED
:0D30100078BAE2FC08E2FD08E2FE08E2FFEB
:01301D002290
:1034A2007FAA123DAA785DEEF208EFF27FAC123DE0
:1034B200AA785FEEF208EFF27FAE123DAA7861EED3
:1034C200F208EFF27FB0123DAA7863EEF208EFF253
:1034D2007FB2123DAA7865EEF208EFF27FB4123D98
:1034E200AA7867EEF208EFF27FB6123DAA7869EE8B
:1034F200F208EFF27FB8123DAA786BEEF208EFF213
:103502007FBA123DAA786DEEF208EFF27FBC123D4F
:10351200AA786FEEF208EFF27FBE123DAA7871EE42
:05352200F208EFF222A7
:1031E4007F88123DEB787AEEF208EFF27F8A12467E
:1031F40098787CEEF208EFF27F8C124698787EEE97
:10320400F208EFF27F8E123DEB7880EEF208EFF2D7
:103214007F901246987882EEF208EFF27F9212467F
:10322400987884EEF208EFF27F941246987886EE4E
:10323400F208EFF27F961246987888EEF208EFF2E1
:103244007F98124698788AEEF208EFF27F9A124637
:1032540098788CEEF208EFF27F9C124698788EEE06
:10326400F208EFF27F9E1246987890EEF208EFF2A1
:013274002237
:10369B001231E47FA11241517892EFF27FE1124691
:1036AB00987893EEF208EFF27FE31241517895EFA1
:1036BB00F27FE4124151EF75F010A4FFAEF0C0079A
:1036CB00C0067FE5124151EF540FFDD0E07896F222
:1036DB00D0E04D08F27FE6124151EF75F010A4FFD8
:1036EB00AEF0C007C0067FE5124151EFC4540FFD89
:1036FB00D0E07898F2D0E04D08F27FE71241517894
:04370B009AEFF2221D
:0E45ED00E4FD7FF512431C7DAB7FF402431CFE
:0A462D007D057FF212431C0245EDEB
:04426F0078CDEFF225
:104273007873E2FF1243FC7FF41241F878CDE2FF3A
:104283001241F81245C17F051245D07FF6123DAAAF
:014293002208
:0D45FB007FF3124151EF30E003D38001C384
:01460800228F
:103527007FEC1243E2B392041245C130040778736B
:1035370074ECF280137FEE1243E2B392041245C19A
:10354700300405787374EEF23004097FD0124151CC
:10355700785AEFF2785AE2FF6003B4FF05E4785A2D
:10356700F222EF6455601C7DB67FE012431C7F9505
:103577001245D07F9580071245FB50077F6412459F
:10358700D080F4785AE224AA24FD500B24F9600D68
:10359700240B700F0234A21231E40245ED12369B60
:0335A70012462D9C
:0135AA0022FE
:100E00007F2E12426F78C9EEF208EFF27F34124261
:100E10006F78CBEEF208EFF2785AE2645560030285
:100E2000124678C9E2FE08E2FFE4FCFDC006C007F6
:100E30007867E2FE08E2FBAA06D007D006C3EF9B64
:100E4000FFEE9AFEED9400FDEC9400FCC004A905B1
:100E5000AA06AB077865E2FE08E2FFE4FCFDD000DD
:100E60001207E2780F12094778A112096E786FE233
:100E7000FE08E2FFEE3395E0FDFC780B12095BC043
:100E800004C005C006C0077871E2FE08E2FFEE3339
:100E900095E0FDFC78A1E2FB08E2F908E2FA08E23D
:100EA000CBF8EB2FFBEA3EFAE93DF9E83CF8D00736
:100EB000D006D005D004123D6678A512096E78A53B
:100EC000E2FC08E2FD08E2FE08E2FF78A1E2FB088E
:100ED000E2F908E2FA08E2CBF8EB2FFFEA3EFEE97E
:100EE0003DFDE83CFC78B112096E78B1E2FC08E205
:100EF000FD08E2FE08E22408FFE43EFEE43DFDE4D6
:100F00003CFC7804120947785BEEF208EFF278B106
:100F1000E2FC08E2FD08E2FE08E22460FFEE34F0A5
:100F2000FEED34FFFDEC34FFFC0812096E78B5E2EB
:100F3000FC08E2FD08E2FE08E2FFA804A905AA06F3
:100F4000FB1207E2780C12094778B912096E785F34
:100F5000E2FE08E2FFEE3395E0FDFC78B5E2FB0827
:100F6000E2F908E2FA08E2CBF81207E2C004C00591
:100F7000C006C007786BE2FE08E2FFEE3395E0FDA5
:100F8000FC78B9E2FB08E2F908E2FA08E2CBF812D1
:100F900007E2D003D002D001D000EF2BFFEE3AFEE3
:100FA000ED39FDEC38FC780B12094778A912096E6F
:100FB000785DE2FE08E2FFEE3395E0FDFCE47B04A1
:100FC000FAF9F81207E278A9E2FB08E2F908E2FA76
:100FD00008E2CBF8EB2FFFEA3EFEE93DFDE83CFCE2
:100FE000EF2402FFE43EFEE43DFDE43CFC78021207
:100FF000094778AD12096E7861E2FE08E2FFEE3330
:1010000095E0FDFC78B5E2FB08E2F908E2FA08E2B7
:10101000CBF81207E2780D12094778A112096E7811
:1010200069E2FE08E2FFEE3395E0FDFC78B9E2FBF1
:1010300008E2F908E2FA08E2CBF81207E2781012A7
:10104000094778A512096E78A5E2FC08E2FD08E2DE
:10105000FE08E2FF78A1E2FB08E2F908E2FA08E202
:10106000CBF8EB2FFFEA3EFEE93DFDE83CFCEF2428
:1010700002FFE43EFEE43DFDE43CFC780212094739
:1010800078A912096E78A9E2FC08E2FD08E2FE08E0
:10109000E22400FFEE3480FEE43DFDE43CFCC004AD
:1010A000A905AA06AB077863E2FE08E2FFE4FCFDAF
:1010B000D0001207E2780F12093478C112096E7855
:1010C000CBE2FE08E2FFE4FCFDC004C005C006C0A0
:1010D0000778ADE2FC08E2FD08E2FE08E2FBAA06A2
:1010E000A905A804D007D006D005D004C3EF9BFF04
:1010F000EE9AFEED99FDEC98FCE47B507AC3F9F88A
:101100001207E278C512096E78C1E2FB08E2F9081D
:10111000E2FA08E2CBF8C00078C5E2FC08E2FD087C
:10112000E2FE08E2FFD00012086D780112095B7838
:10113000BD12096E78BDE2FC08E2FD08E2FE08E29D
:10114000FF7808120947C004C005C006C00778BD73
:10115000E2FC08E2FD08E2FE08E2FF780812094717
:10116000D003D002D001D0001207E278A112096E9C
:10117000E47FDE7E0BFDFC78A1E2FB08E2F908E2E9
:10118000FA08E2CBF81207E2781012094778A112A8
:10119000096E7F437EE37DFF7CFF78BDE2FB08E2C2
:1011A000F908E2FA08E2CBF81207E27810120947D0
:1011B00078A512096E78A5E2FC08E2FD08E2FE08B7
:1011C000E2FF78A1E2FB08E2F908E2FA08E2CBF8D4
:1011D000EB2FFFEA3EFEE93DFDE83CFCEF24CFFFAC
:1011E000EE340EFEE43DFDE43CFC78041209477841
:1011F000BDE2FB08E2F908E2FA08E2CBF8EB2FFFC8
:10120000EA3EFEE93DFDE83CFC78A912096E78A9AA
:10121000E2FC08E2FD08E2FE08E2FFEC1205C87BF2
:10122000B07A507955784112052B785612096E78AC
:1012300056E2FC08E2FD08E2FE08E2FF120606782C
:0612400054EEF208EFF28B
:011246002285
:10230F007FFA122F6C78B512096EE4FFFE7D08FC80
:10231F0078B5E2FB08E2F908E2FA08E2CBF8C3125B
:10232F00092370030224A9787AE2FE08E2FFE4FC95
:10233F00FD780112095BAB07AA06A905C004C00509
:10234F00C006C00778B5E2FC08E2FD08E2FE08E22D
:10235F00FF7803120934D003D002D001D000C3EFAD
:10236F009BFFEE9AFEED99FDEC98FCC004A905AA1F
:10237F0006AB07787CE2FE08E2FFEE3395E0FDFC4A
:10238F00D0001207E2780B12093478B112096E7877
:10239F007AE2FE08E2FFE4FCFDAB07AA06F9C004EF
:1023AF00C005C006C00778B5E2FC08E2FD08E2FEF2
:1023BF0008E2FF7804120934D003D002D001D00014
:1023CF00C3EF9BFFEE9AFEED99FDEC98FCC004C0A5
:1023DF0005C006C007787AE2FE08E2FFE4FCFDAB19
:1023EF0007AA06F9C004C005C006C00778B5E2FC0D
:1023FF0008E2FD08E2FE08E2FF7804120934D00378
:10240F00D002D001D000C3EF9BFFEE9AFEED99FDF5
:10241F00EC98FCD003D002D001D0001207E2780C68
:10242F00120934C004A905AA06AB07787EE2FE089C
:10243F00E2FFEE3395E0FDFCD0001207E2780E12BA
:10244F00093478B1E2FB08E2F908E2FA08E2CBF8C6
:10245F00EB2FFFEA3EFEE93DFDE83CFC78761209E2
:10246F006EE47F05FEFDFC7876E2FB08E2F908E2F8
:10247F00FA08E2CBF81207E2EF2480FFE43EFEE415
:10248F003DFDE43CFC7808120947E47B0AFAF9F8B1
:0A249F00123D66785BEEF208EFF2E2
:0124A9002210
:1009B70012230F7FF7122F6C78A112096E7876E257
:1009C700FC08E2FD08E2FE08E2FF7801120947E4AD
:1009D7002FFFEE3406FEED34FFFDEC34FFFC78A567
:1009E70012096E78A5E2FC08E2FD08E2FE08E2FFC4
:1009F7007802120947C004C005C006C00778A5E2FF
:100A0700FC08E2FD08E2FE08E2FF7802120947D07F
:100A170003D002D001D0001207E2780B120947C0B9
:100A270004A905AA06AB07788AE2FE08E2FFEE33BF
:100A370095E0FDFCD0001207E278A912096E78A9AB
:100A4700E2FB08E2F908E2FA08E2CBF8C000C001CD
:100A5700C002C0037888E2FE08E2FFEE3395E0FDAE
:100A6700FC78A5E2FB08E2F908E2FA08E2CBF81203
:100A770007E2780112095BD003D002D001D000EB66
:100A87002FFFEA3EFEE93DFDE83CFC78A912096E1E
:100A97007886E2FE08E2FFEE3395E0FDFC7810125F
:100AA700095BC004C005C006C00778A9E2FC08E2DC
:100AB700FD08E2FE08E2FF7802120947D003D002E0
:100AC700D001D000EF2BFFEE3AFEED39FDEC38FCFC
:100AD70078A912096E78A5E2FC08E2FD08E2FE0893
:100AE700E2FF7802120947C004C005C006C00778B4
:100AF700A5E2FC08E2FD08E2FE08E2FF780212091F
:100B070047D003D002D001D0001207E2780D1209B6
:100B170047C004A905AA06AB077884E2FE08E2FFEE
:100B2700EE3395E0FDFCD0001207E2780312094787
:100B3700C004C005C006C0077882E2FE08E2FFEEE7
:100B47003395E0FDFC78A5E2FB08E2F908E2FA0834
:100B5700E2CBF81207E27801120947D003D002D09E
:100B670001D000EB2FFFEA3EFEE93DFDE83CFC78B3
:100B77001212094778A512096E78A5E2FC08E2FD72
:100B870008E2FE08E22400FFEE3480FEE43DFDE4C7
:100B97003CFCC004A905AA06AB077880E2FE08E280
:100BA700FFE4FCFDD0001207E2780F12094778A591
:100BB70012096E78A5E2FC08E2FD08E2FE08E2FFF2
:100BC700EC4D4E4F7003020DFF78A9E2FC08E2FDE1
:100BD70008E2FE08E2FF780C120947C004C005C00E
:100BE70006C00778A1E2FB08E2F908E2FA08E2CBBF
:100BF700F8C3E49BFFE49AFE741099FDE498FCD0D7
:100C070003D002D001D000C3EF9BFFEE9AFEED990F
:100C1700FDEC98FCE47B357A0CF9F81207E278AD25
:100C270012096EE4FFFEFD7C8078ADE2FB08E2F975
:100C370008E2FA08E2CBF8C3120923503A78ADE28A
:100C4700FC08E2FD08E2FE08E2FF780112095BC03A
:100C570004C005C006C00778A5E2FC08E2FD08E26B
:100C6700FE08E2FBAA06A905A804D007D006D0050E
:100C7700D00412086D803078A5E2FC08E2FD08E296
:100C8700FE08E2FFC004A905AA06AB0778ADE2FC9F
:100C970008E2FD08E2FE08E2FFD00012086DE47BDF
:100CA70002FAF9F81207E278AD12096E78ADE2FCA4
:100CB70008E2FD08E2FE08E2FF7803120934C004E7
:100CC700C005C006C00778ADE2FC08E2FD08E2FEF9
:100CD70008E2FF7803120934D003D002D001D00014
:100CE7001207E2780D120934C004A905AA06AB075A
:100CF7007890E2FE08E2FFEE3395E0FDFCD00012AB
:100D070007E2780C12094778A512096E78ADE2FC64
:100D170008E2FD08E2FE08E2FF7802120934C00487
:100D2700A905AA06AB07788EE2FE08E2FFEE339527
:100D3700E0FDFCD0001207E2780D12094778A912EE
:100D4700096E78ADE2FB08E2F908E2FA08E2CBF8AF
:100D5700C000C001C002C00378A9E2FC08E2FD0898
:100D6700E2FE08E2FF78A5E2FB08E2F908E2FA08EA
:100D7700E2CBF8EB2FFFEA3EFEE93DFDE83CFCC085
:100D870004A905AA06AB07788CE2FE08E2FFEE335A
:100D970095E0FDFCD000EB2FFFEA3EFEE93DFDE8C4
:100DA7003CFC7804120947D003D002D001D000EBF5
:100DB7002FFFEA3EFEE93DFDE83CFC78AD12096EE7
:100DC70078ADE2FC08E2FD08E2FE08E2FFE4120566
:100DD700C87BB07A507955784112052B785612099D
:100DE7006E7856E2FC08E2FD08E2FE08E2FF120612
:080DF700067854EEF208EFF259
:010DFF0022D1
:101BCA0012230F7FFD123DAAE4FCFD78A112096ED3
:101BDA00E4FF7E80FDFC78A1E2FB08E2F908E2FA64
:101BEA0008E2CBF8C312090D7003021E927876E25E
:101BFA00FC08E2FD08E2FE08E22400FFEE34D4FE0F
:101C0A00ED34FEFDEC34FFFC78A512096E7895E2FE
:101C1A00FFE4FCFDFE78A5E2FB08E2F908E2FA0817
:101C2A00E2CBF81207E2780B120947E42FFFEE34F1
:101C3A0080FEE43DFDE43CFCC004C005C006C007CC
:101C4A00789AE2FF3395E0FEFDFC78A5E2FB08E214
:101C5A00F908E2FA08E2CBF81207E2780A12094711
:101C6A00D003D002D001D0001207E2780A12094745
:101C7A00E42FFFE43EFEED3420FDE43CFCC004A961
:101C8A0005AA06AB077893E2FE08E2FFEE3395E079
:101C9A00FDFCD0001207E2E42FFFEE3420FEE43D03
:101CAA00FDE43CFC780E120947C004C005C006C01A
:101CBA00077896E2FE08E2FFEE3395E0FDFC781421
:101CCA0012095BC004C005C006C00778A1E2FC087F
:101CDA00E2FD08E2FE08E2FF780E12095BD003D0AB
:101CEA0002D001D000C3EF9BFFEE9AFEED99FDEC06
:101CFA0098FCC004C005C006C0077898E2FE08E256
:101D0A00FFEE3395E0FDFC78A5E2FB08E2F908E274
:101D1A00FA08E2CBF81207E2A804A905AA06AB075B
:101D2A00D007D006D005D004C3EF9BFFEE9AFEED94
:101D3A0099FDEC98FCE42FFFEE3440FEE43DFDE40F
:101D4A003CFC780F120947D003D002D001D0001210
:101D5A0007E278A512096E78A5E2FC08E2FD08E21E
:101D6A00FE08E2FFC004C005C006C00778A5E2FC71
:101D7A0008E2FD08E2FE08E2FF780F120947C004F4
:101D8A00C005C006C00778A5E2FC08E2FD08E2FE2D
:101D9A0008E2FF780F120947D003D002D001D00021
:101DAA001207E27807120947C004A905AA06AB0779
:101DBA007892E2FFE4FCFDFED0001207E2780412FA
:101DCA000947A804A905AA06AB07D007D006D0057B
:101DDA00D004C3EF9BFFEE9AFEED99FDEC98FC78D8
:101DEA00A512096E78A5E2FCEC335007E4FFFEFD6C
:101DFA00FC800D78A5E2FC08E2FD08E2FE08E2FF9D
:101E0A0078A512096EE4FFFEFD7C1978A5E2FB08AD
:101E1A00E2F908E2FA08E2CBF8D312090D4008E425
:101E2A00FFFEFD7C19800D78A5E2FC08E2FD08E2C0
:101E3A00FE08E2FF78A512096E78A5E2FC08E2FD29
:101E4A0008E2FE08E2FF780C12094778A512096E2B
:101E5A0078A5E2FC08E2FD08E2FE08E2FFEC1205C2
:101E6A00C87B0A7AD77923784112052B785612094A
:101E7A006E7856E2FC08E2FD08E2FE08E2FF12066E
:081E8A00067874EEF208EFF295
:011E9200222D
:04469C001209B72226
:074683001209B7121BCA2245
:1043C700785AE224AA24FD500B24F9600A240B70C2
:0B43D70009020E0002469C12468322E1
:08000300785BE2FE08E2FF2237
:084640007854E2FE08E2FF22BB
:084648007874E2FE08E2FF2293
:05468F00785AE2FF2251
:0A3B5400C109829B0000829D000061
:0D3C920078ABEBF208EAF208E9F208EDF277
:103C9F007F801243FCE478AFF278AEE2FF08E2FED9
:103CAF00C39F5023EEFF78ADE22FF218E23400F2FB
:103CBF0018E2FB08E2FA08E2F91206A9FF1241F82E
:0A3CCF0078AFE204F280D21245C182
:013CD90022C8
:0D3C470078ABEBF208EAF208E9F208EDF2C2
:103C54007F811243FCE478AFF278AEE2FF08E2C35E
:103C64009F5022D20512403978ABE2FB08E2FA08F1
:103C7400E2F978AFE2F582758300EF12072378AF9B
:0D3C8400E204F280D4C2051240391245C19D
:013C91002210
:1040F80078A7EFF208EBF208EAF208E9F27BFE7A19
:104108000079A77D01123C927F141245D078A8E26D
:0D411800FB08E2FA08E2F97D02123C4722A2
:1037F0007BFE7A0079A57FF31240F878A5E2FFE41A
:10380000FCFDFE780812095BC004A905AA06AB07F7
:1038100078A6E2FFD000EB4FFFEAFEE9FDE8FC7876
:10382000A112096E78A10808E2FE08E254FCFFE448
:10383000FDFC78A112096EE47FA47E44FDFC78A112
:10384000E2FB08E2F908E2FA08E2CBF81207E278B4
:0C38500010120947EF24B3FFEE34EDFE28
:01385C002249
:10385D007BFE7A0079A57FF51240F878A5E2FFE4AA
:10386D00FCFDFE780812095BC004A905AA06AB078A
:10387D0078A6E2FFD000EB4FFFEAFEE9FDE8FC7809
:10388D00A112096E78A10808E2FE08E254FCFFE4DB
:10389D00FDFC78A112096EE47FD47E30FDFC78A189
:1038AD00E2FB08E2F908E2FA08E2CBF81207E27847
:0C38BD0010120947EF24A8FFEE34FDFEB6
:0138C90022DC
:0C4616007F801243E2B392091245C122DA
:104375001237F07C007D0A1207AC789BEEF208EF4D
:0C438500F212385D789DEEF208EFF22293
:08465000789BE2FE08E2FF2264
:08465800789DE2FE08E2FF225A
:0346A000A209224A
:1005280002067CEC5D046005E8590470030206725B
:1005380012063D580460F6EC4860F2EC7004FDFECB
:10054800FF22C860DB2481C85009C39860025006A6
:100558000206799850CAF582E9294B4A7005AB82A0
:1005680002066875F0007C1A7880C3EF9BEE9AED5E
:1005780099400DC3EF9BFFEE9AFEED99FDE842F01E
:10058800DC23ACF0D0E0FFD0E0FED0E0FDAB822071
:10059800E7101BEB60BAEC2CFCEF33FFEE33FEEDFB
:1005A80033FD020654E803F830E705C0F075F000A3
:1005B800EF2FFFEE33FEED33FD40B830E7C280AADF
:1005C80075F020800E75F010800575F0087D007EAE
:1005D800007F003392D530D5031208FFEC3340106A
:1005E800EF33FFEE33FEED33FDEC33FCD5F0ED22B7
:0E05F800E5F0247EA2D513CC92E7CDCEFF22F3
:10060600EDD2E7CD33EC3392D524814006E4FFFEEC
:10061600FDFC22FCE4CFCECDCC24E0501174FF804B
:10062600EDC3CC13CCCD13CDCE13CECF13CF0470E8
:07063600F030D5DE0208FFE1
:10063D00E9D2E7C933E833F892D5EDD2E7CD33EC03
:07064D0033FC5002B2D5227C
:10065400EC30E7100FBF000C0EBE00080DBD000407
:100664000BEB6014A2D5EB13FCED92E7FD2274FFB3
:10067400FCFDFEFF22E480F8A2D574FF13FC7D800C
:03068400E480EF20
:103038000215C1E493A3F8E493A34003F68001F2D8
:1030480008DFF48029E493A3F85407240CC8C33399
:10305800C4540F4420C8834004F456800146F6DF68
:10306800E4800B0102040810204080903B0FE47EAE
:10307800019360BCA3FF543F30E509541FFEE4935D
:10308800A360010ECF54C025E060A840B8E493A324
:10309800FAE493A3F8E493A3C8C582C8CAC583CA4F
:1030A800F0A3C8C582C8CAC583CADFE9DEE780BE07
:013B5E000066
:10068700C2D530F707B2D563F0FF05F030E70CB2FB
:10069700D5F4048463F0FF05F080018430D502F4BB
:0206A70004222B
:1006A900BB010689828A83E0225002E722BBFE024F
:0906B900E32289828A83E4932282
:1006C200BB010CE58229F582E5833AF583E02250ED
:1006D20006E92582F8E622BBFE06E92582F8E22237
:0D06E200E58229F582E5833AF583E4932251
:1006EF00BB010989828A83F8E028F022500327F79B
:1006FF0022BBFE05F8E328F3228A838982F8E4936C
:02070F0028229E
:10071100BB010689828A83F0225002F722BBFE01C7
:02072100F322C1
:10072300F8BB010DE58229F582E5833AF583E8F00C
:10073300225006E92582C8F622BBFE05E92582C8B8
:02074300F222A0
:10074500EF8DF0A4A8F0CF8CF0A428CE8DF0A42EC8
:02075500FE2282
:10075700BC000BBE0029EF8DF084FFADF022E4CC86
:10076700F875F008EF2FFFEE33FEEC33FCEE9DEC4F
:10077700984005FCEE9DFE0FD5F0E9E4CEFD22ED95
:10078700F8F5F0EE8420D21CFEADF075F008EF2FDF
:10079700FFED33FD4007985006D5F0F222C398FDD0
:0507A7000FD5F0EA226D
:1007AC00C2D5EC30E709B2D5E4C39DFDE49CFCEE68
:1007BC0030E715B2D5E4C39FFFE49EFE120757C382
:1007CC00E49DFDE49CFC800312075730D507C3E47D
:0607DC009FFFE49EFE22D7
:1007E200E88FF0A4CC8BF0A42CFCE98EF0A42CFCB6
:1007F2008AF0EDA42CFCEA8EF0A4CDA8F08BF0A434
:100802002DCC3825F0FDE98FF0A42CCD35F0FCEB92
:100812008EF0A4FEA9F0EB8FF0A4CFC5F02ECD3957
:0F082200FEE43CFCEAA42DCE35F0FDE43CFC22C4
:1008310075F008758200EF2FFFEE33FECD33CDCC7E
:1008410033CCC58233C5829BED9AEC99E582984001
:100851000CF582EE9BFEED9AFDEC99FC0FD5F0D6DE
:10086100E4CEFBE4CDFAE4CCF9A88222B800C1B908
:100871000059BA002DEC8BF084CFCECDFCE5F0CB46
:10088100F97818EF2FFFEE33FEED33FDEC33FCEB7F
:1008910033FB10D703994004EB99FB0FD8E5E4F93A
:1008A100FA227818EF2FFFEE33FEED33FDEC33FC27
:1008B100C933C910D7059BE99A4007EC9BFCE99A1B
:1008C100F90FD8E0E4C9FAE4CCFB2275F010EF2F60
:1008D100FFEE33FEED33FDCC33CCC833C810D70760
:1008E1009BEC9AE899400AED9BFDEC9AFCE899F89B
:0E08F1000FD5F0DAE4CDFBE4CCFAE4C8F9222E
:103D6600C2D5E830E70FB2D5E4C39BFBE49AFAE488
:103D760099F9E498F8EC30E717B2D5123D9C120891
:103D86006DE4C39BFBE49AFAE499F9E498F880039E
:103D960012086D30D50DE4C39FFFE49EFEE49DFD41
:043DA600E49CFC227B
:0E08FF00C3E49FFFE49EFEE49DFDE49CFC220A
:10090D00EB9FF5F0EA9E42F0E99D42F0EC6480C861
:06091D0064809845F02201
:10092300EB9FF5F0EA9E42F0E99D42F0E89C45F02A
:0109330022A1
:10093400E8600FECC313FCED13FDEE13FEEF13FFA1
:03094400D8F122C5
:10094700E86010ECA2E713FCED13FDEE13FEEF13C6
:04095700FFD8F022B3
:10095B00E8600FEFC333FFEE33FEED33FDEC33FCFA
:03096B00D8F1229E
:0C096E00ECF208EDF208EEF208EFF222C5
:10097A00F5F0C582A4C582C5F0C583A42583F58395
:01098A00224A
:10098B00D083D082F8E4937012740193700DA3A3FB
:10099B0093F8740193F5828883E47374029368600F
:0609AB00EFA3A3A380DF0F
:0609B1008A838982E473D1
:00000001FF
