:0300000002372D97
:10372D0078FFE4F6D8FD9000007F007E03E4F0A35F
:0A373D00DFFCDEFA758120023782FE
:10487A001244A1124583124B4D12416B1245131279
:0B488A003B9D124B21782574FFF222A9
:104A76003005FD12000EC2AF1244A1D2AFE4781782
:024A8600F2221A
:104A88003005FD12000EC2AF1243EED2AFE4781724
:024A9800F22208
:1015DF0078A87401F212487A7F14124ABB782E74DD
:1015EF0002F23005FDC205781BE275F00A84E5F0C2
:1015FF00702E7817E2FF600964026024EF640360C5
:10160F001F782EE27014740AF2124B9EEF600312D1
:10161F004895124BAF5003124A28123C9C122DCD05
:10162F00124B8B78A7EFF2600FE2C3941050047F38
:10163F001480027F28124ABB78A7E224FE700302AF
:10164F00171524FE700302171A24F470030217BA39
:10165F00240F60030218037817E214B40B00400341
:10166F0002180390168075F003A4C58325F0C58377
:10167F00730216A10216D50216E00216F202170F18
:10168F0002170F02170F02170F02170F02170C0284
:10169F00170F7816E2FF24FD601A14601D24F8500E
:1016AF001F240A600302180378257402F27817EFDB
:1016BF00F2021803782574068003E4784FF2800055
:1016CF007816E20217F57825E270121246F2021828
:1016DF00007825E2B4040612467002180012476A19
:1016EF00021803784FE2FF70057845E26004EFB40B
:1016FF00090512442B8009124A3D021803124A139E
:10170F00124A8802180078A87401F278A7E2B4048C
:10171F00040874FFF27817E2B40C004003021803B8
:10172F00901736F828287302175A02175C021766AB
:10173F0002176602177002177A02178402178D02BA
:10174F00179602179F0217A80217B1804378A8E2D5
:10175F00FF1249FE02180378A8E2FF1238E60218BA
:10176F000378A8E2FF123A8C02180378A8E2FF125E
:10177F00498D02180378A8E2FF124948807678A8AD
:10178F00E2FF12495F806D78A8E2FF12497680640C
:10179F0078A8E2FF12481E805B78A8E2FF1249A4E6
:1017AF00805278A8E2FF1249BB80497817E2B40C47
:1017BF000050419017C9F82828730217ED0217F44B
:1017CF000218000218000217FA0217FD0217FD0295
:1017DF0017FD0217FD0217FD0217FD0217FD7817FF
:1017EF007401F2800FE47817F28009124513124A40
:1017FF0076124B2D7817E2B40C005065901812F842
:10180F0028287302183602183B02184002184502A6
:10181F00184A02184F02185402185902185E02187B
:10182F006302186802186D12432A803512385880E7
:10183F00301233EE802B1231E08026121D218021D1
:10184F00124616801C124B768017123974801212B2
:10185F004B7D800D123A00800812256B8003124ACF
:10186F00AB781CE204F2781BE204F2300625781DF7
:10187F00E2B4061F781BE275F00584E5F07014C31F
:10188F007810E264809480400A08E22401F218E2A2
:10189F003400F2781CE2D3943B4002E4F2781BE26E
:1018AF00D3943B50030215F1E4F27812E204F2787C
:1018BF001DE2B4070040030219B69018D0F828288B
:1018CF00730218E50218F20218FF02191202194CDE
:1018DF000219810219A37812E2D39405500302155D
:1018EF00F180187812E2D3940250030215F1800BA5
:1018FF007812E2D3940250030215F1781DE204F23C
:10190F000219A07812E2D3940250030215F1124B80
:10191F009EEF6007781D7404F28020124BAF5007C2
:10192F00781D7405F2801430060D781D7406F2E4EC
:10193F007810F208F28004E4781DF280547812E2F5
:10194F00D3940250030215F1124B9EEF64606005B1
:10195F00124BAF5007781DE204F2801430060D7859
:10196F001D7406F2E47810F208F28004E4781DF298
:10197F00801F7812E2D3940250030215F130060D46
:10198F00781D7406F2E47810F208F28004E4781DF2
:10199F00F2E48017C37810E264809480400302154C
:1019AF00F1E4781DF28004E4781DF27812F202154A
:0119BF00F136
:1022ED00007F7F40407F7F007F7F08087F7F000356
:1022FD001F227E7F0300007F7F49497F36004040CB
:10230D007F7F4040007F7F4848783000003E7F410E
:10231D00416322007F7F4848783000031F227E7F73
:10232D00030000707808087F7F0040407F7F4040A9
:10233D00007F7F49497F3600007F7F40407F7F00CF
:10234D0040407F7F4040007F7F08087F7F00003E38
:10235D007F414163220060731B0F7C70007F7F49BA
:10236D00494F4600007F7F49497F36003E7F4141FE
:10237D006322007F7F0814636300007C7C40407CF7
:10238D007C007C7C10107C7C000C3C48787C0C0024
:10239D00007C7C54547C280040407C7C4040007C78
:1023AD007C505070200000387C44446C28007C7CAC
:1023BD0050507020000C3C48787C0C000060701070
:1023CD00107C7C0040407C7C4040007C7C54547CE4
:1023DD002800007C7C40407C7C0040407C7C404060
:1023ED00007C7C10107C7C0000387C44446C280000
:1023FD0064741C187060007C7C54545C4800007C34
:10240D007C54547C2800387C44446C28007C7C101F
:10241D00386C440000607F7F60006F6F007F3F105D
:10242D001F103F7F007F7F4949007F7F63361C006F
:10243D001F3F6C6C3F1F00607F7F60007F7F4949AD
:10244D003F7F4C7F3F007F7F0303003F7F4C7F3FEB
:10245D00007F7F6C6C370000003E41417149493E61
:10246D00000000063A433A06000000007F7F6868CE
:10247D00003E7F417F3E007F3F180C7E7F00607FD6
:10248D007F607F7F41633E1C006F6F00327B496F21
:10249D0026007F7F446C38007F3F101F103F7F0068
:1024AD006F6F007F7F63361C007F7F6C6C387F7F82
:1024BD00497F36007F7F6C6C37006F6F003E7F4128
:1024CD004D2E0000003E41417149493E0000000083
:1024DD0000000011117D1111000000000000007FAF
:1024ED007F417F7F007F7F381C7F7F0000000000D1
:1024FD000000007F7F417F7F007F7F6C6C007F7FBE
:10250D006C6C00000000607F7F6000730B7E7C00B0
:10251D007F7F4C380036007F7F49497F36007F7FB3
:10252D004C4E7B3100360000705070003E7F634191
:10253D00410000000011117D111100007F413E008E
:10254D0032492600224936002345390022493600FA
:0E255D00207F0000123455555555555432104C
:1040C400810F008210FFFF81170081160281120008
:0C40D400811D00810000810100810201BB
:10458300E4F59375943FF5917592FFF5957596FF54
:10459300F5B175B27F7838E2781AF2C205A2C792F4
:1045A3000412412878137401F2087400F20874DCD1
:0245B300F222F2
:0D000E0053B0807590FF75A0FF43803F2226
:10309C007801E2FEC394055011781AE2FDEEB505F5
:1030AC000312000E7801E204F222E47801F212001D
:1030BC000E20040A18E2FEC374159EFF80047800EB
:1030CC00E2FFEFB4160040030231769030DEF828B0
:1030DC00287302312002312402312802312C0231B2
:1030EC003002313402313802313C02314002314479
:1030FC0002314802314C0231500231540231580233
:10310C00315C02316002316402316802316C02318F
:10311C0070023174C2908052C291804EC292804A29
:10312C00C2938046C2948042C295803EC296803A39
:10313C00C2978036C2A08032C2A1802EC2A2802A41
:10314C00C2A38026C2A48022C2A5801EC2A6801A59
:10315C00C2A78016C2808012C281800EC282800AF1
:10316C00C2838006C2848002C28520040CC37415FD
:10317C009F2408F8E6F5B0804474082FF8E6FEC4E6
:10318C005402FDEEC4131354014DFE74082FF8E6DF
:10319C00FD131354044EFEED54084EFE74082FF824
:1031AC00E6FD25E025E054104EFEEDC454204EFE05
:1031BC0074082FF8E6C4333354404EF5B07800E26F
:1031CC0004F2E2D39415400BE4F2A2C7920420055A
:0331DC0002D20517
:0131DF0022CD
:0B4B2D00E47817F27812F2781DF222F3
:103C9C00123ED3781EE2706A7802E2606AE4F2782F
:103CAC0045E2603908E2FF7820E26F70307847E235
:103CBC00FF781FE2B507267821E27E007BFE2447C1
:103CCC00F9EE3400FA12068B603D7837E2FF7C0087
:103CDC007D3C1206FA782AEEF208EFF2227846E2E0
:103CEC00FF3395E0FE7820E2D39FEE6480F8748079
:103CFC00984014781FE2700F7833E2600A7F280234
:073D0C004ABB78027401F2CA
:013D1300228D
:0C411C007813E4F2087400F2087408F252
:104128007836E214601514601C14602314602A8029
:104138000078187400F2087482F22278187400F279
:104148000874AAF22278187400F20874D2F222785D
:10415800187400F20874FAF22278187401F20874DC
:0341680022F2221E
:1048FE00902549E4FFEFC39416500DE493FE74081F
:08490E002FF8A6060FA380EDAF
:01491600227E
:102F48007835E224FE6078147003023001147003AF
:102F58000230302404701E781CE2FEC3940F500522
:102F6800E4FF02305DEEC3942D50057F0302305D0F
:102F7800E4FF02305D781CE2FEC394055005E4FFCF
:102F880002305DEEC3940D50057F0102305DEEC343
:102F9800941650057F0202305DEEC3942750057FDA
:102FA8000302305DEEC3943050057F0202305DEEBF
:102FB800C3943850057F0102305DE4FF02305D782C
:102FC8001CE2FEC394065005E4FF02305DEEC39494
:102FD8001250047F03807EEEC3941E50047F048049
:102FE80074EEC3942A50047F05806AEEC394365069
:102FF800047F068060E4FF805C781CE2FEC39407CF
:103008005004E4FF804FEEC3941650047F078045B8
:10301800EEC3942550047F03803BEEC394345004E0
:103028007F088031E4FF802D781CE2FEC3940750AE
:1030380004E4FF8020EEC3941650047F018016EE4E
:10304800C3942550047F02800CEEC3943450047F4F
:10305800018002E4FFE4FEEEC39404503675F004E8
:10306800EFA42EF582E435F0F583E582241EF5827F
:10307800E5833400F583E493FD7813E2FB08E2FA74
:1030880008E2F9ED1206C60EE22401F218E2340055
:03309800F280C4FF
:01309B002212
:0332E900E4FBFD06
:0A32EC0078ADEFF208EDF208EBF206
:1032F600E408F278B0E2FDC39404506B78AEE27055
:103306004608E2600C78ADE275F00A84D39400407A
:103316003678ADE275F00A8475F004A47C002DFFC2
:10332600EC35F0FE7819E22FFF18E23EFE78B1F296
:1033360008EFF2F5828E83E493FF7813E2FB08E24E
:10334600FA08E2F9EF800B7813E2FB08E2FA08E2EA
:10335600F9E41206C678B0E204F27815E22401F226
:1033660018E23400F2808C7813E2FB08E2FA08E2F5
:10337600F9E41206C6E22401F218E23400F2E47817
:10338600B0F278B0E2FDC39404505C78AEE27037D8
:1033960018E275F00A84E5F075F004A47C002DFFB0
:1033A600EC35F0FE7819E22FFF18E23EFE78B1F216
:1033B60008EFF2F5828E83E493FF7813E2FB08E2CE
:1033C600FA08E2F9EF800B7813E2FB08E2FA08E26A
:1033D600F9E41206C678B0E204F27815E22401F2A6
:0733E60018E23400F2809BA5
:0133ED0022BD
:1047FC007820E2FDD39418500618E2943C40030252
:10480C0048FEAF051232E9122F48781FE2FF123230
:02481C00E9228F
:1041BA007823E2D3940C500718E2FD9420400302BE
:1041CA0048FEAF057B01E4FD1232ECE4FFEFC39435
:1041DA00045020EF90002293FE7813E2FB08E2FAE3
:1041EA0008E2F9EE1206C60FE22401F218E23400E0
:0D41FA00F280DA7823E2FFE4FBFD1232ECE4
:014207002294
:1035BC007821E214B4070050709035D375F003A451
:1035CC00C58325F0C583730235E80235F30235FE59
:1035DC0002360902361402361F02362A78A97422E2
:1035EC00F20874EDF2804B78A97423F2087403F29C
:1035FC00804078A97423F2087419F2803578A97484
:10360C0023F208742FF2802A78A97423F2087445E7
:10361C00F2801F78A97423F208745BF2801478A9E5
:10362C007423F2087471F2800978A97425F2087475
:10363C0049F2E4FFEFC39416503478A9E2FC08E297
:10364C00F5828C83E493FE7813E2FB08E2FA08E23D
:10365C00F9EE1206C60F78AAE22401F218E2340041
:0E366C00F27815E22401F218E23400F280C672
:01367A00222D
:102A2B007843E278AAF27826E2FF78AAE22FF2E264
:102A3B00FFD3648094E35003022AD4E418F278A9FC
:102A4B00E2C3940450207813E2FB08E2FA08E2F99F
:102A5B00E41206C678A9E204F27815E22401F21812
:102A6B00E23400F280D8E478A9F278A9E2FEC394AC
:102A7B00055026EE90007493FE7813E2FB08E2FA01
:102A8B0008E2F9EE1206C678A9E204F27815E22400
:102A9B0001F218E23400F280D17813E2FB08E2FA7B
:102AAB0008E2F9E41206C6E22401F218E23400F25D
:102ABB0018E2FB08E2FA08E2F9E41206C6E2240186
:102ACB00F218E23400F2022BDAD3EF6480948940DF
:102ADB005CE478A9F278A9E2FFC39405507B08E285
:102AEB00FE75F00A120669FD3395E08D82F583744D
:102AFB000512092FE5822FF582E43583F583E582F4
:102B0B002442F582E5833400F583E493FF7813E2E6
:102B1B00FB08E2FA08E2F9EF1206C678A9E204F222
:102B2B007815E22401F218E23400F280A8E478A9C7
:102B3B00F278A9E2C3940550207813E2FB08E2FA7D
:102B4B0008E2F9E41206C678A9E204F27815E22449
:102B5B0001F218E23400F280D87813E2FB08E2FAB3
:102B6B0008E2F9E41206C6E22401F218E23400F29C
:102B7B00E478A9F278A9E2FFC39405505208E2FE6B
:102B8B0075F00A120669AEF0EEFD3395E08D82F515
:102B9B0083740512092FE5822FF582E43583F583C3
:102BAB00E5822442F582E5833400F583E493FF78D4
:102BBB0013E2FB08E2FA08E2F9EF1206C678A9E283
:102BCB0004F27815E22401F218E23400F280A578C1
:102BDB0013E2FB08E2FA08E2F9E41206C6E224016A
:102BEB00F218E23400F218E2FB08E2FA08E2F9E428
:102BFB001206C6E22401F218E23400F2E478A9F2DC
:102C0B0078A9E2FFC394095026EF90007993FF78DF
:102C1B0013E2FB08E2FA08E2F9EF1206C678A9E222
:0F2C2B0004F27815E22401F218E23400F280D1AD
:012C3A002277
:1027D800124B56AB07AA06E478ABF278ABE2FFC31C
:1027E80064809484500D74032FF8E4F278ABE2040B
:1027F800F280E878AB7403F2D3EB9400EA64809437
:1028080080500978ABE26480948040297C007D0A7E
:10281800AF03AE0212076178ABE22403F8EDF27859
:10282800ABE214F27C007D0AAF03AE02120761AA84
:1028380006AB0780C3E478ABF278ABE2FDC36480F3
:102848009484504A7803E275F004A4FFED3395E0D0
:10285800FCEF2DFFE5F03CFE7819E22FFF18E23E71
:10286800FE78A9F208EFF2F5828E83E493FF7813DD
:10287800E2FB08E2FA08E2F9EF1206C678ABE204D6
:10288800F27815E22401F218E23400F280AB7813F2
:10289800E2FB08E2FA08E2F9E41206C6E22401F2D1
:1028A80018E23400F2E478ABF278ABE2FDC364805E
:1028B8009484504A7804E275F004A4FFED3395E05F
:1028C800FCEF2DFFE5F03CFE7819E22FFF18E23E01
:1028D800FE78A9F208EFF2F5828E83E493FF78136D
:1028E800E2FB08E2FA08E2F9EF1206C678ABE20466
:1028F800F27815E22401F218E23400F280AB781382
:10290800E2FB08E2FA08E2F9E41206C6E22401F260
:1029180018E23400F2E478ABF278ABE2FDC36480ED
:102928009484504A7805E275F004A4FFED3395E0ED
:10293800FCEF2DFFE5F03CFE7819E22FFF18E23E90
:10294800FE78A9F208EFF2F5828E83E493FF7813FC
:10295800E2FB08E2FA08E2F9EF1206C678ABE204F5
:10296800F27815E22401F218E23400F280AB781311
:10297800E2FB08E2FA08E2F9E41206C6E22401F2F0
:1029880018E23400F218E2FB08E2FA08E2F97403EC
:102998001206C6E22401F218E23400F218E2FB083B
:1029A800E2FA08E2F974031206C6E22401F218E218
:1029B8003400F218E2FB08E2FA08E2F9E41206C66B
:1029C800E22401F218E23400F2E478ABF278ABE2E8
:1029D800FDC364809484504A7806E275F004A4FF2D
:1029E800ED3395E0FCEF2DFFE5F03CFE7819E22F82
:1029F800FF18E23EFE78A9F208EFF2F5828E83E432
:102A080093FF7813E2FB08E2FA08E2F9EF1206C630
:102A180078ABE204F27815E22401F218E23400F20D
:022A280080AB81
:012A2A002289
:1011F600E478ACF208F2124BAF5005124B6E800940
:10120600124B9EBF600A124B5E78ACEEF208EFF20C
:10121600E478ABF278ABE2FFC364809485500D743A
:10122600072FF8E4F278ABE204F280E878AB7404B6
:10123600F2D378ADE2940018E29400500818E26404
:10124600809480403278ACE2FA08E2FB7C007D0AAA
:10125600FFAE0212070C78ABE22407F8EDF278AB8A
:10126600E214F27C007D0AAF03AE0212070C78ACE2
:10127600EEF208EFF280BA7807E260030213ED7827
:10128600ABF278ABE2FDC364809484504A7808E2FE
:1012960075F004A4FFED3395E0FCEF2DFFE5F03C7F
:1012A600FE7819E22FFF18E23EFE78A9F208EFF267
:1012B600F5828E83E493FF7813E2FB08E2FA08E2F4
:1012C600F9EF1206C678ABE204F27815E22401F2D1
:1012D60018E23400F280AB7813E2FB08E2FA08E287
:1012E600F9E41206C6E22401F218E23400F2E478C8
:1012F600ABF278ABE2FDC364809484504A7809E28D
:1013060075F004A4FFED3395E0FCEF2DFFE5F03C0E
:10131600FE7819E22FFF18E23EFE78A9F208EFF2F6
:10132600F5828E83E493FF7813E2FB08E2FA08E283
:10133600F9EF1206C678ABE204F27815E22401F260
:1013460018E23400F280AB7813E2FB08E2FA08E216
:10135600F9E41206C6E22401F218E23400F218E2B9
:10136600FB08E2FA08E2F974031206C6E22401F267
:1013760018E23400F218E2FB08E2FA08E2F9E41295
:1013860006C6E22401F218E23400F2E478ABF27801
:10139600ABE2FDC3648094844003021554780AE2EC
:1013A60075F004A4FFED3395E0FCEF2DFFE5F03C6E
:1013B600FE7819E22FFF18E23EFE78A9F208EFF256
:1013C600F5828E83E493FF7813E2FB08E2FA08E2E3
:1013D600F9EF1206C678ABE204F27815E22401F2C0
:1013E60018E23400F280A87813E2FB08E2FA08E279
:1013F600F9E41206C6E22401F218E23400F2E478B7
:10140600ABF278ABE2FDC364809484504A7807E27D
:1014160075F004A4FFED3395E0FCEF2DFFE5F03CFD
:10142600FE7819E22FFF18E23EFE78A9F208EFF2E5
:10143600F5828E83E493FF7813E2FB08E2FA08E272
:10144600F9EF1206C678ABE204F27815E22401F24F
:1014560018E23400F280AB7813E2FB08E2FA08E205
:10146600F9E41206C6E22401F218E23400F2E47846
:10147600ABF278ABE2FDC364809484504A7808E20C
:1014860075F004A4FFED3395E0FCEF2DFFE5F03C8D
:10149600FE7819E22FFF18E23EFE78A9F208EFF275
:1014A600F5828E83E493FF7813E2FB08E2FA08E202
:1014B600F9EF1206C678ABE204F27815E22401F2DF
:1014C60018E23400F280AB7813E2FB08E2FA08E295
:1014D600F9E41206C6E22401F218E23400F2E478D6
:1014E600ABF278ABE2FDC364809484504A7809E29B
:1014F60075F004A4FFED3395E0FCEF2DFFE5F03C1D
:10150600FE7819E22FFF18E23EFE78A9F208EFF204
:10151600F5828E83E493FF7813E2FB08E2FA08E291
:10152600F9EF1206C678ABE204F27815E22401F26E
:1015360018E23400F280AB7813E2FB08E2FA08E224
:10154600F9E41206C6E22401F218E23400F2781336
:10155600E2FB08E2FA08E2F9E41206C6E22401F226
:1015660018E23400F218E2FB08E2FA08E2F97462C3
:101576001206C6E22401F218E23400F218E2FB0871
:10158600E2FA08E2F974641206C6E22401F218E2ED
:101596003400F218E2FB08E2FA08E2F974081206CF
:1015A600C6E22401F218E23400F218E2FB08E2FA7D
:1015B60008E2F974131206C6E22401F218E23400B6
:1015C600F218E2FB08E2FA08E2F974231206C6E210
:0815D6002401F218E23400F2D6
:0115DE0022EA
:1045E7007820E2FFC3941850257838E26406701EDD
:1045F700EF782030E009E2C31390255F938008E24B
:0F460700C31390255F93C4540FFF781AEFF2226C
:10432A0012411C1245E7781DE2B407005030904351
:10433A003FF8282873024354024356024359024362
:10434A005C02435F02436202436580120241BA0281
:10435A0035BC022A2B0227D80211F6023C21124749
:02436A00FC2233
:04454C00E49308F2FA
:10455000ED1206A412068BFF78AEE2D36480F8EF6A
:10456000648098400678ADE21206C612068BFF788A
:10457000ADE2C36480F8EF648098500678AEE21232
:0345800006C6224A
:1049FE007BFE7A007916AD0778AD7402F208740B5F
:054A0E00F212455022E8
:103858007816E224FEB40A00506690387075F003BA
:10386800A4C58325F0C5837302388E0238940238C4
:103878009A0238A00238A60238AC0238B20238B828
:103888000238BE0238C47E247F2180347E247F37EC
:10389800802E7E247F4D80287E247F6380227E2494
:1038A8007F79801C7E247F8F80167E247FA58010E0
:1038B8007E247FBB800A7E247FD180047E257F33CF
:1038C800E4FDEDC3941650158F828E83E493FC7447
:0D38D800082DF8A6040D0FBF00010E80E5BD
:0138E50022C0
:1033EE0012411C781BE2FFC3940F5004C200800CE4
:1033FE00EFC3942D5004D2008002C2007825E270F3
:10340E007678A9F278A9E2C3940950207813E2FBEA
:10341E0008E2FA08E2F9E41206C678A9E204F278A4
:10342E0015E22401F218E23400F280D8E478A9F211
:10343E0078A9E2FFC394045026EF90002A93FF78F8
:10344E0013E2FB08E2FA08E2F9EF1206C678A9E2E7
:10345E0004F27815E22401F218E23400F280D178F9
:10346E001EE2FF7825E2FE700A300003EE60047D56
:10347E0001806C7D0080687820E2FF7825E2FEB442
:10348E00020B300004640260047D0180027D00E4C2
:10349E00FB1232ECE478A9F278A9E2FFC39404504F
:1034AE0026EF90002A93FF7813E2FB08E2FA08E277
:1034BE00F9EF1206C678A9E204F27815E22401F2B9
:1034CE0018E23400F280D1781FE2FF7825E2FEB4D4
:1034DE00010B300004640160047D0180027D00E474
:0434EE00FB1232ECAF
:0134F20022B7
:1031E00012411C781BE2FFC3940F5004C200800CF4
:1031F000EFC3942D5004D2008002C2007825E2640F
:103200000660030232867813E2FB08E2FA08E2F96C
:10321000E41206C6E22401F218E23400F218E2FBDE
:1032200008E2FA08E2F9E41206C6E22401F218E222
:103230003400F2E4FBFD7F141232EC7813E2FB0859
:10324000E2FA08E2F9E41206C6E22401F218E234D6
:1032500000F27824E2FF08E2FEB4060B30000464BA
:103260000660047D0180027D00E4FB1232EC7813DD
:10327000E2FB08E2FA08E2F9E41206C6E22401F2EF
:1032800018E23400F2227822E2FF7825E2FEB4044C
:103290000B300004640460047D0180027D007B012A
:1032A0001232ECE4FFEFC394045020EF900022931D
:1032B000FE7813E2FB08E2FA08E2F9EE1206C60F06
:1032C000E22401F218E23400F280DA7823E2FF7897
:1032D00025E2FEB4050B300004640560047D018026
:0832E000027D00E4FB1232EC58
:0132E80022C3
:101D210012411C784FE2FF704C7845E278AB6009B4
:101D31007424F20874E7F280077424F20874FDF247
:101D4100E478A9F278A9E2FEC394164003022023A5
:101D510078ABE2FC08E2F5828C83E493FD74082EF3
:101D6100F8A60578A9E204F278ACE22401F218E2BF
:101D71003400F280CFEF6401600A784FE2640260C0
:101D810003021E0B781BE2FFC3940F5004C20080B4
:101D91000CEFC3942D5004D2008002C2007846E2B9
:101DA100FF784FE2FEB4010B300004640160047D52
:101DB1000180027D00E4FB1232ECE478A9F278A9FB
:101DC100E2FFC394045026EF90002A93FF7813E2B8
:101DD100FB08E2FA08E2F9EF1206C678A9E204F27A
:101DE1007815E22401F218E23400F280D17847E25A
:101DF100FF784FE2FEB4020B300004640260047D00
:101E01000180027D00E4FB0232EC781BE2FFC39407
:101E11001B5004C200800CEFC394215004D20080F7
:101E210002C200784FE224FDB40700506E901E3CC0
:101E310075F003A4C58325F0C58373021E51021EEC
:101E41005C021E67021E72021E7D021E88021E9324
:101E510078AB7423F2087487F2804078AB7423F274
:101E610008749DF2803578AB7423F20874B3F28064
:101E71002A78AB7423F20874C9F2801F78AB7423FB
:101E8100F20874DFF2801478AB7423F20874F5F26F
:101E9100800978AB7424F208740BF2E478A9F27823
:101EA100A9E2FFC394164003022023E408F2EF12D3
:101EB10009401EE1011EE1021F0E041F0E051F3B1A
:101EC100071F3B081F680A1F680B1F8B0D1F8B0E16
:101ED1001FAE101FAE111FD1131FD11400001FF52B
:101EE100784FE2FF640360057848E2704AEF6403CB
:101EF1006003021FF57848E2FF6003300039EF60AC
:101F010003021FF5200003021FF5021FF0784FE2C4
:101F1100FF640460057849E2701DEF640460030208
:101F21001FF57849E2FF600330000CEF6003021FE8
:101F3100F5200003021FF5021FF0784FE2FF640550
:101F41006005784AE2701DEF64056003021FF578B1
:101F51004AE2FF600330000CEF6003021FF520002E
:101F610003021FF5021FF0784FE2FF640660057857
:101F71004BE27014EF6406707B784BE2FF60033034
:101F81000006EF706F30006C8065784FE2FF6407E8
:101F91006005784CE27014EF64077058784CE2FFEA
:101FA1006003300006EF704C3000498042784FE208
:101FB100FF64086005784DE27014EF6408703578AD
:101FC1004DE2FF6003300006EF7029300026801FCC
:101FD100784FE2FF6409600418E27013EFB409144A
:101FE100784EE2FF6003300006EF7008300005789C
:101FF100AA7401F278ABE2FE08E2F5828E83E493E3
:10200100FF78AAE2FEEF4EFF18E22408F8A607784F
:10201100A9E204F278ACE22401F218E23400F202FF
:022021001EA0FF
:01202300229A
:104948007BFE7A007936AD079044F1E49378ADF2B6
:0749580090450412454C22BA
:074B760012411C1247FC2252
:10495F007BFE7A007934AD079044EFE49378ADF2A3
:07496F0090450212454C22A5
:103974007813E4F2087400F2087408F2E4FFEFC369
:1039840094105020EF90251393FE7813E2FB08E285
:10399400FA08E2F9EE1206C60FE22401F218E23444
:1039A40000F280DA7813E2FB08E2FA08E2F9E412A2
:1039B40006C6E22401F218E23400F2E4FFEFC394F5
:1039C4000550387834E275F005A42FF582E435F01B
:1039D400F583E5822442F582E5833400F583E4939C
:1039E400FE7813E2FB08E2FA08E2F9EE1206C60FCB
:0B39F400E22401F218E23400F280C26D
:0139FF0022A5
:104976007BFE7A007935AD079044F0E49378ADF28A
:0749860090450312454C228D
:074B7D0012411C1247FC224B
:10481E007BFE7A007938AD079044F3E49378ADF2DD
:10482E0090450612454C7838E2781AF21245E72286
:103A00007813E4F2087400F2087408F2E4FFEFC3DC
:103A100094105020EF90252393FE7813E2FB08E2E8
:103A2000FA08E2F9EE1206C60FE22401F218E234B7
:103A300000F280DA7813E2FB08E2FA08E2F9E41215
:103A400006C6E22401F218E23400F2E4FFEFC39468
:103A50000550387838E275F005A42FF582E435F08A
:103A6000F583E5822442F582E5833400F583E4930F
:103A7000FE7813E2FB08E2FA08E2F9EE1206C60F3E
:0B3A8000E22401F218E23400F280C2E0
:013A8B002218
:10498D007BFE7A007933AD079044EEE49378ADF277
:07499D0090450112454C2278
:104616007833E260067E247FE780047E247FFDE413
:10462600FDEDC3941650158F828E83E493FC7408B7
:0C4636002DF8A6040D0FBF00010E80E55A
:014642002255
:1049A4007BFE7A007944AD079044FFE49378ADF23E
:0749B40090451212454C2250
:10256B007813E4F2087400F2087408F27844E2FF7E
:10257B00C36480948040028001D39200300005EF49
:10258B00F40480037844E278ACF2E478ABF278ABF5
:10259B00E2FFC364809483500D740C2FF8E4F2783F
:1025AB00ABE204F280E878AB7402F278ACE2D3943D
:1025BB0000500818E264809480401E78ACE2FF75EE
:1025CB00F00A8418E2240CF8E5F0F278ABE214F28E
:1025DB00EF75F00A8408F280D278AC7403F2200015
:1025EB0004E22405F2780CE2701178ACE22405F2D7
:1025FB00780DE2700678ACE22405F2E478ABF27861
:10260B00ACE2FF18E2FD3395E0FCC3ED9F7480F85C
:10261B006C9850207813E2FB08E2FA08E2F9E41216
:10262B0006C678ABE204F27815E22401F218E23424
:10263B0000F280CB300046E478ABF278ABE2C364B7
:10264B0080948450217813E2FB08E2FA08E2F974D3
:10265B00081206C678ABE204F27815E22401F218F0
:10266B00E23400F280D57813E2FB08E2FA08E2F9D3
:10267B00E41206C6E22401F218E23400F2780CE20E
:10268B00D394004070E478ABF278ABE2FDC3648086
:10269B009484504A780CE275F004A4FFED3395E076
:1026AB00FCEF2DFFE5F03CFE7819E22FFF18E23E20
:1026BB00FE78A9F208EFF2F5828E83E493FF78138C
:1026CB00E2FB08E2FA08E2F9EF1206C678ABE20485
:1026DB00F27815E22401F218E23400F280AB7813A1
:1026EB00E2FB08E2FA08E2F9E41206C6E22401F280
:1026FB0018E23400F2780CE2D39400500608E2940E
:10270B00004070E478ABF278ABE2FDC36480948454
:10271B00504A780DE275F004A4FFED3395E0FCEF21
:10272B002DFFE5F03CFE7819E22FFF18E23EFE7814
:10273B00A9F208EFF2F5828E83E493FF7813E2FBA4
:10274B0008E2FA08E2F9EF1206C678ABE204F27877
:10275B0015E22401F218E23400F280AB7813E2FBAD
:10276B0008E2FA08E2F9E41206C6E22401F218E2E2
:10277B003400F2E478ABF278ABE2FDC3648094846E
:10278B00504A780EE275F004A4FFED3395E0FCEFB0
:10279B002DFFE5F03CFE7819E22FFF18E23EFE78A4
:1027AB00A9F208EFF2F5828E83E493FF7813E2FB34
:1027BB0008E2FA08E2F9EF1206C678ABE204F27807
:0C27CB0015E22401F218E23400F280ABA9
:0127D70022DF
:1049BB007BFE7A007943AD079044FEE49378ADF229
:0749CB0090451112454C223A
:104AAB007813E4F2087400F2087408F2122A2B222D
:103C21007810E2FE08E2FF24EA78AAF2EE34FF18E7
:103C3100F2780FE22416FDE433FCD3EF9DEC6480AF
:103C4100F8EE648098400E74FF7810F208F2E47880
:103C51001DF27812F2E4FFEFFD78AAE22DFD18E2E1
:103C61003400FCC3648094804025780FE2FBED9B17
:103C71007480F86C98501878A908E22F24DCF5823A
:103C8100E43400F583E0FE74082FF8A6068006747C
:0A3C9100082FF8E4F60FEFB416BD9B
:013C9B002206
:10491700780FE2C394FE5010E2FE04F274DC2EF529
:0949270082E43400F583EFF02274
:043D880078AAEFF234
:103D8C00E4780FF278ABF278AAE214FF08E2C39F52
:103D9C00505A12068BFDC394A0400674C02DFD80B2
:103DAC000EEDC39420400674E02DFD80027D1FE4CF
:103DBC00FC75F005EDA42CF582E435F0F583E58275
:103DCC00244AF582E5833401F583E493FF64A5600E
:103DDC00031249170CECB405D8E4FF12491778AB61
:0C3DEC00E204F2740129F9E43AFA809B29
:013DF80022A8
:10001E000000000000080800001C1C00003636001E
:10002E00002436000024240000240000003030009C
:10003E00000606007F7F417F7F00007F7F000F4F0D
:10004E004979794149497F7F7878087F7F79794965
:10005E004F0F7F7F494F0F4040407F7F7F7F497F0B
:10006E007F7879497F7F3040454830705070003E30
:10007E007F6341417F41417F00007F004F494979B5
:10008E004949497F7808087F7949494F7F49494F47
:10009E004040407F7F49497F7949497F3E45413EF7
:1000AE0000217F0123454931425169460C14245FDA
:1000BE007251514E1E294906404F5060367F4936C7
:1000CE0030494A3C7E41413F00407F000F4949394B
:1000DE004949493E7C04041F7849490F7F49490725
:1000EE006040403F7E49493F7849493F7F63637F87
:1000FE0000607F006F6B6B7B6B6B6B7F7878087F1C
:10010E007B7B4B4F7F7F494F40407F7F7F6B6B7F69
:10011E007969497F007F417F00007F00004F497958
:10012E000049497F0078087F0079494F007F494F89
:10013E000040407F007F497F0079497F000000002A
:10014E00A57DA5A5A5A5700070A5A5147F147F1487
:10015E00122A7F2A24626408132336495522055039
:10016E0060A5A5A51C2241A5A541221CA5A5140884
:10017E003E081408083E08080506A5A5A5040404B3
:10018E0004A501A5A5A5A502040810203E41413EE7
:10019E00A500217F01A521434539A522414936A558
:1001AE000C14247FA57251514EA53E494926A540F7
:1001BE00474870A536494936A53249493EA512A58C
:1001CE00A5A5A50112A5A5A508142241A5141414D0
:1001DE00141441221408A520404548303E415D5577
:1001EE003C1F2444241F7F494949363E4141412248
:1001FE007F4141221C7F494949417F484848403E42
:10020E004149492F7F0808087F417F41A5A502017A
:10021E00417E407F081422417F010101A57F2018F5
:10022E00207F7F1008047F3E4141413E7F48484871
:10023E00303E4145423D7F484C4A3132494949267C
:10024E0040407F40407E0101017E700C030C707EA9
:10025E00010E017E6314081463700807087043458D
:10026E004951617F4141A5A50C123F120441417FC6
:10027E00A5A5102040201001010101014020A5A5D7
:10028E00A5021515150F7F0911110E0E1111110270
:10029E000E1111097F0E1515150C083F4840201838
:1002AE002525253E7F0810100F115F01A5A502011F
:1002BE00115EA57F040A11A5417F01A5A51F100C93
:1002CE00100F1F08100FA50E1111110E3F24222220
:1002DE001C1C2222243F1F081008A5081515150204
:1002EE00107E1101021E0101021F18060106181EC2
:1002FE000106011E110A040A11180505051E111327
:10030E00151911083641A5A57FA5A5A5A541360845
:10031E00A5A508100810A5A5A5A5A5A5021E3F1EFA
:10032E00023049294936184525451E0201417E40B5
:10033E002A1C771C2A3F202020607F7F7F7F7F7FB3
:10034E007F7F7F7F3F692969217F7F7F7F7F3E4946
:10035E0049412208142A14227F7F7F7F7F1E29277E
:10036E00211E7F7F7F7F7F413F41A5A500304848FA
:10037E003009097D0909417F41A5A5115F01A5A598
:10038E001F101058A57F7F7F7F7F7F7F7F7F7F7FAE
:10039E007F7F7F7F0E5515550C7F7F7F7F7F0E15DC
:1003AE0015110A22142A14087F7F7F7F7F7F7F7F9B
:1003BE007F7F7F7F7F7F7F511F51A5A53F444444A0
:1003CE003F7F494949467F494949367F4040406011
:1003DE00033E427E037F4949494177087F087741B2
:1003EE00494949367F0408107F3F0264083F7F0861
:1003FE00142241011E20407F7F2018207F7F080895
:10040E00087F3E4141413E7F4040407F7F48484803
:10041E00303E4141412240407F4040700909097EF3
:10042E003C42FF423C63140814637F01017F01705C
:10043E000808087F7F017F017F7E027E027F407F5A
:10044E000909067F0906007F7F0911110E22414915
:10045E00493E7F083E413E314A4C487F02151515F4
:10046E000F1E292949061F15150AA51F101018A5BC
:10047E00030E121E030E1515150C1B041F041B1163
:10048E0015150AA51F0204081F1F4224481F1F042A
:10049E000A11A50708101FA51F0804081F1F040432
:1004AE001FA50E1111110E1F10101FA51F141212D1
:1004BE000C0E1111110210101F1010180505051E3B
:1004CE000C129F120C110A040A111F01011F0118B0
:1004DE0004041FA51F011F011F1E021E021F101F55
:1004EE000505021F0502001F1F050502A50A1115AD
:0C04FE00150E1F040E110E081516141F19
:1046C80000000001010100FF003B3B17071F0C63BE
:1046D800FF630000001F003B005A0078009700B5F8
:0A46E80000D400F301110130014E6F
:103FAB007823E2FFD3940240047E0080027E0178E6
:103FBB0024E2240CC39EFDEE75F00CA42F24FEF915
:103FCB00EDFF7822E22FFFE433FEED1313543F7C19
:103FDB00002FFBEC3EFAE975F01FA4FFAEF07D0C51
:103FEB0012070CEF2BFFEE3ACF24FFCF34FFFE7CF2
:103FFB00007D0712070CAF057821EFF270037407F1
:01400B00F2C2
:01400C002291
:1047B6007823E2FFB4021008E2540360047E1D80F1
:1047C600027E1CAF06800BEFD3940740010FEF4427
:0247D6001EFFC4
:0147D80022BE
:10416B007FD01248CA7F0A12471A7F8112471A1250
:10417B004ADA7FD01248CA7F0D12471A7F81124745
:10418B001A7F0412471AE4FF12471A7844E2FF120F
:10419B00471A124ADA123ED37821E278A9F2123F7B
:0E41AB00AB7821E2FF78A9E26F600312467044
:0141B90022E3
:1046F2007FD01248CAE4FF12471AE478A9F278A9D7
:10470200E2FFD39402500D1247D912471A78A9E258
:0747120004F280EA124ADA0A
:01471900227D
:10467000123FAB7FD01248CA7F0312471A78AA7440
:1046800003F278AAE2FFD39406500D1247D91247DD
:0B4690001A78AAE204F280EA124ADA6B
:01469B0022FC
:104A13007FD01248CA7F1012471A7844E2FF124728
:054A23001A124ADA221C
:103ED3007FD01248CAE4FF12471A124ADA7FD1127E
:103EE30048CAE478AAF278AAE2FFD39406502BEFEB
:103EF300B40603C38001D392011245B578ABEFF248
:103F0300124ACB78AAE27C007BFE241EF9EC340033
:103F1300FAEF1206C6E204F280CC124ADA7FD0121C
:103F230048CA7F1112471A124ADA7FD11248CAC20D
:0B3F3300011245B57826EFF2124ADAC1
:013F3E002260
:0438E60078A9EFF2DC
:1038EA007825E2FFFD7C00241EF9EC3400FA78AA60
:1038FA0074FEF208EAF208E9F27BFF74D12DF9ECC2
:10390A003446FA12068BFEEF24C8F9EC3446FA1252
:10391A00068BFD7825E2B404051247B6AE0778A9EE
:10392A00E2FF08E2FB08E2FA08E2F9EF1206A478DD
:10393A00AAE2FB08E2FA08E2F912068BFFD3EE6468
:10394A0080F8EF6480984004ED1206C678AAE2FB7C
:10395A0008E2FA08E2F912068BFFC3ED6480F8EF79
:09396A006480985004EE1206C6B8
:013973002231
:10476A007825E2601024FE600A24FE24FD50042409
:10477A0006700E800678257404F2227825E214F277
:07478A002278257402F222DF
:104467007823E2FF25E024D8F582E43446F5831863
:10447700E2FD7401932DFDE4933400FC7824E254AB
:1044870003700CEFD3940240067E007F0180047E08
:0A449700007F00ED2FFFEC3EFE2237
:0F4ACB00EFC4540F75F00AA4FEEF540F2EFF2214
:1047D9007E007BFE741E2FF9EE3400FA12068BFF61
:1047E900EF75F00A84C454F0FEEF75F00A84E5F021
:0347F9002EFF226E
:104A9A00124B99D2C1124B99A2C29203C2C1A2036C
:014AAA0022E9
:074B8400A20292C2024A9A4C
:1048B00078A9EFF2D2C1D2C2124B99C2C2124B995F
:0A48C000C2C178A9E2FF12474222AC
:1048CA0078D9EFF2D2C1D2C2124B99C2C2124B9915
:0A48DA00C2C178D9E2FF12471A228A
:0F4ADA00C2C1C2C2124B99D2C1124B99D2C22291
:04471A0078DAEFF268
:10471E00E408F2F278DAE2339202124B8478DAE2AB
:10472E00FF25E0F208E204F2E2C3940840E6D2026A
:03473E00124B8497
:014741002255
:0447420078AAEFF270
:10474600E408F2F278AAE2339202124B8478AAE2E3
:10475600FF25E0F208E204F2E2C3940840E6D2C282
:03476600124A9A5A
:01476900222D
:1045B500D2C2E478DAF218F278DAE2FF25E0F212F4
:1045C5004A9A500678DAE24401F278D9E204F2E236
:1045D500C3940840E3A201B39202124B8478DAE255
:0145E500FFD6
:0145E60022B2
:044B99007F02DFFEBA
:014B9D0022F5
:0A4B3800EF60077E13DEFE1F80F61B
:014B42002250
:0E4AE900EF600B7E127DEBDDFEDEFC1F80F227
:014AF700229C
:1040E000812E00812C00822A0000812D00812FFA70
:0A40F00081300082270000812900C2
:1034F300E4FF20C6010F20C504EF4402FF20C404EB
:10350300EF4404FFEF602A7829E2FEB5071D18E2B5
:103513002401F218E23400F208E2647D700218E23A
:103523007035EEC454F07830F2802C7829EFF280B5
:10353300267827E2FE08E2FFD39419EE6480948094
:10354300400FEF947DEE64809480500508E278305C
:10355300F2E47827F208F2782FE26005E214F280B1
:1035630028782F74FAF218E26003E214F2782CE25E
:103573006003E214F2782BE2700218E2600B782BFE
:10358300E224FFF218E234FFF2782DE26005E21440
:10359300F2800E782BE2700218E26005782D74FA3F
:1035A300F2782DE2540ED39408400B782FE2D39493
:0835B3007D4005C2C322D2C312
:0135BB0022ED
:104ABB00782DEFF2782F74FAF2E4782AF208F222CA
:064B8B007830E2FFE4F2C5
:014B91002201
:1044DA00FF00010000010500071E010101010100A2
:1044EA00000000FF000100000000000000000000C2
:1044FA0000000000F780FF01050404010601173BD4
:09450A0001010101010101097F19
:0340FA0081310011
:10400D00D200E478AAF278AAE2FFC39409501D7E8B
:10401D00007BFE74392FF9EE3400FA12068BF46032
:10402D0004C200800778AAE204F280DA30002EE4A0
:10403D0078AAF278AAE2FF7C007BFF24DAF9EC344F
:10404D0044FA12068BFEEF1B2432F9EC3400FAEE23
:0D405D001206C6E204F2E2B413D91243EEDB
:01406A002233
:1044A100E478A9F278A9E2FDC3941350287831E2A7
:1044B10025E0FE7C00E42DFFEC3EFE12493078A998
:1044C100E27C007BFE2432F9EC3400FAEF1206C6DE
:0844D100E204F280CF12400D5D
:0144D90022C0
:1043EE007831E2FF7E001249E8E478ABF278ABE276
:1043FE00FDC3941350267831E225E0FE7C00E42DB7
:10440E00FFEC3EFE7BFE74322DF9EC3400FA120600
:0C441E008BFD1248E478ABE204F280D180
:01442A00226F
:1049D20000000000000000000000FF01173B010181
:0649E2000101010101FFCB
:10451300E478A9F278A9E2FFFD3395E0FC7BFE7411
:10452300392DF974003CFA12068BFEEF3395E0FC4B
:1045330074452DF974003CFAEE1206C6E204F2E269
:08454300B40AD1784F74FFF2B5
:01454B00224D
:10442B00E478A9F278A9E2FFFD3395E0FC7BFE74FA
:10443B00452DF974003CFA12068BFEEF3395E0FC28
:10444B0074392DF974003CFAEE1206C6E204F2E25E
:0B445B00B40AD11243EE784F74FFF258
:014466002233
:104A3D00784FE2C3648094894003E4F222784FE218
:034A4D0004F2224E
:043A8C0078A9EFF234
:103A9000784FE2FFFD3395E0FC74452DF974003C4E
:103AA000FA78AA74FEF208EAF208E9F27BFF74DD04
:103AB0002DF974493CFA12068BFEEFFD3395E0FCBC
:103AC00074D22DF974493CFA12068BFF78A9E2FDF5
:103AD00008E2FB08E2FA08E2F9ED1206A478AAE28D
:103AE000FB08E2FA08E2F912068BFDD3EE6480F8D7
:103AF000ED6480984004EF1206C678AAE2FB08E263
:103B0000FA08E2F912068BFDC3EF6480F8ED6480D9
:073B1000985004EE1206C6F6
:013B1700228B
:0D4B1400E4F5C7F5C5F5C675C380F5C422EC
:1049300075C78275C5018FC4EEF5C375C65A75C6B5
:07494000A500AFC2124B14E9
:01494700224D
:1048E40075C78275C5028FC4EEF5C3AF058FC27557
:0A48F400C65A75C6A500124B142227
:1049E80075C78275C5038FC4EEF5C375C65A75C6FB
:0649F800A500124B142281
:014BB20022E0
:104A5000438E805389F0E4F58A758CF7C28DD28C31
:034A6000D2A922B6
:094B4D00124A50124BB2D2AF2201
:03000B00024208A6
:10420800C0E0C0F0C083C082C0D075D000C000C07C
:1042180001C002C003C004C005C006C00712309C1C
:104228007850E204F2E2D394204005E4F21234F329
:10423800D007D006D005D004D003D002D001D000DA
:0B424800D0D0D082D083D0F0D0E03284
:03001B00024BB3E2
:014BB30032CF
:1019C000D120CDCEC2DBCC20C3CEC4CECC212121B0
:1019D00000D0EEE6E4E5F1F2E2EE20F5F0E8F1F217
:1019E000EEE2EE2E00D1F2E0F0FBE920CDEEE2FBDC
:1019F000E920E3EEE42E00CAF0E5F9E5EDE8E520A4
:101A0000C3EEF1EFEEE4EDE52E00D2E0F2FCFFEDE7
:101A1000E8ED20E4E5EDFC2E00C4E5EDFC20E2F16C
:101A2000E5F520E2EBFEE1EBB8EDEDFBF52E00C4B1
:101A3000E5EDFC20E7E0F9E8F2EDE8EAE020CEF29F
:101A4000E5F7E5F1F2E2E02E00CCE5E6E4F3EDE0C7
:101A5000F0EEE4EDFBE920E6E5EDF1EAE8E920E46B
:101A6000E5EDFC2E00C4E5EDFC20ECEEF0FFEAE035
:101A70002DEFEEE4E2EEE4EDE8EAE02E00C4E5ED61
:101A8000FC20F1ECE5F5E02E00C4E5EDFC20EAEEEB
:101A9000F1ECEEEDE0E2F2E8EAE82E00CFF0E0E76C
:101AA000E4EDE8EA20C2E5F1EDFB20E820D2F0F316
:101AB000E4E02E00C4E5EDFC20EFEEE1E5E4FB21DF
:101AC000212100C4E5EDFC20EFE8EEEDE5F0E8E8CB
:101AD0002E00C4E5EDFC20EFEEE3F0E0EDE8F7EDDD
:101AE000E8EAE02E00C4E5EDFC20E7E0F9E8F2FBCF
:101AF00020E4E5F2E5E92E00C4E5EDFC20D0CED1EE
:101B0000D1C8C82E00C4E5EDFC20ECEEEBEEE4E518
:101B1000E6E82E00C4E5EDFC20F1E5ECFCE82C2025
:101B2000EBFEE1E2E820E820E2E5F0EDEEF1F2E89C
:101B30002E00C4E5EDFC20C2EEE7E4F3F8EDEE2D57
:101B4000E4E5F1E0EDF2EDFBF520E2EEE9F1EA2E5D
:101B500000C4E5EDFC20C2EEE5EDEDEE2DE2EEE792
:101B6000E4F3F8EDFBF520F1E8EB2E00C4E5EDFC25
:101B700020E7EDE0EDE8E92E00C4E5EDFC20F3F709
:101B8000E8F2E5EBFF2E00C4E5EDFC20F0EEE6E424
:101B9000E5EDE8FF20C4E5E4E020CCEEF0EEE7E080
:101BA0002E00C4E5EDFC20EDE5F0E3E5F2E8EAE027
:101BB0002E00C4E5EDFC20EFF0EEE3F0E0ECECE805
:101BC000F1F2E02E00C4E5EDFC20ECE5E4E8F6E8F7
:101BD000EDF1EAEEE3EE20F0E0E1EEF2EDE8EAE02E
:101BE0002E00C4E5EDFC20F1E8F1F2E5ECEDEEE3CA
:101BF000EE20E0E4ECE8EDE8F1F2F0E0F2EEF0E007
:101C00002E00C4E5EDFC20C2EEE5EDEDEE2DCCEEB0
:101C1000F0F1EAEEE3EE20D4EBEEF2E02E00CCE5BC
:101C2000E6E4F3EDE0F0EEE4EDFBE920E4E5EDFCC5
:101C300020EFE8E2E02E00C4E5EDFC20F1F2F0EE4A
:101C4000E8F2E5EBFF2E00C4E5EDFC20F2E0EDEA62
:101C5000E8F1F2E02E00C4E5EDFC20E0E2F2EEEC6B
:101C6000EEE1E8EBE8F1F2E02E00C4E5EDFC20EC5B
:101C7000E0F2E5F0E82E0001011119C00107141986
:101C8000D1010E1219E501131319F701190F1A0AE0
:101C9000020E161A1902171A1A2F03081C1A4903E2
:101CA00013181A6504010C1A7D040C131A89050116
:101CB000181A9C05090F1AB405130F1AC3051C1333
:101CC0001AD20601131AE5060C0D1AF8061B0F1B93
:101CD0000507081E1B1408021F1B32080C1B1B5192
:101CE00009010D1B6C0A050E1B790B121B1B870CBF
:101CF00016101BA26100131BB236071D1BC577050A
:101D0000201BE277071C1C021805191C1E2807104F
:101D10001C3729070F1C477A07141C567B070D1C1C
:011D20006A58
:0240FD00C106FA
:10406B007821E278AAF27F057851E4F208DFFC7F31
:10407B00057822E278AAF278AAE2D364809487408A
:10408B0006E224F9F280F01247B6AE07E4FFEFC365
:10409B0094055024EEFD78AAE2F9FB3395E0FAD3B0
:1040AB00EB9D7480F86A98500F74512FF8E9F20F5A
:0840BB0078AAE22407F280D686
:0140C30022DA
:10485E007855E2FF700C7822E2FE7854E2B5060A33
:0C486E00D3227822E2B50702D322C32235
:104A630074512FF8E2FF7822E2FEEFB50603D380FC
:034A730001C3225A
:102DCD00C206E4780FF212406BE478A9F278A9E21A
:102DDD00FFC394224003022F47300603022F47EF13
:102DED0075F005A42477F582E4341CF583E493FF94
:102DFD0054F0FEC4540F1424FB503F7003022E9365
:102E0D00147003022ECD24076003022F3978A9E236
:102E1D0075F005A42478F582E4341CF583E493FE63
:102E2D007822E2FDEE6D6003022F3FEF540FFF0895
:102E3D00E26F6003022F3F022F0578A9E2FF75F0C4
:102E4D0005A42477F582E4341CF583E493FE540F36
:102E5D00FD7823E26D6003022F3FEF75F005A4248A
:102E6D0078F582E4341CF583E493FF7821E26F60FA
:102E7D0003022F3FEE5470C4540F14FF124A6340E7
:102E8D0003022F3F8072124467AC06AD0778A9E2AA
:102E9D00FB75F005A42477F582E4341CF583E493E7
:102EAD005401FEEB75F005A42478F582E4341CF58D
:102EBD0083E493FBEB6D7002EC6E7076D206803C72
:102ECD0078A9E2FF75F005A42477F582E4341CF5AA
:102EDD0083E493540FFE7823E26E7056EF75F00580
:102EED00A42478F582E4341CF583E493FF7821E281
:102EFD006F703F12485E503AD20678A9E2FE75F027
:102F0D0005A42479F582E4341CF583E493FFEE7572
:102F1D00F005A4247AF582E4341CF583E493FC7463
:102F2D000193AA04F97BFF123D888006C206E4785E
:0A2F3D000FF278A9E204F2022DDA87
:012F47002267
:1040FF008175EC815C00825D000082560000827643
:02410F000000AE
:10483E0078A9EFF208EDF27875E2FF1248CA78A96E
:10484E00E2FF12471A78AAE2FF12471A124ADA2238
:04469C0078A9EFF218
:1046A0007875E2FF1248CA78A9E2FF12471A7875B6
:1046B000E24401FF1248CAC2011245B578AAEFF2DE
:0746C000124ADA78AAE2FFBA
:0146C70022D0
:04436C0078D6EFF21E
:104370007875E2FF1248CA78D6E2FF12471A7875BC
:10438000E24401FF1248CAD2011245B5EFF8E479C0
:10439000D8F3E819F3C2011245B578D7E2F208E282
:0C43A0004FF2124ADA78D7E2FE08E2FF82
:0143AC0022EE
:0443AD0078A9EFF20A
:1043B1007875E2FF1248CA78A9E2FF12471A7875A8
:1043C100E24401FF1248CAD2011245B578AAE4F2CB
:1043D10008EFF2C2011245B5EFFE78AAE24EF208EB
:0C43E100E2F2124ADA78AAE2FE08E2FFDB
:0143ED0022AD
:044BA30012436C222B
:044BA7001243AD22E6
:04367B0078C1EFF231
:10367F007875E2FF1248CA78C1E2FF12471A7875CF
:10368F00E24401FF1248CAD2011245B5E4FCFDFE27
:10369F00780C12091078C212092378C2E2FB08E2F3
:1036AF00F908E2FA08E2CBF8C000C001C002C0037B
:1036BF00D2011245B5E4FCFDFE7804120910D003C7
:1036CF00D002D001D000EB4FFFEA4EFEE94DFDE8EE
:1036DF004CFC78C212092378C2E2FB08E2F908E237
:1036EF00FA08E2CBF8C000C001C002C003C2011249
:1036FF0045B5EFC4540FFFD003D002D001D000EB7B
:10370F004FFFEAFEE9FDE8FC78C2120923124ADAFC
:0D371F0078C2E2FC08E2FD08E2FE08E2FFCD
:01372C00227A
:103B18007FAA12436C785FEEF208EFF27FAC124393
:103B28006C7861EEF208EFF27FAE12436C7863EEC8
:103B3800F208EFF27FB012436C7865EEF208EFF20C
:103B48007FB212436C7867EEF208EFF27FB412434B
:103B58006C7869EEF208EFF27FB612436C786BEE80
:103B6800F208EFF27FB812436C786DEEF208EFF2CC
:103B78007FBA12436C786FEEF208EFF27FBC124303
:103B88006C7871EEF208EFF27FBE12436C7873EE38
:053B9800F208EFF2222B
:1037C7007F881243AD787CEEF208EFF27F8A124BC6
:1037D700A7787EEEF208EFF27F8C124BA77880EE87
:1037E700F208EFF27F8E1243AD7882EEF208EFF225
:1037F7007F90124BA77884EEF208EFF27F92124B7C
:10380700A77886EEF208EFF27F94124BA77888EE3E
:10381700F208EFF27F96124BA7788AEEF208EFF2E2
:103827007F98124BA7788CEEF208EFF27F9A124B33
:10383700A7788EEEF208EFF27F9C124BA77890EEF6
:10384700F208EFF27F9E124BA77892EEF208EFF2A2
:01385700224E
:103D14001237C77FA112469C7894EFF27FE1124BD1
:103D2400A77895EEF208EFF27FE312469C7897EFBE
:103D3400F27FE412469CEF75F010A4FFAEF0C007CA
:103D4400C0067FE512469CEF540FFDD0E07898F250
:103D5400D0E04D08F27FE612469CEF75F010A4FF08
:103D6400AEF0C007C0067FE512469CEFC4540FFDB9
:103D7400D0E0789AF2D0E04D08F27FE712469C78C2
:043D84009CEFF2229C
:0E4AF800E4FD7FF512483E7DAB7FF402483EA0
:0A4B43007D057FF212483E024AF899
:0447910078D5EFF2F6
:104795007875E2FF1248CA7FF412471A78D5E2FF0E
:1047A50012471A124ADA7F05124AE97FF612436C5C
:0147B50022E1
:0D4B06007FF312469CEF30E003D38001C323
:014B1300227F
:103B9D007FEC1248B0B39200124ADA300007787504
:103BAD0074ECF280137FEE1248B0B39200124ADA31
:103BBD00300005787574EEF23000097FD012469C06
:103BCD00785CEFF2785CE2FF6003B4FF05E4785CAB
:103BDD00F222EF6455601C7DB67FE012483E7F9562
:103BED00124AE97F958007124B0650077F64124AEF
:103BFD00E980F4785CE224AA24FD500B24F9600DD1
:103C0D00240B700F023B181237C7024AF8123D14ED
:033C1D00124B4304
:013C20002281
:100DAF007F2E12479178D1EEF208EFF27F3412477F
:100DBF009178D3EEF208EFF2785CE26455600302AB
:100DCF0011F578D1E2FE08E2FFE4FCFDC006C00792
:100DDF007869E2FE08E2FBAA06D007D006C3EF9BB4
:100DEF00FFEE9AFEED9400FDEC9400FCC004A90503
:100DFF00AA06AB077867E2FE08E2FFE4FCFDD0002D
:100E0F00120797780F1208FC78A91209237871E25C
:100E1F00FE08E2FFEE3395E0FDFC780B120910C0DF
:100E2F0004C005C006C0077873E2FE08E2FFEE3388
:100E3F0095E0FDFC78A9E2FB08E2F908E2FA08E286
:100E4F00CBF8EB2FFBEA3EFAE93DF9E83CF8D00787
:100E5F00D006D005D0041242E678AD12092378AD42
:100E6F00E2FC08E2FD08E2FE08E2FF78A9E2FB08D7
:100E7F00E2F908E2FA08E2CBF8EB2FFFEA3EFEE9CF
:100E8F003DFDE83CFC78B912092378B9E2FC08E291
:100E9F00FD08E2FE08E22408FFE43EFEE43DFDE427
:100EAF003CFC78041208FC785DEEF208EFF278B99A
:100EBF00E2FC08E2FD08E2FE08E22460FFEE34F0F7
:100ECF00FEED34FFFDEC34FFFC0812092378BDE280
:100EDF00FC08E2FD08E2FE08E2FFA804A905AA0645
:100EEF00FB120797780C1208FC78C112092378615E
:100EFF00E2FE08E2FFEE3395E0FDFC78BDE2FB0871
:100F0F00E2F908E2FA08E2CBF8120797C004C0052D
:100F1F00C006C007786DE2FE08E2FFEE3395E0FDF4
:100F2F00FC78C1E2FB08E2F908E2FA08E2CBF8121A
:100F3F000797D003D002D001D000EF2BFFEE3AFE7F
:100F4F00ED39FDEC38FC780B1208FC78B11209234F
:100F5F00785FE2FE08E2FFEE3395E0FDFCE47B04F0
:100F6F00FAF9F812079778B1E2FB08E2F908E2FA0A
:100F7F0008E2CBF8EB2FFFEA3EFEE93DFDE83CFC33
:100F8F00EF2402FFE43EFEE43DFDE43CFC78021258
:100F9F0008FC78B51209237863E2FE08E2FFEE330E
:100FAF0095E0FDFC78BDE2FB08E2F908E2FA08E201
:100FBF00CBF8120797780D1208FC78A9120923783D
:100FCF006BE2FE08E2FFEE3395E0FDFC78C1E2FB39
:100FDF0008E2F908E2FA08E2CBF812079778101244
:100FEF0008FC78AD12092378ADE2FC08E2FD08E2B7
:100FFF00FE08E2FF78A9E2FB08E2F908E2FA08E24C
:10100F00CBF8EB2FFFEA3EFEE93DFDE83CFCEF2479
:10101F0002FFE43EFEE43DFDE43CFC78021208FCD6
:10102F0078B112092378B1E2FC08E2FD08E2FE086C
:10103F00E22400FFEE3480FEE43DFDE43CFCC004FE
:10104F00A905AA06AB077865E2FE08E2FFE4FCFDFE
:10105F00D000120797780F1208E978C91209237880
:10106F00D3E2FE08E2FFE4FCFDC004C005C006C0E9
:10107F000778B5E2FC08E2FD08E2FE08E2FBAA06EB
:10108F00A905A804D007D006D005D004C3EF9BFF55
:10109F00EE9AFEED99FDEC98FCE47B507AC3F9F8DB
:1010AF0012079778CD12092378C9E2FB08E2F908F5
:1010BF00E2FA08E2CBF8C00078CDE2FC08E2FD08C6
:1010CF00E2FE08E2FFD00012082278011209107820
:1010DF00C512092378C5E2FC08E2FD08E2FE08E22A
:1010EF00FF78081208FCC004C005C006C00778C509
:1010FF00E2FC08E2FD08E2FE08E2FF78081208FCB5
:10110F00D003D002D001D00012079778A91209237B
:10111F00E47FDE7E0BFDFC78A9E2FB08E2F908E232
:10112F00FA08E2CBF812079778101208FC78A91288
:10113F0009237F437EE37DFF7CFF78C5E2FB08E256
:10114F00F908E2FA08E2CBF812079778101208FCB8
:10115F0078AD12092378ADE2FC08E2FD08E2FE0843
:10116F00E2FF78A9E2FB08E2F908E2FA08E2CBF81D
:10117F00EB2FFFEA3EFEE93DFDE83CFCEF24CFFFFD
:10118F00EE340EFEE43DFDE43CFC78041208FC78DE
:10119F00C5E2FB08E2F908E2FA08E2CBF8EB2FFF11
:1011AF00EA3EFEE93DFDE83CFC78B112092378B137
:1011BF00E2FC08E2FD08E2FE08E2FFEC1205AA7B62
:1011CF00B07A507955784112050D78581209237865
:1011DF0058E2FC08E2FD08E2FE08E2FF1205E8789B
:0611EF0056EEF208EFF2DB
:0111F50022D7
:102C3B007FFA12367B78BD120923E4FFFE7D08FC78
:102C4B0078BDE2FB08E2F908E2FA08E2CBF8C3121E
:102C5B0008D87003022DCC787CE2FE08E2FFE4FC7E
:102C6B00FD7801120910AB07AA06A905C004C0051F
:102C7B00C006C00778BDE2FC08E2FD08E2FE08E2F0
:102C8B00FF78031208E9D003D002D001D000C3EFC4
:102C9B009BFFEE9AFEED99FDEC98FCC004A905AAEA
:102CAB0006AB07787EE2FE08E2FFEE3395E0FDFC13
:102CBB00D000120797780B1208E978B9120923781C
:102CCB007CE2FE08E2FFE4FCFDAB07AA06F9C004B8
:102CDB00C005C006C00778BDE2FC08E2FD08E2FEB5
:102CEB0008E2FF78041208E9D003D002D001D0002B
:102CFB00C3EF9BFFEE9AFEED99FDEC98FCC004C070
:102D0B0005C006C007787CE2FE08E2FFE4FCFDABE1
:102D1B0007AA06F9C004C005C006C00778BDE2FCCF
:102D2B0008E2FD08E2FE08E2FF78041208E9D0038E
:102D3B00D002D001D000C3EF9BFFEE9AFEED99FDC0
:102D4B00EC98FCD003D002D001D000120797780C7E
:102D5B001208E9C004A905AA06AB077880E2FE08B1
:102D6B00E2FFEE3395E0FDFCD000120797780E12D0
:102D7B0008E978B9E2FB08E2F908E2FA08E2CBF8D5
:102D8B00EB2FFFEA3EFEE93DFDE83CFC78781209AB
:102D9B0023E47F05FEFDFC7878E2FB08E2F908E20C
:102DAB00FA08E2CBF8120797EF2480FFE43EFEE42B
:102DBB003DFDE43CFC78081208FC785DEEF208EF70
:012DCB00F215
:012DCC0022E4
:10096600122C3B7FF712367B78A91209237878E29E
:10097600FC08E2FD08E2FE08E2FF78011208FCE44A
:100986002FFFEE3406FEED34FFFDEC34FFFC78ADB0
:1009960012092378ADE2FC08E2FD08E2FE08E2FF58
:1009A60078021208FCC004C005C006C00778ADE294
:1009B600FC08E2FD08E2FE08E2FF78021208FCD01D
:1009C60003D002D001D000120797780B1208FCC0A2
:1009D60004A905AA06AB07788CE2FE08E2FFEE330F
:1009E60095E0FDFCD00012079778B112092378B183
:1009F600E2FB08E2F908E2FA08E2CBF8C000C0011F
:100A0600C002C003788AE2FE08E2FFEE3395E0FDFD
:100A1600FC78ADE2FB08E2F908E2FA08E2CBF8124C
:100A260007977801120910D003D002D001D000EB4D
:100A36002FFFEA3EFEE93DFDE83CFC78B1120923B2
:100A46007888E2FE08E2FFEE3395E0FDFC781012AE
:100A56000910C004C005C006C00778B1E2FC08E270
:100A6600FD08E2FE08E2FF78021208FCD003D0027D
:100A7600D001D000EF2BFFEE3AFEED39FDEC38FC4D
:100A860078B112092378ADE2FC08E2FD08E2FE081F
:100A9600E2FF78021208FCC004C005C006C0077851
:100AA600ADE2FC08E2FD08E2FE08E2FF7802120869
:100AB600FCD003D002D001D000120797780D12089F
:100AC600FCC004A905AA06AB077886E2FE08E2FF89
:100AD600EE3395E0FDFCD00012079778031208FC70
:100AE600C004C005C006C0077884E2FE08E2FFEE37
:100AF6003395E0FDFC78ADE2FB08E2F908E2FA087E
:100B0600E2CBF812079778011208FCD003D002D086
:100B160001D000EB2FFFEA3EFEE93DFDE83CFC7804
:100B2600121208FC78AD12092378ADE2FC08E2FD4A
:100B360008E2FE08E22400FFEE3480FEE43DFDE418
:100B46003CFCC004A905AA06AB077882E2FE08E2CF
:100B5600FFE4FCFDD000120797780F1208FC78AD71
:100B660012092378ADE2FC08E2FD08E2FE08E2FF86
:100B7600EC4D4E4F7003020DAE78B1E2FC08E2FD7B
:100B860008E2FE08E2FF780C1208FCC004C005C0AB
:100B960006C00778A9E2FB08E2F908E2FA08E2CB08
:100BA600F8C3E49BFFE49AFE741099FDE498FCD028
:100BB60003D002D001D000C3EF9BFFEE9AFEED9961
:100BC600FDEC98FCE47B357A0CF9F812079778B5BA
:100BD600120923E4FFFEFD7C8078B5E2FB08E2F90A
:100BE60008E2FA08E2CBF8C31208D8503A78B5E220
:100BF600FC08E2FD08E2FE08E2FF7801120910C0D7
:100C060004C005C006C00778ADE2FC08E2FD08E2B4
:100C1600FE08E2FBAA06A905A804D007D006D0055F
:100C2600D004120822803078ADE2FC08E2FD08E22A
:100C3600FE08E2FFC004A905AA06AB0778B5E2FCE8
:100C460008E2FD08E2FE08E2FFD000120822E47B7B
:100C560002FAF9F812079778B512092378B5E2FC7B
:100C660008E2FD08E2FE08E2FF78031208E9C00484
:100C7600C005C006C00778B5E2FC08E2FD08E2FE42
:100C860008E2FF78031208E9D003D002D001D000B1
:100C9600120797780D1208E9C004A905AA06AB0742
:100CA6007892E2FE08E2FFEE3395E0FDFCD00012FA
:100CB6000797780C1208FC78AD12092378B5E2FC88
:100CC60008E2FD08E2FE08E2FF78021208E9C00425
:100CD600A905AA06AB077890E2FE08E2FFEE339577
:100CE600E0FDFCD000120797780D1208FC78B112CF
:100CF600092378B5E2FB08E2F908E2FA08E2CBF844
:100D0600C000C001C002C00378B1E2FC08E2FD08E1
:100D1600E2FE08E2FF78ADE2FB08E2F908E2FA0833
:100D2600E2CBF8EB2FFFEA3EFEE93DFDE83CFCC0D6
:100D360004A905AA06AB07788EE2FE08E2FFEE33A9
:100D460095E0FDFCD000EB2FFFEA3EFEE93DFDE815
:100D56003CFC78041208FCD003D002D001D000EB92
:100D66002FFFEA3EFEE93DFDE83CFC78B51209237B
:100D760078B5E2FC08E2FD08E2FE08E2FFE41205AF
:100D8600AA7BB07A507955784112050D7858120928
:100D9600237858E2FC08E2FD08E2FE08E2FF1205AD
:080DA600E87856EEF208EFF2C6
:010DAE002222
:10202400122C3B7FFD12436CE4FCFD78A9120923BA
:10203400E4FF7E80FDFC78A9E2FB08E2F908E2FAFD
:1020440008E2CBF8C31208C270030222EC7878E2EB
:10205400FC08E2FD08E2FE08E22400FFEE34D4FEB0
:10206400ED34FEFDEC34FFFC78AD1209237897E2E1
:10207400FFE4FCFDFE78ADE2FB08E2F908E2FA08B1
:10208400E2CBF8120797780B1208FCE42FFFEE342A
:1020940080FEE43DFDE43CFCC004C005C006C0076E
:1020A400789CE2FF3395E0FEFDFC78ADE2FB08E2AC
:1020B400F908E2FA08E2CBF8120797780A1208FC4A
:1020C400D003D002D001D000120797780A1208FC7E
:1020D400E42FFFE43EFEED3420FDE43CFCC004A903
:1020E40005AA06AB077895E2FE08E2FFEE3395E019
:1020F400FDFCD000120797E42FFFEE3420FEE43DF0
:10210400FDE43CFC780E1208FCC004C005C006C007
:10211400077898E2FE08E2FFEE3395E0FDFC7814C0
:10212400120910C004C005C006C00778A9E2FC0863
:10213400E2FD08E2FE08E2FF780E120910D003D097
:1021440002D001D000C3EF9BFFEE9AFEED99FDECA7
:1021540098FCC004C005C006C007789AE2FE08E2F5
:10216400FFEE3395E0FDFC78ADE2FB08E2F908E20E
:10217400FA08E2CBF8120797A804A905AA06AB0748
:10218400D007D006D005D004C3EF9BFFEE9AFEED36
:1021940099FDEC98FCE42FFFEE3440FEE43DFDE4B1
:1021A4003CFC780F1208FCD003D002D001D00012FE
:1021B400079778AD12092378ADE2FC08E2FD08E246
:1021C400FE08E2FFC004C005C006C00778ADE2FC0B
:1021D40008E2FD08E2FE08E2FF780F1208FCC004E2
:1021E400C005C006C00778ADE2FC08E2FD08E2FEC7
:1021F40008E2FF780F1208FCD003D002D001D0000F
:1022040012079778071208FCC004A905AA06AB07B1
:102214007894E2FFE4FCFDFED000120797780412E4
:1022240008FCA804A905AA06AB07D007D006D00568
:10223400D004C3EF9BFFEE9AFEED99FDEC98FC7879
:10224400AD12092378ADE2FCEC335007E4FFFEFD48
:10225400FC800D78ADE2FC08E2FD08E2FE08E2FF36
:1022640078AD120923E4FFFEFD7C1978ADE2FB088A
:10227400E2F908E2FA08E2CBF8D31208C24008E413
:10228400FFFEFD7C19800D78ADE2FC08E2FD08E25A
:10229400FE08E2FF78AD12092378ADE2FC08E2FD06
:1022A40008E2FE08E2FF780C1208FC78AD1209235C
:1022B40078ADE2FC08E2FD08E2FE08E2FFEC12055C
:1022C400AA7B0A7AD77923784112050D7858120926
:1022D400237858E2FC08E2FD08E2FE08E2FF12055A
:0822E400E87876EEF208EFF253
:0122EC0022CF
:044BAB001209662263
:074B92001209661220242223
:10489500785CE224AA24FD500B24F9600A240B70ED
:0B48A50009020DAF024BAB124B922238
:08000300785DE2FE08E2FF2235
:084B56007856E2FE08E2FF229E
:084B5E007876E2FE08E2FF2276
:054B9E00785CE2FF223B
:0A411100C10782A3000082A5000090
:0D429E0078B3EBF208EAF208E9F208EDF25D
:1042AB007F801248CAE478B7F278B6E2FF08E2FEE4
:1042BB00C39F5023EEFF78B5E22FF218E23400F2E1
:1042CB0018E2FB08E2FA08E2F912068BFF12471A12
:0A42DB0078B7E204F280D2124ADA4A
:0142E50022B6
:0D42530078B3EBF208EAF208E9F208EDF2A8
:104260007F811248CAE478B7F278B6E2FF08E2C369
:104270009F5022D2011245B578B3E2FB08E2FA085A
:10428000E2F978B7E2F582758300EF1206D878B7C5
:0D429000E204F280D4C2011245B5124ADAF0
:01429D0022FE
:1046430078AFEFF208EBF208EAF208E9F27BFE7AC0
:104653000079AF7D0112429E7F14124AE978B0E2DD
:0D466300FB08E2FA08E2F97D021242532240
:103DF9007BFE7A0079AD7FF312464378ADE2FFE4AA
:103E0900FCFDFE7808120910C004A905AA06AB0733
:103E190078AEE2FFD000EB4FFFEAFEE9FDE8FC785F
:103E2900A912092378A90808E2FE08E254FCFFE474
:103E3900FDFC78A9120923E47FA47E44FDFC78A93E
:103E4900E2FB08E2F908E2FA08E2CBF812079778F0
:0C3E5900101208FCEF24B3FFEE34EDFE65
:013E6500223A
:103F3F007BFE7A0079A17FF512464378A1E2FFE478
:103F4F00FCFDFE7808120910C004A905AA06AB07EC
:103F5F0078A2E2FFD000EB4FFFEAFEE9FDE8FC7824
:103F6F009D120923789D0808E2FE08E254FCFFE445
:103F7F00FDFC789D120923E47F7DFEFDFC789DE218
:103F8F00FB08E2F908E2FA08E2CBF812079778107B
:0B3F9F001208FCEF24FAFFEE34FFFED6
:013FAA0022F4
:103E66007BFE7A0079AD7FF512464378ADE2FFE43A
:103E7600FCFDFE7808120910C004A905AA06AB07C6
:103E860078AEE2FFD000EB4FFFEAFEE9FDE8FC78F2
:103E9600A912092378A90808E2FE08E254FCFFE407
:103EA600FDFC78A9120923E47FD47E30FDFC78A9B5
:103EB600E2FB08E2F908E2FA08E2CBF81207977883
:0C3EC600101208FCEF24A8FFEE34FDFEF3
:013ED20022CD
:0C4B21007F801248B0B39207124ADA22DB
:104A2800123DF978A3EEF208EFF2123E6678A5EE91
:054A3800F208EFF2227C
:084B660078A3E2FE08E2FF2241
:084B6E0078A5E2FE08E2FF2237
:034BAF00A2072238
:10050A0002065EEC5D046005E859047003020654B5
:10051A0012061F580460F6EC4860F2EC7004FDFE07
:10052A00FF22C860DB2481C85009C39860025006C4
:10053A0002065B9850CAF582E9294B4A7005AB82DC
:10054A0002064A75F0007C1A7880C3EF9BEE9AED9A
:10055A0099400DC3EF9BFFEE9AFEED99FDE842F03C
:10056A00DC23ACF0D0E0FFD0E0FED0E0FDAB82208F
:10057A00E7101BEB60BAEC2CFCEF33FFEE33FEED19
:10058A0033FD020636E803F830E705C0F075F000DF
:10059A00EF2FFFEE33FEED33FD40B830E7C280AAFD
:1005AA0075F020800E75F010800575F0087D007ECC
:1005BA00007F003392D530D5031208B4EC334010D3
:1005CA00EF33FFEE33FEED33FDEC33FCD5F0ED22D5
:0E05DA00E5F0247EA2D513CC92E7CDCEFF2211
:1005E800EDD2E7CD33EC3392D524814006E4FFFE0B
:1005F800FDFC22FCE4CFCECDCC24E0501174FF806A
:10060800EDC3CC13CCCD13CDCE13CECF13CF047006
:07061800F030D5DE0208B44A
:10061F00E9D2E7C933E833F892D5EDD2E7CD33EC21
:07062F0033FC5002B2D5229A
:10063600EC30E7100FBF000C0EBE00080DBD000425
:100646000BEB6014A2D5EB13FCED92E7FD2274FFD1
:10065600FCFDFEFF22E480F8A2D574FF13FC7D802A
:03066600E480EF3E
:103747000215DFE493A3F8E493A34003F68001F2A4
:1037570008DFF48029E493A3F85407240CC8C33383
:10376700C4540F4420C8834004F456800146F6DF52
:10377700E4800B01020408102040809040C4E47EDE
:10378700019360BCA3FF543F30E509541FFEE49347
:10379700A360010ECF54C025E060A840B8E493A30E
:1037A700FAE493A3F8E493A3C8C582C8CAC583CA39
:1037B700F0A3C8C582C8CAC583CADFE9DEE780BEF1
:01411B0000A3
:10066900C2D530F707B2D563F0FF05F030E70CB219
:10067900D5F4048463F0FF05F080018430D502F4D9
:02068900042249
:10068B00BB010689828A83E0225002E722BBFE026D
:09069B00E32289828A83E49322A0
:1006A400BB010989828A83F8E028F022500327F7E6
:1006B40022BBFE05F8E328F3228A838982F8E493B7
:0206C4002822EA
:1006C600BB010689828A83F0225002F722BBFE0113
:0206D600F3220D
:1006D800F8BB010DE58229F582E5833AF583E8F058
:1006E800225006E92582C8F622BBFE05E92582C804
:0206F800F222EC
:1006FA00EF8DF0A4A8F0CF8CF0A428CE8DF0A42E14
:02070A00FE22CD
:10070C00BC000BBE0029EF8DF084FFADF022E4CCD1
:10071C00F875F008EF2FFFEE33FEEC33FCEE9DEC9A
:10072C00984005FCEE9DFE0FD5F0E9E4CEFD22EDE0
:10073C00F8F5F0EE8420D21CFEADF075F008EF2F2A
:10074C00FFED33FD4007985006D5F0F222C398FD1B
:05075C000FD5F0EA22B8
:10076100C2D5EC30E709B2D5E4C39DFDE49CFCEEB3
:1007710030E715B2D5E4C39FFFE49EFE12070CC318
:10078100E49DFDE49CFC800312070C30D507C3E413
:060791009FFFE49EFE2222
:10079700E88FF0A4CC8BF0A42CFCE98EF0A42CFC01
:1007A7008AF0EDA42CFCEA8EF0A4CDA8F08BF0A47F
:1007B7002DCC3825F0FDE98FF0A42CCD35F0FCEBDE
:1007C7008EF0A4FEA9F0EB8FF0A4CFC5F02ECD39A3
:0F07D700FEE43CFCEAA42DCE35F0FDE43CFC2210
:1007E60075F008758200EF2FFFEE33FECD33CDCCCA
:1007F60033CCC58233C5829BED9AEC99E58298404D
:100806000CF582EE9BFEED9AFDEC99FC0FD5F0D629
:10081600E4CEFBE4CDFAE4CCF9A88222B800C1B953
:100826000059BA002DEC8BF084CFCECDFCE5F0CB91
:10083600F97818EF2FFFEE33FEED33FDEC33FCEBCA
:1008460033FB10D703994004EB99FB0FD8E5E4F985
:10085600FA227818EF2FFFEE33FEED33FDEC33FC72
:10086600C933C910D7059BE99A4007EC9BFCE99A66
:10087600F90FD8E0E4C9FAE4CCFB2275F010EF2FAB
:10088600FFEE33FEED33FDCC33CCC833C810D707AB
:100896009BEC9AE899400AED9BFDEC9AFCE899F8E6
:0E08A6000FD5F0DAE4CDFBE4CCFAE4C8F92279
:1042E600C2D5E830E70FB2D5E4C39BFBE49AFAE403
:1042F60099F9E498F8EC30E717B2D512431C120886
:1043060022E4C39BFBE49AFAE499F9E498F8800363
:1043160012082230D50DE4C39FFFE49EFEE49DFD06
:04432600E49CFC22F5
:0E08B400C3E49FFFE49EFEE49DFDE49CFC2255
:1008C200EB9FF5F0EA9E42F0E99D42F0EC6480C8AD
:0608D20064809845F0224D
:1008D800EB9FF5F0EA9E42F0E99D42F0E89C45F076
:0108E80022ED
:1008E900E8600FECC313FCED13FDEE13FEEF13FFED
:0308F900D8F12211
:1008FC00E86010ECA2E713FCED13FDEE13FEEF1312
:04090C00FFD8F022FE
:10091000E8600FEFC333FFEE33FEED33FDEC33FC45
:03092000D8F122E9
:0C092300ECF208EDF208EEF208EFF22210
:10092F00F5F0C582A4C582C5F0C583A42583F583E0
:01093F002295
:10094000D083D082F8E4937012740193700DA3A346
:1009500093F8740193F5828883E47374029368605A
:06096000EFA3A3A380DF5A
:00000001FF
