:030000000236C401
:1036C40078FFE4F6D8FD9000007F007E03E4F0A3C9
:0A36D400DFFCDEFA758121023719D0
:10486E0012447912455B124B2F1240FD1244EB128B
:0B487E003B34124B03782474FFF2223D
:104A3C003006FD12000EC2AF124479D2AFE47816E4
:024A4C00F22254
:104A4E003006FD12000EC2AF1243C6D2AFE4781686
:024A5E00F22242
:101C610078A17401F212486E7F14124A81782D74A2
:101C710002F23006FDC206781AE275F00A84E5F038
:101C8100702E7816E2FF600964026024EF6403603D
:101C91001F782DE27014740AF2124B80EF60031268
:101CA1004889124B915003124852123CA7122D64DD
:101CB100124B6D78A0EFF2600FE2C3941050047FD5
:101CC1001480027F28124A8178A0E224FE70030268
:101CD1001D9724FE7003021D9C24F47003021E3C18
:101CE100240F6003021E857816E214B40B00400332
:101CF100021E85901D0275F003A4C58325F0C583DE
:101D010073021D23021D57021D62021D74021D91E3
:101D1100021D91021D91021D91021D91021D8E0253
:101D21001D917815E2FF24FD601A14601D24F850FE
:101D31001F240A6003021E8578247402F27816EFCC
:101D4100F2021E85782474068003E4784EF2800046
:101D51007815E2021E777824E270121246CA021E3A
:101D6100827824E2B40406124648021E82124742D7
:101D7100021E85784EE2FF70057844E26004EFB4FC
:101D810009051244038009124A03021E851249EE15
:101D9100124A4E021E8278A17401F278A0E2B404C4
:101DA100040874FFF27816E2B40C004003021E85A9
:101DB100901DB8F8282873021DDC021DDE021DE803
:101DC100021DE8021DF2021DFC021E06021E0F0288
:101DD1001E18021E21021E2A021E33804378A1E230
:101DE100FF1249D9021E8578A1E2FF12387D021E39
:101DF1008578A1E2FF123A23021E8578A1E2FF1243
:101E01004968021E8578A1E2FF124923807678A1F4
:101E1100E2FF12493A806D78A1E2FF1249518064D4
:101E210078A1E2FF1247F6805B78A1E2FF12497FB9
:101E3100805278A1E2FF12499680497816E2B40CEB
:101E4100005041901E4BF8282873021E6F021E7627
:101E5100021E82021E82021E7C021E7F021E7F0261
:101E61001E7F021E7F021E7F021E7F021E7F7816CA
:101E71007401F2800FE47816F280091244EB124AE1
:101E81003C124B0F7816E2B40C005065901E94F88A
:101E9100282873021EB8021EBD021EC2021EC702FE
:101EA1001ECC021ED1021ED6021EDB021EE0021E45
:101EB100E5021EEA021EEF12430280351237EF805F
:101EC10030123385802B123177802612195E8021E2
:101ED1001245EE801C124B58801712390B801212DA
:101EE1004B5F800D12399780081224BB8003124A80
:101EF10071781BE204F2781AE204F2300725781CAB
:101F0100E2B4061F781AE275F00584E5F07014C397
:101F1100780FE264809480400A08E22401F218E21A
:101F21003400F2781BE2D3943B4002E4F2781AE2E7
:101F3100D3943B5003021C73E4F27811E204F2786B
:101F41001CE275F003A424A7F582E43424F583E4AC
:0E1F510093FE740193AA06F9120966021C732E
:10222800007F7F40407F7F007F7F08087F7F00031B
:102238001F227E7F0300007F7F49497F3600404090
:102248007F7F4040007F7F4848783000003E7F41D4
:10225800416322007F7F4848783000031F227E7F39
:10226800030000707808087F7F0040407F7F40406F
:10227800007F7F49497F3600007F7F40407F7F0095
:1022880040407F7F4040007F7F08087F7F00003EFE
:102298007F414163220060731B0F7C70007F7F4980
:1022A800494F4600007F7F49497F36003E7F4141C4
:1022B8006322007F7F0814636300007C7C40407CBD
:1022C8007C007C7C10107C7C000C3C48787C0C00EA
:1022D800007C7C54547C280040407C7C4040007C3E
:1022E8007C505070200000387C44446C28007C7C72
:1022F80050507020000C3C48787C0C000060701036
:10230800107C7C0040407C7C4040007C7C54547CA9
:102318002800007C7C40407C7C0040407C7C404025
:10232800007C7C10107C7C0000387C44446C2800C5
:1023380064741C187060007C7C54545C4800007CF9
:102348007C54547C2800387C44446C28007C7C10E5
:10235800386C440000607F7F60006F6F007F3F1023
:102368001F103F7F007F7F4949007F7F63361C0035
:102378001F3F6C6C3F1F00607F7F60007F7F494973
:102388003F7F4C7F3F007F7F0303003F7F4C7F3FB1
:10239800007F7F6C6C370000003E41417149493E27
:1023A800000000063A433A06000000007F7F686894
:1023B800003E7F417F3E007F3F180C7E7F00607F9C
:1023C8007F607F7F41633E1C006F6F00327B496FE7
:1023D80026007F7F446C38007F3F101F103F7F002E
:1023E8006F6F007F7F63361C007F7F6C6C387F7F48
:1023F800497F36007F7F6C6C37006F6F003E7F41EE
:102408004D2E0000003E41417149493E0000000048
:1024180000000011117D1111000000000000007F74
:102428007F417F7F007F7F381C7F7F000000000096
:102438000000007F7F417F7F007F7F6C6C007F7F83
:102448006C6C00000000607F7F6000730B7E7C0076
:102458007F7F4C380036007F7F49497F36007F7F79
:102468004C4E7B3100360000705070003E7F634157
:10247800410000000011117D111100007F413E0054
:1024880032492600224936002345390022493600C0
:10249800207F000012345555555555543210054AC1
:1024A800BE023D8B023D8B023D8B023D8B023D8B74
:0324B800004ACC0B
:10405700810E00820FFFFF8116008115028111007A
:0B406700811C00810000810100C18469
:10455B00E4F59375943FF5917592FFF5957596FF7C
:10456B00F5B175B27F7837E27819F2C206A2C7921D
:10457B00051240BA78127401F2087400F20874D56F
:02458B00F2221A
:0D000E0053B0807590FF75A0FF43803F2226
:103033007801E2FEC3940550117819E2FDEEB5055F
:103043000312000E7801E204F222E47801F2120086
:103053000E20050A18E2FEC374159EFF8004780053
:10306300E2FFEFB41600400302310D903075F828EB
:1030730028730230B70230BB0230BF0230C30230C4
:10308300C70230CB0230CF0230D30230D70230DB5D
:103093000230DF0230E30230E70230EB0230EF02AE
:1030A30030F30230F70230FB0230FF02310302310A
:1030B3000702310BC2908052C291804EC292804A65
:1030C300C2938046C2948042C295803EC296803AA3
:1030D300C2978036C2A08032C2A1802EC2A2802AAB
:1030E300C2A38026C2A48022C2A5801EC2A6801AC3
:1030F300C2A78016C2808012C281800EC282800A5B
:10310300C2838006C2848002C28520050CC3741565
:103113009F2408F8E6F5B0804474082FF8E6FEC44F
:103123005402FDEEC4131354014DFE74082FF8E648
:10313300FD131354044EFEED54084EFE74082FF88D
:10314300E6FD25E025E054104EFEEDC454204EFE6E
:1031530074082FF8E6C4333354404EF5B07800E2D8
:1031630004F2E2D39415400BE4F2A2C792052006C1
:0331730002D2067F
:013176002236
:0B4B0F00E47816F27811F2781CF22214
:103CA700123ED2781DE27068300467C2047844E29D
:103CB700603908E2FF781FE26F70307846E2FF78DC
:103CC7001EE2B507267820E27E007BFE2446F9EE49
:103CD7003400FA12068B603A7836E2FF7C007D3CAE
:103CE7001206FA7829EEF208EFF2227845E2FF335E
:103CF70095E0FE781FE2D39FEE6480F874809840C9
:103D070011781EE2700C7832E260077F28024A8140
:023D1700D204D4
:013D19002287
:0C40AE007812E4F2087400F2087408F2C2
:1040BA007835E214601514601C14602314602A8099
:1040CA000078177400F2087482F22278177400F2EA
:1040DA000874AAF22278177400F20874D2F22278CD
:1040EA00177400F20874FAF22278177401F208744D
:0340FA0022F2228D
:1042780078A27424F2087484F2E4FFEFC394165011
:104288003478A2E2FC08E2F5828C83E493FE78128B
:10429800E2FB08E2FA08E2F9EE1206C60F78A3E29A
:1042A8002401F218E23400F27814E22401F218E250
:0542B8003400F280C695
:0142BD0022DE
:102EDF007834E224FE6078147003022F9814700384
:102EEF00022FC72404701E781BE2FEC3940F5005F7
:102EFF00E4FF022FF4EEC3942D50057F03022FF44D
:102F0F00E4FF022FF4781BE2FEC394055005E4FFA3
:102F1F00022FF4EEC3940D50057F01022FF4EEC380
:102F2F00941650057F02022FF4EEC3942750057FAD
:102F3F0003022FF4EEC3943050057F02022FF4EEFC
:102F4F00C3943850057F01022FF4E4FF022FF47869
:102F5F001BE2FEC394065005E4FF022FF4EEC39468
:102F6F001250047F03807EEEC3941E50047F0480B2
:102F7F0074EEC3942A50047F05806AEEC3943650D2
:102F8F00047F068060E4FF805C781BE2FEC3940739
:102F9F005004E4FF804FEEC3941650047F07804522
:102FAF00EEC3942550047F03803BEEC3943450044A
:102FBF007F088031E4FF802D781BE2FEC394075019
:102FCF0004E4FF8020EEC3941650047F018016EEB8
:102FDF00C3942550047F02800CEEC3943450047FB9
:102FEF00018002E4FFE4FEEEC39404503675F00452
:102FFF00EFA42EF582E435F0F583E582241EF582E9
:10300F00E5833400F583E493FD7812E2FB08E2FADE
:10301F0008E2F9ED1206C60EE22401F218E23400BE
:03302F00F280C468
:01303200227B
:03328000E4FBFD6F
:0A32830078A6EFF208EDF208EBF276
:10328D00E408F278A9E2FDC39404506B78A7E270CC
:10329D004608E2600C78A6E275F00A84D3940040EB
:1032AD003678A6E275F00A8475F004A47C002DFF33
:1032BD00EC35F0FE7818E22FFF18E23EFE78AAF208
:1032CD0008EFF2F5828E83E493FF7812E2FB08E2B9
:1032DD00FA08E2F9EF800B7812E2FB08E2FA08E255
:1032ED00F9E41206C678A9E204F27814E22401F298
:1032FD0018E23400F2808C7812E2FB08E2FA08E260
:10330D00F9E41206C6E22401F218E23400F2E47880
:10331D00A9F278A9E2FDC39404505C78A7E2703756
:10332D0018E275F00A84E5F075F004A47C002DFF19
:10333D00EC35F0FE7818E22FFF18E23EFE78AAF287
:10334D0008EFF2F5828E83E493FF7812E2FB08E238
:10335D00FA08E2F9EF800B7812E2FB08E2FA08E2D4
:10336D00F9E41206C678A9E204F27814E22401F217
:07337D0018E23400F2809B0E
:013384002226
:1047D400781FE2FDD39418500618E2943C4003027B
:1047E4004278AF05123280122EDF781EE2FF1232B9
:0247F400802221
:10414C007822E2D3940C500718E2FD94204003022D
:10415C004278AF057B01E4FD123283E4FFEFC39498
:10416C00045020EF90002293FE7812E2FB08E2FA52
:10417C0008E2F9EE1206C60FE22401F218E234004E
:0D418C00F280DA7822E2FFE4FBFD123283BC
:014199002203
:103553007820E214B40700507090356A75F003A424
:10356300C58325F0C5837302357F02358A023595FD
:103573000235A00235AB0235B60235C178A27422FA
:10358300F2087428F2804B78A27422F208743EF297
:10359300804078A27422F2087454F2803578A274C1
:1035A30022F208746AF2802A78A27422F2087480E4
:1035B300F2801F78A27422F2087496F2801478A223
:1035C3007422F20874ACF2800978A27424F20874AD
:1035D30084F2E4FFEFC39416503478A2E2FC08E2CD
:1035E300F5828C83E493FE7812E2FB08E2FA08E2A8
:1035F300F9EE1206C60F78A3E22401F218E23400B2
:0E360300F27814E22401F218E23400F280C6DC
:013611002296
:10297B007842E278A3F27825E2FF78A3E22FF212F5
:10298B004B915016124B487C007D0512076178A3C2
:10299B00EFF230E01FE204F2801A124B80EF601B63
:1029AB001200037C007D0512076178A3EFF230E083
:1029BB0003E204F278A3E2A2E713F278A3E2FFD3D7
:1029CB00648094E35003022A62E418F278A2E2C313
:1029DB00940450207812E2FB08E2FA08E2F9E412C0
:1029EB0006C678A2E204F27814E22401F218E2346B
:1029FB0000F280D8E478A2F278A2E2FEC3940550EC
:102A0B0026EE90007493FE7812E2FB08E2FA08E2DD
:102A1B00F9EE1206C678A2E204F27814E22401F26F
:102A2B0018E23400F280D17812E2FB08E2FA08E2F5
:102A3B00F9E41206C6E22401F218E23400F218E2BD
:102A4B00FB08E2FA08E2F9E41206C6E22401F218E6
:102A5B00E23400F2022B68D3EF64809489405CE48B
:102A6B0078A2F278A2E2FFC39405507B08E2FE75D0
:102A7B00F00A120669FD3395E08D82F58374051219
:102A8B00092FE5822FF582E43583F583E582244215
:102A9B00F582E5833400F583E493FF7812E2FB08BB
:102AAB00E2FA08E2F9EF1206C678A2E204F2781411
:102ABB00E22401F218E23400F280A8E478A2F27862
:102ACB00A2E2C3940550207812E2FB08E2FA08E276
:102ADB00F9E41206C678A2E204F27814E22401F2B9
:102AEB0018E23400F280D87812E2FB08E2FA08E22E
:102AFB00F9E41206C6E22401F218E23400F2E4789B
:102B0B00A2F278A2E2FFC39405505208E2FE75F0E0
:102B1B000A120669AEF0EEFD3395E08D82F58374F3
:102B2B000512092FE5822FF582E43583F583E582C3
:102B3B002442F582E5833400F583E493FF7812E2B7
:102B4B00FB08E2FA08E2F9EF1206C678A2E204F2F9
:102B5B007814E22401F218E23400F280A57812E234
:102B6B00FB08E2FA08E2F9E41206C6E22401F218C5
:102B7B00E23400F218E2FB08E2FA08E2F9E412068A
:102B8B00C6E22401F218E23400F2E478A2F278A251
:102B9B00E2FFC394095026EF90007993FF7812E27D
:102BAB00FB08E2FA08E2F9EF1206C678A2E204F299
:0D2BBB007814E22401F218E23400F280D117
:012BC80022EA
:10272800124B38AB07AA06E478A4F278A4E2FFC3F8
:1027380064809484500D74022FF8E4F278A4E204C3
:10274800F280E878A47403F2D3EB9400EA648094EE
:1027580080500978A4E26480948040297C007D0A36
:10276800AF03AE0212076178A4E22402F8EDF27812
:10277800A4E214F27C007D0AAF03AE02120761AA3C
:1027880006AB0780C3E478A4F278A4E2FDC36480B2
:102798009484504A7802E275F004A4FFED3395E082
:1027A800FCEF2DFFE5F03CFE7818E22FFF18E23E23
:1027B800FE78A2F208EFF2F5828E83E493FF781296
:1027C800E2FB08E2FA08E2F9EF1206C678A4E2048E
:1027D800F27814E22401F218E23400F280AB7812A5
:1027E800E2FB08E2FA08E2F9E41206C6E22401F282
:1027F80018E23400F2E478A4F278A4E2FDC364801D
:102808009484504A7803E275F004A4FFED3395E010
:10281800FCEF2DFFE5F03CFE7818E22FFF18E23EB2
:10282800FE78A2F208EFF2F5828E83E493FF781225
:10283800E2FB08E2FA08E2F9EF1206C678A4E2041D
:10284800F27814E22401F218E23400F280AB781234
:10285800E2FB08E2FA08E2F9E41206C6E22401F211
:1028680018E23400F2E478A4F278A4E2FDC36480AC
:102878009484504A7804E275F004A4FFED3395E09F
:10288800FCEF2DFFE5F03CFE7818E22FFF18E23E42
:10289800FE78A2F208EFF2F5828E83E493FF7812B5
:1028A800E2FB08E2FA08E2F9EF1206C678A4E204AD
:1028B800F27814E22401F218E23400F280AB7812C4
:1028C800E2FB08E2FA08E2F9E41206C6E22401F2A1
:1028D80018E23400F218E2FB08E2FA08E2F974039D
:1028E8001206C6E22401F218E23400F218E2FB08EC
:1028F800E2FA08E2F974031206C6E22401F218E2C9
:102908003400F218E2FB08E2FA08E2F9E41206C61B
:10291800E22401F218E23400F2E478A4F278A4E2A6
:10292800FDC364809484504A7805E275F004A4FFDE
:10293800ED3395E0FCEF2DFFE5F03CFE7818E22F33
:10294800FF18E23EFE78A2F208EFF2F5828E83E4E9
:1029580093FF7812E2FB08E2FA08E2F9EF1206C6E2
:1029680078A4E204F27814E22401F218E23400F2C6
:0229780080AB32
:01297A00223A
:1011FC00E478A5F208F2124B915005124B5080097D
:10120C00124B80BF600A124B4078A5EEF208EFF249
:10121C00E478A4F278A4E2FFC364809485500D7442
:10122C00062FF8E4F278A4E204F280E878A47404BF
:10123C00F2D378A6E2940018E29400500818E26405
:10124C00809480403278A5E2FA08E2FB7C007D0AAB
:10125C00FFAE0212070C78A4E22406F8EDF278A493
:10126C00E214F27C007D0AAF03AE0212070C78A5E3
:10127C00EEF208EFF280BA7806E260030213F3781C
:10128C00A4F278A4E2FDC364809484504A7807E207
:10129C0075F004A4FFED3395E0FCEF2DFFE5F03C79
:1012AC00FE7818E22FFF18E23EFE78A2F208EFF269
:1012BC00F5828E83E493FF7812E2FB08E2FA08E2EF
:1012CC00F9EF1206C678A4E204F27814E22401F2D3
:1012DC0018E23400F280AB7812E2FB08E2FA08E282
:1012EC00F9E41206C6E22401F218E23400F2E478C2
:1012FC00A4F278A4E2FDC364809484504A7808E296
:10130C0075F004A4FFED3395E0FCEF2DFFE5F03C08
:10131C00FE7818E22FFF18E23EFE78A2F208EFF2F8
:10132C00F5828E83E493FF7812E2FB08E2FA08E27E
:10133C00F9EF1206C678A4E204F27814E22401F262
:10134C0018E23400F280AB7812E2FB08E2FA08E211
:10135C00F9E41206C6E22401F218E23400F218E2B3
:10136C00FB08E2FA08E2F974031206C6E22401F261
:10137C0018E23400F218E2FB08E2FA08E2F9E4128F
:10138C0006C6E22401F218E23400F2E478A4F27802
:10139C00A4E2FDC364809484400302155A7809E2E8
:1013AC0075F004A4FFED3395E0FCEF2DFFE5F03C68
:1013BC00FE7818E22FFF18E23EFE78A2F208EFF258
:1013CC00F5828E83E493FF7812E2FB08E2FA08E2DE
:1013DC00F9EF1206C678A4E204F27814E22401F2C2
:1013EC0018E23400F280A87812E2FB08E2FA08E274
:1013FC00F9E41206C6E22401F218E23400F2E478B1
:10140C00A4F278A4E2FDC364809484504A7806E286
:10141C0075F004A4FFED3395E0FCEF2DFFE5F03CF7
:10142C00FE7818E22FFF18E23EFE78A2F208EFF2E7
:10143C00F5828E83E493FF7812E2FB08E2FA08E26D
:10144C00F9EF1206C678A4E204F27814E22401F251
:10145C0018E23400F280AB7812E2FB08E2FA08E200
:10146C00F9E41206C6E22401F218E23400F2E47840
:10147C00A4F278A4E2FDC364809484504A7807E215
:10148C0075F004A4FFED3395E0FCEF2DFFE5F03C87
:10149C00FE7818E22FFF18E23EFE78A2F208EFF277
:1014AC00F5828E83E493FF7812E2FB08E2FA08E2FD
:1014BC00F9EF1206C678A4E204F27814E22401F2E1
:1014CC0018E23400F280AB7812E2FB08E2FA08E290
:1014DC00F9E41206C6E22401F218E23400F2E478D0
:1014EC00A4F278A4E2FDC364809484504A7808E2A4
:1014FC0075F004A4FFED3395E0FCEF2DFFE5F03C17
:10150C00FE7818E22FFF18E23EFE78A2F208EFF206
:10151C00F5828E83E493FF7812E2FB08E2FA08E28C
:10152C00F9EF1206C678A4E204F27814E22401F270
:10153C0018E23400F280AB7812E2FB08E2FA08E21F
:10154C00F9E41206C6E22401F218E23400F2781231
:10155C00E2FB08E2FA08E2F9E41206C6E22401F220
:10156C0018E23400F218E2FB08E2FA08E2F97462BD
:10157C001206C6E22401F218E23400F218E2FB086B
:10158C00E2FA08E2F974641206C6E22401F218E2E7
:10159C003400F218E2FB08E2FA08E2F974081206C9
:1015AC00C6E22401F218E23400F218E2FB08E2FA77
:1015BC0008E2F974131206C6E22401F218E23400B0
:1015CC00F218E2FB08E2FA08E2F974231206C6E20A
:0815DC002401F218E23400F2D0
:0115E40022E4
:1045BF00781FE2FFC3941850257837E26406701E07
:1045CF00EF781F30E009E2C31390249A938008E23A
:0F45DF00C31390249A93C4540FFF7819EFF2225C
:104302001240AE1245BF781CE2B407005030904311
:1043120017F828287302432C02432E02433102432A
:104322003402433702433A02433D801202414C02B7
:10433200355302297B0227280211FC023BB812479F
:02434200D42283
:04452400E49308F222
:10452800ED1206A412068BFF78A7E2D36480F8EF99
:10453800648098400678A6E21206C612068BFF78B9
:10454800A6E2C36480F8EF648098500678A7E21268
:0345580006C62272
:1049D9007BFE7A007915AD0778A67402F208740B8C
:0549E900F21245282236
:1037EF007815E224FEB40A00506690380775F0038E
:1037FF00A4C58325F0C5837302382502382B023800
:10380F003102383702383D02384302384902384F07
:10381F0002385502385B7E237F5C80347E237F72B3
:10382F00802E7E237F8880287E237F9E80227E238A
:10383F007FB4801C7E237FCA80167E237FE080109A
:10384F007E237FF6800A7E247F0C80047E247F6E89
:10385F00E4FDEDC3941650158F828E83E493FC74B0
:0D386F00082DF8A6040D0FBF00010E80E526
:01387C002229
:103385001240AE781AE2FFC3940F5004C200800CBD
:10339500EFC3942D5004D2008002C2007824E2705D
:1033A5007678A2F278A2E2C3940950207812E2FB63
:1033B50008E2FA08E2F9E41206C678A2E204F27815
:1033C50014E22401F218E23400F280D8E478A2F283
:1033D50078A2E2FFC394045026EF90002A93FF7869
:1033E50012E2FB08E2FA08E2F9EF1206C678A2E259
:1033F50004F27814E22401F218E23400F280D17864
:103405001DE2FF7824E2FE700A300003EE60047DC1
:1034150001806C7D008068781FE2FF7824E2FEB4AD
:10342500020B300004640260047D0180027D00E42B
:10343500FB123283E478A2F278A2E2FFC39404502F
:1034450026EF90002A93FF7812E2FB08E2FA08E2E1
:10345500F9EF1206C678A2E204F27814E22401F22A
:1034650018E23400F280D1781EE2FF7824E2FEB43F
:10347500010B300004640160047D0180027D00E4DD
:04348500FB12328381
:013489002220
:103177001240AE781AE2FFC3940F5004C200800CCD
:10318700EFC3942D5004D2008002C2007824E26479
:1031970006600302321D7812E2FB08E2FA08E2F940
:1031A700E41206C6E22401F218E23400F218E2FB48
:1031B70008E2FA08E2F9E41206C6E22401F218E28C
:1031C7003400F2E4FBFD7F141232837812E2FB082D
:1031D700E2FA08E2F9E41206C6E22401F218E23440
:1031E70000F27823E2FF08E2FEB4060B3000046425
:1031F7000660047D0180027D00E4FB1232837812B1
:10320700E2FB08E2FA08E2F9E41206C6E22401F258
:1032170018E23400F2227821E2FF7824E2FEB404B7
:103227000B300004640460047D0180027D007B0193
:10323700123283E4FFEFC394045020EF90002293EF
:10324700FE7812E2FB08E2FA08E2F9EE1206C60F70
:10325700E22401F218E23400F280DA7822E2FF7801
:1032670024E2FEB4050B300004640560047D018090
:08327700027D00E4FB1232832A
:01327F00222C
:10195E001240AE784EE2FF704C7844E278A46009F3
:10196E007424F2087422F280077424F2087438F298
:10197E00E478A2F278A2E2FEC394164003021C6041
:10198E0078A4E2FC08E2F5828C83E493FD74082EC1
:10199E00F8A60578A2E204F278A5E22401F218E294
:1019AE003400F280CFEF6401600A784EE264026088
:1019BE0003021A48781AE2FFC3940F5004C2008043
:1019CE000CEFC3942D5004D2008002C2007845E281
:1019DE00FF784EE2FEB4010B300004640160047D1A
:1019EE000180027D00E4FB123283E478A2F278A239
:1019FE00E2FFC394045026EF90002A93FF7812E280
:101A0E00FB08E2FA08E2F9EF1206C678A2E204F247
:101A1E007814E22401F218E23400F280D17846E222
:101A2E00FF784EE2FEB4020B300004640260047DC7
:101A3E000180027D00E4FB023283781AE2FFC39438
:101A4E001B5004C200800CEFC394215004D20080BE
:101A5E0002C200784EE224FDB40700506E901A794F
:101A6E0075F003A4C58325F0C58373021A8E021A7E
:101A7E0099021AA4021AAF021ABA021AC5021AD091
:101A8E0078A47422F20874C2F2804078A47422F210
:101A9E000874D8F2803578A47422F20874EEF280BD
:101AAE002A78A47423F2087404F2801F78A4742395
:101ABE00F208741AF2801478A47423F2087430F2C7
:101ACE00800978A47423F2087446F2E478A2F278BE
:101ADE00A2E2FFC394164003021C60E408F2EF1268
:101AEE0009401B1E011B1E021B4B041B4B051B78C2
:101AFE00071B78081BA50A1BA50B1BC80D1BC80EC0
:101B0E001BEB101BEB111C0E131C0E1400001C32D1
:101B1E00784EE2FF640360057847E2704AEF640393
:101B2E006003021C327847E2FF6003300039EF6039
:101B3E0003021C32200003021C32021C2D784EE2DE
:101B4E00FF640460057848E2701DEF6404600302D0
:101B5E001C327848E2FF600330000CEF6003021C79
:101B6E0032200003021C32021C2D784EE2FF640567
:101B7E0060057849E2701DEF64056003021C32783F
:101B8E0049E2FF600330000CEF6003021C322000BC
:101B9E0003021C32021C2D784EE2FF6406600578AB
:101BAE004AE27014EF6406707B784AE2FF600330FD
:101BBE000006EF706F30006C8065784EE2FF6407B0
:101BCE006005784BE27014EF64077058784BE2FFB3
:101BDE006003300006EF704C3000498042784EE2D0
:101BEE00FF64086005784CE27014EF640870357875
:101BFE004CE2FF6003300006EF7029300026801F94
:101C0E00784EE2FF6409600418E27013EFB4091411
:101C1E00784DE2FF6003300006EF70083000057863
:101C2E00A37401F278A4E2FE08E2F5828E83E493B7
:101C3E00FF78A3E2FEEF4EFF18E22408F8A607781D
:101C4E00A2E204F278A5E22401F218E23400F202D4
:021C5E001ADD8D
:011C60002261
:104923007BFE7A007935AD079044C9E49378A6F20B
:074933009044DC1245242230
:074B58001240AE1247D42207
:10493A007BFE7A007933AD079044C7E49378A6F2F8
:07494A009044DA124524221B
:10390B007812E4F2087400F2087408F2E4FFEFC3D3
:10391B0094105020EF90244E93FE7812E2FB08E2B5
:10392B00FA08E2F9EE1206C60FE22401F218E234AD
:10393B0000F280DA7812E2FB08E2FA08E2F9E4120C
:10394B0006C6E22401F218E23400F2E4FFEFC3945E
:10395B000550387833E275F005A42FF582E435F085
:10396B00F583E5822442F582E5833400F583E49305
:10397B00FE7812E2FB08E2FA08E2F9EE1206C60F35
:0B398B00E22401F218E23400F280C2D6
:01399600220E
:104951007BFE7A007934AD079044C8E49378A6F2DF
:074961009044DB1245242203
:074B5F001240AE1247D42200
:1047F6007BFE7A007937AD079044CBE49378A6F236
:104806009044DE1245247837E27819F21245BF2229
:103997007812E4F2087400F2087408F2E4FFEFC347
:1039A70094105020EF90245E93FE7812E2FB08E219
:1039B700FA08E2F9EE1206C60FE22401F218E23421
:1039C70000F280DA7812E2FB08E2FA08E2F9E41280
:1039D70006C6E22401F218E23400F2E4FFEFC394D2
:1039E7000550387837E275F005A42FF582E435F0F5
:1039F700F583E5822442F582E5833400F583E49379
:103A0700FE7812E2FB08E2FA08E2F9EE1206C60FA8
:0B3A1700E22401F218E23400F280C249
:013A22002281
:104968007BFE7A007932AD079044C6E49378A6F2CC
:074978009044D912452422EE
:1045EE007832E260067E247F2280047E247F38E4C7
:1045FE00FDEDC3941650158F828E83E493FC7408E0
:0C460E002DF8A6040D0FBF00010E80E582
:01461A00227D
:10497F007BFE7A007943AD079044D7E49378A6F293
:07498F009044EA12452422C6
:1024BB007812E4F2087400F2087408F27843E2FF31
:1024CB00C36480948040028001D39200300005EFFA
:1024DB00F40480037843E278A5F2E478A4F278A4BC
:1024EB00E2FFC364809483500D740B2FF8E4F278F1
:1024FB00A4E204F280E878A47402F278A5E2D39403
:10250B0000500818E264809480401E78A5E2FF75A5
:10251B00F00A8418E2240BF8E5F0F278A4E214F246
:10252B00EF75F00A8408F280D278A57403F22000CC
:10253B0004E22405F2780BE2701178A5E22405F28F
:10254B00780CE2700678A5E22405F2E478A4F27820
:10255B00A5E2FF18E2FD3395E0FCC3ED9F7480F814
:10256B006C9850207812E2FB08E2FA08E2F9E412C8
:10257B0006C678A4E204F27814E22401F218E234DD
:10258B0000F280CB300046E478A4F278A4E2C36476
:10259B0080948450217812E2FB08E2FA08E2F97485
:1025AB00081206C678A4E204F27814E22401F218A9
:1025BB00E23400F280D57812E2FB08E2FA08E2F985
:1025CB00E41206C6E22401F218E23400F2780BE2C0
:1025DB00D394004070E478A4F278A4E2FDC3648045
:1025EB009484504A780BE275F004A4FFED3395E028
:1025FB00FCEF2DFFE5F03CFE7818E22FFF18E23ED2
:10260B00FE78A2F208EFF2F5828E83E493FF781244
:10261B00E2FB08E2FA08E2F9EF1206C678A4E2043C
:10262B00F27814E22401F218E23400F280AB781253
:10263B00E2FB08E2FA08E2F9E41206C6E22401F230
:10264B0018E23400F2780BE2D39400500608E294BF
:10265B00004070E478A4F278A4E2FDC36480948413
:10266B00504A780CE275F004A4FFED3395E0FCEFD3
:10267B002DFFE5F03CFE7818E22FFF18E23EFE78C6
:10268B00A2F208EFF2F5828E83E493FF7812E2FB5D
:10269B0008E2FA08E2F9EF1206C678A4E204F2782F
:1026AB0014E22401F218E23400F280AB7812E2FB60
:1026BB0008E2FA08E2F9E41206C6E22401F218E293
:1026CB003400F2E478A4F278A4E2FDC3648094842D
:1026DB00504A780DE275F004A4FFED3395E0FCEF62
:1026EB002DFFE5F03CFE7818E22FFF18E23EFE7856
:1026FB00A2F208EFF2F5828E83E493FF7812E2FBED
:10270B0008E2FA08E2F9EF1206C678A4E204F278BE
:0C271B0014E22401F218E23400F280AB5A
:01272700228F
:104996007BFE7A007942AD079044D6E49378A6F27E
:0749A6009044E912452422B0
:104A71007812E4F2087400F2087408F212297B2219
:103D8B00781CE275F003A424A6F582E43424F583B1
:103D9B00E493FF7811E2D39F4052781CE204F2E4E3
:103DAB007811F2781CE2D394074002E4F2781CE21B
:103DBB00B4040B124B80EF7005781C7405F2781C61
:103DCB00E2B40512124B80EF6460600A124B914013
:103DDB0005781C7406F2781CE2B40610E430070276
:0D3DEB008005781CF274FF780FF208F222B8
:0E4ABE007833E2B40104E47811F2123D8B2249
:0E4ACC00C3780FE2648094805003123D8B2269
:103BB800780FE2FE08E2FF24EA78A3F2EE34FF1859
:103BC800F2780EE22416FDE433FCD3EF9DEC64801A
:103BD800F8EE648098400E74FF780FF208F2E478EB
:103BE8001CF27811F2E4FFEFFD78A3E22DFD18E254
:103BF8003400FCC3648094804025780EE2FBED9B82
:103C08007480F86C98501878A208E22F24D5F582B1
:103C1800E43400F583E0FE74082FF8A606800674E5
:0A3C2800082FF8E4F60FEFB416BD04
:013C3200226F
:1048F200780EE2C394FE5010E2FE04F274D52EF557
:0949020082E43400F583EFF02299
:043D1A0078A3EFF2A9
:103D1E00E4780EF278A4F278A3E214FF08E2C39FCF
:103D2E00505A12068BFDC394A0400674C02DFD8020
:103D3E000EEDC39420400674E02DFD80027D1FE43D
:103D4E00FC75F005EDA42CF582E435F0F583E582E3
:103D5E00244AF582E5833401F583E493FF64A5607C
:103D6E00031248F20CECB405D8E4FF1248F278A422
:0C3D7E00E204F2740129F9E43AFA809B97
:013D8A002216
:10001E000000000000080800001C1C00003636001E
:10002E00002436000024240000240000003030009C
:10003E00000606007F7F417F7F00007F7F000F4F0D
:10004E004979794149497F7F7878087F7F79794965
:10005E004F0F7F7F494F0F4040407F7F7F7F497F0B
:10006E007F7879497F7F3040454830705070003E30
:10007E007F6341417F41417F00007F004F494979B5
:10008E004949497F7808087F7949494F7F49494F47
:10009E004040407F7F49497F7949497F3E45413EF7
:1000AE0000217F0123454931425169460C14245FDA
:1000BE007251514E1E294906404F5060367F4936C7
:1000CE0030494A3C7E41413F00407F000F4949394B
:1000DE004949493E7C04041F7849490F7F49490725
:1000EE006040403F7E49493F7849493F7F63637F87
:1000FE0000607F006F6B6B7B6B6B6B7F7878087F1C
:10010E007B7B4B4F7F7F494F40407F7F7F6B6B7F69
:10011E007969497F007F417F00007F00004F497958
:10012E000049497F0078087F0079494F007F494F89
:10013E000040407F007F497F0079497F000000002A
:10014E00A57DA5A5A5A5700070A5A5147F147F1487
:10015E00122A7F2A24626408132336495522055039
:10016E0060A5A5A51C2241A5A541221CA5A5140884
:10017E003E081408083E08080506A5A5A5040404B3
:10018E0004A501A5A5A5A502040810203E41413EE7
:10019E00A500217F01A521434539A522414936A558
:1001AE000C14247FA57251514EA53E494926A540F7
:1001BE00474870A536494936A53249493EA512A58C
:1001CE00A5A5A50112A5A5A508142241A5141414D0
:1001DE00141441221408A520404548303E415D5577
:1001EE003C1F2444241F7F494949363E4141412248
:1001FE007F4141221C7F494949417F484848403E42
:10020E004149492F7F0808087F417F41A5A502017A
:10021E00417E407F081422417F010101A57F2018F5
:10022E00207F7F1008047F3E4141413E7F48484871
:10023E00303E4145423D7F484C4A3132494949267C
:10024E0040407F40407E0101017E700C030C707EA9
:10025E00010E017E6314081463700807087043458D
:10026E004951617F4141A5A50C123F120441417FC6
:10027E00A5A5102040201001010101014020A5A5D7
:10028E00A5021515150F7F0911110E0E1111110270
:10029E000E1111097F0E1515150C083F4840201838
:1002AE002525253E7F0810100F115F01A5A502011F
:1002BE00115EA57F040A11A5417F01A5A51F100C93
:1002CE00100F1F08100FA50E1111110E3F24222220
:1002DE001C1C2222243F1F081008A5081515150204
:1002EE00107E1101021E0101021F18060106181EC2
:1002FE000106011E110A040A11180505051E111327
:10030E00151911083641A5A57FA5A5A5A541360845
:10031E00A5A508100810A5A5A5A5A5A5021E3F1EFA
:10032E00023049294936184525451E0201417E40B5
:10033E002A1C771C2A3F202020607F7F7F7F7F7FB3
:10034E007F7F7F7F3F692969217F7F7F7F7F3E4946
:10035E0049412208142A14227F7F7F7F7F1E29277E
:10036E00211E7F7F7F7F7F413F41A5A500304848FA
:10037E003009097D0909417F41A5A5115F01A5A598
:10038E001F101058A57F7F7F7F7F7F7F7F7F7F7FAE
:10039E007F7F7F7F0E5515550C7F7F7F7F7F0E15DC
:1003AE0015110A22142A14087F7F7F7F7F7F7F7F9B
:1003BE007F7F7F7F7F7F7F511F51A5A53F444444A0
:1003CE003F7F494949467F494949367F4040406011
:1003DE00033E427E037F4949494177087F087741B2
:1003EE00494949367F0408107F3F0264083F7F0861
:1003FE00142241011E20407F7F2018207F7F080895
:10040E00087F3E4141413E7F4040407F7F48484803
:10041E00303E4141412240407F4040700909097EF3
:10042E003C42FF423C63140814637F01017F01705C
:10043E000808087F7F017F017F7E027E027F407F5A
:10044E000909067F0906007F7F0911110E22414915
:10045E00493E7F083E413E314A4C487F02151515F4
:10046E000F1E292949061F15150AA51F101018A5BC
:10047E00030E121E030E1515150C1B041F041B1163
:10048E0015150AA51F0204081F1F4224481F1F042A
:10049E000A11A50708101FA51F0804081F1F040432
:1004AE001FA50E1111110E1F10101FA51F141212D1
:1004BE000C0E1111110210101F1010180505051E3B
:1004CE000C129F120C110A040A111F01011F0118B0
:1004DE0004041FA51F011F011F1E021E021F101F55
:1004EE000505021F0502001F1F050502A50A1115AD
:0C04FE00150E1F040E110E081516141F19
:1046A00000000001010100FF003B3B17071F0C63E6
:1046B000FF630000001F003B005A0078009700B520
:0A46C00000D400F301110130014E97
:103F3E007822E2FFD3940240047E0080027E017854
:103F4E0023E2240CC39EFDEE75F00CA42F24FEF983
:103F5E00EDFF7821E22FFFE433FEED1313543F7C87
:103F6E00002FFBEC3EFAE975F01FA4FFAEF07D0CBE
:103F7E0012070CEF2BFFEE3ACF24FFCF34FFFE7C5F
:103F8E00007D0712070CAF057820EFF2700374075F
:013F9E00F230
:013F9F0022FF
:10478E007822E2FFB4021008E2540360047E1D801A
:10479E00027E1CAF06800BEFD3940740010FEF444F
:0247AE001EFFEC
:0147B00022E6
:1040FD007FD01248BE7F0A1246F27F811246F2121D
:10410D004AA07FD01248BE7F0D1246F27F81124623
:10411D00F27F041246F2E4FF1246F27843E2FF12F8
:10412D0046F2124AA0123ED27820E278A2F2123F55
:0E413D003E7820E2FF78A2E26F60031246484F
:01414B002251
:1046CA007FD01248BEE4FF1246F2E478A2F278A242
:1046DA00E2FFD39402500D1247B11246F278A2E2D9
:0746EA0004F280EA124AA06D
:0146F10022A6
:10464800123F3E7FD01248BE7F031246F278A37411
:1046580003F278A3E2FFD39406500D1247B1124635
:0B466800F278A3E204F280EA124AA0FC
:014673002224
:1049EE007FD01248BE7F101246F27843E2FF124685
:0549FE00F2124AA022A4
:103ED2007FD01248BEE4FF1246F2124AA07FD112EE
:103EE20048BEE478A3F278A3E2FFD39406502BEF06
:103EF200B40603C38001D3920112458D78A4EFF278
:103F0200124A9178A3E27C007BFE241DF9EC340076
:103F1200FAEF1206C6E204F280CC124AA07FD01257
:103F220048BE7F111246F2124AA07FD11248BEC289
:0B3F32000112458D7825EFF2124AA025
:013F3D002261
:04387D0078A2EFF24C
:103881007824E2FFFD7C00241DF9EC3400FA78A3D2
:1038910074FEF208EAF208E9F27BFF74A92DF9EC53
:1038A1003446FA12068BFEEF24A0F9EC3446FA12E4
:1038B100068BFD7824E2B4040512478EAE0778A288
:1038C100E2FF08E2FB08E2FA08E2F9EF1206A47847
:1038D100A3E2FB08E2FA08E2F912068BFFD3EE64D9
:1038E10080F8EF6480984004ED1206C678A3E2FBED
:1038F10008E2FA08E2F912068BFFC3ED6480F8EFE3
:093901006480985004EE1206C621
:01390A00229A
:104742007824E2601024FE600A24FE24FD50042432
:1047520006700E800678247404F2227824E214F2A1
:074762002278247402F22208
:10443F007822E2FF25E024B0F582E43446F58318B4
:10444F00E2FD7401932DFDE4933400FC7823E254D4
:10445F0003700CEFD3940240067E007F0180047E30
:0A446F00007F00ED2FFFEC3EFE225F
:0F4A9100EFC4540F75F00AA4FEEF540F2EFF224E
:1047B1007E007BFE741D2FF9EE3400FA12068BFF8A
:1047C100EF75F00A84C454F0FEEF75F00A84E5F049
:0347D1002EFF2296
:104A6000124B7BD2C1124B7BA2C29203C2C1A203E2
:014A70002223
:074B6600A20292C2024A60A4
:1048A40078A2EFF2D2C1D2C2124B7BC2C2124B7BAE
:0A48B400C2C178A2E2FF12471A22E7
:1048BE0078D2EFF2D2C1D2C2124B7BC2C2124B7B64
:0A48CE00C2C178D2E2FF1246F222C6
:0F4AA000C2C1C2C2124B7BD2C1124B7BD2C22207
:0446F20078D3EFF298
:1046F600E408F2F278D3E2339202124B6678D3E200
:10470600FF25E0F208E204F2E2C3940840E6D20292
:03471600124B66DD
:01471900227D
:04471A0078A3EFF29F
:10471E00E408F2F278A3E2339202124B6678A3E237
:10472E00FF25E0F208E204F2E2C3940840E6D2C2AA
:03473E00124A60BC
:014741002255
:10458D00D2C2E478D3F218F278D3E2FF25E0F2122A
:10459D004A60500678D3E24401F278D2E204F2E2A6
:1045AD00C3940840E3A201B39202124B6678D3E2A2
:0145BD00FFFE
:0145BE0022DA
:044B7B007F02DFFED8
:014B7F002213
:0A4B1A00EF60077E13DEFE1F80F639
:014B2400226E
:0E4AAF00EF600B7E127DEBDDFEDEFC1F80F261
:014ABD0022D6
:10407200812D00812B0082290000812C00812EFAE3
:0A408200812F008226000081280033
:10348A00E4FF20C6010F20C504EF4402FF20C40454
:10349A00EF4404FFEF602A7828E2FEB5071D18E220
:1034AA002401F218E23400F208E2647D700218E2A4
:1034BA007035EEC454F0782FF2802C7828EFF28021
:1034CA00267826E2FE08E2FFD39419EE64809480FF
:1034DA00400FEF947DEE64809480500508E2782FC7
:1034EA00F2E47826F208F2782EE26005E214F2801D
:1034FA0028782E74FAF218E26003E214F2782BE2CA
:10350A006003E214F2782AE2700218E2600B782A69
:10351A00E224FFF218E234FFF2782CE26005E214AA
:10352A00F2800E782AE2700218E26005782C74FAAA
:10353A00F2782CE2540ED39408400B782EE2D394FE
:08354A007D4005C2C322D2C37B
:013552002256
:104A8100782CEFF2782E74FAF2E47829F208F22207
:064B6D00782FE2FFE4F2E4
:014B7300221F
:1044B200FF00010000010500071E010101010100CA
:1044C200000000FF000100000000000000000000EA
:1044D20000000000F780FF01050404010601173BFC
:0944E20001010101010101097F42
:03408C0081300080
:103FA000D200E478A3F278A3E2FFC39409501D7E07
:103FB000007BFE74382FF9EE3400FA12068BF460A1
:103FC00004C200800778A3E204F280DA30002EE415
:103FD00078A3F278A3E2FF7C007BFF24B2F9EC34F3
:103FE00044FA12068BFEEF1B2431F9EC3400FAEE92
:0D3FF0001206C6E204F2E2B413D91243C671
:013FFD0022A1
:10447900E478A2F278A2E2FDC3941350287830E2DE
:1044890025E0FE7C00E42DFFEC3EFE12490B78A2EC
:10449900E27C007BFE2431F9EC3400FAEF1206C607
:0844A900E204F280CF123FA0F3
:0144B10022E8
:1043C6007830E2FF7E001249C3E478A4F278A4E2D2
:1043D600FDC3941350267830E225E0FE7C00E42DE0
:1043E600FFEC3EFE7BFE74312DF9EC3400FA12062A
:0C43F6008BFD1248D878A4E204F280D1BC
:014402002297
:1049AD0000000000000000000000FF01173B0101A6
:0649BD000101010101FFF0
:1044EB00E478A2F278A2E2FFFD3395E0FC7BFE7448
:1044FB00382DF974003CFA12068BFEEF3395E0FC75
:10450B0074442DF974003CFAEE1206C6E204F2E292
:08451B00B40AD1784E74FFF2DE
:014523002275
:10440300E478A2F278A2E2FFFD3395E0FC7BFE7430
:10441300442DF974003CFA12068BFEEF3395E0FC51
:1044230074382DF974003CFAEE1206C6E204F2E287
:0B443300B40AD11243C6784E74FFF2A9
:01443E00225B
:104A0300784EE2C3648094894003E4F222784EE254
:034A130004F22288
:043A230078A2EFF2A4
:103A2700784EE2FFFD3395E0FC74442DF974003CB9
:103A3700FA78A374FEF208EAF208E9F27BFF74B899
:103A47002DF974493CFA12068BFEEFFD3395E0FC25
:103A570074AD2DF974493CFA12068BFF78A2E2FD8A
:103A670008E2FB08E2FA08E2F9ED1206A478A3E2FD
:103A7700FB08E2FA08E2F912068BFDD3EE6480F840
:103A8700ED6480984004EF1206C678A3E2FB08E2D3
:103A9700FA08E2F912068BFDC3EF6480F8ED648043
:073AA700985004EE1206C660
:013AAE0022F5
:0D4AF600E4F5C7F5C5F5C675C380F5C4220B
:10490B0075C78275C5018FC4EEF5C375C65A75C6DA
:07491B00A500AFC2124AF62D
:014922002272
:1048D80075C78275C5028FC4EEF5C3AF058FC27563
:0A48E800C65A75C6A500124AF62252
:1049C30075C78275C5038FC4EEF5C375C65A75C620
:0649D300A500124AF622C5
:014B940022FE
:104A1600438E805389F0E4F58A758CF7C28DD28C6B
:034A2600D2A922F0
:094B2F00124A16124B94D2AF2277
:03000B0002419A15
:10419A00C0E0C0F0C083C082C0D075D000C000C0EB
:1041AA0001C002C003C004C005C006C007123033F4
:1041BA00784FE204F2E2D394204005E4F212348A02
:1041CA00D007D006D005D004D003D002D001D00049
:0B41DA00D0D0D082D083D0F0D0E032F3
:03001B00024B9500
:014B950032ED
:1015E500D120CDCEC2DBCC20C3CEC4CECC2121218F
:1015F50000D0EEE6E4E5F1F2E2EE20F5F0E8F1F2F6
:10160500EEE2EE2E00D1F2E0F0FBE920CDEEE2FBBA
:10161500E920E3EEE42E00CAF0E5F9E5EDE8E52082
:10162500C3EEF1EFEEE4EDE52E00D2E0F2FCFFEDC6
:10163500E8ED20E4E5EDFC2E00C4E5EDFC20E2F14B
:10164500E5F520E2EBFEE1EBB8EDEDFBF52E00C490
:10165500E5EDFC20E7E0F9E8F2EDE8EAE020CEF27E
:10166500E5F7E5F1F2E2E02E00CCE5E6E4F3EDE0A6
:10167500F0EEE4EDFBE920E6E5EDF1EAE8E920E44A
:10168500E5EDFC2E00C4E5EDFC20ECEEF0FFEAE014
:101695002DEFEEE4E2EEE4EDE8EAE02E00C4E5ED40
:1016A500FC20F1ECE5F5E02E00C4E5EDFC20EAEECA
:1016B500F1ECEEEDE0E2F2E8EAE82E00CFF0E0E74B
:1016C500E4EDE8EA20C2E5F1EDFB20E820D2F0F3F5
:1016D500E4E02E00C4E5EDFC20EFEEE1E5E4FB21BE
:1016E500212100C4E5EDFC20EFE8EEEDE5F0E8E8AA
:1016F5002E00C4E5EDFC20EFEEE3F0E0EDE8F7EDBC
:10170500E8EAE02E00C4E5EDFC20E7E0F9E8F2FBAD
:1017150020E4E5F2E5E92E00C4E5EDFC20D0CED1CC
:10172500D1C8C82E00C4E5EDFC20ECEEEBEEE4E5F7
:10173500E6E82E00C4E5EDFC20F1E5ECFCE82C2004
:10174500EBFEE1E2E820E820E2E5F0EDEEF1F2E87B
:101755002E00C4E5EDFC20C2EEE7E4F3F8EDEE2D36
:10176500E4E5F1E0EDF2EDFBF520E2EEE9F1EA2E3C
:1017750000C4E5EDFC20C2EEE5EDEDEE2DE2EEE771
:10178500E4F3F8EDFBF520F1E8EB2E00C4E5EDFC04
:1017950020E7EDE0EDE8E92E00C4E5EDFC20F2E5FB
:1017A500F1F2E8F0EEE2F9E8EAE02E00C4E5EDFC3E
:1017B50020F3F7E8F2E5EBFF2E00C4E5EDFC20F0A1
:1017C500EEE6E4E5EDE8FF20C4E5E4E020CCEEF04C
:1017D500EEE7E02E00C4E5EDFC20EDE5F0E3E5F2F3
:1017E500E8EAE02E00C4E5EDFC20EFF0EEE3F0E0E2
:1017F500ECECE8F1F2E02E00C4E5EDFC20ECE5E4CC
:10180500E8F6E8EDF1EAEEE3EE20F0E0E1EEF2EDE8
:10181500E8EAE02E00C4E5EDFC20F1E8F1F2E5ECA4
:10182500EDEEE3EE20E0E4ECE8EDE8F1F2F0E0F2D5
:10183500EEF0E02E00C4E5EDFC20C2EEE5EDEDEEA8
:101845002DCCEEF0F1EAEEE3EE20D4EBEEF2E02E55
:1018550000CCE5E6E4F3EDE0F0EEE4EDFBE920E4B1
:10186500E5EDFC20EFE8E2E02E00C4E5EDFC20F11B
:10187500F2F0EEE8F2E5EBFF2E00C4E5EDFC20F218
:10188500E0EDEAE8F1F2E02E00C4E5EDFC20E0E24F
:10189500F2EEECEEE1E8EBE8F1F2E02E00C4E5ED66
:1018A500FC20ECE0F2E5F0E82E0001011115E50160
:1018B500071415F6010E12160A011313161C011949
:1018C5000F162F020E16163E02171A165403081C81
:1018D500166E031318168A04010C16A2040C1316AF
:1018E500AE05011816C105090F16D905130F16E81F
:1018F500051C1316F7060113170A060C0D171D060E
:101905001B0F172A07081E173908021F1757080C3F
:101915001B177609010D1791090913179E0A050E64
:1019250017B10B121B17BF0C161017DA610013172E
:10193500EA36071D17FD770520181A77071C183A90
:101945001805191856280710186F29070F187F7AD8
:091955000714188E7B070D18A27F
:02408F00C10767
:103FFE007820E278A3F27F057850E4F208DFFC7FA8
:10400E00057821E278A3F278A3E2D3648094874006
:10401E0006E224F9F280F012478EAE07E4FFEFC3FA
:10402E0094055024EEFD78A3E2F9FB3395E0FAD324
:10403E00EB9D7480F86A98500F74502FF8E9F20FC8
:08404E0078A3E22407F280D6FA
:014056002247
:104836007854E2FF700C7821E2FE7853E2B5060A5E
:0C484600D3227821E2B50702D322C3225E
:104A290074502FF8E2FF7821E2FEEFB50603D38038
:034A390001C32294
:102D6400C207E4780EF2123FFEE478A2F278A2E2FF
:102D7400FFC394234003022EDE300703022EDEEF4E
:102D840075F005A424AFF582E43418F583E493FFC9
:102D940054F0FEC4540F1424FB503F7003022E2A37
:102DA400147003022E6424076003022ED078A2E27A
:102DB40075F005A424B0F582E43418F583E493FE99
:102DC4007821E2FDEE6D6003022ED6EF540FFF086A
:102DD400E26F6003022ED6022E9C78A2E2FF75F009
:102DE40005A424AFF582E43418F583E493FE540F6C
:102DF400FD7822E26D6003022ED6EF75F005A4245F
:102E0400B0F582E43418F583E493FF7820E26F6030
:102E140003022ED6EE5470C4540F14FF124A2940F4
:102E240003022ED6807212443FAC06AD0778A2E2AC
:102E3400FB75F005A424AFF582E43418F583E4931C
:102E44005401FEEB75F005A424B0F582E43418F5C2
:102E540083E493FBEB6D7002EC6E7076D207803CDA
:102E640078A2E2FF75F005A424AFF582E43418F5E6
:102E740083E493540FFE7822E26E7056EF75F005EA
:102E8400A424B0F582E43418F583E493FF7820E2B7
:102E94006F703F124836503AD20778A2E2FE75F0BE
:102EA40005A424B1F582E43418F583E493FFEE75A8
:102EB400F005A424B2F582E43418F583E493FC7499
:102EC4000193AA04F97BFF123D1A8006C207E47835
:0A2ED4000EF278A2E204F2022D7162
:012EDE0022D1
:104091008174EC815B00825C0000825500008275B6
:0240A10000001D
:1048160078A2EFF208EDF27874E2FF1248BE78A2B1
:10482600E2FF1246F278A3E2FF1246F2124AA022F3
:0446740078A2EFF247
:104678007874E2FF1248BE78A2E2FF1246F278741C
:10468800E24401FF1248BEC20112458D78A3EFF241
:07469800124AA078A3E2FF23
:01469F0022F8
:0443440078CFEFF24D
:104348007874E2FF1248BE78CFE2FF1246F2787422
:10435800E24401FF1248BED20112458DEFF8E4791C
:10436800D1F3E819F3C20112458D78D0E2F208E2E0
:0C4378004FF2124AA078D0E2FE08E2FFEB
:014384002216
:0443850078A2EFF239
:104389007874E2FF1248BE78A2E2FF1246F278740E
:10439900E24401FF1248BED20112458D78A3E4F22E
:1043A90008EFF2C20112458DEFFE78A3E24EF20842
:0C43B900E2F2124AA078A3E2FE08E2FF44
:0143C50022D5
:044B85001243442271
:044B8900124385222C
:0436120078BAEFF2A1
:103616007874E2FF1248BE78BAE2FF1246F2787476
:10362600E24401FF1248BED20112458DE4FCFDFEC4
:10363600780C12091078BB12092378BBE2FB08E26A
:10364600F908E2FA08E2CBF8C000C001C002C003E4
:10365600D20112458DE4FCFDFE7804120910D00358
:10366600D002D001D000EB4FFFEA4EFEE94DFDE857
:103676004CFC78BB12092378BBE2FB08E2F908E2AE
:10368600FA08E2CBF8C000C001C002C003C20112B2
:10369600458DEFC4540FFFD003D002D001D000EB0C
:1036A6004FFFEAFEE9FDE8FC78BB120923124AA0A7
:0D36B60078BBE2FC08E2FD08E2FE08E2FF3E
:0136C30022E4
:103AAF007FAA124344785EEEF208EFF27FAC124326
:103ABF00447860EEF208EFF27FAE1243447862EE84
:103ACF00F208EFF27FB01243447864EEF208EFF29F
:103ADF007FB21243447866EEF208EFF27FB41243DE
:103AEF00447868EEF208EFF27FB6124344786AEE3C
:103AFF00F208EFF27FB8124344786CEEF208EFF25F
:103B0F007FBA124344786EEEF208EFF27FBC124395
:103B1F00447870EEF208EFF27FBE1243447872EEF3
:053B2F00F208EFF22294
:10375E007F88124385787BEEF208EFF27F8A124B58
:10376E0089787DEEF208EFF27F8C124B89787FEE2E
:10377E00F208EFF27F8E1243857881EEF208EFF2B7
:10378E007F90124B897883EEF208EFF27F92124B04
:10379E00897885EEF208EFF27F94124B897887EEE6
:1037AE00F208EFF27F96124B897889EEF208EFF26B
:1037BE007F98124B89788BEEF208EFF27F9A124BBC
:1037CE0089788DEEF208EFF27F9C124B89788FEE9E
:1037DE00F208EFF27F9E124B897891EEF208EFF22B
:0137EE0022B8
:103C330012375E7FA11246747893EFF27FE1124B45
:103C4300897894EEF208EFF27FE31246747896EFE8
:103C5300F27FE4124674EF75F010A4FFAEF0C007D4
:103C6300C0067FE5124674EF540FFDD0E07897F25B
:103C7300D0E04D08F27FE6124674EF75F010A4FF12
:103C8300AEF0C007C0067FE5124674EFC4540FFDC3
:103C9300D0E07899F2D0E04D08F27FE712467478CD
:043CA3009BEFF2227F
:0E4ADA00E4FD7FF51248167DAB7FF40248160E
:0A4B25007D057FF2124816024ADAFD
:0447690078CEEFF225
:10476D007874E2FF1248BE7FF41246F278CEE2FF73
:10477D001246F2124AA07F05124AAF7FF612434449
:01478D002209
:0D4AE8007FF3124674EF30E003D38001C36A
:014AF500229E
:103B34007FEC1248A4B39200124AA03000077874B4
:103B440074ECF280137FEE1248A4B39200124AA0E0
:103B5400300005787474EEF23000097FD012467498
:103B6400785BEFF2785BE2FF6003B4FF05E4785B17
:103B7400F222EF6455601C7DB67FE01248167F95F3
:103B8400124AAF7F958007124AE850077F64124AB1
:103B9400AF80F4785BE224AA24FD500B24F9600D75
:103BA400240B700F023AAF12375E024ADA123C332A
:033BB400124B258C
:013BB70022EB
:100DB5007F2E12476978CAEEF208EFF27F341247A8
:100DC5006978CCEEF208EFF2785BE26455600302D5
:100DD50011FB78CAE2FE08E2FFE4FCFDC006C0078D
:100DE5007868E2FE08E2FBAA06D007D006C3EF9BAF
:100DF500FFEE9AFEED9400FDEC9400FCC004A905FD
:100E0500AA06AB077866E2FE08E2FFE4FCFDD00027
:100E1500120797780F1208FC78A21209237870E25E
:100E2500FE08E2FFEE3395E0FDFC780B120910C0D9
:100E350004C005C006C0077872E2FE08E2FFEE3383
:100E450095E0FDFC78A2E2FB08E2F908E2FA08E287
:100E5500CBF8EB2FFBEA3EFAE93DF9E83CF8D00781
:100E6500D006D005D0041242BE78A612092378A672
:100E7500E2FC08E2FD08E2FE08E2FF78A2E2FB08D8
:100E8500E2F908E2FA08E2CBF8EB2FFFEA3EFEE9C9
:100E95003DFDE83CFC78B212092378B2E2FC08E299
:100EA500FD08E2FE08E22408FFE43EFEE43DFDE421
:100EB5003CFC78041208FC785CEEF208EFF278B29C
:100EC500E2FC08E2FD08E2FE08E22460FFEE34F0F1
:100ED500FEED34FFFDEC34FFFC0812092378B6E281
:100EE500FC08E2FD08E2FE08E2FFA804A905AA063F
:100EF500FB120797780C1208FC78BA120923786060
:100F0500E2FE08E2FFEE3395E0FDFC78B6E2FB0871
:100F1500E2F908E2FA08E2CBF8120797C004C00527
:100F2500C006C007786CE2FE08E2FFEE3395E0FDEF
:100F3500FC78BAE2FB08E2F908E2FA08E2CBF8121B
:100F45000797D003D002D001D000EF2BFFEE3AFE79
:100F5500ED39FDEC38FC780B1208FC78AA12092350
:100F6500785EE2FE08E2FFEE3395E0FDFCE47B04EB
:100F7500FAF9F812079778AAE2FB08E2F908E2FA0B
:100F850008E2CBF8EB2FFFEA3EFEE93DFDE83CFC2D
:100F9500EF2402FFE43EFEE43DFDE43CFC78021252
:100FA50008FC78AE1209237862E2FE08E2FFEE3310
:100FB50095E0FDFC78B6E2FB08E2F908E2FA08E202
:100FC500CBF8120797780D1208FC78A2120923783E
:100FD5006AE2FE08E2FFEE3395E0FDFC78BAE2FB3B
:100FE50008E2F908E2FA08E2CBF81207977810123E
:100FF50008FC78A612092378A6E2FC08E2FD08E2BF
:10100500FE08E2FF78A2E2FB08E2F908E2FA08E24C
:10101500CBF8EB2FFFEA3EFEE93DFDE83CFCEF2473
:1010250002FFE43EFEE43DFDE43CFC78021208FCD0
:1010350078AA12092378AAE2FC08E2FD08E2FE0874
:10104500E22400FFEE3480FEE43DFDE43CFCC004F8
:10105500A905AA06AB077864E2FE08E2FFE4FCFDF9
:10106500D000120797780F1208E978C21209237881
:10107500CCE2FE08E2FFE4FCFDC004C005C006C0EA
:101085000778AEE2FC08E2FD08E2FE08E2FBAA06EC
:10109500A905A804D007D006D005D004C3EF9BFF4F
:1010A500EE9AFEED99FDEC98FCE47B507AC3F9F8D5
:1010B50012079778C612092378C2E2FB08E2F908FD
:1010C500E2FA08E2CBF8C00078C6E2FC08E2FD08C7
:1010D500E2FE08E2FFD0001208227801120910781A
:1010E500BE12092378BEE2FC08E2FD08E2FE08E232
:1010F500FF78081208FCC004C005C006C00778BE0A
:10110500E2FC08E2FD08E2FE08E2FF78081208FCAE
:10111500D003D002D001D00012079778A21209237C
:10112500E47FDE7E0BFDFC78A2E2FB08E2F908E233
:10113500FA08E2CBF812079778101208FC78A21289
:1011450009237F437EE37DFF7CFF78BEE2FB08E257
:10115500F908E2FA08E2CBF812079778101208FCB2
:1011650078A612092378A6E2FC08E2FD08E2FE084B
:10117500E2FF78A2E2FB08E2F908E2FA08E2CBF81E
:10118500EB2FFFEA3EFEE93DFDE83CFCEF24CFFFF7
:10119500EE340EFEE43DFDE43CFC78041208FC78D8
:1011A500BEE2FB08E2F908E2FA08E2CBF8EB2FFF12
:1011B500EA3EFEE93DFDE83CFC78AA12092378AA3F
:1011C500E2FC08E2FD08E2FE08E2FFEC1205AA7B5C
:1011D500B07A507955784112050D78571209237860
:1011E50057E2FC08E2FD08E2FE08E2FF1205E87896
:0611F50055EEF208EFF2D6
:0111FB0022D1
:102BC9007FFA12361278B6120923E4FFFE7D08FC5B
:102BD90078B6E2FB08E2F908E2FA08E2CBF8C31298
:102BE90008D87003022D63787BE2FE08E2FFE4FC5B
:102BF900FD7801120910AB07AA06A905C004C00592
:102C0900C006C00778B6E2FC08E2FD08E2FE08E269
:102C1900FF78031208E9D003D002D001D000C3EF36
:102C29009BFFEE9AFEED99FDEC98FCC004A905AA5C
:102C390006AB07787DE2FE08E2FFEE3395E0FDFC86
:102C4900D000120797780B1208E978B21209237895
:102C59007BE2FE08E2FFE4FCFDAB07AA06F9C0042B
:102C6900C005C006C00778B6E2FC08E2FD08E2FE2E
:102C790008E2FF78041208E9D003D002D001D0009D
:102C8900C3EF9BFFEE9AFEED99FDEC98FCC004C0E2
:102C990005C006C007787BE2FE08E2FFE4FCFDAB55
:102CA90007AA06F9C004C005C006C00778B6E2FC49
:102CB90008E2FD08E2FE08E2FF78041208E9D00301
:102CC900D002D001D000C3EF9BFFEE9AFEED99FD33
:102CD900EC98FCD003D002D001D000120797780CF1
:102CE9001208E9C004A905AA06AB07787FE2FE0825
:102CF900E2FFEE3395E0FDFCD000120797780E1243
:102D090008E978B2E2FB08E2F908E2FA08E2CBF84E
:102D1900EB2FFFEA3EFEE93DFDE83CFC787712091E
:102D290023E47F05FEFDFC7877E2FB08E2F908E27F
:102D3900FA08E2CBF8120797EF2480FFE43EFEE49D
:102D49003DFDE43CFC78081208FCE47B0AFAF9F83A
:0A2D59001242BE785CEEF208EFF2C1
:012D6300224D
:10096C00122BC97FF712361278A21209237877E27C
:10097C00FC08E2FD08E2FE08E2FF78011208FCE444
:10098C002FFFEE3406FEED34FFFDEC34FFFC78A6B1
:10099C0012092378A6E2FC08E2FD08E2FE08E2FF59
:1009AC0078021208FCC004C005C006C00778A6E295
:1009BC00FC08E2FD08E2FE08E2FF78021208FCD017
:1009CC0003D002D001D000120797780B1208FCC09C
:1009DC0004A905AA06AB07788BE2FE08E2FFEE330A
:1009EC0095E0FDFCD00012079778AA12092378AA8B
:1009FC00E2FB08E2F908E2FA08E2CBF8C000C00119
:100A0C00C002C0037889E2FE08E2FFEE3395E0FDF8
:100A1C00FC78A6E2FB08E2F908E2FA08E2CBF8124D
:100A2C0007977801120910D003D002D001D000EB47
:100A3C002FFFEA3EFEE93DFDE83CFC78AA120923B3
:100A4C007887E2FE08E2FFEE3395E0FDFC781012A9
:100A5C000910C004C005C006C00778AAE2FC08E271
:100A6C00FD08E2FE08E2FF78021208FCD003D00277
:100A7C00D001D000EF2BFFEE3AFEED39FDEC38FC47
:100A8C0078AA12092378A6E2FC08E2FD08E2FE0827
:100A9C00E2FF78021208FCC004C005C006C007784B
:100AAC00A6E2FC08E2FD08E2FE08E2FF780212086A
:100ABC00FCD003D002D001D000120797780D120899
:100ACC00FCC004A905AA06AB077885E2FE08E2FF84
:100ADC00EE3395E0FDFCD00012079778031208FC6A
:100AEC00C004C005C006C0077883E2FE08E2FFEE32
:100AFC003395E0FDFC78A6E2FB08E2F908E2FA087F
:100B0C00E2CBF812079778011208FCD003D002D080
:100B1C0001D000EB2FFFEA3EFEE93DFDE83CFC78FE
:100B2C00121208FC78A612092378A6E2FC08E2FD52
:100B3C0008E2FE08E22400FFEE3480FEE43DFDE412
:100B4C003CFCC004A905AA06AB077881E2FE08E2CA
:100B5C00FFE4FCFDD000120797780F1208FC78A672
:100B6C0012092378A6E2FC08E2FD08E2FE08E2FF87
:100B7C00EC4D4E4F7003020DB478AAE2FC08E2FD76
:100B8C0008E2FE08E2FF780C1208FCC004C005C0A5
:100B9C0006C00778A2E2FB08E2F908E2FA08E2CB09
:100BAC00F8C3E49BFFE49AFE741099FDE498FCD022
:100BBC0003D002D001D000C3EF9BFFEE9AFEED995B
:100BCC00FDEC98FCE47B357A0CF9F812079778AEBB
:100BDC00120923E4FFFEFD7C8078AEE2FB08E2F90B
:100BEC0008E2FA08E2CBF8C31208D8503A78AEE221
:100BFC00FC08E2FD08E2FE08E2FF7801120910C0D1
:100C0C0004C005C006C00778A6E2FC08E2FD08E2B5
:100C1C00FE08E2FBAA06A905A804D007D006D00559
:100C2C00D004120822803078A6E2FC08E2FD08E22B
:100C3C00FE08E2FFC004A905AA06AB0778AEE2FCE9
:100C4C0008E2FD08E2FE08E2FFD000120822E47B75
:100C5C0002FAF9F812079778AE12092378AEE2FC83
:100C6C0008E2FD08E2FE08E2FF78031208E9C0047E
:100C7C00C005C006C00778AEE2FC08E2FD08E2FE43
:100C8C0008E2FF78031208E9D003D002D001D000AB
:100C9C00120797780D1208E9C004A905AA06AB073C
:100CAC007891E2FE08E2FFEE3395E0FDFCD00012F5
:100CBC000797780C1208FC78A612092378AEE2FC90
:100CCC0008E2FD08E2FE08E2FF78021208E9C0041F
:100CDC00A905AA06AB07788FE2FE08E2FFEE339572
:100CEC00E0FDFCD000120797780D1208FC78AA12D0
:100CFC00092378AEE2FB08E2F908E2FA08E2CBF845
:100D0C00C000C001C002C00378AAE2FC08E2FD08E2
:100D1C00E2FE08E2FF78A6E2FB08E2F908E2FA0834
:100D2C00E2CBF8EB2FFFEA3EFEE93DFDE83CFCC0D0
:100D3C0004A905AA06AB07788DE2FE08E2FFEE33A4
:100D4C0095E0FDFCD000EB2FFFEA3EFEE93DFDE80F
:100D5C003CFC78041208FCD003D002D001D000EB8C
:100D6C002FFFEA3EFEE93DFDE83CFC78AE1209237C
:100D7C0078AEE2FC08E2FD08E2FE08E2FFE41205B0
:100D8C00AA7BB07A507955784112050D7857120923
:100D9C00237857E2FC08E2FD08E2FE08E2FF1205A8
:080DAC00E87855EEF208EFF2C1
:010DB400221C
:101F5F00122BC97FFD124344E4FCFD78A212092322
:101F6F00E4FF7E80FDFC78A2E2FB08E2F908E2FACA
:101F7F0008E2CBF8C31208C270030222277877E277
:101F8F00FC08E2FD08E2FE08E22400FFEE34D4FE76
:101F9F00ED34FEFDEC34FFFC78A61209237896E2AF
:101FAF00FFE4FCFDFE78A6E2FB08E2F908E2FA087E
:101FBF00E2CBF8120797780B1208FCE42FFFEE34F0
:101FCF0080FEE43DFDE43CFCC004C005C006C00734
:101FDF00789BE2FF3395E0FEFDFC78A6E2FB08E27A
:101FEF00F908E2FA08E2CBF8120797780A1208FC10
:101FFF00D003D002D001D000120797780A1208FC44
:10200F00E42FFFE43EFEED3420FDE43CFCC004A9C8
:10201F0005AA06AB077894E2FE08E2FFEE3395E0DF
:10202F00FDFCD000120797E42FFFEE3420FEE43DB5
:10203F00FDE43CFC780E1208FCC004C005C006C0CD
:10204F00077897E2FE08E2FFEE3395E0FDFC781487
:10205F00120910C004C005C006C00778A2E2FC0830
:10206F00E2FD08E2FE08E2FF780E120910D003D05D
:10207F0002D001D000C3EF9BFFEE9AFEED99FDEC6D
:10208F0098FCC004C005C006C0077899E2FE08E2BC
:10209F00FFEE3395E0FDFC78A6E2FB08E2F908E2DB
:1020AF00FA08E2CBF8120797A804A905AA06AB070E
:1020BF00D007D006D005D004C3EF9BFFEE9AFEEDFC
:1020CF0099FDEC98FCE42FFFEE3440FEE43DFDE477
:1020DF003CFC780F1208FCD003D002D001D00012C4
:1020EF00079778A612092378A6E2FC08E2FD08E21A
:1020FF00FE08E2FFC004C005C006C00778A6E2FCD8
:10210F0008E2FD08E2FE08E2FF780F1208FCC004A7
:10211F00C005C006C00778A6E2FC08E2FD08E2FE93
:10212F0008E2FF780F1208FCD003D002D001D000D4
:10213F0012079778071208FCC004A905AA06AB0777
:10214F007893E2FFE4FCFDFED000120797780412AB
:10215F0008FCA804A905AA06AB07D007D006D0052E
:10216F00D004C3EF9BFFEE9AFEED99FDEC98FC783F
:10217F00A612092378A6E2FCEC335007E4FFFEFD1C
:10218F00FC800D78A6E2FC08E2FD08E2FE08E2FF03
:10219F0078A6120923E4FFFEFD7C1978A6E2FB085E
:1021AF00E2F908E2FA08E2CBF8D31208C24008E4D9
:1021BF00FFFEFD7C19800D78A6E2FC08E2FD08E227
:1021CF00FE08E2FF78A612092378A6E2FC08E2FDDA
:1021DF0008E2FE08E2FF780C1208FC78A612092329
:1021EF0078A6E2FC08E2FD08E2FE08E2FFEC120529
:1021FF00AA7B0A7AD77923784112050D78571209ED
:10220F00237857E2FC08E2FD08E2FE08E2FF120520
:08221F00E87875EEF208EFF219
:012227002294
:044B8D0012096C227B
:074B740012096C121F5F2201
:10488900785BE224AA24FD500B24F9600A240B70FA
:0B48990009020DB5024B8D124B74227A
:08000300785CE2FE08E2FF2236
:084B38007855E2FE08E2FF22BD
:084B40007875E2FE08E2FF2295
:054B8000785BE2FF225A
:0A40A300C108829C0000829E00000C
:0D42300078ACEBF208EAF208E9F208EDF2D2
:10423D007F801248BEE478B0F278AFE2FF08E2FE6C
:10424D00C39F5023EEFF78AEE22FF218E23400F256
:10425D0018E2FB08E2FA08E2F912068BFF1246F2A9
:0A426D0078B0E204F280D2124AA0F9
:014277002224
:0D41E50078ACEBF208EAF208E9F208EDF21E
:1041F2007F811248BEE478B0F278AFE2FF08E2C3F2
:104202009F5022D20112458D78ACE2FB08E2FA08F7
:10421200E2F978B0E2F582758300EF1206D878B041
:0D422200E204F280D4C20112458D124AA0C0
:01422F00226C
:10461B0078A8EFF208EBF208EAF208E9F27BFE7AEF
:10462B000079A87D011242307F14124AAF78A9E2BB
:0D463B00FB08E2FA08E2F97D021241E522D7
:103DF8007BFE7A0079A67FF312461B78A6E2FFE4E1
:103E0800FCFDFE7808120910C004A905AA06AB0734
:103E180078A7E2FFD000EB4FFFEAFEE9FDE8FC7867
:103E2800A212092378A20808E2FE08E254FCFFE483
:103E3800FDFC78A2120923E47FA47E44FDFC78A24D
:103E4800E2FB08E2F908E2FA08E2CBF812079778F1
:0C3E5800101208FCEF24B3FFEE34EDFE66
:013E6400223B
:103E65007BFE7A0079A67FF512461B78A6E2FFE471
:103E7500FCFDFE7808120910C004A905AA06AB07C7
:103E850078A7E2FFD000EB4FFFEAFEE9FDE8FC78FA
:103E9500A212092378A20808E2FE08E254FCFFE416
:103EA500FDFC78A2120923E47FD47E30FDFC78A2C4
:103EB500E2FB08E2F908E2FA08E2CBF81207977884
:0C3EC500101208FCEF24A8FFEE34FDFEF4
:013ED10022CE
:0C4B03007F801248A4B39208124AA0223E
:10485200123DF87C007D0A120761789CEEF208EFA7
:0C486200F2123E65789EEEF208EFF222A2
:084B4800789CE2FE08E2FF2266
:084B5000789EE2FE08E2FF225C
:034B9100A2082255
:10050A0002065EEC5D046005E859047003020654B5
:10051A0012061F580460F6EC4860F2EC7004FDFE07
:10052A00FF22C860DB2481C85009C39860025006C4
:10053A0002065B9850CAF582E9294B4A7005AB82DC
:10054A0002064A75F0007C1A7880C3EF9BEE9AED9A
:10055A0099400DC3EF9BFFEE9AFEED99FDE842F03C
:10056A00DC23ACF0D0E0FFD0E0FED0E0FDAB82208F
:10057A00E7101BEB60BAEC2CFCEF33FFEE33FEED19
:10058A0033FD020636E803F830E705C0F075F000DF
:10059A00EF2FFFEE33FEED33FD40B830E7C280AAFD
:1005AA0075F020800E75F010800575F0087D007ECC
:1005BA00007F003392D530D5031208B4EC334010D3
:1005CA00EF33FFEE33FEED33FDEC33FCD5F0ED22D5
:0E05DA00E5F0247EA2D513CC92E7CDCEFF2211
:1005E800EDD2E7CD33EC3392D524814006E4FFFE0B
:1005F800FDFC22FCE4CFCECDCC24E0501174FF806A
:10060800EDC3CC13CCCD13CDCE13CECF13CF047006
:07061800F030D5DE0208B44A
:10061F00E9D2E7C933E833F892D5EDD2E7CD33EC21
:07062F0033FC5002B2D5229A
:10063600EC30E7100FBF000C0EBE00080DBD000425
:100646000BEB6014A2D5EB13FCED92E7FD2274FFD1
:10065600FCFDFEFF22E480F8A2D574FF13FC7D802A
:03066600E480EF3E
:1036DE00021C61E493A3F8E493A34003F68001F285
:1036EE0008DFF48029E493A3F85407240CC8C333ED
:1036FE00C4540F4420C8834004F456800146F6DFBC
:10370E00E4800B0102040810204080904057E47EB4
:10371E00019360BCA3FF543F30E509541FFEE493B0
:10372E00A360010ECF54C025E060A840B8E493A377
:10373E00FAE493A3F8E493A3C8C582C8CAC583CAA2
:10374E00F0A3C8C582C8CAC583CADFE9DEE780BE5A
:0140AD000012
:10066900C2D530F707B2D563F0FF05F030E70CB219
:10067900D5F4048463F0FF05F080018430D502F4D9
:02068900042249
:10068B00BB010689828A83E0225002E722BBFE026D
:09069B00E32289828A83E49322A0
:1006A400BB010989828A83F8E028F022500327F7E6
:1006B40022BBFE05F8E328F3228A838982F8E493B7
:0206C4002822EA
:1006C600BB010689828A83F0225002F722BBFE0113
:0206D600F3220D
:1006D800F8BB010DE58229F582E5833AF583E8F058
:1006E800225006E92582C8F622BBFE05E92582C804
:0206F800F222EC
:1006FA00EF8DF0A4A8F0CF8CF0A428CE8DF0A42E14
:02070A00FE22CD
:10070C00BC000BBE0029EF8DF084FFADF022E4CCD1
:10071C00F875F008EF2FFFEE33FEEC33FCEE9DEC9A
:10072C00984005FCEE9DFE0FD5F0E9E4CEFD22EDE0
:10073C00F8F5F0EE8420D21CFEADF075F008EF2F2A
:10074C00FFED33FD4007985006D5F0F222C398FD1B
:05075C000FD5F0EA22B8
:10076100C2D5EC30E709B2D5E4C39DFDE49CFCEEB3
:1007710030E715B2D5E4C39FFFE49EFE12070CC318
:10078100E49DFDE49CFC800312070C30D507C3E413
:060791009FFFE49EFE2222
:10079700E88FF0A4CC8BF0A42CFCE98EF0A42CFC01
:1007A7008AF0EDA42CFCEA8EF0A4CDA8F08BF0A47F
:1007B7002DCC3825F0FDE98FF0A42CCD35F0FCEBDE
:1007C7008EF0A4FEA9F0EB8FF0A4CFC5F02ECD39A3
:0F07D700FEE43CFCEAA42DCE35F0FDE43CFC2210
:1007E60075F008758200EF2FFFEE33FECD33CDCCCA
:1007F60033CCC58233C5829BED9AEC99E58298404D
:100806000CF582EE9BFEED9AFDEC99FC0FD5F0D629
:10081600E4CEFBE4CDFAE4CCF9A88222B800C1B953
:100826000059BA002DEC8BF084CFCECDFCE5F0CB91
:10083600F97818EF2FFFEE33FEED33FDEC33FCEBCA
:1008460033FB10D703994004EB99FB0FD8E5E4F985
:10085600FA227818EF2FFFEE33FEED33FDEC33FC72
:10086600C933C910D7059BE99A4007EC9BFCE99A66
:10087600F90FD8E0E4C9FAE4CCFB2275F010EF2FAB
:10088600FFEE33FEED33FDCC33CCC833C810D707AB
:100896009BEC9AE899400AED9BFDEC9AFCE899F8E6
:0E08A6000FD5F0DAE4CDFBE4CCFAE4C8F92279
:1042BE00C2D5E830E70FB2D5E4C39BFBE49AFAE42B
:1042CE0099F9E498F8EC30E717B2D51242F41208D7
:1042DE0022E4C39BFBE49AFAE499F9E498F880038C
:1042EE0012082230D50DE4C39FFFE49EFEE49DFD2F
:0442FE00E49CFC221E
:0E08B400C3E49FFFE49EFEE49DFDE49CFC2255
:1008C200EB9FF5F0EA9E42F0E99D42F0EC6480C8AD
:0608D20064809845F0224D
:1008D800EB9FF5F0EA9E42F0E99D42F0E89C45F076
:0108E80022ED
:1008E900E8600FECC313FCED13FDEE13FEEF13FFED
:0308F900D8F12211
:1008FC00E86010ECA2E713FCED13FDEE13FEEF1312
:04090C00FFD8F022FE
:10091000E8600FEFC333FFEE33FEED33FDEC33FC45
:03092000D8F122E9
:0C092300ECF208EDF208EEF208EFF22210
:10092F00F5F0C582A4C582C5F0C583A42583F583E0
:01093F002295
:10094000D083D082F8E4937012740193700DA3A346
:1009500093F8740193F5828883E47374029368605A
:06096000EFA3A3A380DF5A
:060966008A838982E4731C
:00000001FF
