:03000000023717AD
:1037170078FFE4F6D8FD9000007F007E03E4F0A375
:0A372700DFFCDEFA75812002376C2A
:1048670012448E124570124B3A12415812450012EB
:0B4877003B02124B0E782574FFF2226A
:104A63003005FD12000EC2AF12448ED2AFE47817A8
:024A7300F2222D
:104A75003005FD12000EC2AF1243DBD2AFE478174A
:024A8500F2221B
:1015DF0078A87401F21248677F14124AA8782E7403
:1015EF0002F23005FDC205781BE275F00A84E5F0C2
:1015FF00702E7817E2FF600964026024EF640360C5
:10160F001F782EE27014740AF2124B8BEF600312E4
:10161F004882124B9C5003124A15123C89122DB767
:10162F00124B7878A7EFF2600FE2C3941050047F4B
:10163F001480027F28124AA878A7E224FE700302C2
:10164F00171524FE700302171A24F470030217BA39
:10165F00240F60030218037817E214B40B00400341
:10166F0002180390168075F003A4C58325F0C58377
:10167F00730216A10216D50216E00216F202170F18
:10168F0002170F02170F02170F02170F02170C0284
:10169F00170F7816E2FF24FD601A14601D24F8500E
:1016AF001F240A600302180378257402F27817EFDB
:1016BF00F2021803782574068003E4784FF2800055
:1016CF007816E20217F57825E270121246DF02183B
:1016DF00007825E2B4040612465D0218001247573F
:1016EF00021803784FE2FF70057845E26004EFB40B
:1016FF0009051244188009124A2A021803124A00D7
:10170F00124A7502180078A87401F278A7E2B4049F
:10171F00040874FFF27817E2B40C004003021803B8
:10172F00901736F828287302175A02175C021766AB
:10173F0002176602177002177A02178402178D02BA
:10174F00179602179F0217A80217B1804378A8E2D5
:10175F00FF1249EB02180378A8E2FF1238D00218E3
:10176F000378A8E2FF123A7602180378A8E2FF1274
:10177F00497A02180378A8E2FF124935807678A8D3
:10178F00E2FF12494C806D78A8E2FF124963806432
:10179F0078A8E2FF12480B805B78A8E2FF1249910C
:1017AF00805278A8E2FF1249A880497817E2B40C5A
:1017BF000050419017C9F82828730217ED0217F44B
:1017CF000218000218000217FA0217FD0217FD0295
:1017DF0017FD0217FD0217FD0217FD0217FD7817FF
:1017EF007401F2800FE47817F28009124500124A53
:1017FF0063124B1A7817E2B40C005065901812F868
:10180F0028287302183602183B02184002184502A6
:10181F00184A02184F02185402185902185E02187B
:10182F006302186802186D12431780351238428010
:10183F00301233D8802B1231CA8026121D0B802113
:10184F00124603801C124B63801712395E801212EE
:10185F004B6A800D1239EA80081225558003124A0F
:10186F0098781CE204F2781BE204F2300625781D0A
:10187F00E2B4061F781BE275F00584E5F07014C31F
:10188F007810E264809480400A08E22401F218E2A2
:10189F003400F2781CE2D3943B4002E4F2781BE26E
:1018AF00D3943B50030215F1E4F27812E204F2787C
:1018BF001DE2B4070040030219B69018D0F828288B
:1018CF00730218E50218F20218FF02191202194CDE
:1018DF000219810219A37812E2D39405500302155D
:1018EF00F180187812E2D3940250030215F1800BA5
:1018FF007812E2D3940250030215F1781DE204F23C
:10190F000219A07812E2D3940250030215F1124B80
:10191F008BEF6007781D7404F28020124B9C5007E8
:10192F00781D7405F2801430060D781D7406F2E4EC
:10193F007810F208F28004E4781DF280547812E2F5
:10194F00D3940250030215F1124B8BEF64606005C4
:10195F00124B9C5007781DE204F2801430060D786C
:10196F001D7406F2E47810F208F28004E4781DF298
:10197F00801F7812E2D3940250030215F130060D46
:10198F00781D7406F2E47810F208F28004E4781DF2
:10199F00F2E48017C37810E264809480400302154C
:1019AF00F1E4781DF28004E4781DF27812F202154A
:0119BF00F136
:1022D700007F7F40407F7F007F7F08087F7F00036C
:1022E7001F227E7F0300007F7F49497F36004040E1
:1022F7007F7F4040007F7F4848783000003E7F4125
:10230700416322007F7F4848783000031F227E7F89
:10231700030000707808087F7F0040407F7F4040BF
:10232700007F7F49497F3600007F7F40407F7F00E5
:1023370040407F7F4040007F7F08087F7F00003E4E
:102347007F414163220060731B0F7C70007F7F49D0
:10235700494F4600007F7F49497F36003E7F414114
:102367006322007F7F0814636300007C7C40407C0D
:102377007C007C7C10107C7C000C3C48787C0C003A
:10238700007C7C54547C280040407C7C4040007C8E
:102397007C505070200000387C44446C28007C7CC2
:1023A70050507020000C3C48787C0C000060701086
:1023B700107C7C0040407C7C4040007C7C54547CFA
:1023C7002800007C7C40407C7C0040407C7C404076
:1023D700007C7C10107C7C0000387C44446C280016
:1023E70064741C187060007C7C54545C4800007C4A
:1023F7007C54547C2800387C44446C28007C7C1036
:10240700386C440000607F7F60006F6F007F3F1073
:102417001F103F7F007F7F4949007F7F63361C0085
:102427001F3F6C6C3F1F00607F7F60007F7F4949C3
:102437003F7F4C7F3F007F7F0303003F7F4C7F3F01
:10244700007F7F6C6C370000003E41417149493E77
:10245700000000063A433A06000000007F7F6868E4
:10246700003E7F417F3E007F3F180C7E7F00607FEC
:102477007F607F7F41633E1C006F6F00327B496F37
:1024870026007F7F446C38007F3F101F103F7F007E
:102497006F6F007F7F63361C007F7F6C6C387F7F98
:1024A700497F36007F7F6C6C37006F6F003E7F413E
:1024B7004D2E0000003E41417149493E0000000099
:1024C70000000011117D1111000000000000007FC5
:1024D7007F417F7F007F7F381C7F7F0000000000E7
:1024E7000000007F7F417F7F007F7F6C6C007F7FD4
:1024F7006C6C00000000607F7F6000730B7E7C00C7
:102507007F7F4C380036007F7F49497F36007F7FC9
:102517004C4E7B3100360000705070003E7F6341A7
:10252700410000000011117D111100007F413E00A4
:102537003249260022493600234539002249360010
:0E254700207F00001234555555555554321062
:1040B100810F008210FFFF8117008116028112001B
:0C40C100811D00810000810100810201CE
:10457000E4F59375943FF5917592FFF5957596FF67
:10458000F5B175B27F7838E2781AF2C205A2C79207
:104590000412411578137401F2087400F20874DCF7
:0245A000F22205
:0D000E0053B0807590FF75A0FF43803F2226
:103086007801E2FEC394055011781AE2FDEEB5050B
:103096000312000E7801E204F222E47801F2120033
:1030A6000E20040A18E2FEC374159EFF8004780001
:1030B600E2FFEFB4160040030231609030C8F828F2
:1030C600287302310A02310E023112023116023120
:1030D6001A02311E02312202312602312A02312E13
:1030E60002313202313602313A02313E02314202B7
:1030F600314602314A02314E023152023156023114
:103106005A02315EC2908052C291804EC292804A6B
:10311600C2938046C2948042C295803EC296803A4F
:10312600C2978036C2A08032C2A1802EC2A2802A57
:10313600C2A38026C2A48022C2A5801EC2A6801A6F
:10314600C2A78016C2808012C281800EC282800A07
:10315600C2838006C2848002C28520040CC3741513
:103166009F2408F8E6F5B0804474082FF8E6FEC4FC
:103176005402FDEEC4131354014DFE74082FF8E6F5
:10318600FD131354044EFEED54084EFE74082FF83A
:10319600E6FD25E025E054104EFEEDC454204EFE1B
:1031A60074082FF8E6C4333354404EF5B07800E285
:1031B60004F2E2D39415400BE4F2A2C79204200570
:0331C60002D2052D
:0131C90022E3
:0B4B1A00E47817F27812F2781DF22206
:103C8900123EC0781EE2706A7802E2606AE4F27855
:103C990045E2603908E2FF7820E26F70307847E248
:103CA900FF781FE2B507267821E27E007BFE2447D4
:103CB900F9EE3400FA12068B603D7837E2FF7C009A
:103CC9007D3C1206FA782AEEF208EFF2227846E2F3
:103CD900FF3395E0FE7820E2D39FEE6480F874808C
:103CE900984014781FE2700F7833E2600A7F280247
:073CF9004AA878027401F2F1
:013D000022A0
:0C4109007813E4F2087400F2087408F265
:104115007836E214601514601C14602314602A803C
:104125000078187400F2087482F22278187400F28C
:104135000874AAF22278187400F20874D2F2227870
:10414500187400F20874FAF22278187401F20874EF
:0341550022F22231
:1048EB00902533E4FFEFC39416500DE493FE740848
:0848FB002FF8A6060FA380EDC3
:014903002291
:102F32007835E224FE6078147003022FEB147003DC
:102F420002301A2404701E781CE2FEC3940F50054E
:102F5200E4FF023047EEC3942D50057F0302304751
:102F6200E4FF023047781CE2FEC394055005E4FFFB
:102F7200023047EEC3940D50057F01023047EEC385
:102F8200941650057F02023047EEC3942750057F06
:102F920003023047EEC3943050057F02023047EE01
:102FA200C3943850057F01023047E4FF023047786E
:102FB2001CE2FEC394065005E4FF023047EEC394C0
:102FC2001250047F03807EEEC3941E50047F04805F
:102FD20074EEC3942A50047F05806AEEC39436507F
:102FE200047F068060E4FF805C781CE2FEC39407E5
:102FF2005004E4FF804FEEC3941650047F078045CF
:10300200EEC3942550047F03803BEEC394345004F6
:103012007F088031E4FF802D781CE2FEC3940750C4
:1030220004E4FF8020EEC3941650047F018016EE64
:10303200C3942550047F02800CEEC3943450047F65
:10304200018002E4FFE4FEEEC39404503675F004FE
:10305200EFA42EF582E435F0F583E582241EF58295
:10306200E5833400F583E493FD7813E2FB08E2FA8A
:1030720008E2F9ED1206C60EE22401F218E234006B
:03308200F280C415
:013085002228
:0332D300E4FBFD1C
:0A32D60078ADEFF208EDF208EBF21C
:1032E000E408F278B0E2FDC39404506B78AEE2706B
:1032F0004608E2600C78ADE275F00A84D394004091
:103300003678ADE275F00A8475F004A47C002DFFD8
:10331000EC35F0FE7819E22FFF18E23EFE78B1F2AC
:1033200008EFF2F5828E83E493FF7813E2FB08E264
:10333000FA08E2F9EF800B7813E2FB08E2FA08E200
:10334000F9E41206C678B0E204F27815E22401F23C
:1033500018E23400F2808C7813E2FB08E2FA08E20B
:10336000F9E41206C6E22401F218E23400F2E4782D
:10337000B0F278B0E2FDC39404505C78AEE27037EE
:1033800018E275F00A84E5F075F004A47C002DFFC6
:10339000EC35F0FE7819E22FFF18E23EFE78B1F22C
:1033A00008EFF2F5828E83E493FF7813E2FB08E2E4
:1033B000FA08E2F9EF800B7813E2FB08E2FA08E280
:1033C000F9E41206C678B0E204F27815E22401F2BC
:0733D00018E23400F2809BBB
:0133D70022D3
:1047E9007820E2FDD39418500618E2943C40030265
:1047F90048EBAF051232D3122F32781FE2FF123283
:02480900D322B8
:1041A7007823E2D3940C500718E2FD9420400302D1
:1041B70048EBAF057B01E4FD1232D6E4FFEFC39471
:1041C700045020EF90002293FE7813E2FB08E2FAF6
:1041D70008E2F9EE1206C60FE22401F218E23400F3
:0D41E700F280DA7823E2FFE4FBFD1232D60D
:0141F40022A8
:1035A6007821E214B4070050709035BD75F003A47D
:1035B600C58325F0C583730235D20235DD0235E8B1
:1035C6000235F30235FE02360902361478A9742252
:1035D600F20874D7F2804B78A97422F20874EDF2DF
:1035E600804078A97423F2087403F2803578A974B0
:1035F60023F2087419F2802A78A97423F208742F2A
:10360600F2801F78A97423F2087445F2801478A911
:103616007423F208745BF2800978A97425F20874A1
:1036260033F2E4FFEFC39416503478A9E2FC08E2C3
:10363600F5828C83E493FE7813E2FB08E2FA08E253
:10364600F9EE1206C60F78AAE22401F218E2340057
:0E365600F27815E22401F218E23400F280C688
:013664002243
:102A15007843E278AAF27826E2FF78AAE22FF2E27A
:102A2500FFD3648094E35003022ABEE418F278A928
:102A3500E2C3940450207813E2FB08E2FA08E2F9B5
:102A4500E41206C678A9E204F27815E22401F21828
:102A5500E23400F280D8E478A9F278A9E2FEC394C2
:102A6500055026EE90007493FE7813E2FB08E2FA17
:102A750008E2F9EE1206C678A9E204F27815E22416
:102A850001F218E23400F280D17813E2FB08E2FA91
:102A950008E2F9E41206C6E22401F218E23400F273
:102AA50018E2FB08E2FA08E2F9E41206C6E224019C
:102AB500F218E23400F2022BC4D3EF64809489400B
:102AC5005CE478A9F278A9E2FFC39405507B08E29B
:102AD500FE75F00A120669FD3395E08D82F5837463
:102AE5000512092FE5822FF582E43583F583E5820A
:102AF5002442F582E5833400F583E493FF7813E2FD
:102B0500FB08E2FA08E2F9EF1206C678A9E204F238
:102B15007815E22401F218E23400F280A8E478A9DD
:102B2500F278A9E2C3940550207813E2FB08E2FA93
:102B350008E2F9E41206C678A9E204F27815E2245F
:102B450001F218E23400F280D87813E2FB08E2FAC9
:102B550008E2F9E41206C6E22401F218E23400F2B2
:102B6500E478A9F278A9E2FFC39405505208E2FE81
:102B750075F00A120669AEF0EEFD3395E08D82F52B
:102B850083740512092FE5822FF582E43583F583D9
:102B9500E5822442F582E5833400F583E493FF78EA
:102BA50013E2FB08E2FA08E2F9EF1206C678A9E299
:102BB50004F27815E22401F218E23400F280A578D7
:102BC50013E2FB08E2FA08E2F9E41206C6E2240180
:102BD500F218E23400F218E2FB08E2FA08E2F9E43E
:102BE5001206C6E22401F218E23400F2E478A9F2F2
:102BF50078A9E2FFC394095026EF90007993FF78F6
:102C050013E2FB08E2FA08E2F9EF1206C678A9E238
:0F2C150004F27815E22401F218E23400F280D1C3
:012C2400228D
:1027C200124B43AB07AA06E478ABF278ABE2FFC345
:1027D20064809484500D74032FF8E4F278ABE20421
:1027E200F280E878AB7403F2D3EB9400EA6480944D
:1027F20080500978ABE26480948040297C007D0A95
:10280200AF03AE0212076178ABE22403F8EDF2786F
:10281200ABE214F27C007D0AAF03AE02120761AA9A
:1028220006AB0780C3E478ABF278ABE2FDC3648009
:102832009484504A7803E275F004A4FFED3395E0E6
:10284200FCEF2DFFE5F03CFE7819E22FFF18E23E87
:10285200FE78A9F208EFF2F5828E83E493FF7813F3
:10286200E2FB08E2FA08E2F9EF1206C678ABE204EC
:10287200F27815E22401F218E23400F280AB781308
:10288200E2FB08E2FA08E2F9E41206C6E22401F2E7
:1028920018E23400F2E478ABF278ABE2FDC3648074
:1028A2009484504A7804E275F004A4FFED3395E075
:1028B200FCEF2DFFE5F03CFE7819E22FFF18E23E17
:1028C200FE78A9F208EFF2F5828E83E493FF781383
:1028D200E2FB08E2FA08E2F9EF1206C678ABE2047C
:1028E200F27815E22401F218E23400F280AB781398
:1028F200E2FB08E2FA08E2F9E41206C6E22401F277
:1029020018E23400F2E478ABF278ABE2FDC3648003
:102912009484504A7805E275F004A4FFED3395E003
:10292200FCEF2DFFE5F03CFE7819E22FFF18E23EA6
:10293200FE78A9F208EFF2F5828E83E493FF781312
:10294200E2FB08E2FA08E2F9EF1206C678ABE2040B
:10295200F27815E22401F218E23400F280AB781327
:10296200E2FB08E2FA08E2F9E41206C6E22401F206
:1029720018E23400F218E2FB08E2FA08E2F9740302
:102982001206C6E22401F218E23400F218E2FB0851
:10299200E2FA08E2F974031206C6E22401F218E22E
:1029A2003400F218E2FB08E2FA08E2F9E41206C681
:1029B200E22401F218E23400F2E478ABF278ABE2FE
:1029C200FDC364809484504A7806E275F004A4FF43
:1029D200ED3395E0FCEF2DFFE5F03CFE7819E22F98
:1029E200FF18E23EFE78A9F208EFF2F5828E83E448
:1029F20093FF7813E2FB08E2FA08E2F9EF1206C647
:102A020078ABE204F27815E22401F218E23400F223
:022A120080AB97
:012A1400229F
:1011F600E478ACF208F2124B9C5005124B5B800966
:10120600124B8BBF600A124B4B78ACEEF208EFF232
:10121600E478ABF278ABE2FFC364809485500D743A
:10122600072FF8E4F278ABE204F280E878AB7404B6
:10123600F2D378ADE2940018E29400500818E26404
:10124600809480403278ACE2FA08E2FB7C007D0AAA
:10125600FFAE0212070C78ABE22407F8EDF278AB8A
:10126600E214F27C007D0AAF03AE0212070C78ACE2
:10127600EEF208EFF280BA7807E260030213ED7827
:10128600ABF278ABE2FDC364809484504A7808E2FE
:1012960075F004A4FFED3395E0FCEF2DFFE5F03C7F
:1012A600FE7819E22FFF18E23EFE78A9F208EFF267
:1012B600F5828E83E493FF7813E2FB08E2FA08E2F4
:1012C600F9EF1206C678ABE204F27815E22401F2D1
:1012D60018E23400F280AB7813E2FB08E2FA08E287
:1012E600F9E41206C6E22401F218E23400F2E478C8
:1012F600ABF278ABE2FDC364809484504A7809E28D
:1013060075F004A4FFED3395E0FCEF2DFFE5F03C0E
:10131600FE7819E22FFF18E23EFE78A9F208EFF2F6
:10132600F5828E83E493FF7813E2FB08E2FA08E283
:10133600F9EF1206C678ABE204F27815E22401F260
:1013460018E23400F280AB7813E2FB08E2FA08E216
:10135600F9E41206C6E22401F218E23400F218E2B9
:10136600FB08E2FA08E2F974031206C6E22401F267
:1013760018E23400F218E2FB08E2FA08E2F9E41295
:1013860006C6E22401F218E23400F2E478ABF27801
:10139600ABE2FDC3648094844003021554780AE2EC
:1013A60075F004A4FFED3395E0FCEF2DFFE5F03C6E
:1013B600FE7819E22FFF18E23EFE78A9F208EFF256
:1013C600F5828E83E493FF7813E2FB08E2FA08E2E3
:1013D600F9EF1206C678ABE204F27815E22401F2C0
:1013E60018E23400F280A87813E2FB08E2FA08E279
:1013F600F9E41206C6E22401F218E23400F2E478B7
:10140600ABF278ABE2FDC364809484504A7807E27D
:1014160075F004A4FFED3395E0FCEF2DFFE5F03CFD
:10142600FE7819E22FFF18E23EFE78A9F208EFF2E5
:10143600F5828E83E493FF7813E2FB08E2FA08E272
:10144600F9EF1206C678ABE204F27815E22401F24F
:1014560018E23400F280AB7813E2FB08E2FA08E205
:10146600F9E41206C6E22401F218E23400F2E47846
:10147600ABF278ABE2FDC364809484504A7808E20C
:1014860075F004A4FFED3395E0FCEF2DFFE5F03C8D
:10149600FE7819E22FFF18E23EFE78A9F208EFF275
:1014A600F5828E83E493FF7813E2FB08E2FA08E202
:1014B600F9EF1206C678ABE204F27815E22401F2DF
:1014C60018E23400F280AB7813E2FB08E2FA08E295
:1014D600F9E41206C6E22401F218E23400F2E478D6
:1014E600ABF278ABE2FDC364809484504A7809E29B
:1014F60075F004A4FFED3395E0FCEF2DFFE5F03C1D
:10150600FE7819E22FFF18E23EFE78A9F208EFF204
:10151600F5828E83E493FF7813E2FB08E2FA08E291
:10152600F9EF1206C678ABE204F27815E22401F26E
:1015360018E23400F280AB7813E2FB08E2FA08E224
:10154600F9E41206C6E22401F218E23400F2781336
:10155600E2FB08E2FA08E2F9E41206C6E22401F226
:1015660018E23400F218E2FB08E2FA08E2F97462C3
:101576001206C6E22401F218E23400F218E2FB0871
:10158600E2FA08E2F974641206C6E22401F218E2ED
:101596003400F218E2FB08E2FA08E2F974081206CF
:1015A600C6E22401F218E23400F218E2FB08E2FA7D
:1015B60008E2F974131206C6E22401F218E23400B6
:1015C600F218E2FB08E2FA08E2F974231206C6E210
:0815D6002401F218E23400F2D6
:0115DE0022EA
:1045D4007820E2FFC3941850257838E26406701EF0
:1045E400EF782030E009E2C313902549938008E274
:0F45F400C31390254993C4540FFF781AEFF22296
:104317001241091245D4781DE2B40700503090438A
:104327002CF82828730243410243430243460243C1
:104337004902434C02434F02435280120241A702F3
:1043470035A6022A150227C20211F6023C0E1247B1
:02435700E92259
:04453900E49308F20D
:10453D00ED1206A412068BFF78AEE2D36480F8EF7D
:10454D00648098400678ADE21206C612068BFF789D
:10455D00ADE2C36480F8EF648098500678AEE21245
:03456D0006C6225D
:1049EB007BFE7A007916AD0778AD7402F208740B72
:0549FB00F212453D220F
:103842007816E224FEB40A00506690385A75F003E6
:10385200A4C58325F0C5837302387802387E023806
:103862008402388A02389002389602389C0238A2C2
:103872000238A80238AE7E247F0B80347E247F215A
:10388200802E7E247F3780287E247F4D80227E24D6
:103892007F63801C7E247F7980167E247F8F801038
:1038A2007E247FA5800A7E247FBB80047E257F1D27
:1038B200E4FDEDC3941650158F828E83E493FC745D
:0D38C200082DF8A6040D0FBF00010E80E5D3
:0138CF0022D6
:1033D800124109781BE2FFC3940F5004C200800C0D
:1033E800EFC3942D5004D2008002C2007825E27009
:1033F8007678A9F278A9E2C3940950207813E2FB01
:1034080008E2FA08E2F9E41206C678A9E204F278BA
:1034180015E22401F218E23400F280D8E478A9F227
:1034280078A9E2FFC394045026EF90002A93FF780E
:1034380013E2FB08E2FA08E2F9EF1206C678A9E2FD
:1034480004F27815E22401F218E23400F280D1780F
:103458001EE2FF7825E2FE700A300003EE60047D6C
:1034680001806C7D0080687820E2FF7825E2FEB458
:10347800020B300004640260047D0180027D00E4D8
:10348800FB1232D6E478A9F278A9E2FFC39404507B
:1034980026EF90002A93FF7813E2FB08E2FA08E28D
:1034A800F9EF1206C678A9E204F27815E22401F2CF
:1034B80018E23400F280D1781FE2FF7825E2FEB4EA
:1034C800010B300004640160047D0180027D00E48A
:0434D800FB1232D6DB
:0134DC0022CD
:1031CA00124109781BE2FFC3940F5004C200800C1D
:1031DA00EFC3942D5004D2008002C2007825E26425
:1031EA000660030232707813E2FB08E2FA08E2F999
:1031FA00E41206C6E22401F218E23400F218E2FBF5
:10320A0008E2FA08E2F9E41206C6E22401F218E238
:10321A003400F2E4FBFD7F141232D67813E2FB0885
:10322A00E2FA08E2F9E41206C6E22401F218E234EC
:10323A0000F27824E2FF08E2FEB4060B30000464D0
:10324A000660047D0180027D00E4FB1232D6781309
:10325A00E2FB08E2FA08E2F9E41206C6E22401F205
:10326A0018E23400F2227822E2FF7825E2FEB40462
:10327A000B300004640460047D0180027D007B0140
:10328A001232D6E4FFEFC394045020EF9000229349
:10329A00FE7813E2FB08E2FA08E2F9EE1206C60F1C
:1032AA00E22401F218E23400F280DA7823E2FF78AD
:1032BA0025E2FEB4050B300004640560047D01803C
:0832CA00027D00E4FB1232D684
:0132D20022D9
:101D0B00124109784FE2FF704C7845E278AB6009DD
:101D1B007424F20874D1F280077424F20874E7F289
:101D2B00E478A9F278A9E2FEC39416400302200DD1
:101D3B0078ABE2FC08E2F5828C83E493FD74082E09
:101D4B00F8A60578A9E204F278ACE22401F218E2D5
:101D5B003400F280CFEF6401600A784FE2640260D6
:101D6B0003021DF5781BE2FFC3940F5004C20080E1
:101D7B000CEFC3942D5004D2008002C2007846E2CF
:101D8B00FF784FE2FEB4010B300004640160047D68
:101D9B000180027D00E4FB1232D6E478A9F278A927
:101DAB00E2FFC394045026EF90002A93FF7813E2CE
:101DBB00FB08E2FA08E2F9EF1206C678A9E204F290
:101DCB007815E22401F218E23400F280D17847E270
:101DDB00FF784FE2FEB4020B300004640260047D16
:101DEB000180027D00E4FB0232D6781BE2FFC39434
:101DFB001B5004C200800CEFC394215004D200800E
:101E0B0002C200784FE224FDB40700506E901E26EC
:101E1B0075F003A4C58325F0C58373021E3B021E18
:101E2B0046021E51021E5C021E67021E72021E7DBE
:101E3B0078AB7423F2087471F2804078AB7423F2A0
:101E4B00087487F2803578AB7423F208749DF280A6
:101E5B002A78AB7423F20874B3F2801F78AB742327
:101E6B00F20874C9F2801478AB7423F20874DFF2B1
:101E7B00800978AB7423F20874F5F2E478A9F27850
:101E8B00A9E2FFC39416400302200DE408F2EF12FF
:101E9B0009401ECB011ECB021EF8041EF8051F25A0
:101EAB00071F25081F520A1F520B1F750D1F750E9A
:101EBB001F98101F98111FBB131FBB1400001FDFAF
:101ECB00784FE2FF640360057848E2704AEF6403E1
:101EDB006003021FDF7848E2FF6003300039EF60D8
:101EEB0003021FDF200003021FDF021FDA784FE21D
:101EFB00FF640460057849E2701DEF64046003021F
:101F0B001FDF7849E2FF600330000CEF6003021F14
:101F1B00DF200003021FDF021FDA784FE2FF6405A8
:101F2B006005784AE2701DEF64056003021FDF78DD
:101F3B004AE2FF600330000CEF6003021FDF20005A
:101F4B0003021FDF021FDA784FE2FF640660057899
:101F5B004BE27014EF6406707B784BE2FF6003304A
:101F6B000006EF706F30006C8065784FE2FF6407FE
:101F7B006005784CE27014EF64077058784CE2FF00
:101F8B006003300006EF704C3000498042784FE21E
:101F9B00FF64086005784DE27014EF6408703578C3
:101FAB004DE2FF6003300006EF7029300026801FE2
:101FBB00784FE2FF6409600418E27013EFB4091460
:101FCB00784EE2FF6003300006EF700830000578B2
:101FDB00AA7401F278ABE2FE08E2F5828E83E493F9
:101FEB00FF78AAE2FEEF4EFF18E22408F8A6077866
:101FFB00A9E204F278ACE22401F218E23400F20216
:02200B001E8A2B
:01200D0022B0
:104935007BFE7A007936AD079044DEE49378ADF2DC
:074945009044F112453922F4
:074B63001241091247E9228B
:10494C007BFE7A007934AD079044DCE49378ADF2C9
:07495C009044EF12453922DF
:10395E007813E4F2087400F2087408F2E4FFEFC37F
:10396E0094105020EF9024FD93FE7813E2FB08E2B2
:10397E00FA08E2F9EE1206C60FE22401F218E2345A
:10398E0000F280DA7813E2FB08E2FA08E2F9E412B8
:10399E0006C6E22401F218E23400F2E4FFEFC3940B
:1039AE000550387834E275F005A42FF582E435F031
:1039BE00F583E5822442F582E5833400F583E493B2
:1039CE00FE7813E2FB08E2FA08E2F9EE1206C60FE1
:0B39DE00E22401F218E23400F280C283
:0139E90022BB
:104963007BFE7A007935AD079044DDE49378ADF2B0
:074973009044F012453922C7
:074B6A001241091247E92284
:10480B007BFE7A007938AD079044E0E49378ADF203
:10481B009044F31245397838E2781AF21245D422D3
:1039EA007813E4F2087400F2087408F2E4FFEFC3F3
:1039FA0094105020EF90250D93FE7813E2FB08E215
:103A0A00FA08E2F9EE1206C60FE22401F218E234CD
:103A1A0000F280DA7813E2FB08E2FA08E2F9E4122B
:103A2A0006C6E22401F218E23400F2E4FFEFC3947E
:103A3A000550387838E275F005A42FF582E435F0A0
:103A4A00F583E5822442F582E5833400F583E49325
:103A5A00FE7813E2FB08E2FA08E2F9EE1206C60F54
:0B3A6A00E22401F218E23400F280C2F6
:013A7500222E
:10497A007BFE7A007933AD079044DBE49378ADF29D
:07498A009044EE12453922B2
:104603007833E260067E247FD180047E247FE7E452
:10461300FDEDC3941650158F828E83E493FC7408CA
:0C4623002DF8A6040D0FBF00010E80E56D
:01462F002268
:104991007BFE7A007944AD079044ECE49378ADF264
:0749A1009044FF124539228A
:102555007813E4F2087400F2087408F27844E2FF94
:10256500C36480948040028001D39200300005EF5F
:10257500F40480037844E278ACF2E478ABF278AB0B
:10258500E2FFC364809483500D740C2FF8E4F27855
:10259500ABE204F280E878AB7402F278ACE2D39453
:1025A50000500818E264809480401E78ACE2FF7504
:1025B500F00A8418E2240CF8E5F0F278ABE214F2A4
:1025C500EF75F00A8408F280D278AC7403F220002B
:1025D50004E22405F2780CE2701178ACE22405F2ED
:1025E500780DE2700678ACE22405F2E478ABF27877
:1025F500ACE2FF18E2FD3395E0FCC3ED9F7480F873
:102605006C9850207813E2FB08E2FA08E2F9E4122C
:1026150006C678ABE204F27815E22401F218E2343A
:1026250000F280CB300046E478ABF278ABE2C364CD
:1026350080948450217813E2FB08E2FA08E2F974E9
:10264500081206C678ABE204F27815E22401F21806
:10265500E23400F280D57813E2FB08E2FA08E2F9E9
:10266500E41206C6E22401F218E23400F2780CE224
:10267500D394004070E478ABF278ABE2FDC364809C
:102685009484504A780CE275F004A4FFED3395E08C
:10269500FCEF2DFFE5F03CFE7819E22FFF18E23E36
:1026A500FE78A9F208EFF2F5828E83E493FF7813A2
:1026B500E2FB08E2FA08E2F9EF1206C678ABE2049B
:1026C500F27815E22401F218E23400F280AB7813B7
:1026D500E2FB08E2FA08E2F9E41206C6E22401F296
:1026E50018E23400F2780CE2D39400500608E29424
:1026F500004070E478ABF278ABE2FDC3648094846B
:10270500504A780DE275F004A4FFED3395E0FCEF37
:102715002DFFE5F03CFE7819E22FFF18E23EFE782A
:10272500A9F208EFF2F5828E83E493FF7813E2FBBA
:1027350008E2FA08E2F9EF1206C678ABE204F2788D
:1027450015E22401F218E23400F280AB7813E2FBC3
:1027550008E2FA08E2F9E41206C6E22401F218E2F8
:102765003400F2E478ABF278ABE2FDC36480948484
:10277500504A780EE275F004A4FFED3395E0FCEFC6
:102785002DFFE5F03CFE7819E22FFF18E23EFE78BA
:10279500A9F208EFF2F5828E83E493FF7813E2FB4A
:1027A50008E2FA08E2F9EF1206C678ABE204F2781D
:0C27B50015E22401F218E23400F280ABBF
:0127C10022F5
:1049A8007BFE7A007943AD079044EBE49378ADF24F
:0749B8009044FE1245392274
:104A98007813E4F2087400F2087408F2122A152256
:103C0E007810E2FE08E2FF24EA78AAF2EE34FF18FA
:103C1E00F2780FE22416FDE433FCD3EF9DEC6480C2
:103C2E00F8EE648098400E74FF7810F208F2E47893
:103C3E001DF27812F2E4FFEFFD78AAE22DFD18E2F4
:103C4E003400FCC3648094804025780FE2FBED9B2A
:103C5E007480F86C98501878A908E22F24DCF5824D
:103C6E00E43400F583E0FE74082FF8A6068006748F
:0A3C7E00082FF8E4F60FEFB416BDAE
:013C88002219
:10490400780FE2C394FE5010E2FE04F274DC2EF53C
:0949140082E43400F583EFF02287
:043D750078AAEFF247
:103D7900E4780FF278ABF278AAE214FF08E2C39F65
:103D8900505A12068BFDC394A0400674C02DFD80C5
:103D99000EEDC39420400674E02DFD80027D1FE4E2
:103DA900FC75F005EDA42CF582E435F0F583E58288
:103DB900244AF582E5833401F583E493FF64A56021
:103DC900031249040CECB405D8E4FF12490478AB9A
:0C3DD900E204F2740129F9E43AFA809B3C
:013DE50022BB
:10001E000000000000080800001C1C00003636001E
:10002E00002436000024240000240000003030009C
:10003E00000606007F7F417F7F00007F7F000F4F0D
:10004E004979794149497F7F7878087F7F79794965
:10005E004F0F7F7F494F0F4040407F7F7F7F497F0B
:10006E007F7879497F7F3040454830705070003E30
:10007E007F6341417F41417F00007F004F494979B5
:10008E004949497F7808087F7949494F7F49494F47
:10009E004040407F7F49497F7949497F3E45413EF7
:1000AE0000217F0123454931425169460C14245FDA
:1000BE007251514E1E294906404F5060367F4936C7
:1000CE0030494A3C7E41413F00407F000F4949394B
:1000DE004949493E7C04041F7849490F7F49490725
:1000EE006040403F7E49493F7849493F7F63637F87
:1000FE0000607F006F6B6B7B6B6B6B7F7878087F1C
:10010E007B7B4B4F7F7F494F40407F7F7F6B6B7F69
:10011E007969497F007F417F00007F00004F497958
:10012E000049497F0078087F0079494F007F494F89
:10013E000040407F007F497F0079497F000000002A
:10014E00A57DA5A5A5A5700070A5A5147F147F1487
:10015E00122A7F2A24626408132336495522055039
:10016E0060A5A5A51C2241A5A541221CA5A5140884
:10017E003E081408083E08080506A5A5A5040404B3
:10018E0004A501A5A5A5A502040810203E41413EE7
:10019E00A500217F01A521434539A522414936A558
:1001AE000C14247FA57251514EA53E494926A540F7
:1001BE00474870A536494936A53249493EA512A58C
:1001CE00A5A5A50112A5A5A508142241A5141414D0
:1001DE00141441221408A520404548303E415D5577
:1001EE003C1F2444241F7F494949363E4141412248
:1001FE007F4141221C7F494949417F484848403E42
:10020E004149492F7F0808087F417F41A5A502017A
:10021E00417E407F081422417F010101A57F2018F5
:10022E00207F7F1008047F3E4141413E7F48484871
:10023E00303E4145423D7F484C4A3132494949267C
:10024E0040407F40407E0101017E700C030C707EA9
:10025E00010E017E6314081463700807087043458D
:10026E004951617F4141A5A50C123F120441417FC6
:10027E00A5A5102040201001010101014020A5A5D7
:10028E00A5021515150F7F0911110E0E1111110270
:10029E000E1111097F0E1515150C083F4840201838
:1002AE002525253E7F0810100F115F01A5A502011F
:1002BE00115EA57F040A11A5417F01A5A51F100C93
:1002CE00100F1F08100FA50E1111110E3F24222220
:1002DE001C1C2222243F1F081008A5081515150204
:1002EE00107E1101021E0101021F18060106181EC2
:1002FE000106011E110A040A11180505051E111327
:10030E00151911083641A5A57FA5A5A5A541360845
:10031E00A5A508100810A5A5A5A5A5A5021E3F1EFA
:10032E00023049294936184525451E0201417E40B5
:10033E002A1C771C2A3F202020607F7F7F7F7F7FB3
:10034E007F7F7F7F3F692969217F7F7F7F7F3E4946
:10035E0049412208142A14227F7F7F7F7F1E29277E
:10036E00211E7F7F7F7F7F413F41A5A500304848FA
:10037E003009097D0909417F41A5A5115F01A5A598
:10038E001F101058A57F7F7F7F7F7F7F7F7F7F7FAE
:10039E007F7F7F7F0E5515550C7F7F7F7F7F0E15DC
:1003AE0015110A22142A14087F7F7F7F7F7F7F7F9B
:1003BE007F7F7F7F7F7F7F511F51A5A53F444444A0
:1003CE003F7F494949467F494949367F4040406011
:1003DE00033E427E037F4949494177087F087741B2
:1003EE00494949367F0408107F3F0264083F7F0861
:1003FE00142241011E20407F7F2018207F7F080895
:10040E00087F3E4141413E7F4040407F7F48484803
:10041E00303E4141412240407F4040700909097EF3
:10042E003C42FF423C63140814637F01017F01705C
:10043E000808087F7F017F017F7E027E027F407F5A
:10044E000909067F0906007F7F0911110E22414915
:10045E00493E7F083E413E314A4C487F02151515F4
:10046E000F1E292949061F15150AA51F101018A5BC
:10047E00030E121E030E1515150C1B041F041B1163
:10048E0015150AA51F0204081F1F4224481F1F042A
:10049E000A11A50708101FA51F0804081F1F040432
:1004AE001FA50E1111110E1F10101FA51F141212D1
:1004BE000C0E1111110210101F1010180505051E3B
:1004CE000C129F120C110A040A111F01011F0118B0
:1004DE0004041FA51F011F011F1E021E021F101F55
:1004EE000505021F0502001F1F050502A50A1115AD
:0C04FE00150E1F040E110E081516141F19
:1046B50000000001010100FF003B3B17071F0C63D1
:1046C500FF630000001F003B005A0078009700B50B
:0A46D50000D400F301110130014E82
:103F98007823E2FFD3940240047E0080027E0178F9
:103FA80024E2240CC39EFDEE75F00CA42F24FEF928
:103FB800EDFF7822E22FFFE433FEED1313543F7C2C
:103FC800002FFBEC3EFAE975F01FA4FFAEF07D0C64
:103FD80012070CEF2BFFEE3ACF24FFCF34FFFE7C05
:103FE800007D0712070CAF057821EFF27003740704
:013FF800F2D6
:013FF90022A5
:1047A3007823E2FFB4021008E2540360047E1D8004
:1047B300027E1CAF06800BEFD3940740010FEF443A
:0247C3001EFFD7
:0147C50022D1
:104158007FD01248B77F0A1247077F81124707129C
:104168004AC77FD01248B77F0D1247077F81124791
:10417800077F04124707E4FF1247077844E2FF125B
:104188004707124AC7123EC07821E278A9F2123FC7
:0E419800987821E2FF78A9E26F600312465D7D
:0141A60022F6
:1046DF007FD01248B7E4FF124707E478A9F278A910
:1046EF00E2FFD39402500D1247C612470778A9E292
:0746FF0004F280EA124AC731
:014706002290
:10465D00123F987FD01248B77F0312470778AA748C
:10466D0003F278AAE2FFD39406500D1247C6124703
:0B467D000778AAE204F280EA124AC7A4
:01468800220F
:104A00007FD01248B77F101247077844E2FF124761
:054A100007124AC72255
:103EC0007FD01248B7E4FF124707124AC77FD112CA
:103ED00048B7E478AAF278AAE2FFD39406502BEF11
:103EE000B40603C38001D392011245A278ABEFF26E
:103EF000124AB878AAE27C007BFE241EF9EC34005A
:103F0000FAEF1206C6E204F280CC124AC77FD01242
:103F100048B77F11124707124AC77FD11248B7C26C
:0B3F2000011245A27826EFF2124AC7FA
:013F2B002273
:0438D00078A9EFF2F2
:1038D4007825E2FFFD7C00241EF9EC3400FA78AA76
:1038E40074FEF208EAF208E9F27BFF74BE2DF9ECEB
:1038F4003446FA12068BFEEF24B5F9EC3446FA127C
:10390400068BFD7825E2B404051247A3AE0778A917
:10391400E2FF08E2FB08E2FA08E2F9EF1206A478F3
:10392400AAE2FB08E2FA08E2F912068BFFD3EE647E
:1039340080F8EF6480984004ED1206C678AAE2FB92
:1039440008E2FA08E2F912068BFFC3ED6480F8EF8F
:093954006480985004EE1206C6CE
:01395D002247
:104757007825E2601024FE600A24FE24FD5004241C
:1047670006700E800678257404F2227825E214F28A
:074777002278257402F222F2
:104454007823E2FF25E024C5F582E43446F5831889
:10446400E2FD7401932DFDE4933400FC7824E254BE
:1044740003700CEFD3940240067E007F0180047E1B
:0A448400007F00ED2FFFEC3EFE224A
:0F4AB800EFC4540F75F00AA4FEEF540F2EFF2227
:1047C6007E007BFE741E2FF9EE3400FA12068BFF74
:1047D600EF75F00A84C454F0FEEF75F00A84E5F034
:0347E6002EFF2281
:104A8700124B86D2C1124B86A2C29203C2C1A203A5
:014A970022FC
:074B7100A20292C2024A8772
:10489D0078A9EFF2D2C1D2C2124B86C2C2124B8698
:0A48AD00C2C178A9E2FF12472F22D2
:1048B70078D9EFF2D2C1D2C2124B86C2C2124B864E
:0A48C700C2C178D9E2FF12470722B0
:0F4AC700C2C1C2C2124B86D2C1124B86D2C222CA
:0447070078DAEFF27B
:10470B00E408F2F278DAE2339202124B7178DAE2D1
:10471B00FF25E0F208E204F2E2C3940840E6D2027D
:03472B00124B71BD
:01472E002268
:04472F0078AAEFF283
:10473300E408F2F278AAE2339202124B7178AAE209
:10474300FF25E0F208E204F2E2C3940840E6D2C295
:03475300124A8780
:014756002240
:1045A200D2C2E478DAF218F278DAE2FF25E0F21207
:1045B2004A87500678DAE24401F278D9E204F2E25C
:1045C200C3940840E3A201B39202124B7178DAE27B
:0145D200FFE9
:0145D30022C5
:044B86007F02DFFECD
:014B8A002208
:0A4B2500EF60077E13DEFE1F80F62E
:014B2F002263
:0E4AD600EF600B7E127DEBDDFEDEFC1F80F23A
:014AE40022AF
:1040CD00812E00812C00822A0000812D00812FFA83
:0A40DD0081300082270000812900D5
:1034DD00E4FF20C6010F20C504EF4402FF20C40401
:1034ED00EF4404FFEF602A7829E2FEB5071D18E2CC
:1034FD002401F218E23400F208E2647D700218E251
:10350D007035EEC454F07830F2802C7829EFF280CB
:10351D00267827E2FE08E2FFD39419EE64809480AA
:10352D00400FEF947DEE64809480500508E2783072
:10353D00F2E47827F208F2782FE26005E214F280C7
:10354D0028782F74FAF218E26003E214F2782CE274
:10355D006003E214F2782BE2700218E2600B782B14
:10356D00E224FFF218E234FFF2782DE26005E21456
:10357D00F2800E782BE2700218E26005782D74FA55
:10358D00F2782DE2540ED39408400B782FE2D394A9
:08359D007D4005C2C322D2C328
:0135A5002203
:104AA800782DEFF2782F74FAF2E4782AF208F222DD
:064B78007830E2FFE4F2D8
:014B7E002214
:1044C700FF00010000010500071E010101010100B5
:1044D700000000FF000100000000000000000000D5
:1044E70000000000F780FF01050404010601173BE7
:0944F70001010101010101097F2D
:0340E70081310024
:103FFA00D200E478AAF278AAE2FFC39409501D7E9F
:10400A00007BFE74392FF9EE3400FA12068BF46045
:10401A0004C200800778AAE204F280DA30002EE4B3
:10402A0078AAF278AAE2FF7C007BFF24C7F9EC3475
:10403A0044FA12068BFEEF1B2432F9EC3400FAEE36
:0D404A001206C6E204F2E2B413D91243DB01
:014057002246
:10448E00E478A9F278A9E2FDC3941350287831E2BA
:10449E0025E0FE7C00E42DFFEC3EFE12491D78A9BE
:1044AE00E27C007BFE2432F9EC3400FAEF1206C6F1
:0844BE00E204F280CF123FFA84
:0144C60022D3
:1043DB007831E2FF7E001249D5E478ABF278ABE29C
:1043EB00FDC3941350267831E225E0FE7C00E42DCA
:1043FB00FFEC3EFE7BFE74322DF9EC3400FA120614
:0C440B008BFD1248D178ABE204F280D1A6
:014417002282
:1049BF0000000000000000000000FF01173B010194
:0649CF000101010101FFDE
:10450000E478A9F278A9E2FFFD3395E0FC7BFE7424
:10451000392DF974003CFA12068BFEEF3395E0FC5E
:1045200074452DF974003CFAEE1206C6E204F2E27C
:08453000B40AD1784F74FFF2C8
:014538002260
:10441800E478A9F278A9E2FFFD3395E0FC7BFE740D
:10442800452DF974003CFA12068BFEEF3395E0FC3B
:1044380074392DF974003CFAEE1206C6E204F2E271
:0B444800B40AD11243DB784F74FFF27E
:014453002246
:104A2A00784FE2C3648094894003E4F222784FE22B
:034A3A0004F22261
:043A760078A9EFF24A
:103A7A00784FE2FFFD3395E0FC74452DF974003C64
:103A8A00FA78AA74FEF208EAF208E9F27BFF74CA2D
:103A9A002DF974493CFA12068BFEEFFD3395E0FCD2
:103AAA0074BF2DF974493CFA12068BFF78A9E2FD1E
:103ABA0008E2FB08E2FA08E2F9ED1206A478AAE2A3
:103ACA00FB08E2FA08E2F912068BFDD3EE6480F8ED
:103ADA00ED6480984004EF1206C678AAE2FB08E279
:103AEA00FA08E2F912068BFDC3EF6480F8ED6480F0
:073AFA00985004EE1206C60D
:013B010022A1
:0D4B0100E4F5C7F5C5F5C675C380F5C422FF
:10491D0075C78275C5018FC4EEF5C375C65A75C6C8
:07492D00A500AFC2124B010F
:014934002260
:1048D10075C78275C5028FC4EEF5C3AF058FC2756A
:0A48E100C65A75C6A500124B01224D
:1049D50075C78275C5038FC4EEF5C375C65A75C60E
:0649E500A500124B0122A7
:014B9F0022F3
:104A3D00438E805389F0E4F58A758CF7C28DD28C44
:034A4D00D2A922C9
:094B3A00124A3D124B9FD2AF223A
:03000B000241F5BA
:1041F500C0E0C0F0C083C082C0D075D000C000C090
:1042050001C002C003C004C005C006C00712308645
:104215007850E204F2E2D394204005E4F21234DD52
:10422500D007D006D005D004D003D002D001D000ED
:0B423500D0D0D082D083D0F0D0E03297
:03001B00024BA0F5
:014BA00032E2
:1019C000D120CDCEC2DBCC20C3CEC4CECC212121B0
:1019D00000D0EEE6E4E5F1F2E2EE20F5F0E8F1F217
:1019E000EEE2EE2E00D1F2E0F0FBE920CDEEE2FBDC
:1019F000E920E3EEE42E00CAF0E5F9E5EDE8E520A4
:101A0000C3EEF1EFEEE4EDE52E00D2E0F2FCFFEDE7
:101A1000E8ED20E4E5EDFC2E00C4E5EDFC20E2F16C
:101A2000E5F520E2EBFEE1EBB8EDEDFBF52E00C4B1
:101A3000E5EDFC20E7E0F9E8F2EDE8EAE020CEF29F
:101A4000E5F7E5F1F2E2E02E00CCE5E6E4F3EDE0C7
:101A5000F0EEE4EDFBE920E6E5EDF1EAE8E920E46B
:101A6000E5EDFC2E00C4E5EDFC20ECEEF0FFEAE035
:101A70002DEFEEE4E2EEE4EDE8EAE02E00C4E5ED61
:101A8000FC20F1ECE5F5E02E00C4E5EDFC20EAEEEB
:101A9000F1ECEEEDE0E2F2E8EAE82E00CFF0E0E76C
:101AA000E4EDE8EA20C2E5F1EDFB20E820D2F0F316
:101AB000E4E02E00C4E5EDFC20EFEEE1E5E4FB21DF
:101AC000212100C4E5EDFC20EFE8EEEDE5F0E8E8CB
:101AD0002E00C4E5EDFC20EFEEE3F0E0EDE8F7EDDD
:101AE000E8EAE02E00C4E5EDFC20E7E0F9E8F2FBCF
:101AF00020E4E5F2E5E92E00C4E5EDFC20D0CED1EE
:101B0000D1C8C82E00C4E5EDFC20ECEEEBEEE4E518
:101B1000E6E82E00C4E5EDFC20F1E5ECFCE82C2025
:101B2000EBFEE1E2E820E820E2E5F0EDEEF1F2E89C
:101B30002E00C4E5EDFC20C2EEE7E4F3F8EDEE2D57
:101B4000E4E5F1E0EDF2EDFBF520E2EEE9F1EA2E5D
:101B500000C4E5EDFC20C2EEE5EDEDEE2DE2EEE792
:101B6000E4F3F8EDFBF520F1E8EB2E00C4E5EDFC25
:101B700020E7EDE0EDE8E92E00C4E5EDFC20F3F709
:101B8000E8F2E5EBFF2E00C4E5EDFC20F0EEE6E424
:101B9000E5EDE8FF20C4E5E4E020CCEEF0EEE7E080
:101BA00000C4E5EDFC20EFF0EEE3F0E0ECECE8F152
:101BB000F2E02E00C4E5EDFC20ECE5E4E8F6E8ED0B
:101BC000F1EAEEE3EE20F0E0E1EEF2EDE8EAE02EFD
:101BD00000C4E5EDFC20F1E8F1F2E5ECEDEEE3EE1A
:101BE00020E0E4ECE8EDE8F1F2F0E0F2EEF0E02ED7
:101BF00000C4E5EDFC20C2EEE5EDEDEE2DCCEEF0FF
:101C0000F1EAEEE3EE20D4EBEEF2E02E00CCE5E6D6
:101C1000E4F3EDE0F0EEE4EDFBE920E4E5EDFC209B
:101C2000EFE8E2E02E00C4E5EDFC20F1F2F0EEE892
:101C3000F2E5EBFF2E00C4E5EDFC20F2E0EDEAE872
:101C4000F1F2E02E00C4E5EDFC20E0E2F2EEECEE75
:101C5000E1E8EBE8F1F2E02E00C4E5EDFC20ECE079
:101C6000F2E5F0E82E0001011119C001071419D1A5
:101C7000010E1219E501131319F701190F1A0A02BF
:101C80000E161A1902171A1A2F03081C1A490313E1
:101C9000181A6504010C1A7D040C131A8905011821
:101CA0001A9C05090F1AB405130F1AC3051C131A41
:101CB000D20601131AE5060C0D1AF8061B0F1B05B8
:101CC00007081E1B1408021F1B32080C1B1B51099E
:101CD000010D1B6C0A050E1B790B121A1B87610084
:101CE000131BA136071D1BB47705201BD177071CDA
:101CF0001BF11805191C0D2807101C2629070F1C9D
:0B1D0000367A07141C457B070D1C59A8
:0240EA00C1060D
:104058007821E278AAF27F057851E4F208DFFC7F44
:10406800057822E278AAF278AAE2D364809487409D
:1040780006E224F9F280F01247A3AE07E4FFEFC38B
:1040880094055024EEFD78AAE2F9FB3395E0FAD3C3
:10409800EB9D7480F86A98500F74512FF8E9F20F6D
:0840A80078AAE22407F280D699
:0140B00022ED
:10484B007855E2FF700C7822E2FE7854E2B5060A46
:0C485B00D3227822E2B50702D322C32248
:104A500074512FF8E2FF7822E2FEEFB50603D3800F
:034A600001C3226D
:102DB700C206E4780FF2124058E478A9F278A9E243
:102DC700FFC394214003022F31300603022F31EF56
:102DD70075F005A42466F582E4341CF583E493FFBB
:102DE70054F0FEC4540F1424FB503F7003022E7D91
:102DF700147003022EB724076003022F2378A9E279
:102E070075F005A42467F582E4341CF583E493FE8A
:102E17007822E2FDEE6D6003022F29EF540FFF08C1
:102E2700E26F6003022F29022EEF78A9E2FF75F007
:102E370005A42466F582E4341CF583E493FE540F5D
:102E4700FD7823E26D6003022F29EF75F005A424B6
:102E570067F582E4341CF583E493FF7821E26F6021
:102E670003022F29EE5470C4540F14FF124A504026
:102E770003022F298072124454AC06AD0778A9E2E9
:102E8700FB75F005A42466F582E4341CF583E4930E
:102E97005401FEEB75F005A42467F582E4341CF5B4
:102EA70083E493FBEB6D7002EC6E7076D206803C88
:102EB70078A9E2FF75F005A42466F582E4341CF5D1
:102EC70083E493540FFE7823E26E7056EF75F00596
:102ED700A42467F582E4341CF583E493FF7821E2A8
:102EE7006F703F12484B503AD20678A9E2FE75F050
:102EF70005A42468F582E4341CF583E493FFEE759A
:102F0700F005A42469F582E4341CF583E493FC748A
:102F17000193AA04F97BFF123D758006C206E47887
:0A2F27000FF278A9E204F2022DC4B3
:012F3100227D
:1040EC008175EC815C00825D000082560000827656
:0240FC000000C2
:10482B0078A9EFF208EDF27875E2FF1248B778A994
:10483B00E2FF12470778AAE2FF124707124AC72284
:0446890078A9EFF22B
:10468D007875E2FF1248B778A9E2FF1247077875EF
:10469D00E24401FF1248B7C2011245A278AAEFF217
:0746AD00124AC778AAE2FFE0
:0146B40022E3
:0443590078D6EFF231
:10435D007875E2FF1248B778D6E2FF1247077875F5
:10436D00E24401FF1248B7D2011245A2EFF8E479F9
:10437D00D8F3E819F3C2011245A278D7E2F208E2A8
:0C438D004FF2124AC778D7E2FE08E2FFA8
:014399002201
:04439A0078A9EFF21D
:10439E007875E2FF1248B778A9E2FF1247077875E1
:1043AE00E24401FF1248B7D2011245A278AAE4F204
:1043BE0008EFF2C2011245A2EFFE78AAE24EF20811
:0C43CE00E2F2124AC778AAE2FE08E2FF01
:0143DA0022C0
:044B90001243592251
:044B940012439A220C
:0436650078C1EFF247
:103669007875E2FF1248B778C1E2FF12470778750B
:10367900E24401FF1248B7D2011245A2E4FCFDFE63
:10368900780C12091078C212092378C2E2FB08E209
:10369900F908E2FA08E2CBF8C000C001C002C00391
:1036A900D2011245A2E4FCFDFE7804120910D003F0
:1036B900D002D001D000EB4FFFEA4EFEE94DFDE804
:1036C9004CFC78C212092378C2E2FB08E2F908E24D
:1036D900FA08E2CBF8C000C001C002C003C201125F
:1036E90045A2EFC4540FFFD003D002D001D000EBA4
:1036F9004FFFEAFEE9FDE8FC78C2120923124AC726
:0D37090078C2E2FC08E2FD08E2FE08E2FFE3
:013716002290
:103B89007FAA124359785FEEF208EFF27FAC124335
:103B9900597861EEF208EFF27FAE1243597863EE7D
:103BA900F208EFF27FB01243597865EEF208EFF2AE
:103BB9007FB21243597867EEF208EFF27FB41243ED
:103BC900597869EEF208EFF27FB6124359786BEE35
:103BD900F208EFF27FB8124359786DEEF208EFF26E
:103BE9007FBA124359786FEEF208EFF27FBC1243A5
:103BF900597871EEF208EFF27FBE1243597873EEED
:053C0900F208EFF222B9
:1037B1007F8812439A787CEEF208EFF27F8A124BEF
:1037C10094787EEEF208EFF27F8C124B947880EEC3
:1037D100F208EFF27F8E12439A7882EEF208EFF24E
:1037E1007F90124B947884EEF208EFF27F92124BA5
:1037F100947886EEF208EFF27F94124B947888EE7B
:10380100F208EFF27F96124B94788AEEF208EFF20B
:103811007F98124B94788CEEF208EFF27F9A124B5C
:1038210094788EEEF208EFF27F9C124B947890EE32
:10383100F208EFF27F9E124B947892EEF208EFF2CB
:013841002264
:103D01001237B17FA11246897894EFF27FE1124B0D
:103D1100947895EEF208EFF27FE31246897897EFF7
:103D2100F27FE4124689EF75F010A4FFAEF0C007F0
:103D3100C0067FE5124689EF540FFDD0E07898F276
:103D4100D0E04D08F27FE6124689EF75F010A4FF2E
:103D5100AEF0C007C0067FE5124689EFC4540FFDDF
:103D6100D0E0789AF2D0E04D08F27FE712468978E8
:043D71009CEFF222AF
:0E4AE500E4FD7FF512482B7DAB7FF402482BD9
:0A4B30007D057FF212482B024AE5D2
:04477E0078D5EFF209
:104782007875E2FF1248B77FF412470778D5E2FF47
:10479200124707124AC77F05124AD67FF6124359BB
:0147A20022F4
:0D4AF3007FF3124689EF30E003D38001C34A
:014B00002292
:103B02007FEC12489DB39200124AC73000077875C5
:103B120074ECF280137FEE12489DB39200124AC7F2
:103B2200300005787574EEF23000097FD0124689B4
:103B3200785CEFF2124AC7785CE2FF6003B4FF05DB
:103B4200E4785CF222EF6455601C7DB67FE0124897
:103B52002B7F95124AD67F958007124AF350077F32
:103B620064124AD680F4785CE224AA24FD500B2425
:103B7200F9600D240B700F023B891237B1024AE53E
:063B8200123D01124B3060
:013B8800221A
:100DAF007F2E12477E78D1EEF208EFF27F34124792
:100DBF007E78D3EEF208EFF2785CE26455600302BE
:100DCF0011F578D1E2FE08E2FFE4FCFDC006C00792
:100DDF007869E2FE08E2FBAA06D007D006C3EF9BB4
:100DEF00FFEE9AFEED9400FDEC9400FCC004A90503
:100DFF00AA06AB077867E2FE08E2FFE4FCFDD0002D
:100E0F00120797780F1208FC78A91209237871E25C
:100E1F00FE08E2FFEE3395E0FDFC780B120910C0DF
:100E2F0004C005C006C0077873E2FE08E2FFEE3388
:100E3F0095E0FDFC78A9E2FB08E2F908E2FA08E286
:100E4F00CBF8EB2FFBEA3EFAE93DF9E83CF8D00787
:100E5F00D006D005D0041242D378AD12092378AD55
:100E6F00E2FC08E2FD08E2FE08E2FF78A9E2FB08D7
:100E7F00E2F908E2FA08E2CBF8EB2FFFEA3EFEE9CF
:100E8F003DFDE83CFC78B912092378B9E2FC08E291
:100E9F00FD08E2FE08E22408FFE43EFEE43DFDE427
:100EAF003CFC78041208FC785DEEF208EFF278B99A
:100EBF00E2FC08E2FD08E2FE08E22460FFEE34F0F7
:100ECF00FEED34FFFDEC34FFFC0812092378BDE280
:100EDF00FC08E2FD08E2FE08E2FFA804A905AA0645
:100EEF00FB120797780C1208FC78C112092378615E
:100EFF00E2FE08E2FFEE3395E0FDFC78BDE2FB0871
:100F0F00E2F908E2FA08E2CBF8120797C004C0052D
:100F1F00C006C007786DE2FE08E2FFEE3395E0FDF4
:100F2F00FC78C1E2FB08E2F908E2FA08E2CBF8121A
:100F3F000797D003D002D001D000EF2BFFEE3AFE7F
:100F4F00ED39FDEC38FC780B1208FC78B11209234F
:100F5F00785FE2FE08E2FFEE3395E0FDFCE47B04F0
:100F6F00FAF9F812079778B1E2FB08E2F908E2FA0A
:100F7F0008E2CBF8EB2FFFEA3EFEE93DFDE83CFC33
:100F8F00EF2402FFE43EFEE43DFDE43CFC78021258
:100F9F0008FC78B51209237863E2FE08E2FFEE330E
:100FAF0095E0FDFC78BDE2FB08E2F908E2FA08E201
:100FBF00CBF8120797780D1208FC78A9120923783D
:100FCF006BE2FE08E2FFEE3395E0FDFC78C1E2FB39
:100FDF0008E2F908E2FA08E2CBF812079778101244
:100FEF0008FC78AD12092378ADE2FC08E2FD08E2B7
:100FFF00FE08E2FF78A9E2FB08E2F908E2FA08E24C
:10100F00CBF8EB2FFFEA3EFEE93DFDE83CFCEF2479
:10101F0002FFE43EFEE43DFDE43CFC78021208FCD6
:10102F0078B112092378B1E2FC08E2FD08E2FE086C
:10103F00E22400FFEE3480FEE43DFDE43CFCC004FE
:10104F00A905AA06AB077865E2FE08E2FFE4FCFDFE
:10105F00D000120797780F1208E978C91209237880
:10106F00D3E2FE08E2FFE4FCFDC004C005C006C0E9
:10107F000778B5E2FC08E2FD08E2FE08E2FBAA06EB
:10108F00A905A804D007D006D005D004C3EF9BFF55
:10109F00EE9AFEED99FDEC98FCE47B507AC3F9F8DB
:1010AF0012079778CD12092378C9E2FB08E2F908F5
:1010BF00E2FA08E2CBF8C00078CDE2FC08E2FD08C6
:1010CF00E2FE08E2FFD00012082278011209107820
:1010DF00C512092378C5E2FC08E2FD08E2FE08E22A
:1010EF00FF78081208FCC004C005C006C00778C509
:1010FF00E2FC08E2FD08E2FE08E2FF78081208FCB5
:10110F00D003D002D001D00012079778A91209237B
:10111F00E47FDE7E0BFDFC78A9E2FB08E2F908E232
:10112F00FA08E2CBF812079778101208FC78A91288
:10113F0009237F437EE37DFF7CFF78C5E2FB08E256
:10114F00F908E2FA08E2CBF812079778101208FCB8
:10115F0078AD12092378ADE2FC08E2FD08E2FE0843
:10116F00E2FF78A9E2FB08E2F908E2FA08E2CBF81D
:10117F00EB2FFFEA3EFEE93DFDE83CFCEF24CFFFFD
:10118F00EE340EFEE43DFDE43CFC78041208FC78DE
:10119F00C5E2FB08E2F908E2FA08E2CBF8EB2FFF11
:1011AF00EA3EFEE93DFDE83CFC78B112092378B137
:1011BF00E2FC08E2FD08E2FE08E2FFEC1205AA7B62
:1011CF00B07A507955784112050D78581209237865
:1011DF0058E2FC08E2FD08E2FE08E2FF1205E8789B
:0611EF0056EEF208EFF2DB
:0111F50022D7
:102C25007FFA12366578BD120923E4FFFE7D08FCA4
:102C350078BDE2FB08E2F908E2FA08E2CBF8C31234
:102C450008D87003022DB6787CE2FE08E2FFE4FCAA
:102C5500FD7801120910AB07AA06A905C004C00535
:102C6500C006C00778BDE2FC08E2FD08E2FE08E206
:102C7500FF78031208E9D003D002D001D000C3EFDA
:102C85009BFFEE9AFEED99FDEC98FCC004A905AA00
:102C950006AB07787EE2FE08E2FFEE3395E0FDFC29
:102CA500D000120797780B1208E978B91209237832
:102CB5007CE2FE08E2FFE4FCFDAB07AA06F9C004CE
:102CC500C005C006C00778BDE2FC08E2FD08E2FECB
:102CD50008E2FF78041208E9D003D002D001D00041
:102CE500C3EF9BFFEE9AFEED99FDEC98FCC004C086
:102CF50005C006C007787CE2FE08E2FFE4FCFDABF8
:102D050007AA06F9C004C005C006C00778BDE2FCE5
:102D150008E2FD08E2FE08E2FF78041208E9D003A4
:102D2500D002D001D000C3EF9BFFEE9AFEED99FDD6
:102D3500EC98FCD003D002D001D000120797780C94
:102D45001208E9C004A905AA06AB077880E2FE08C7
:102D5500E2FFEE3395E0FDFCD000120797780E12E6
:102D650008E978B9E2FB08E2F908E2FA08E2CBF8EB
:102D7500EB2FFFEA3EFEE93DFDE83CFC78781209C1
:102D850023E47F05FEFDFC7878E2FB08E2F908E222
:102D9500FA08E2CBF8120797EF2480FFE43EFEE441
:102DA5003DFDE43CFC78081208FC785DEEF208EF86
:012DB500F22B
:012DB60022FA
:10096600122C257FF712366578A91209237878E2CA
:10097600FC08E2FD08E2FE08E2FF78011208FCE44A
:100986002FFFEE3406FEED34FFFDEC34FFFC78ADB0
:1009960012092378ADE2FC08E2FD08E2FE08E2FF58
:1009A60078021208FCC004C005C006C00778ADE294
:1009B600FC08E2FD08E2FE08E2FF78021208FCD01D
:1009C60003D002D001D000120797780B1208FCC0A2
:1009D60004A905AA06AB07788CE2FE08E2FFEE330F
:1009E60095E0FDFCD00012079778B112092378B183
:1009F600E2FB08E2F908E2FA08E2CBF8C000C0011F
:100A0600C002C003788AE2FE08E2FFEE3395E0FDFD
:100A1600FC78ADE2FB08E2F908E2FA08E2CBF8124C
:100A260007977801120910D003D002D001D000EB4D
:100A36002FFFEA3EFEE93DFDE83CFC78B1120923B2
:100A46007888E2FE08E2FFEE3395E0FDFC781012AE
:100A56000910C004C005C006C00778B1E2FC08E270
:100A6600FD08E2FE08E2FF78021208FCD003D0027D
:100A7600D001D000EF2BFFEE3AFEED39FDEC38FC4D
:100A860078B112092378ADE2FC08E2FD08E2FE081F
:100A9600E2FF78021208FCC004C005C006C0077851
:100AA600ADE2FC08E2FD08E2FE08E2FF7802120869
:100AB600FCD003D002D001D000120797780D12089F
:100AC600FCC004A905AA06AB077886E2FE08E2FF89
:100AD600EE3395E0FDFCD00012079778031208FC70
:100AE600C004C005C006C0077884E2FE08E2FFEE37
:100AF6003395E0FDFC78ADE2FB08E2F908E2FA087E
:100B0600E2CBF812079778011208FCD003D002D086
:100B160001D000EB2FFFEA3EFEE93DFDE83CFC7804
:100B2600121208FC78AD12092378ADE2FC08E2FD4A
:100B360008E2FE08E22400FFEE3480FEE43DFDE418
:100B46003CFCC004A905AA06AB077882E2FE08E2CF
:100B5600FFE4FCFDD000120797780F1208FC78AD71
:100B660012092378ADE2FC08E2FD08E2FE08E2FF86
:100B7600EC4D4E4F7003020DAE78B1E2FC08E2FD7B
:100B860008E2FE08E2FF780C1208FCC004C005C0AB
:100B960006C00778A9E2FB08E2F908E2FA08E2CB08
:100BA600F8C3E49BFFE49AFE741099FDE498FCD028
:100BB60003D002D001D000C3EF9BFFEE9AFEED9961
:100BC600FDEC98FCE47B357A0CF9F812079778B5BA
:100BD600120923E4FFFEFD7C8078B5E2FB08E2F90A
:100BE60008E2FA08E2CBF8C31208D8503A78B5E220
:100BF600FC08E2FD08E2FE08E2FF7801120910C0D7
:100C060004C005C006C00778ADE2FC08E2FD08E2B4
:100C1600FE08E2FBAA06A905A804D007D006D0055F
:100C2600D004120822803078ADE2FC08E2FD08E22A
:100C3600FE08E2FFC004A905AA06AB0778B5E2FCE8
:100C460008E2FD08E2FE08E2FFD000120822E47B7B
:100C560002FAF9F812079778B512092378B5E2FC7B
:100C660008E2FD08E2FE08E2FF78031208E9C00484
:100C7600C005C006C00778B5E2FC08E2FD08E2FE42
:100C860008E2FF78031208E9D003D002D001D000B1
:100C9600120797780D1208E9C004A905AA06AB0742
:100CA6007892E2FE08E2FFEE3395E0FDFCD00012FA
:100CB6000797780C1208FC78AD12092378B5E2FC88
:100CC60008E2FD08E2FE08E2FF78021208E9C00425
:100CD600A905AA06AB077890E2FE08E2FFEE339577
:100CE600E0FDFCD000120797780D1208FC78B112CF
:100CF600092378B5E2FB08E2F908E2FA08E2CBF844
:100D0600C000C001C002C00378B1E2FC08E2FD08E1
:100D1600E2FE08E2FF78ADE2FB08E2F908E2FA0833
:100D2600E2CBF8EB2FFFEA3EFEE93DFDE83CFCC0D6
:100D360004A905AA06AB07788EE2FE08E2FFEE33A9
:100D460095E0FDFCD000EB2FFFEA3EFEE93DFDE815
:100D56003CFC78041208FCD003D002D001D000EB92
:100D66002FFFEA3EFEE93DFDE83CFC78B51209237B
:100D760078B5E2FC08E2FD08E2FE08E2FFE41205AF
:100D8600AA7BB07A507955784112050D7858120928
:100D9600237858E2FC08E2FD08E2FE08E2FF1205AD
:080DA600E87856EEF208EFF2C6
:010DAE002222
:10200E00122C257FFD124359E4FCFD78A9120923F9
:10201E00E4FF7E80FDFC78A9E2FB08E2F908E2FA13
:10202E0008E2CBF8C31208C270030222D67878E217
:10203E00FC08E2FD08E2FE08E22400FFEE34D4FEC6
:10204E00ED34FEFDEC34FFFC78AD1209237897E2F7
:10205E00FFE4FCFDFE78ADE2FB08E2F908E2FA08C7
:10206E00E2CBF8120797780B1208FCE42FFFEE3440
:10207E0080FEE43DFDE43CFCC004C005C006C00784
:10208E00789CE2FF3395E0FEFDFC78ADE2FB08E2C2
:10209E00F908E2FA08E2CBF8120797780A1208FC60
:1020AE00D003D002D001D000120797780A1208FC94
:1020BE00E42FFFE43EFEED3420FDE43CFCC004A919
:1020CE0005AA06AB077895E2FE08E2FFEE3395E02F
:1020DE00FDFCD000120797E42FFFEE3420FEE43D06
:1020EE00FDE43CFC780E1208FCC004C005C006C01E
:1020FE00077898E2FE08E2FFEE3395E0FDFC7814D7
:10210E00120910C004C005C006C00778A9E2FC0879
:10211E00E2FD08E2FE08E2FF780E120910D003D0AD
:10212E0002D001D000C3EF9BFFEE9AFEED99FDECBD
:10213E0098FCC004C005C006C007789AE2FE08E20B
:10214E00FFEE3395E0FDFC78ADE2FB08E2F908E224
:10215E00FA08E2CBF8120797A804A905AA06AB075E
:10216E00D007D006D005D004C3EF9BFFEE9AFEED4C
:10217E0099FDEC98FCE42FFFEE3440FEE43DFDE4C7
:10218E003CFC780F1208FCD003D002D001D0001214
:10219E00079778AD12092378ADE2FC08E2FD08E25C
:1021AE00FE08E2FFC004C005C006C00778ADE2FC21
:1021BE0008E2FD08E2FE08E2FF780F1208FCC004F8
:1021CE00C005C006C00778ADE2FC08E2FD08E2FEDD
:1021DE0008E2FF780F1208FCD003D002D001D00025
:1021EE0012079778071208FCC004A905AA06AB07C8
:1021FE007894E2FFE4FCFDFED000120797780412FB
:10220E0008FCA804A905AA06AB07D007D006D0057E
:10221E00D004C3EF9BFFEE9AFEED99FDEC98FC788F
:10222E00AD12092378ADE2FCEC335007E4FFFEFD5E
:10223E00FC800D78ADE2FC08E2FD08E2FE08E2FF4C
:10224E0078AD120923E4FFFEFD7C1978ADE2FB08A0
:10225E00E2F908E2FA08E2CBF8D31208C24008E429
:10226E00FFFEFD7C19800D78ADE2FC08E2FD08E270
:10227E00FE08E2FF78AD12092378ADE2FC08E2FD1C
:10228E0008E2FE08E2FF780C1208FC78AD12092372
:10229E0078ADE2FC08E2FD08E2FE08E2FFEC120572
:1022AE00AA7B0A7AD77923784112050D785812093C
:1022BE00237858E2FC08E2FD08E2FE08E2FF120570
:0822CE00E87876EEF208EFF269
:0122D60022E5
:044B98001209662276
:074B7F0012096612200E224C
:10488200785CE224AA24FD500B24F9600A240B7000
:0B48920009020DAF024B98124B7F2271
:08000300785DE2FE08E2FF2235
:084B43007856E2FE08E2FF22B1
:084B4B007876E2FE08E2FF2289
:054B8B00785CE2FF224E
:0A40FE00C10782A3000082A50000A4
:0D428B0078B3EBF208EAF208E9F208EDF270
:104298007F801248B7E478B7F278B6E2FF08E2FE0A
:1042A800C39F5023EEFF78B5E22FF218E23400F2F4
:1042B80018E2FB08E2FA08E2F912068BFF12470738
:0A42C80078B7E204F280D2124AC770
:0142D20022C9
:0D42400078B3EBF208EAF208E9F208EDF2BB
:10424D007F811248B7E478B7F278B6E2FF08E2C38F
:10425D009F5022D2011245A278B3E2FB08E2FA0880
:10426D00E2F978B7E2F582758300EF1206D878B7D8
:0D427D00E204F280D4C2011245A2124AC729
:01428A002211
:1046300078AFEFF208EBF208EAF208E9F27BFE7AD3
:104640000079AF7D0112428B7F14124AD678B0E216
:0D465000FB08E2FA08E2F97D021242402266
:103DE6007BFE7A0079AD7FF312463078ADE2FFE4D0
:103DF600FCFDFE7808120910C004A905AA06AB0747
:103E060078AEE2FFD000EB4FFFEAFEE9FDE8FC7872
:103E1600A912092378A90808E2FE08E254FCFFE487
:103E2600FDFC78A9120923E47FA47E44FDFC78A951
:103E3600E2FB08E2F908E2FA08E2CBF81207977803
:0C3E4600101208FCEF24B3FFEE34EDFE78
:013E5200224D
:103F2C007BFE7A0079A17FF512463078A1E2FFE49E
:103F3C00FCFDFE7808120910C004A905AA06AB07FF
:103F4C0078A2E2FFD000EB4FFFEAFEE9FDE8FC7837
:103F5C009D120923789D0808E2FE08E254FCFFE458
:103F6C00FDFC789D120923E47F7DFEFDFC789DE22B
:103F7C00FB08E2F908E2FA08E2CBF812079778108E
:0B3F8C001208FCEF24FAFFEE34FFFEE9
:013F97002207
:103E53007BFE7A0079AD7FF512463078ADE2FFE460
:103E6300FCFDFE7808120910C004A905AA06AB07D9
:103E730078AEE2FFD000EB4FFFEAFEE9FDE8FC7805
:103E8300A912092378A90808E2FE08E254FCFFE41A
:103E9300FDFC78A9120923E47FD47E30FDFC78A9C8
:103EA300E2FB08E2F908E2FA08E2CBF81207977896
:0C3EB300101208FCEF24A8FFEE34FDFE06
:013EBF0022E0
:0C4B0E007F8012489DB39207124AC72214
:104A1500123DE678A3EEF208EFF2123E5378A5EECA
:054A2500F208EFF2228F
:084B530078A3E2FE08E2FF2254
:084B5B0078A5E2FE08E2FF224A
:034B9C00A207224B
:10050A0002065EEC5D046005E859047003020654B5
:10051A0012061F580460F6EC4860F2EC7004FDFE07
:10052A00FF22C860DB2481C85009C39860025006C4
:10053A0002065B9850CAF582E9294B4A7005AB82DC
:10054A0002064A75F0007C1A7880C3EF9BEE9AED9A
:10055A0099400DC3EF9BFFEE9AFEED99FDE842F03C
:10056A00DC23ACF0D0E0FFD0E0FED0E0FDAB82208F
:10057A00E7101BEB60BAEC2CFCEF33FFEE33FEED19
:10058A0033FD020636E803F830E705C0F075F000DF
:10059A00EF2FFFEE33FEED33FD40B830E7C280AAFD
:1005AA0075F020800E75F010800575F0087D007ECC
:1005BA00007F003392D530D5031208B4EC334010D3
:1005CA00EF33FFEE33FEED33FDEC33FCD5F0ED22D5
:0E05DA00E5F0247EA2D513CC92E7CDCEFF2211
:1005E800EDD2E7CD33EC3392D524814006E4FFFE0B
:1005F800FDFC22FCE4CFCECDCC24E0501174FF806A
:10060800EDC3CC13CCCD13CDCE13CECF13CF047006
:07061800F030D5DE0208B44A
:10061F00E9D2E7C933E833F892D5EDD2E7CD33EC21
:07062F0033FC5002B2D5229A
:10063600EC30E7100FBF000C0EBE00080DBD000425
:100646000BEB6014A2D5EB13FCED92E7FD2274FFD1
:10065600FCFDFEFF22E480F8A2D574FF13FC7D802A
:03066600E480EF3E
:103731000215DFE493A3F8E493A34003F68001F2BA
:1037410008DFF48029E493A3F85407240CC8C33399
:10375100C4540F4420C8834004F456800146F6DF68
:10376100E4800B01020408102040809040B1E47E07
:10377100019360BCA3FF543F30E509541FFEE4935D
:10378100A360010ECF54C025E060A840B8E493A324
:10379100FAE493A3F8E493A3C8C582C8CAC583CA4F
:1037A100F0A3C8C582C8CAC583CADFE9DEE780BE07
:0141080000B6
:10066900C2D530F707B2D563F0FF05F030E70CB219
:10067900D5F4048463F0FF05F080018430D502F4D9
:02068900042249
:10068B00BB010689828A83E0225002E722BBFE026D
:09069B00E32289828A83E49322A0
:1006A400BB010989828A83F8E028F022500327F7E6
:1006B40022BBFE05F8E328F3228A838982F8E493B7
:0206C4002822EA
:1006C600BB010689828A83F0225002F722BBFE0113
:0206D600F3220D
:1006D800F8BB010DE58229F582E5833AF583E8F058
:1006E800225006E92582C8F622BBFE05E92582C804
:0206F800F222EC
:1006FA00EF8DF0A4A8F0CF8CF0A428CE8DF0A42E14
:02070A00FE22CD
:10070C00BC000BBE0029EF8DF084FFADF022E4CCD1
:10071C00F875F008EF2FFFEE33FEEC33FCEE9DEC9A
:10072C00984005FCEE9DFE0FD5F0E9E4CEFD22EDE0
:10073C00F8F5F0EE8420D21CFEADF075F008EF2F2A
:10074C00FFED33FD4007985006D5F0F222C398FD1B
:05075C000FD5F0EA22B8
:10076100C2D5EC30E709B2D5E4C39DFDE49CFCEEB3
:1007710030E715B2D5E4C39FFFE49EFE12070CC318
:10078100E49DFDE49CFC800312070C30D507C3E413
:060791009FFFE49EFE2222
:10079700E88FF0A4CC8BF0A42CFCE98EF0A42CFC01
:1007A7008AF0EDA42CFCEA8EF0A4CDA8F08BF0A47F
:1007B7002DCC3825F0FDE98FF0A42CCD35F0FCEBDE
:1007C7008EF0A4FEA9F0EB8FF0A4CFC5F02ECD39A3
:0F07D700FEE43CFCEAA42DCE35F0FDE43CFC2210
:1007E60075F008758200EF2FFFEE33FECD33CDCCCA
:1007F60033CCC58233C5829BED9AEC99E58298404D
:100806000CF582EE9BFEED9AFDEC99FC0FD5F0D629
:10081600E4CEFBE4CDFAE4CCF9A88222B800C1B953
:100826000059BA002DEC8BF084CFCECDFCE5F0CB91
:10083600F97818EF2FFFEE33FEED33FDEC33FCEBCA
:1008460033FB10D703994004EB99FB0FD8E5E4F985
:10085600FA227818EF2FFFEE33FEED33FDEC33FC72
:10086600C933C910D7059BE99A4007EC9BFCE99A66
:10087600F90FD8E0E4C9FAE4CCFB2275F010EF2FAB
:10088600FFEE33FEED33FDCC33CCC833C810D707AB
:100896009BEC9AE899400AED9BFDEC9AFCE899F8E6
:0E08A6000FD5F0DAE4CDFBE4CCFAE4C8F92279
:1042D300C2D5E830E70FB2D5E4C39BFBE49AFAE416
:1042E30099F9E498F8EC30E717B2D51243091208AC
:1042F30022E4C39BFBE49AFAE499F9E498F8800377
:1043030012082230D50DE4C39FFFE49EFEE49DFD19
:04431300E49CFC2208
:0E08B400C3E49FFFE49EFEE49DFDE49CFC2255
:1008C200EB9FF5F0EA9E42F0E99D42F0EC6480C8AD
:0608D20064809845F0224D
:1008D800EB9FF5F0EA9E42F0E99D42F0E89C45F076
:0108E80022ED
:1008E900E8600FECC313FCED13FDEE13FEEF13FFED
:0308F900D8F12211
:1008FC00E86010ECA2E713FCED13FDEE13FEEF1312
:04090C00FFD8F022FE
:10091000E8600FEFC333FFEE33FEED33FDEC33FC45
:03092000D8F122E9
:0C092300ECF208EDF208EEF208EFF22210
:10092F00F5F0C582A4C582C5F0C583A42583F583E0
:01093F002295
:10094000D083D082F8E4937012740193700DA3A346
:1009500093F8740193F5828883E47374029368605A
:06096000EFA3A3A380DF5A
:00000001FF
