:0300000002377450
:1037740078FFE4F6D8FD9000007F007E03E4F0A318
:0A378400DFFCDEFA7581210237C96F
:1048B1001244BC12459E124B5612414012452E1213
:0B48C1003BE4124B2A782474FFF22223
:104A7F003006FD12000EC2AF1244BCD2AFE478165E
:024A8F00F22211
:104A91003006FD12000EC2AF124409D2AFE47816FF
:024AA100F222FF
:1015DF0078A17401F21248B17F14124AC4782D74A5
:1015EF0002F23006FDC206781AE275F00A84E5F0C1
:1015FF00702E7816E2FF600964026024EF640360C6
:10160F001F782DE27014740AF2124BA7EF600312C9
:10161F0048CC124BB45003124895123D57122E145A
:10162F00124B9478A0EFF2600FE2C3941050047F36
:10163F001480027F28124AC478A0E224FE700302AD
:10164F00171524FE700302171A24F470030217BA39
:10165F00240F60030218037816E214B40B00400342
:10166F0002180390168075F003A4C58325F0C58377
:10167F00730216A10216D50216E00216F202170F18
:10168F0002170F02170F02170F02170F02170C0284
:10169F00170F7815E2FF24FD601A14601D24F8500F
:1016AF001F240A600302180378247402F27816EFDD
:1016BF00F2021803782474068003E4784EF2800057
:1016CF007815E20217F57824E2701212470D02180E
:1016DF00007824E2B4040612468B021800124785E4
:1016EF00021803784EE2FF70057844E26004EFB40D
:1016FF0009051244468009124A46021803124A315C
:10170F00124A9102180078A17401F278A0E2B40491
:10171F00040874FFF27816E2B40C004003021803B9
:10172F00901736F828287302175A02175C021766AB
:10173F0002176602177002177A02178402178D02BA
:10174F00179602179F0217A80217B1804378A1E2DC
:10175F00FF124A1C02180378A1E2FF12392D02185A
:10176F000378A1E2FF123AD302180378A1E2FF1225
:10177F0049AB02180378A1E2FF124966807678A17F
:10178F00E2FF12497D806D78A1E2FF1249948064D7
:10179F0078A1E2FF124839805B78A1E2FF1249C2BB
:1017AF00805278A1E2FF1249D980497816E2B40C31
:1017BF000050419017C9F82828730217ED0217F44B
:1017CF000218000218000217FA0217FD0217FD0295
:1017DF0017FD0217FD0217FD0217FD0217FD781600
:1017EF007401F2800FE47816F2800912452E124A26
:1017FF007F124B367816E2B40C005065901812F831
:10180F0028287302183602183B02184002184502A6
:10181F00184A02184F02185402185902185E02187B
:10182F006302186802186D124345803512389F8085
:10183F0030123435802B1232278026121D21802141
:10184F00124631801C124B7F80171239BB80121247
:10185F004B86800D123A47800812256B8003124A7F
:10186F00B4781BE204F2781AE204F2300725781CF0
:10187F00E2B4061F781AE275F00584E5F07014C320
:10188F00780FE264809480400A08E22401F218E2A3
:10189F003400F2781BE2D3943B4002E4F2781AE270
:1018AF00D3943B50030215F1E4F27811E204F2787D
:1018BF001CE2B4070040030219B69018D0F828288C
:1018CF00730218E50218F20218FF02191202194CDE
:1018DF000219810219A37811E2D39405500302155E
:1018EF00F180187811E2D3940250030215F1800BA6
:1018FF007811E2D3940250030215F1781CE204F23E
:10190F000219A07811E2D3940250030215F1124B81
:10191F00A7EF6007781C7404F28020124BB45007B5
:10192F00781C7405F2801430070D781C7406F2E4ED
:10193F00780FF208F28004E4781CF280547811E2F8
:10194F00D3940250030215F1124BA7EF64606005A8
:10195F00124BB45007781CE204F2801430070D7854
:10196F001C7406F2E4780FF208F28004E4781CF29B
:10197F00801F7811E2D3940250030215F130070D46
:10198F00781C7406F2E4780FF208F28004E4781CF5
:10199F00F2E48017C3780FE264809480400302154D
:1019AF00F1E4781CF28004E4781CF27811F202154D
:0119BF00F136
:1022ED00007F7F40407F7F007F7F08087F7F000356
:1022FD001F227E7F0300007F7F49497F36004040CB
:10230D007F7F4040007F7F4848783000003E7F410E
:10231D00416322007F7F4848783000031F227E7F73
:10232D00030000707808087F7F0040407F7F4040A9
:10233D00007F7F49497F3600007F7F40407F7F00CF
:10234D0040407F7F4040007F7F08087F7F00003E38
:10235D007F414163220060731B0F7C70007F7F49BA
:10236D00494F4600007F7F49497F36003E7F4141FE
:10237D006322007F7F0814636300007C7C40407CF7
:10238D007C007C7C10107C7C000C3C48787C0C0024
:10239D00007C7C54547C280040407C7C4040007C78
:1023AD007C505070200000387C44446C28007C7CAC
:1023BD0050507020000C3C48787C0C000060701070
:1023CD00107C7C0040407C7C4040007C7C54547CE4
:1023DD002800007C7C40407C7C0040407C7C404060
:1023ED00007C7C10107C7C0000387C44446C280000
:1023FD0064741C187060007C7C54545C4800007C34
:10240D007C54547C2800387C44446C28007C7C101F
:10241D00386C440000607F7F60006F6F007F3F105D
:10242D001F103F7F007F7F4949007F7F63361C006F
:10243D001F3F6C6C3F1F00607F7F60007F7F4949AD
:10244D003F7F4C7F3F007F7F0303003F7F4C7F3FEB
:10245D00007F7F6C6C370000003E41417149493E61
:10246D00000000063A433A06000000007F7F6868CE
:10247D00003E7F417F3E007F3F180C7E7F00607FD6
:10248D007F607F7F41633E1C006F6F00327B496F21
:10249D0026007F7F446C38007F3F101F103F7F0068
:1024AD006F6F007F7F63361C007F7F6C6C387F7F82
:1024BD00497F36007F7F6C6C37006F6F003E7F4128
:1024CD004D2E0000003E41417149493E0000000083
:1024DD0000000011117D1111000000000000007FAF
:1024ED007F417F7F007F7F381C7F7F0000000000D1
:1024FD000000007F7F417F7F007F7F6C6C007F7FBE
:10250D006C6C00000000607F7F6000730B7E7C00B0
:10251D007F7F4C380036007F7F49497F36007F7FB3
:10252D004C4E7B3100360000705070003E7F634191
:10253D00410000000011117D111100007F413E008E
:10254D0032492600224936002345390022493600FA
:0E255D00207F0000123455555555555432104C
:10409A00810E00820FFFFF81160081150281110037
:0B40AA00811C00810000810100C18426
:10459E00E4F59375943FF5917592FFF5957596FF39
:1045AE00F5B175B27F7837E27819F2C206A2C792DA
:1045BE00051240FD78127401F2087400F20874D5E9
:0245CE00F222D7
:0D000E0053B0807590FF75A0FF43803F2226
:1030E3007801E2FEC3940550117819E2FDEEB505AF
:1030F3000312000E7801E204F222E47801F21200D6
:103103000E20050A18E2FEC374159EFF80047800A2
:10311300E2FFEFB4160040030231BD903125F828D9
:10312300287302316702316B02316F02317302314E
:103133007702317B02317F02318302318702318B87
:1031430002318F02319302319702319B02319F0288
:1031530031A30231A70231AB0231AF0231B30231E5
:10316300B70231BBC2908052C291804EC292804A54
:10317300C2938046C2948042C295803EC296803AF2
:10318300C2978036C2A08032C2A1802EC2A2802AFA
:10319300C2A38026C2A48022C2A5801EC2A6801A12
:1031A300C2A78016C2808012C281800EC282800AAA
:1031B300C2838006C2848002C28520050CC37415B5
:1031C3009F2408F8E6F5B0804474082FF8E6FEC49F
:1031D3005402FDEEC4131354014DFE74082FF8E698
:1031E300FD131354044EFEED54084EFE74082FF8DD
:1031F300E6FD25E025E054104EFEEDC454204EFEBE
:1032030074082FF8E6C4333354404EF5B07800E227
:1032130004F2E2D39415400BE4F2A2C79205200610
:0332230002D206CE
:013226002285
:0B4B3600E47816F27811F2781CF222ED
:103D5700123F15781DE27068300467C2047844E2A8
:103D6700603908E2FF781FE26F70307846E2FF782B
:103D77001EE2B507267820E27E007BFE2446F9EE98
:103D87003400FA12068B603A7836E2FF7C007D3CFD
:103D97001206FA7829EEF208EFF2227845E2FF33AD
:103DA70095E0FE781FE2D39FEE6480F87480984018
:103DB70011781EE2700C7832E260077F28024AC44D
:023DC700D20424
:013DC90022D7
:0C40F1007812E4F2087400F2087408F27F
:1040FD007835E214601514601C14602314602A8056
:10410D000078177400F2087482F22278177400F2A6
:10411D000874AAF22278177400F20874D2F2227889
:10412D00177400F20874FAF22278177401F2087409
:03413D0022F22249
:1042BB0078A27425F2087449F2E4FFEFC394165008
:1042CB003478A2E2FC08E2F5828C83E493FE781248
:1042DB00E2FB08E2FA08E2F9EE1206C60F78A3E257
:1042EB002401F218E23400F27814E22401F218E20D
:0542FB003400F280C652
:01430000229A
:102F8F007834E224FE607814700302304814700322
:102F9F000230772404701E781BE2FEC3940F500595
:102FAF00E4FF0230A4EEC3942D50057F030230A43A
:102FBF00E4FF0230A4781BE2FEC394055005E4FF42
:102FCF000230A4EEC3940D50057F010230A4EEC36E
:102FDF00941650057F020230A4EEC3942750057F4C
:102FEF00030230A4EEC3943050057F020230A4EEEA
:102FFF00C3943850057F010230A4E4FF0230A47857
:10300F001BE2FEC394065005E4FF0230A4EEC39406
:10301F001250047F03807EEEC3941E50047F048001
:10302F0074EEC3942A50047F05806AEEC394365021
:10303F00047F068060E4FF805C781BE2FEC3940788
:10304F005004E4FF804FEEC3941650047F07804571
:10305F00EEC3942550047F03803BEEC39434500499
:10306F007F088031E4FF802D781BE2FEC394075068
:10307F0004E4FF8020EEC3941650047F018016EE07
:10308F00C3942550047F02800CEEC3943450047F08
:10309F00018002E4FFE4FEEEC39404503675F004A1
:1030AF00EFA42EF582E435F0F583E582241EF58238
:1030BF00E5833400F583E493FD7812E2FB08E2FA2E
:1030CF0008E2F9ED1206C60EE22401F218E234000E
:0330DF00F280C4B8
:0130E20022CB
:03333000E4FBFDBE
:0A33330078A6EFF208EDF208EBF2C5
:10333D00E408F278A9E2FDC39404506B78A7E2701B
:10334D004608E2600C78A6E275F00A84D39400403A
:10335D003678A6E275F00A8475F004A47C002DFF82
:10336D00EC35F0FE7818E22FFF18E23EFE78AAF257
:10337D0008EFF2F5828E83E493FF7812E2FB08E208
:10338D00FA08E2F9EF800B7812E2FB08E2FA08E2A4
:10339D00F9E41206C678A9E204F27814E22401F2E7
:1033AD0018E23400F2808C7812E2FB08E2FA08E2AF
:1033BD00F9E41206C6E22401F218E23400F2E478D0
:1033CD00A9F278A9E2FDC39404505C78A7E27037A6
:1033DD0018E275F00A84E5F075F004A47C002DFF69
:1033ED00EC35F0FE7818E22FFF18E23EFE78AAF2D7
:1033FD0008EFF2F5828E83E493FF7812E2FB08E288
:10340D00FA08E2F9EF800B7812E2FB08E2FA08E223
:10341D00F9E41206C678A9E204F27814E22401F266
:07342D0018E23400F2809B5D
:013434002275
:10481700781FE2FDD39418500618E2943C40030237
:1048270042BBAF05123330122F8F781EE2FF1233CF
:0248370030222D
:10418F007822E2D3940C500718E2FD9420400302EA
:10419F0042BBAF057B01E4FD123333E4FFEFC39461
:1041AF00045020EF90002293FE7812E2FB08E2FA0F
:1041BF0008E2F9EE1206C60FE22401F218E234000B
:0D41CF00F280DA7822E2FFE4FBFD123333C8
:0141DC0022C0
:103603007820E214B40700507090361A75F003A4C2
:10361300C58325F0C5837302362F02363A02364539
:1036230002365002365B02366602367178A2742285
:10363300F20874EDF2804B78A27423F2087403F25B
:10364300804078A27423F2087419F2803578A2744A
:1036530023F208742FF2802A78A27423F2087445A7
:10366300F2801F78A27423F208745BF2801478A2AC
:103673007423F2087471F2800978A27425F2087435
:1036830049F2E4FFEFC39416503478A2E2FC08E257
:10369300F5828C83E493FE7812E2FB08E2FA08E2F7
:1036A300F9EE1206C60F78A3E22401F218E2340001
:0E36B300F27814E22401F218E23400F280C62C
:0136C10022E6
:102A2B007842E278A3F27825E2FF78A3E22FF21244
:102A3B004BB45016124B6F7C007D0512076178A3C7
:102A4B00EFF230E01FE204F2801A124BA7EF601B8B
:102A5B001200037C007D0512076178A3EFF230E0D2
:102A6B0003E204F278A3E2A2E713F278A3E2FFD326
:102A7B00648094E35003022B12E418F278A2E2C3B1
:102A8B00940450207812E2FB08E2FA08E2F9E4120F
:102A9B0006C678A2E204F27814E22401F218E234BA
:102AAB0000F280D8E478A2F278A2E2FEC39405503B
:102ABB0026EE90007493FE7812E2FB08E2FA08E22D
:102ACB00F9EE1206C678A2E204F27814E22401F2BF
:102ADB0018E23400F280D17812E2FB08E2FA08E245
:102AEB00F9E41206C6E22401F218E23400F218E20D
:102AFB00FB08E2FA08E2F9E41206C6E22401F21836
:102B0B00E23400F2022C18D3EF64809489405CE429
:102B1B0078A2F278A2E2FFC39405507B08E2FE751F
:102B2B00F00A120669FD3395E08D82F58374051268
:102B3B00092FE5822FF582E43583F583E582244264
:102B4B00F582E5833400F583E493FF7812E2FB080A
:102B5B00E2FA08E2F9EF1206C678A2E204F2781460
:102B6B00E22401F218E23400F280A8E478A2F278B1
:102B7B00A2E2C3940550207812E2FB08E2FA08E2C5
:102B8B00F9E41206C678A2E204F27814E22401F208
:102B9B0018E23400F280D87812E2FB08E2FA08E27D
:102BAB00F9E41206C6E22401F218E23400F2E478EA
:102BBB00A2F278A2E2FFC39405505208E2FE75F030
:102BCB000A120669AEF0EEFD3395E08D82F5837443
:102BDB000512092FE5822FF582E43583F583E58213
:102BEB002442F582E5833400F583E493FF7812E207
:102BFB00FB08E2FA08E2F9EF1206C678A2E204F249
:102C0B007814E22401F218E23400F280A57812E283
:102C1B00FB08E2FA08E2F9E41206C6E22401F21814
:102C2B00E23400F218E2FB08E2FA08E2F9E41206D9
:102C3B00C6E22401F218E23400F2E478A2F278A2A0
:102C4B00E2FFC394095026EF90007993FF7812E2CC
:102C5B00FB08E2FA08E2F9EF1206C678A2E204F2E8
:0D2C6B007814E22401F218E23400F280D166
:012C78002239
:1027D800124B5FAB07AA06E478A4F278A4E2FFC321
:1027E80064809484500D74022FF8E4F278A4E20413
:1027F800F280E878A47403F2D3EB9400EA6480943E
:1028080080500978A4E26480948040297C007D0A85
:10281800AF03AE0212076178A4E22402F8EDF27861
:10282800A4E214F27C007D0AAF03AE02120761AA8B
:1028380006AB0780C3E478A4F278A4E2FDC3648001
:102848009484504A7802E275F004A4FFED3395E0D1
:10285800FCEF2DFFE5F03CFE7818E22FFF18E23E72
:10286800FE78A2F208EFF2F5828E83E493FF7812E5
:10287800E2FB08E2FA08E2F9EF1206C678A4E204DD
:10288800F27814E22401F218E23400F280AB7812F4
:10289800E2FB08E2FA08E2F9E41206C6E22401F2D1
:1028A80018E23400F2E478A4F278A4E2FDC364806C
:1028B8009484504A7803E275F004A4FFED3395E060
:1028C800FCEF2DFFE5F03CFE7818E22FFF18E23E02
:1028D800FE78A2F208EFF2F5828E83E493FF781275
:1028E800E2FB08E2FA08E2F9EF1206C678A4E2046D
:1028F800F27814E22401F218E23400F280AB781284
:10290800E2FB08E2FA08E2F9E41206C6E22401F260
:1029180018E23400F2E478A4F278A4E2FDC36480FB
:102928009484504A7804E275F004A4FFED3395E0EE
:10293800FCEF2DFFE5F03CFE7818E22FFF18E23E91
:10294800FE78A2F208EFF2F5828E83E493FF781204
:10295800E2FB08E2FA08E2F9EF1206C678A4E204FC
:10296800F27814E22401F218E23400F280AB781213
:10297800E2FB08E2FA08E2F9E41206C6E22401F2F0
:1029880018E23400F218E2FB08E2FA08E2F97403EC
:102998001206C6E22401F218E23400F218E2FB083B
:1029A800E2FA08E2F974031206C6E22401F218E218
:1029B8003400F218E2FB08E2FA08E2F9E41206C66B
:1029C800E22401F218E23400F2E478A4F278A4E2F6
:1029D800FDC364809484504A7805E275F004A4FF2E
:1029E800ED3395E0FCEF2DFFE5F03CFE7818E22F83
:1029F800FF18E23EFE78A2F208EFF2F5828E83E439
:102A080093FF7812E2FB08E2FA08E2F9EF1206C631
:102A180078A4E204F27814E22401F218E23400F215
:022A280080AB81
:012A2A002289
:1011F600E478A5F208F2124BB45005124B77800939
:10120600124BA7BF600A124B6778A5EEF208EFF201
:10121600E478A4F278A4E2FFC364809485500D7448
:10122600062FF8E4F278A4E204F280E878A47404C5
:10123600F2D378A6E2940018E29400500818E2640B
:10124600809480403278A5E2FA08E2FB7C007D0AB1
:10125600FFAE0212070C78A4E22406F8EDF278A499
:10126600E214F27C007D0AAF03AE0212070C78A5E9
:10127600EEF208EFF280BA7806E260030213ED7828
:10128600A4F278A4E2FDC364809484504A7807E20D
:1012960075F004A4FFED3395E0FCEF2DFFE5F03C7F
:1012A600FE7818E22FFF18E23EFE78A2F208EFF26F
:1012B600F5828E83E493FF7812E2FB08E2FA08E2F5
:1012C600F9EF1206C678A4E204F27814E22401F2D9
:1012D60018E23400F280AB7812E2FB08E2FA08E288
:1012E600F9E41206C6E22401F218E23400F2E478C8
:1012F600A4F278A4E2FDC364809484504A7808E29C
:1013060075F004A4FFED3395E0FCEF2DFFE5F03C0E
:10131600FE7818E22FFF18E23EFE78A2F208EFF2FE
:10132600F5828E83E493FF7812E2FB08E2FA08E284
:10133600F9EF1206C678A4E204F27814E22401F268
:1013460018E23400F280AB7812E2FB08E2FA08E217
:10135600F9E41206C6E22401F218E23400F218E2B9
:10136600FB08E2FA08E2F974031206C6E22401F267
:1013760018E23400F218E2FB08E2FA08E2F9E41295
:1013860006C6E22401F218E23400F2E478A4F27808
:10139600A4E2FDC36480948440030215547809E2F4
:1013A60075F004A4FFED3395E0FCEF2DFFE5F03C6E
:1013B600FE7818E22FFF18E23EFE78A2F208EFF25E
:1013C600F5828E83E493FF7812E2FB08E2FA08E2E4
:1013D600F9EF1206C678A4E204F27814E22401F2C8
:1013E60018E23400F280A87812E2FB08E2FA08E27A
:1013F600F9E41206C6E22401F218E23400F2E478B7
:10140600A4F278A4E2FDC364809484504A7806E28C
:1014160075F004A4FFED3395E0FCEF2DFFE5F03CFD
:10142600FE7818E22FFF18E23EFE78A2F208EFF2ED
:10143600F5828E83E493FF7812E2FB08E2FA08E273
:10144600F9EF1206C678A4E204F27814E22401F257
:1014560018E23400F280AB7812E2FB08E2FA08E206
:10146600F9E41206C6E22401F218E23400F2E47846
:10147600A4F278A4E2FDC364809484504A7807E21B
:1014860075F004A4FFED3395E0FCEF2DFFE5F03C8D
:10149600FE7818E22FFF18E23EFE78A2F208EFF27D
:1014A600F5828E83E493FF7812E2FB08E2FA08E203
:1014B600F9EF1206C678A4E204F27814E22401F2E7
:1014C60018E23400F280AB7812E2FB08E2FA08E296
:1014D600F9E41206C6E22401F218E23400F2E478D6
:1014E600A4F278A4E2FDC364809484504A7808E2AA
:1014F60075F004A4FFED3395E0FCEF2DFFE5F03C1D
:10150600FE7818E22FFF18E23EFE78A2F208EFF20C
:10151600F5828E83E493FF7812E2FB08E2FA08E292
:10152600F9EF1206C678A4E204F27814E22401F276
:1015360018E23400F280AB7812E2FB08E2FA08E225
:10154600F9E41206C6E22401F218E23400F2781237
:10155600E2FB08E2FA08E2F9E41206C6E22401F226
:1015660018E23400F218E2FB08E2FA08E2F97462C3
:101576001206C6E22401F218E23400F218E2FB0871
:10158600E2FA08E2F974641206C6E22401F218E2ED
:101596003400F218E2FB08E2FA08E2F974081206CF
:1015A600C6E22401F218E23400F218E2FB08E2FA7D
:1015B60008E2F974131206C6E22401F218E23400B6
:1015C600F218E2FB08E2FA08E2F974231206C6E210
:0815D6002401F218E23400F2D6
:0115DE0022EA
:10460200781FE2FFC3941850257837E26406701EC3
:10461200EF781F30E009E2C31390255F938008E230
:0F462200C31390255F93C4540FFF7819EFF22252
:104345001240F1124602781CE2B407005030904347
:104355005AF828287302436F0243710243740243DB
:104365007702437A02437D024380801202418F0225
:104375003603022A2B0227D80211F6023C6812489E
:024385001722FD
:04456700E49308F2DF
:10456B00ED1206A412068BFF78A7E2D36480F8EF56
:10457B00648098400678A6E21206C612068BFF7876
:10458B00A6E2C36480F8EF648098500678A7E21225
:03459B0006C6222F
:104A1C007BFE7A007915AD0778A67402F208740B48
:054A2C00F212456B22AF
:10389F007815E224FEB40A0050669038B775F0032D
:1038AF00A4C58325F0C583730238D50238DB0238EF
:1038BF00E10238E70238ED0238F30238F90238FF37
:1038CF0002390502390B7E247F2180347E247F3715
:1038DF00802E7E247F4D80287E247F6380227E244D
:1038EF007F79801C7E247F8F80167E247FA5801099
:1038FF007E247FBB800A7E247FD180047E257F3388
:10390F00E4FDEDC3941650158F828E83E493FC74FF
:0D391F00082DF8A6040D0FBF00010E80E575
:01392C002278
:103435001240F1781AE2FFC3940F5004C200800CC9
:10344500EFC3942D5004D2008002C2007824E270AC
:103455007678A2F278A2E2C3940950207812E2FBB2
:1034650008E2FA08E2F9E41206C678A2E204F27864
:1034750014E22401F218E23400F280D8E478A2F2D2
:1034850078A2E2FFC394045026EF90002A93FF78B8
:1034950012E2FB08E2FA08E2F9EF1206C678A2E2A8
:1034A50004F27814E22401F218E23400F280D178B3
:1034B5001DE2FF7824E2FE700A300003EE60047D11
:1034C50001806C7D008068781FE2FF7824E2FEB4FD
:1034D500020B300004640260047D0180027D00E47B
:1034E500FB123333E478A2F278A2E2FFC3940450CE
:1034F50026EF90002A93FF7812E2FB08E2FA08E231
:10350500F9EF1206C678A2E204F27814E22401F279
:1035150018E23400F280D1781EE2FF7824E2FEB48E
:10352500010B300004640160047D0180027D00E42C
:04353500FB1233331F
:01353900226F
:103227001240F1781AE2FFC3940F5004C200800CD9
:10323700EFC3942D5004D2008002C2007824E264C8
:103247000660030232CD7812E2FB08E2FA08E2F9DF
:10325700E41206C6E22401F218E23400F218E2FB97
:1032670008E2FA08E2F9E41206C6E22401F218E2DB
:103277003400F2E4FBFD7F141233337812E2FB08CB
:10328700E2FA08E2F9E41206C6E22401F218E2348F
:1032970000F27823E2FF08E2FEB4060B3000046474
:1032A7000660047D0180027D00E4FB12333378124F
:1032B700E2FB08E2FA08E2F9E41206C6E22401F2A8
:1032C70018E23400F2227821E2FF7824E2FEB40407
:1032D7000B300004640460047D0180027D007B01E3
:1032E700123333E4FFEFC394045020EF900022938E
:1032F700FE7812E2FB08E2FA08E2F9EE1206C60FC0
:10330700E22401F218E23400F280DA7822E2FF7850
:1033170024E2FEB4050B300004640560047D0180DF
:08332700027D00E4FB123333C8
:01332F00227B
:101D21001240F1784EE2FF704C7844E278A46009E9
:101D31007424F20874E7F280077424F20874FDF247
:101D4100E478A2F278A2E2FEC394164003022023B3
:101D510078A4E2FC08E2F5828C83E493FD74082EFA
:101D6100F8A60578A2E204F278A5E22401F218E2CD
:101D71003400F280CFEF6401600A784EE2640260C1
:101D810003021E0B781AE2FFC3940F5004C20080B5
:101D91000CEFC3942D5004D2008002C2007845E2BA
:101DA100FF784EE2FEB4010B300004640160047D53
:101DB1000180027D00E4FB123333E478A2F278A2C1
:101DC100E2FFC394045026EF90002A93FF7812E2B9
:101DD100FB08E2FA08E2F9EF1206C678A2E204F281
:101DE1007814E22401F218E23400F280D17846E25C
:101DF100FF784EE2FEB4020B300004640260047D01
:101E01000180027D00E4FB023333781AE2FFC394C0
:101E11001B5004C200800CEFC394215004D20080F7
:101E210002C200784EE224FDB40700506E901E3CC1
:101E310075F003A4C58325F0C58373021E51021EEC
:101E41005C021E67021E72021E7D021E88021E9324
:101E510078A47423F2087487F2804078A47423F282
:101E610008749DF2803578A47423F20874B3F2806B
:101E71002A78A47423F20874C9F2801F78A4742309
:101E8100F20874DFF2801478A47423F20874F5F276
:101E9100800978A47424F208740BF2E478A2F27831
:101EA100A2E2FFC394164003022023E408F2EF12DA
:101EB10009401EE1011EE1021F0E041F0E051F3B1A
:101EC100071F3B081F680A1F680B1F8B0D1F8B0E16
:101ED1001FAE101FAE111FD1131FD11400001FF52B
:101EE100784EE2FF640360057847E2704AEF6403CD
:101EF1006003021FF57847E2FF6003300039EF60AD
:101F010003021FF5200003021FF5021FF0784EE2C5
:101F1100FF640460057848E2701DEF640460030209
:101F21001FF57848E2FF600330000CEF6003021FE9
:101F3100F5200003021FF5021FF0784EE2FF640551
:101F410060057849E2701DEF64056003021FF578B2
:101F510049E2FF600330000CEF6003021FF520002F
:101F610003021FF5021FF0784EE2FF640660057858
:101F71004AE27014EF6406707B784AE2FF60033036
:101F81000006EF706F30006C8065784EE2FF6407E9
:101F91006005784BE27014EF64077058784BE2FFEC
:101FA1006003300006EF704C3000498042784EE209
:101FB100FF64086005784CE27014EF6408703578AE
:101FC1004CE2FF6003300006EF7029300026801FCD
:101FD100784EE2FF6409600418E27013EFB409144B
:101FE100784DE2FF6003300006EF7008300005789D
:101FF100A37401F278A4E2FE08E2F5828E83E493F1
:10200100FF78A3E2FEEF4EFF18E22408F8A6077856
:10201100A2E204F278A5E22401F218E23400F2020D
:022021001EA0FF
:01202300229A
:104966007BFE7A007935AD0790450CE49378A6F284
:0749760090451F1245672266
:074B7F001240F11248172259
:10497D007BFE7A007933AD0790450AE49378A6F271
:07498D0090451D1245672251
:1039BB007812E4F2087400F2087408F2E4FFEFC323
:1039CB0094105020EF90251393FE7812E2FB08E23F
:1039DB00FA08E2F9EE1206C60FE22401F218E234FD
:1039EB0000F280DA7812E2FB08E2FA08E2F9E4125C
:1039FB0006C6E22401F218E23400F2E4FFEFC394AE
:103A0B000550387833E275F005A42FF582E435F0D4
:103A1B00F583E5822442F582E5833400F583E49354
:103A2B00FE7812E2FB08E2FA08E2F9EE1206C60F84
:0B3A3B00E22401F218E23400F280C225
:013A4600225D
:104994007BFE7A007934AD0790450BE49378A6F258
:0749A40090451E1245672239
:074B86001240F11248172252
:104839007BFE7A007937AD0790450EE49378A6F2AE
:104849009045211245677837E27819F2124602221B
:103A47007812E4F2087400F2087408F2E4FFEFC396
:103A570094105020EF90252393FE7812E2FB08E2A2
:103A6700FA08E2F9EE1206C60FE22401F218E23470
:103A770000F280DA7812E2FB08E2FA08E2F9E412CF
:103A870006C6E22401F218E23400F2E4FFEFC39421
:103A97000550387837E275F005A42FF582E435F044
:103AA700F583E5822442F582E5833400F583E493C8
:103AB700FE7812E2FB08E2FA08E2F9EE1206C60FF8
:0B3AC700E22401F218E23400F280C299
:013AD20022D1
:1049AB007BFE7A007932AD07904509E49378A6F245
:0749BB0090451C1245672224
:104631007832E260067E247FE780047E247FFDE4F9
:10464100FDEDC3941650158F828E83E493FC74089C
:0C4651002DF8A6040D0FBF00010E80E53F
:01465D00223A
:1049C2007BFE7A007943AD0790451AE49378A6F20C
:0749D20090452D12456722FC
:10256B007812E4F2087400F2087408F27843E2FF80
:10257B00C36480948040028001D39200300005EF49
:10258B00F40480037843E278A5F2E478A4F278A40B
:10259B00E2FFC364809483500D740B2FF8E4F27840
:1025AB00A4E204F280E878A47402F278A5E2D39452
:1025BB0000500818E264809480401E78A5E2FF75F5
:1025CB00F00A8418E2240BF8E5F0F278A4E214F296
:1025DB00EF75F00A8408F280D278A57403F220001C
:1025EB0004E22405F2780BE2701178A5E22405F2DF
:1025FB00780CE2700678A5E22405F2E478A4F27870
:10260B00A5E2FF18E2FD3395E0FCC3ED9F7480F863
:10261B006C9850207812E2FB08E2FA08E2F9E41217
:10262B0006C678A4E204F27814E22401F218E2342C
:10263B0000F280CB300046E478A4F278A4E2C364C5
:10264B0080948450217812E2FB08E2FA08E2F974D4
:10265B00081206C678A4E204F27814E22401F218F8
:10266B00E23400F280D57812E2FB08E2FA08E2F9D4
:10267B00E41206C6E22401F218E23400F2780BE20F
:10268B00D394004070E478A4F278A4E2FDC3648094
:10269B009484504A780BE275F004A4FFED3395E077
:1026AB00FCEF2DFFE5F03CFE7818E22FFF18E23E21
:1026BB00FE78A2F208EFF2F5828E83E493FF781294
:1026CB00E2FB08E2FA08E2F9EF1206C678A4E2048C
:1026DB00F27814E22401F218E23400F280AB7812A3
:1026EB00E2FB08E2FA08E2F9E41206C6E22401F280
:1026FB0018E23400F2780BE2D39400500608E2940F
:10270B00004070E478A4F278A4E2FDC36480948462
:10271B00504A780CE275F004A4FFED3395E0FCEF22
:10272B002DFFE5F03CFE7818E22FFF18E23EFE7815
:10273B00A2F208EFF2F5828E83E493FF7812E2FBAC
:10274B0008E2FA08E2F9EF1206C678A4E204F2787E
:10275B0014E22401F218E23400F280AB7812E2FBAF
:10276B0008E2FA08E2F9E41206C6E22401F218E2E2
:10277B003400F2E478A4F278A4E2FDC3648094847C
:10278B00504A780DE275F004A4FFED3395E0FCEFB1
:10279B002DFFE5F03CFE7818E22FFF18E23EFE78A5
:1027AB00A2F208EFF2F5828E83E493FF7812E2FB3C
:1027BB0008E2FA08E2F9EF1206C678A4E204F2780E
:0C27CB0014E22401F218E23400F280ABAA
:0127D70022DF
:1049D9007BFE7A007942AD07904519E49378A6F2F7
:0749E90090452C12456722E6
:104AB4007812E4F2087400F2087408F2122A2B2225
:103C6800780FE2FE08E2FF24EA78A3F2EE34FF18A8
:103C7800F2780EE22416FDE433FCD3EF9DEC648069
:103C8800F8EE648098400E74FF780FF208F2E4783A
:103C98001CF27811F2E4FFEFFD78A3E22DFD18E2A3
:103CA8003400FCC3648094804025780EE2FBED9BD1
:103CB8007480F86C98501878A208E22F24D5F58201
:103CC800E43400F583E0FE74082FF8A60680067435
:0A3CD800082FF8E4F60FEFB416BD54
:013CE20022BF
:10493500780EE2C394FE5010E2FE04F274D52EF513
:0949450082E43400F583EFF02256
:043DCA0078A3EFF2F9
:103DCE00E4780EF278A4F278A3E214FF08E2C39F1F
:103DDE00505A12068BFDC394A0400674C02DFD8070
:103DEE000EEDC39420400674E02DFD80027D1FE48D
:103DFE00FC75F005EDA42CF582E435F0F583E58233
:103E0E00244AF582E5833401F583E493FF64A560CB
:103E1E00031249350CECB405D8E4FF12493578A4E9
:0C3E2E00E204F2740129F9E43AFA809BE6
:013E3A002265
:10001E000000000000080800001C1C00003636001E
:10002E00002436000024240000240000003030009C
:10003E00000606007F7F417F7F00007F7F000F4F0D
:10004E004979794149497F7F7878087F7F79794965
:10005E004F0F7F7F494F0F4040407F7F7F7F497F0B
:10006E007F7879497F7F3040454830705070003E30
:10007E007F6341417F41417F00007F004F494979B5
:10008E004949497F7808087F7949494F7F49494F47
:10009E004040407F7F49497F7949497F3E45413EF7
:1000AE0000217F0123454931425169460C14245FDA
:1000BE007251514E1E294906404F5060367F4936C7
:1000CE0030494A3C7E41413F00407F000F4949394B
:1000DE004949493E7C04041F7849490F7F49490725
:1000EE006040403F7E49493F7849493F7F63637F87
:1000FE0000607F006F6B6B7B6B6B6B7F7878087F1C
:10010E007B7B4B4F7F7F494F40407F7F7F6B6B7F69
:10011E007969497F007F417F00007F00004F497958
:10012E000049497F0078087F0079494F007F494F89
:10013E000040407F007F497F0079497F000000002A
:10014E00A57DA5A5A5A5700070A5A5147F147F1487
:10015E00122A7F2A24626408132336495522055039
:10016E0060A5A5A51C2241A5A541221CA5A5140884
:10017E003E081408083E08080506A5A5A5040404B3
:10018E0004A501A5A5A5A502040810203E41413EE7
:10019E00A500217F01A521434539A522414936A558
:1001AE000C14247FA57251514EA53E494926A540F7
:1001BE00474870A536494936A53249493EA512A58C
:1001CE00A5A5A50112A5A5A508142241A5141414D0
:1001DE00141441221408A520404548303E415D5577
:1001EE003C1F2444241F7F494949363E4141412248
:1001FE007F4141221C7F494949417F484848403E42
:10020E004149492F7F0808087F417F41A5A502017A
:10021E00417E407F081422417F010101A57F2018F5
:10022E00207F7F1008047F3E4141413E7F48484871
:10023E00303E4145423D7F484C4A3132494949267C
:10024E0040407F40407E0101017E700C030C707EA9
:10025E00010E017E6314081463700807087043458D
:10026E004951617F4141A5A50C123F120441417FC6
:10027E00A5A5102040201001010101014020A5A5D7
:10028E00A5021515150F7F0911110E0E1111110270
:10029E000E1111097F0E1515150C083F4840201838
:1002AE002525253E7F0810100F115F01A5A502011F
:1002BE00115EA57F040A11A5417F01A5A51F100C93
:1002CE00100F1F08100FA50E1111110E3F24222220
:1002DE001C1C2222243F1F081008A5081515150204
:1002EE00107E1101021E0101021F18060106181EC2
:1002FE000106011E110A040A11180505051E111327
:10030E00151911083641A5A57FA5A5A5A541360845
:10031E00A5A508100810A5A5A5A5A5A5021E3F1EFA
:10032E00023049294936184525451E0201417E40B5
:10033E002A1C771C2A3F202020607F7F7F7F7F7FB3
:10034E007F7F7F7F3F692969217F7F7F7F7F3E4946
:10035E0049412208142A14227F7F7F7F7F1E29277E
:10036E00211E7F7F7F7F7F413F41A5A500304848FA
:10037E003009097D0909417F41A5A5115F01A5A598
:10038E001F101058A57F7F7F7F7F7F7F7F7F7F7FAE
:10039E007F7F7F7F0E5515550C7F7F7F7F7F0E15DC
:1003AE0015110A22142A14087F7F7F7F7F7F7F7F9B
:1003BE007F7F7F7F7F7F7F511F51A5A53F444444A0
:1003CE003F7F494949467F494949367F4040406011
:1003DE00033E427E037F4949494177087F087741B2
:1003EE00494949367F0408107F3F0264083F7F0861
:1003FE00142241011E20407F7F2018207F7F080895
:10040E00087F3E4141413E7F4040407F7F48484803
:10041E00303E4141412240407F4040700909097EF3
:10042E003C42FF423C63140814637F01017F01705C
:10043E000808087F7F017F017F7E027E027F407F5A
:10044E000909067F0906007F7F0911110E22414915
:10045E00493E7F083E413E314A4C487F02151515F4
:10046E000F1E292949061F15150AA51F101018A5BC
:10047E00030E121E030E1515150C1B041F041B1163
:10048E0015150AA51F0204081F1F4224481F1F042A
:10049E000A11A50708101FA51F0804081F1F040432
:1004AE001FA50E1111110E1F10101FA51F141212D1
:1004BE000C0E1111110210101F1010180505051E3B
:1004CE000C129F120C110A040A111F01011F0118B0
:1004DE0004041FA51F011F011F1E021E021F101F55
:1004EE000505021F0502001F1F050502A50A1115AD
:0C04FE00150E1F040E110E081516141F19
:1046E30000000001010100FF003B3B17071F0C63A3
:1046F300FF630000001F003B005A0078009700B5DD
:0A47030000D400F301110130014E53
:103F81007822E2FFD3940240047E0080027E017811
:103F910023E2240CC39EFDEE75F00CA42F24FEF940
:103FA100EDFF7821E22FFFE433FEED1313543F7C44
:103FB100002FFBEC3EFAE975F01FA4FFAEF07D0C7B
:103FC10012070CEF2BFFEE3ACF24FFCF34FFFE7C1C
:103FD100007D0712070CAF057820EFF2700374071C
:013FE100F2ED
:013FE20022BC
:1047D1007822E2FFB4021008E2540360047E1D80D7
:1047E100027E1CAF06800BEFD3940740010FEF440C
:0247F1001EFFA9
:0147F30022A3
:104140007FD01249017F0A1247357F81124735120D
:104150004AE37FD01249017F0D1247357F81124714
:10416000357F04124735E4FF1247357843E2FF12EA
:104170004735124AE3123F157820E278A2F2123F47
:0E418000817820E2FF78A2E26F600312468B86
:01418E00220E
:10470D007FD0124901E4FF124735E478A2F278A276
:10471D00E2FFD39402500D1247F412473578A2E20E
:07472D0004F280EA124AE3E6
:014734002262
:10468B00123F817FD01249017F0312473578A37403
:10469B0003F278A3E2FFD39406500D1247F41247AE
:0B46AB003578A3E204F280EA124AE333
:0146B60022E1
:104A31007FD01249017F101247357843E2FF1247B8
:054A410035124AE322DA
:103F15007FD0124901E4FF124735124AE37FD112DF
:103F25004901E478A3F278A3E2FFD39406502BEF7E
:103F3500B40603C38001D392011245D078A4EFF2F1
:103F4500124AD478A3E27C007BFE241DF9EC3400F0
:103F5500FAEF1206C6E204F280CC124AE37FD012D1
:103F650049017F11124735124AE37FD1124901C237
:0B3F7500011245D07825EFF2124AE35C
:013F8000221E
:04392D0078A2EFF29B
:103931007824E2FFFD7C00241DF9EC3400FA78A321
:1039410074FEF208EAF208E9F27BFF74EC2DF9EC5F
:103951003446FA12068BFEEF24E3F9EC3446FA12F0
:10396100068BFD7824E2B404051247D1AE0778A294
:10397100E2FF08E2FB08E2FA08E2F9EF1206A47896
:10398100A3E2FB08E2FA08E2F912068BFFD3EE6428
:1039910080F8EF6480984004ED1206C678A3E2FB3C
:1039A10008E2FA08E2F912068BFFC3ED6480F8EF32
:0939B1006480985004EE1206C671
:0139BA0022EA
:104785007824E2601024FE600A24FE24FD500424EF
:1047950006700E800678247404F2227824E214F25E
:0747A5002278247402F222C5
:104482007822E2FF25E024F3F582E43446F583182E
:10449200E2FD7401932DFDE4933400FC7823E25491
:1044A20003700CEFD3940240067E007F0180047EED
:0A44B200007F00ED2FFFEC3EFE221C
:0F4AD400EFC4540F75F00AA4FEEF540F2EFF220B
:1047F4007E007BFE741D2FF9EE3400FA12068BFF47
:10480400EF75F00A84C454F0FEEF75F00A84E5F005
:034814002EFF2252
:104AA300124BA2D2C1124BA2A2C29203C2C1A20351
:014AB30022E0
:074B8D00A20292C2024AA33A
:1048E70078A2EFF2D2C1D2C2124BA2C2C2124BA21D
:0A48F700C2C178A2E2FF12475D2261
:1049010078D2EFF2D2C1D2C2124BA2C2C2124BA2D2
:0A491100C2C178D2E2FF124735223E
:0F4AE300C2C1C2C2124BA2D2C1124BA2D2C22276
:0447350078D3EFF254
:10473900E408F2F278D3E2339202124B8D78D3E295
:10474900FF25E0F208E204F2E2C3940840E6D2024F
:03475900124B8D73
:01475C00223A
:04475D0078A3EFF25C
:10476100E408F2F278A3E2339202124B8D78A3E2CD
:10477100FF25E0F208E204F2E2C3940840E6D2C267
:03478100124AA336
:014784002212
:1045D000D2C2E478D3F218F278D3E2FF25E0F212E7
:1045E0004AA3500678D3E24401F278D2E204F2E220
:1045F000C3940840E3A201B39202124B8D78D3E238
:01460000FFBA
:014601002296
:044BA2007F02DFFEB1
:014BA60022EC
:0A4B4100EF60077E13DEFE1F80F612
:014B4B002247
:0E4AF200EF600B7E127DEBDDFEDEFC1F80F21E
:014B00002292
:1040B500812D00812B0082290000812C00812EFAA0
:0A40C500812F0082260000812800F0
:10353A00E4FF20C6010F20C504EF4402FF20C404A3
:10354A00EF4404FFEF602A7828E2FEB5071D18E26F
:10355A002401F218E23400F208E2647D700218E2F3
:10356A007035EEC454F0782FF2802C7828EFF28070
:10357A00267826E2FE08E2FFD39419EE648094804E
:10358A00400FEF947DEE64809480500508E2782F16
:10359A00F2E47826F208F2782EE26005E214F2806C
:1035AA0028782E74FAF218E26003E214F2782BE219
:1035BA006003E214F2782AE2700218E2600B782AB9
:1035CA00E224FFF218E234FFF2782CE26005E214FA
:1035DA00F2800E782AE2700218E26005782C74FAFA
:1035EA00F2782CE2540ED39408400B782EE2D3944E
:0835FA007D4005C2C322D2C3CB
:0136020022A5
:104AC400782CEFF2782E74FAF2E47829F208F222C4
:064B9400782FE2FFE4F2BD
:014B9A0022F8
:1044F500FF00010000010500071E01010101010087
:10450500000000FF000100000000000000000000A6
:1045150000000000F780FF01050404010601173BB8
:0945250001010101010101097FFE
:0340CF008130003D
:103FE300D200E478A3F278A3E2FFC39409501D7EC4
:103FF300007BFE74382FF9EE3400FA12068BF4605E
:1040030004C200800778A3E204F280DA30002EE4D1
:1040130078A3F278A3E2FF7C007BFF24F5F9EC346C
:1040230044FA12068BFEEF1B2431F9EC3400FAEE4E
:0D4033001206C6E204F2E2B413D9124409E9
:01404000225D
:1044BC00E478A2F278A2E2FDC3941350287830E29B
:1044CC0025E0FE7C00E42DFFEC3EFE12494E78A266
:1044DC00E27C007BFE2431F9EC3400FAEF1206C6C4
:0844EC00E204F280CF123FE36D
:0144F40022A5
:104409007830E2FF7E00124A06E478A4F278A4E24A
:10441900FDC3941350267830E225E0FE7C00E42D9C
:10442900FFEC3EFE7BFE74312DF9EC3400FA1206E6
:0C4439008BFD12491B78A4E204F280D134
:014445002254
:1049F00000000000000000000000FF01173B010163
:064A00000101010101FFAC
:10452E00E478A2F278A2E2FFFD3395E0FC7BFE7404
:10453E00382DF974003CFA12068BFEEF3395E0FC31
:10454E0074442DF974003CFAEE1206C6E204F2E24F
:08455E00B40AD1784E74FFF29B
:014566002232
:10444600E478A2F278A2E2FFFD3395E0FC7BFE74ED
:10445600442DF974003CFA12068BFEEF3395E0FC0E
:1044660074382DF974003CFAEE1206C6E204F2E244
:0B447600B40AD1124409784E74FFF222
:014481002218
:104A4600784EE2C3648094894003E4F222784EE211
:034A560004F22245
:043AD30078A2EFF2F4
:103AD700784EE2FFFD3395E0FC74442DF974003C09
:103AE700FA78A374FEF208EAF208E9F27BFF74FBA6
:103AF7002DF974493CFA12068BFEEFFD3395E0FC75
:103B070074F02DF974493CFA12068BFF78A2E2FD96
:103B170008E2FB08E2FA08E2F9ED1206A478A3E24C
:103B2700FB08E2FA08E2F912068BFDD3EE6480F88F
:103B3700ED6480984004EF1206C678A3E2FB08E222
:103B4700FA08E2F912068BFDC3EF6480F8ED648092
:073B5700985004EE1206C6AF
:013B5E002244
:0D4B1D00E4F5C7F5C5F5C675C380F5C422E3
:10494E0075C78275C5018FC4EEF5C375C65A75C697
:07495E00A500AFC2124B1DC2
:01496500222F
:10491B0075C78275C5028FC4EEF5C3AF058FC2751F
:0A492B00C65A75C6A500124B1D22E6
:104A060075C78275C5038FC4EEF5C375C65A75C6DC
:064A1600A500124B1D2259
:014BB70022DB
:104A5900438E805389F0E4F58A758CF7C28DD28C28
:034A6900D2A922AD
:094B5600124A59124BB7D2AF22EA
:03000B000241DDD2
:1041DD00C0E0C0F0C083C082C0D075D000C000C0A8
:1041ED0001C002C003C004C005C006C0071230E301
:1041FD00784FE204F2E2D394204005E4F212353A0E
:10420D00D007D006D005D004D003D002D001D00005
:0B421D00D0D0D082D083D0F0D0E032AF
:03001B00024BB8DD
:014BB80032CA
:1019C000D120CDCEC2DBCC20C3CEC4CECC212121B0
:1019D00000D0EEE6E4E5F1F2E2EE20F5F0E8F1F217
:1019E000EEE2EE2E00D1F2E0F0FBE920CDEEE2FBDC
:1019F000E920E3EEE42E00CAF0E5F9E5EDE8E520A4
:101A0000C3EEF1EFEEE4EDE52E00D2E0F2FCFFEDE7
:101A1000E8ED20E4E5EDFC2E00C4E5EDFC20E2F16C
:101A2000E5F520E2EBFEE1EBB8EDEDFBF52E00C4B1
:101A3000E5EDFC20E7E0F9E8F2EDE8EAE020CEF29F
:101A4000E5F7E5F1F2E2E02E00CCE5E6E4F3EDE0C7
:101A5000F0EEE4EDFBE920E6E5EDF1EAE8E920E46B
:101A6000E5EDFC2E00C4E5EDFC20ECEEF0FFEAE035
:101A70002DEFEEE4E2EEE4EDE8EAE02E00C4E5ED61
:101A8000FC20F1ECE5F5E02E00C4E5EDFC20EAEEEB
:101A9000F1ECEEEDE0E2F2E8EAE82E00CFF0E0E76C
:101AA000E4EDE8EA20C2E5F1EDFB20E820D2F0F316
:101AB000E4E02E00C4E5EDFC20EFEEE1E5E4FB21DF
:101AC000212100C4E5EDFC20EFE8EEEDE5F0E8E8CB
:101AD0002E00C4E5EDFC20EFEEE3F0E0EDE8F7EDDD
:101AE000E8EAE02E00C4E5EDFC20E7E0F9E8F2FBCF
:101AF00020E4E5F2E5E92E00C4E5EDFC20D0CED1EE
:101B0000D1C8C82E00C4E5EDFC20ECEEEBEEE4E518
:101B1000E6E82E00C4E5EDFC20F1E5ECFCE82C2025
:101B2000EBFEE1E2E820E820E2E5F0EDEEF1F2E89C
:101B30002E00C4E5EDFC20C2EEE7E4F3F8EDEE2D57
:101B4000E4E5F1E0EDF2EDFBF520E2EEE9F1EA2E5D
:101B500000C4E5EDFC20C2EEE5EDEDEE2DE2EEE792
:101B6000E4F3F8EDFBF520F1E8EB2E00C4E5EDFC25
:101B700020E7EDE0EDE8E92E00C4E5EDFC20F3F709
:101B8000E8F2E5EBFF2E00C4E5EDFC20F0EEE6E424
:101B9000E5EDE8FF20C4E5E4E020CCEEF0EEE7E080
:101BA0002E00C4E5EDFC20EDE5F0E3E5F2E8EAE027
:101BB0002E00C4E5EDFC20EFF0EEE3F0E0ECECE805
:101BC000F1F2E02E00C4E5EDFC20ECE5E4E8F6E8F7
:101BD000EDF1EAEEE3EE20F0E0E1EEF2EDE8EAE02E
:101BE0002E00C4E5EDFC20F1E8F1F2E5ECEDEEE3CA
:101BF000EE20E0E4ECE8EDE8F1F2F0E0F2EEF0E007
:101C00002E00C4E5EDFC20C2EEE5EDEDEE2DCCEEB0
:101C1000F0F1EAEEE3EE20D4EBEEF2E02E00CCE5BC
:101C2000E6E4F3EDE0F0EEE4EDFBE920E4E5EDFCC5
:101C300020EFE8E2E02E00C4E5EDFC20F1F2F0EE4A
:101C4000E8F2E5EBFF2E00C4E5EDFC20F2E0EDEA62
:101C5000E8F1F2E02E00C4E5EDFC20E0E2F2EEEC6B
:101C6000EEE1E8EBE8F1F2E02E00C4E5EDFC20EC5B
:101C7000E0F2E5F0E82E0001011119C00107141986
:101C8000D1010E1219E501131319F701190F1A0AE0
:101C9000020E161A1902171A1A2F03081C1A4903E2
:101CA00013181A6504010C1A7D040C131A89050116
:101CB000181A9C05090F1AB405130F1AC3051C1333
:101CC0001AD20601131AE5060C0D1AF8061B0F1B93
:101CD0000507081E1B1408021F1B32080C1B1B5192
:101CE00009010D1B6C0A050E1B790B121B1B870CBF
:101CF00016101BA26100131BB236071D1BC577050A
:101D0000201BE277071C1C021805191C1E2807104F
:101D10001C3729070F1C477A07141C567B070D1C1C
:011D20006A58
:0240D200C10724
:104041007820E278A3F27F057850E4F208DFFC7F64
:10405100057821E278A3F278A3E2D36480948740C3
:1040610006E224F9F280F01247D1AE07E4FFEFC374
:1040710094055024EEFD78A3E2F9FB3395E0FAD3E1
:10408100EB9D7480F86A98500F74502FF8E9F20F85
:0840910078A3E22407F280D6B7
:014099002204
:104879007854E2FF700C7821E2FE7853E2B5060A1B
:0C488900D3227821E2B50702D322C3221B
:104A6C0074502FF8E2FF7821E2FEEFB50603D380F5
:034A7C0001C32251
:102E1400C207E4780EF2124041E478A2F278A2E20A
:102E2400FFC394224003022F8E300703022F8EEF3C
:102E340075F005A42477F582E4341CF583E493FF4C
:102E440054F0FEC4540F1424FB503F7003022EDAD6
:102E5400147003022F1424076003022F8078A2E267
:102E640075F005A42478F582E4341CF583E493FE1C
:102E74007821E2FDEE6D6003022F86EF540FFF0808
:102E8400E26F6003022F86022F4C78A2E2FF75F0F6
:102E940005A42477F582E4341CF583E493FE540FEF
:102EA400FD7822E26D6003022F86EF75F005A424FD
:102EB40078F582E4341CF583E493FF7820E26F60B4
:102EC40003022F86EE5470C4540F14FF124A6C4050
:102ED40003022F868072124482AC06AD0778A2E208
:102EE400FB75F005A42477F582E4341CF583E493A0
:102EF4005401FEEB75F005A42478F582E4341CF546
:102F040083E493FBEB6D7002EC6E7076D207803C29
:102F140078A2E2FF75F005A42477F582E4341CF569
:102F240083E493540FFE7822E26E7056EF75F00539
:102F3400A42478F582E4341CF583E493FF7820E23A
:102F44006F703F124879503AD20778A2E2FE75F0CA
:102F540005A42479F582E4341CF583E493FFEE752B
:102F6400F005A4247AF582E4341CF583E493FC741C
:102F74000193AA04F97BFF123DCA8006C207E478D4
:0A2F84000EF278A2E204F2022E2100
:012F8E002220
:1040D4008174EC815B00825C000082550000827573
:0240E4000000DA
:1048590078A2EFF208EDF27874E2FF12490178A22A
:10486900E2FF12473578A3E2FF124735124AE322E5
:0446B70078A2EFF204
:1046BB007874E2FF12490178A2E2FF124735787451
:1046CB00E24401FF124901C2011245D078A3EFF277
:0746DB00124AE378A3E2FF9D
:0146E20022B5
:0443870078CFEFF20A
:10438B007874E2FF12490178CFE2FF124735787457
:10439B00E24401FF124901D2011245D0EFF8E47952
:1043AB00D1F3E819F3C2011245D078D0E2F208E25A
:0C43BB004FF2124AE378D0E2FE08E2FF65
:0143C70022D3
:0443C80078A2EFF2F6
:1043CC007874E2FF12490178A2E2FF124735787443
:1043DC00E24401FF124901D2011245D078A3E4F264
:1043EC0008EFF2C2011245D0EFFE78A3E24EF208BC
:0C43FC00E2F2124AE378A3E2FE08E2FFBE
:014408002291
:044BAC001243C822C6
:0436C20078BAEFF2F1
:1036C6007874E2FF12490178BAE2FF12473578743E
:1036D600E24401FF124901D2011245D0E4FCFDFE8D
:1036E600780C12091078BB12092378BBE2FB08E2BA
:1036F600F908E2FA08E2CBF8C000C001C002C00334
:10370600D2011245D0E4FCFDFE7804120910D00364
:10371600D002D001D000EB4FFFEA4EFEE94DFDE8A6
:103726004CFC78BB12092378BBE2FB08E2F908E2FD
:10373600FA08E2CBF8C000C001C002C003C2011201
:1037460045D0EFC4540FFFD003D002D001D000EB18
:103756004FFFEAFEE9FDE8FC78BB120923124AE3B3
:0D37660078BBE2FC08E2FD08E2FE08E2FF8D
:013773002233
:103B5F007FAA124387785EEEF208EFF27FAC124332
:103B6F00877860EEF208EFF27FAE1243877862EE4D
:103B7F00F208EFF27FB01243877864EEF208EFF2AB
:103B8F007FB21243877866EEF208EFF27FB41243EA
:103B9F00877868EEF208EFF27FB6124387786AEE05
:103BAF00F208EFF27FB8124387786CEEF208EFF26B
:103BBF007FBA124387786EEEF208EFF27FBC1243A2
:103BCF00877870EEF208EFF27FBE1243877872EEBD
:053BDF00F208EFF222E4
:10380E007F881243C8787BEEF208EFF27F8A124B64
:10381E00AC787DEEF208EFF27F8C124BAC787FEE37
:10382E00F208EFF27F8E1243C87881EEF208EFF2C3
:10383E007F90124BAC7883EEF208EFF27F92124B30
:10384E00AC7885EEF208EFF27F94124BAC7887EEEF
:10385E00F208EFF27F96124BAC7889EEF208EFF297
:10386E007F98124BAC788BEEF208EFF27F9A124BE8
:10387E00AC788DEEF208EFF27F9C124BAC788FEEA7
:10388E00F208EFF27F9E124BAC7891EEF208EFF257
:01389E002207
:103CE30012380E7FA11246B77893EFF27FE1124BA1
:103CF300AC7894EEF208EFF27FE31246B77896EFD2
:103D0300F27FE41246B7EF75F010A4FFAEF0C007E0
:103D1300C0067FE51246B7EF540FFDD0E07897F267
:103D2300D0E04D08F27FE61246B7EF75F010A4FF1E
:103D3300AEF0C007C0067FE51246B7EFC4540FFDCF
:103D4300D0E07899F2D0E04D08F27FE71246B778D9
:043D53009BEFF222CE
:0E4B0100E4FD7FF51248597DAB7FF402485960
:0A4B4C007D057FF2124859024B016B
:0447AC0078CEEFF2E2
:1047B0007874E2FF1249017FF412473578CEE2FFA8
:1047C000124735124AE37F05124AF27FF6124387F9
:0147D00022C6
:0D4B0F007FF31246B7EF30E003D38001C3FF
:014B1C002276
:103BE4007FEC1248E7B39200124AE330000778747E
:103BF40074ECF280137FEE1248E7B39200124AE3AA
:103C0400300005787474EEF23000097FD01246B7A4
:103C1400785BEFF2785BE2FF6003B4FF05E4785B66
:103C2400F222EF6455601C7DB67FE01248597F95FF
:103C3400124AF27F958007124B0F50077F64124A95
:103C4400F280F4785BE224AA24FD500B24F9600D81
:103C5400240B700F023B5F12380E024B01123CE33F
:033C6400124B4CB4
:013C6700223A
:100DAF007F2E1247AC78CAEEF208EFF27F3412476B
:100DBF00AC78CCEEF208EFF2785BE2645560030298
:100DCF0011F578CAE2FE08E2FFE4FCFDC006C00799
:100DDF007868E2FE08E2FBAA06D007D006C3EF9BB5
:100DEF00FFEE9AFEED9400FDEC9400FCC004A90503
:100DFF00AA06AB077866E2FE08E2FFE4FCFDD0002E
:100E0F00120797780F1208FC78A21209237870E264
:100E1F00FE08E2FFEE3395E0FDFC780B120910C0DF
:100E2F0004C005C006C0077872E2FE08E2FFEE3389
:100E3F0095E0FDFC78A2E2FB08E2F908E2FA08E28D
:100E4F00CBF8EB2FFBEA3EFAE93DF9E83CF8D00787
:100E5F00D006D005D00412430178A612092378A634
:100E6F00E2FC08E2FD08E2FE08E2FF78A2E2FB08DE
:100E7F00E2F908E2FA08E2CBF8EB2FFFEA3EFEE9CF
:100E8F003DFDE83CFC78B212092378B2E2FC08E29F
:100E9F00FD08E2FE08E22408FFE43EFEE43DFDE427
:100EAF003CFC78041208FC785CEEF208EFF278B2A2
:100EBF00E2FC08E2FD08E2FE08E22460FFEE34F0F7
:100ECF00FEED34FFFDEC34FFFC0812092378B6E287
:100EDF00FC08E2FD08E2FE08E2FFA804A905AA0645
:100EEF00FB120797780C1208FC78BA120923786066
:100EFF00E2FE08E2FFEE3395E0FDFC78B6E2FB0878
:100F0F00E2F908E2FA08E2CBF8120797C004C0052D
:100F1F00C006C007786CE2FE08E2FFEE3395E0FDF5
:100F2F00FC78BAE2FB08E2F908E2FA08E2CBF81221
:100F3F000797D003D002D001D000EF2BFFEE3AFE7F
:100F4F00ED39FDEC38FC780B1208FC78AA12092356
:100F5F00785EE2FE08E2FFEE3395E0FDFCE47B04F1
:100F6F00FAF9F812079778AAE2FB08E2F908E2FA11
:100F7F0008E2CBF8EB2FFFEA3EFEE93DFDE83CFC33
:100F8F00EF2402FFE43EFEE43DFDE43CFC78021258
:100F9F0008FC78AE1209237862E2FE08E2FFEE3316
:100FAF0095E0FDFC78B6E2FB08E2F908E2FA08E208
:100FBF00CBF8120797780D1208FC78A21209237844
:100FCF006AE2FE08E2FFEE3395E0FDFC78BAE2FB41
:100FDF0008E2F908E2FA08E2CBF812079778101244
:100FEF0008FC78A612092378A6E2FC08E2FD08E2C5
:100FFF00FE08E2FF78A2E2FB08E2F908E2FA08E253
:10100F00CBF8EB2FFFEA3EFEE93DFDE83CFCEF2479
:10101F0002FFE43EFEE43DFDE43CFC78021208FCD6
:10102F0078AA12092378AAE2FC08E2FD08E2FE087A
:10103F00E22400FFEE3480FEE43DFDE43CFCC004FE
:10104F00A905AA06AB077864E2FE08E2FFE4FCFDFF
:10105F00D000120797780F1208E978C21209237887
:10106F00CCE2FE08E2FFE4FCFDC004C005C006C0F0
:10107F000778AEE2FC08E2FD08E2FE08E2FBAA06F2
:10108F00A905A804D007D006D005D004C3EF9BFF55
:10109F00EE9AFEED99FDEC98FCE47B507AC3F9F8DB
:1010AF0012079778C612092378C2E2FB08E2F90803
:1010BF00E2FA08E2CBF8C00078C6E2FC08E2FD08CD
:1010CF00E2FE08E2FFD00012082278011209107820
:1010DF00BE12092378BEE2FC08E2FD08E2FE08E238
:1010EF00FF78081208FCC004C005C006C00778BE10
:1010FF00E2FC08E2FD08E2FE08E2FF78081208FCB5
:10110F00D003D002D001D00012079778A212092382
:10111F00E47FDE7E0BFDFC78A2E2FB08E2F908E239
:10112F00FA08E2CBF812079778101208FC78A2128F
:10113F0009237F437EE37DFF7CFF78BEE2FB08E25D
:10114F00F908E2FA08E2CBF812079778101208FCB8
:10115F0078A612092378A6E2FC08E2FD08E2FE0851
:10116F00E2FF78A2E2FB08E2F908E2FA08E2CBF824
:10117F00EB2FFFEA3EFEE93DFDE83CFCEF24CFFFFD
:10118F00EE340EFEE43DFDE43CFC78041208FC78DE
:10119F00BEE2FB08E2F908E2FA08E2CBF8EB2FFF18
:1011AF00EA3EFEE93DFDE83CFC78AA12092378AA45
:1011BF00E2FC08E2FD08E2FE08E2FFEC1205AA7B62
:1011CF00B07A507955784112050D78571209237866
:1011DF0057E2FC08E2FD08E2FE08E2FF1205E8789C
:0611EF0055EEF208EFF2DC
:0111F50022D7
:102C79007FFA1236C278B6120923E4FFFE7D08FCFA
:102C890078B6E2FB08E2F908E2FA08E2CBF8C312E7
:102C990008D87003022E13787BE2FE08E2FFE4FCF9
:102CA900FD7801120910AB07AA06A905C004C005E1
:102CB900C006C00778B6E2FC08E2FD08E2FE08E2B9
:102CC900FF78031208E9D003D002D001D000C3EF86
:102CD9009BFFEE9AFEED99FDEC98FCC004A905AAAC
:102CE90006AB07787DE2FE08E2FFEE3395E0FDFCD6
:102CF900D000120797780B1208E978B212092378E5
:102D09007BE2FE08E2FFE4FCFDAB07AA06F9C0047A
:102D1900C005C006C00778B6E2FC08E2FD08E2FE7D
:102D290008E2FF78041208E9D003D002D001D000EC
:102D3900C3EF9BFFEE9AFEED99FDEC98FCC004C031
:102D490005C006C007787BE2FE08E2FFE4FCFDABA4
:102D590007AA06F9C004C005C006C00778B6E2FC98
:102D690008E2FD08E2FE08E2FF78041208E9D00350
:102D7900D002D001D000C3EF9BFFEE9AFEED99FD82
:102D8900EC98FCD003D002D001D000120797780C40
:102D99001208E9C004A905AA06AB07787FE2FE0874
:102DA900E2FFEE3395E0FDFCD000120797780E1292
:102DB90008E978B2E2FB08E2F908E2FA08E2CBF89E
:102DC900EB2FFFEA3EFEE93DFDE83CFC787712096E
:102DD90023E47F05FEFDFC7877E2FB08E2F908E2CF
:102DE900FA08E2CBF8120797EF2480FFE43EFEE4ED
:102DF9003DFDE43CFC78081208FCE47B0AFAF9F88A
:0A2E0900124301785CEEF208EFF2CC
:012E1300229C
:10096600122C797FF71236C278A21209237877E221
:10097600FC08E2FD08E2FE08E2FF78011208FCE44A
:100986002FFFEE3406FEED34FFFDEC34FFFC78A6B7
:1009960012092378A6E2FC08E2FD08E2FE08E2FF5F
:1009A60078021208FCC004C005C006C00778A6E29B
:1009B600FC08E2FD08E2FE08E2FF78021208FCD01D
:1009C60003D002D001D000120797780B1208FCC0A2
:1009D60004A905AA06AB07788BE2FE08E2FFEE3310
:1009E60095E0FDFCD00012079778AA12092378AA91
:1009F600E2FB08E2F908E2FA08E2CBF8C000C0011F
:100A0600C002C0037889E2FE08E2FFEE3395E0FDFE
:100A1600FC78A6E2FB08E2F908E2FA08E2CBF81253
:100A260007977801120910D003D002D001D000EB4D
:100A36002FFFEA3EFEE93DFDE83CFC78AA120923B9
:100A46007887E2FE08E2FFEE3395E0FDFC781012AF
:100A56000910C004C005C006C00778AAE2FC08E277
:100A6600FD08E2FE08E2FF78021208FCD003D0027D
:100A7600D001D000EF2BFFEE3AFEED39FDEC38FC4D
:100A860078AA12092378A6E2FC08E2FD08E2FE082D
:100A9600E2FF78021208FCC004C005C006C0077851
:100AA600A6E2FC08E2FD08E2FE08E2FF7802120870
:100AB600FCD003D002D001D000120797780D12089F
:100AC600FCC004A905AA06AB077885E2FE08E2FF8A
:100AD600EE3395E0FDFCD00012079778031208FC70
:100AE600C004C005C006C0077883E2FE08E2FFEE38
:100AF6003395E0FDFC78A6E2FB08E2F908E2FA0885
:100B0600E2CBF812079778011208FCD003D002D086
:100B160001D000EB2FFFEA3EFEE93DFDE83CFC7804
:100B2600121208FC78A612092378A6E2FC08E2FD58
:100B360008E2FE08E22400FFEE3480FEE43DFDE418
:100B46003CFCC004A905AA06AB077881E2FE08E2D0
:100B5600FFE4FCFDD000120797780F1208FC78A678
:100B660012092378A6E2FC08E2FD08E2FE08E2FF8D
:100B7600EC4D4E4F7003020DAE78AAE2FC08E2FD82
:100B860008E2FE08E2FF780C1208FCC004C005C0AB
:100B960006C00778A2E2FB08E2F908E2FA08E2CB0F
:100BA600F8C3E49BFFE49AFE741099FDE498FCD028
:100BB60003D002D001D000C3EF9BFFEE9AFEED9961
:100BC600FDEC98FCE47B357A0CF9F812079778AEC1
:100BD600120923E4FFFEFD7C8078AEE2FB08E2F911
:100BE60008E2FA08E2CBF8C31208D8503A78AEE227
:100BF600FC08E2FD08E2FE08E2FF7801120910C0D7
:100C060004C005C006C00778A6E2FC08E2FD08E2BB
:100C1600FE08E2FBAA06A905A804D007D006D0055F
:100C2600D004120822803078A6E2FC08E2FD08E231
:100C3600FE08E2FFC004A905AA06AB0778AEE2FCEF
:100C460008E2FD08E2FE08E2FFD000120822E47B7B
:100C560002FAF9F812079778AE12092378AEE2FC89
:100C660008E2FD08E2FE08E2FF78031208E9C00484
:100C7600C005C006C00778AEE2FC08E2FD08E2FE49
:100C860008E2FF78031208E9D003D002D001D000B1
:100C9600120797780D1208E9C004A905AA06AB0742
:100CA6007891E2FE08E2FFEE3395E0FDFCD00012FB
:100CB6000797780C1208FC78A612092378AEE2FC96
:100CC60008E2FD08E2FE08E2FF78021208E9C00425
:100CD600A905AA06AB07788FE2FE08E2FFEE339578
:100CE600E0FDFCD000120797780D1208FC78AA12D6
:100CF600092378AEE2FB08E2F908E2FA08E2CBF84B
:100D0600C000C001C002C00378AAE2FC08E2FD08E8
:100D1600E2FE08E2FF78A6E2FB08E2F908E2FA083A
:100D2600E2CBF8EB2FFFEA3EFEE93DFDE83CFCC0D6
:100D360004A905AA06AB07788DE2FE08E2FFEE33AA
:100D460095E0FDFCD000EB2FFFEA3EFEE93DFDE815
:100D56003CFC78041208FCD003D002D001D000EB92
:100D66002FFFEA3EFEE93DFDE83CFC78AE12092382
:100D760078AEE2FC08E2FD08E2FE08E2FFE41205B6
:100D8600AA7BB07A507955784112050D7857120929
:100D9600237857E2FC08E2FD08E2FE08E2FF1205AE
:080DA600E87855EEF208EFF2C7
:010DAE002222
:10202400122C797FFD124387E4FCFD78A212092368
:10203400E4FF7E80FDFC78A2E2FB08E2F908E2FA04
:1020440008E2CBF8C31208C270030222EC7877E2EC
:10205400FC08E2FD08E2FE08E22400FFEE34D4FEB0
:10206400ED34FEFDEC34FFFC78A61209237896E2E9
:10207400FFE4FCFDFE78A6E2FB08E2F908E2FA08B8
:10208400E2CBF8120797780B1208FCE42FFFEE342A
:1020940080FEE43DFDE43CFCC004C005C006C0076E
:1020A400789BE2FF3395E0FEFDFC78A6E2FB08E2B4
:1020B400F908E2FA08E2CBF8120797780A1208FC4A
:1020C400D003D002D001D000120797780A1208FC7E
:1020D400E42FFFE43EFEED3420FDE43CFCC004A903
:1020E40005AA06AB077894E2FE08E2FFEE3395E01A
:1020F400FDFCD000120797E42FFFEE3420FEE43DF0
:10210400FDE43CFC780E1208FCC004C005C006C007
:10211400077897E2FE08E2FFEE3395E0FDFC7814C1
:10212400120910C004C005C006C00778A2E2FC086A
:10213400E2FD08E2FE08E2FF780E120910D003D097
:1021440002D001D000C3EF9BFFEE9AFEED99FDECA7
:1021540098FCC004C005C006C0077899E2FE08E2F6
:10216400FFEE3395E0FDFC78A6E2FB08E2F908E215
:10217400FA08E2CBF8120797A804A905AA06AB0748
:10218400D007D006D005D004C3EF9BFFEE9AFEED36
:1021940099FDEC98FCE42FFFEE3440FEE43DFDE4B1
:1021A4003CFC780F1208FCD003D002D001D00012FE
:1021B400079778A612092378A6E2FC08E2FD08E254
:1021C400FE08E2FFC004C005C006C00778A6E2FC12
:1021D40008E2FD08E2FE08E2FF780F1208FCC004E2
:1021E400C005C006C00778A6E2FC08E2FD08E2FECE
:1021F40008E2FF780F1208FCD003D002D001D0000F
:1022040012079778071208FCC004A905AA06AB07B1
:102214007893E2FFE4FCFDFED000120797780412E5
:1022240008FCA804A905AA06AB07D007D006D00568
:10223400D004C3EF9BFFEE9AFEED99FDEC98FC7879
:10224400A612092378A6E2FCEC335007E4FFFEFD56
:10225400FC800D78A6E2FC08E2FD08E2FE08E2FF3D
:1022640078A6120923E4FFFEFD7C1978A6E2FB0898
:10227400E2F908E2FA08E2CBF8D31208C24008E413
:10228400FFFEFD7C19800D78A6E2FC08E2FD08E261
:10229400FE08E2FF78A612092378A6E2FC08E2FD14
:1022A40008E2FE08E2FF780C1208FC78A612092363
:1022B40078A6E2FC08E2FD08E2FE08E2FFEC120563
:1022C400AA7B0A7AD77923784112050D7857120927
:1022D400237857E2FC08E2FD08E2FE08E2FF12055B
:0822E400E87875EEF208EFF254
:0122EC0022CF
:044BB000120966225E
:074B9B00120966122024221A
:1048CC00785BE224AA24FD500B24F9600A240B70B7
:0B48DC0009020DAF024BB0124B9B22F3
:08000300785CE2FE08E2FF2236
:084B5F007855E2FE08E2FF2296
:084B67007875E2FE08E2FF226E
:054BA700785BE2FF2233
:0A40E600C108829C0000829E0000C9
:0D42730078ACEBF208EAF208E9F208EDF28F
:104280007F80124901E478B0F278AFE2FF08E2FEE5
:10429000C39F5023EEFF78AEE22FF218E23400F213
:1042A00018E2FB08E2FA08E2F912068BFF12473522
:0A42B00078B0E204F280D2124AE373
:0142BA0022E1
:0D42280078ACEBF208EAF208E9F208EDF2DA
:104235007F81124901E478B0F278AFE2FF08E2C36A
:104245009F5022D2011245D078ACE2FB08E2FA0871
:10425500E2F978B0E2F582758300EF1206D878B0FE
:0D426500E204F280D4C2011245D0124AE3F7
:014272002229
:10465E0078A8EFF208EBF208EAF208E9F27BFE7AAC
:10466E000079A87D011242737F14124AF278A9E2F2
:0D467E00FB08E2FA08E2F97D021242282250
:103E3B007BFE7A0079A67FF312465E78A6E2FFE45A
:103E4B00FCFDFE7808120910C004A905AA06AB07F1
:103E5B0078A7E2FFD000EB4FFFEAFEE9FDE8FC7824
:103E6B00A212092378A20808E2FE08E254FCFFE440
:103E7B00FDFC78A2120923E47FA47E44FDFC78A20A
:103E8B00E2FB08E2F908E2FA08E2CBF812079778AE
:0C3E9B00101208FCEF24B3FFEE34EDFE23
:013EA70022F8
:103EA8007BFE7A0079A67FF512465E78A6E2FFE4EB
:103EB800FCFDFE7808120910C004A905AA06AB0784
:103EC80078A7E2FFD000EB4FFFEAFEE9FDE8FC78B7
:103ED800A212092378A20808E2FE08E254FCFFE4D3
:103EE800FDFC78A2120923E47FD47E30FDFC78A281
:103EF800E2FB08E2F908E2FA08E2CBF81207977841
:0C3F0800101208FCEF24A8FFEE34FDFEB0
:013F1400228A
:0C4B2A007F801248E7B39208124AE32291
:10489500123E3B7C007D0A120761789CEEF208EF20
:0C48A500F2123EA8789EEEF208EFF2221C
:084B6F00789CE2FE08E2FF223F
:084B7700789EE2FE08E2FF2235
:034BB400A2082232
:10050A0002065EEC5D046005E859047003020654B5
:10051A0012061F580460F6EC4860F2EC7004FDFE07
:10052A00FF22C860DB2481C85009C39860025006C4
:10053A0002065B9850CAF582E9294B4A7005AB82DC
:10054A0002064A75F0007C1A7880C3EF9BEE9AED9A
:10055A0099400DC3EF9BFFEE9AFEED99FDE842F03C
:10056A00DC23ACF0D0E0FFD0E0FED0E0FDAB82208F
:10057A00E7101BEB60BAEC2CFCEF33FFEE33FEED19
:10058A0033FD020636E803F830E705C0F075F000DF
:10059A00EF2FFFEE33FEED33FD40B830E7C280AAFD
:1005AA0075F020800E75F010800575F0087D007ECC
:1005BA00007F003392D530D5031208B4EC334010D3
:1005CA00EF33FFEE33FEED33FDEC33FCD5F0ED22D5
:0E05DA00E5F0247EA2D513CC92E7CDCEFF2211
:1005E800EDD2E7CD33EC3392D524814006E4FFFE0B
:1005F800FDFC22FCE4CFCECDCC24E0501174FF806A
:10060800EDC3CC13CCCD13CDCE13CECF13CF047006
:07061800F030D5DE0208B44A
:10061F00E9D2E7C933E833F892D5EDD2E7CD33EC21
:07062F0033FC5002B2D5229A
:10063600EC30E7100FBF000C0EBE00080DBD000425
:100646000BEB6014A2D5EB13FCED92E7FD2274FFD1
:10065600FCFDFEFF22E480F8A2D574FF13FC7D802A
:03066600E480EF3E
:10378E000215DFE493A3F8E493A34003F68001F25D
:10379E0008DFF48029E493A3F85407240CC8C3333C
:1037AE00C4540F4420C8834004F456800146F6DF0B
:1037BE00E4800B010204081020408090409AE47EC1
:1037CE00019360BCA3FF543F30E509541FFEE49300
:1037DE00A360010ECF54C025E060A840B8E493A3C7
:1037EE00FAE493A3F8E493A3C8C582C8CAC583CAF2
:1037FE00F0A3C8C582C8CAC583CADFE9DEE780BEAA
:0140F00000CF
:10066900C2D530F707B2D563F0FF05F030E70CB219
:10067900D5F4048463F0FF05F080018430D502F4D9
:02068900042249
:10068B00BB010689828A83E0225002E722BBFE026D
:09069B00E32289828A83E49322A0
:1006A400BB010989828A83F8E028F022500327F7E6
:1006B40022BBFE05F8E328F3228A838982F8E493B7
:0206C4002822EA
:1006C600BB010689828A83F0225002F722BBFE0113
:0206D600F3220D
:1006D800F8BB010DE58229F582E5833AF583E8F058
:1006E800225006E92582C8F622BBFE05E92582C804
:0206F800F222EC
:1006FA00EF8DF0A4A8F0CF8CF0A428CE8DF0A42E14
:02070A00FE22CD
:10070C00BC000BBE0029EF8DF084FFADF022E4CCD1
:10071C00F875F008EF2FFFEE33FEEC33FCEE9DEC9A
:10072C00984005FCEE9DFE0FD5F0E9E4CEFD22EDE0
:10073C00F8F5F0EE8420D21CFEADF075F008EF2F2A
:10074C00FFED33FD4007985006D5F0F222C398FD1B
:05075C000FD5F0EA22B8
:10076100C2D5EC30E709B2D5E4C39DFDE49CFCEEB3
:1007710030E715B2D5E4C39FFFE49EFE12070CC318
:10078100E49DFDE49CFC800312070C30D507C3E413
:060791009FFFE49EFE2222
:10079700E88FF0A4CC8BF0A42CFCE98EF0A42CFC01
:1007A7008AF0EDA42CFCEA8EF0A4CDA8F08BF0A47F
:1007B7002DCC3825F0FDE98FF0A42CCD35F0FCEBDE
:1007C7008EF0A4FEA9F0EB8FF0A4CFC5F02ECD39A3
:0F07D700FEE43CFCEAA42DCE35F0FDE43CFC2210
:1007E60075F008758200EF2FFFEE33FECD33CDCCCA
:1007F60033CCC58233C5829BED9AEC99E58298404D
:100806000CF582EE9BFEED9AFDEC99FC0FD5F0D629
:10081600E4CEFBE4CDFAE4CCF9A88222B800C1B953
:100826000059BA002DEC8BF084CFCECDFCE5F0CB91
:10083600F97818EF2FFFEE33FEED33FDEC33FCEBCA
:1008460033FB10D703994004EB99FB0FD8E5E4F985
:10085600FA227818EF2FFFEE33FEED33FDEC33FC72
:10086600C933C910D7059BE99A4007EC9BFCE99A66
:10087600F90FD8E0E4C9FAE4CCFB2275F010EF2FAB
:10088600FFEE33FEED33FDCC33CCC833C810D707AB
:100896009BEC9AE899400AED9BFDEC9AFCE899F8E6
:0E08A6000FD5F0DAE4CDFBE4CCFAE4C8F92279
:10430100C2D5E830E70FB2D5E4C39BFBE49AFAE4E7
:1043110099F9E498F8EC30E717B2D512433712084F
:1043210022E4C39BFBE49AFAE499F9E498F8800348
:1043310012082230D50DE4C39FFFE49EFEE49DFDEB
:04434100E49CFC22DA
:0E08B400C3E49FFFE49EFEE49DFDE49CFC2255
:1008C200EB9FF5F0EA9E42F0E99D42F0EC6480C8AD
:0608D20064809845F0224D
:1008D800EB9FF5F0EA9E42F0E99D42F0E89C45F076
:0108E80022ED
:1008E900E8600FECC313FCED13FDEE13FEEF13FFED
:0308F900D8F12211
:1008FC00E86010ECA2E713FCED13FDEE13FEEF1312
:04090C00FFD8F022FE
:10091000E8600FEFC333FFEE33FEED33FDEC33FC45
:03092000D8F122E9
:0C092300ECF208EDF208EEF208EFF22210
:10092F00F5F0C582A4C582C5F0C583A42583F583E0
:01093F002295
:10094000D083D082F8E4937012740193700DA3A346
:1009500093F8740193F5828883E47374029368605A
:06096000EFA3A3A380DF5A
:00000001FF
