:030000000236C500
:1036C50078FFE4F6D8FD9000007F007E03E4F0A3C8
:0A36D500DFFCDEFA75812102371ACE
:104872001244B612455F124B331240FE1244EF123D
:0B4882003B35124B07782474FFF22234
:104A40003006FD12000EC2AF1244B6D2AFE47816A3
:024A5000F22250
:104A52003006FD12000EC2AF1243C7D2AFE4781681
:024A6200F2223E
:101C620078A27401F21248727F14124A85782D7498
:101C720002F23006FDC206781AE275F00A84E5F037
:101C8200702E7816E2FF600964026024EF6403603C
:101C92001F782DE27014740AF2124B84EF60031263
:101CA200488D124B955003124856123CA8122D65CE
:101CB200124B7178A1EFF2600FE2C3941050047FCF
:101CC2001480027F28124A8578A1E224FE70030262
:101CD2001D9824FE7003021D9D24F47003021E3D14
:101CE200240F6003021E867816E214B40B00400330
:101CF200021E86901D0375F003A4C58325F0C583DB
:101D020073021D24021D58021D63021D75021D92DD
:101D1200021D92021D92021D92021D92021D8F024D
:101D22001D927815E2FF24FD601A14601D24F850FC
:101D32001F240A6003021E8678247402F27816EFCA
:101D4200F2021E86782474068003E4784FF2800043
:101D52007815E2021E787824E270121246CE021E34
:101D6200837824E2B4040612464C021E83124746CC
:101D7200021E86784FE2FF70057845E26004EFB4F8
:101D820009051244408009124A07021E861249F2CE
:101D9200124A52021E8378A27401F278A1E2B404BC
:101DA200040874FFF27816E2B40C004003021E86A7
:101DB200901DB9F8282873021DDD021DDF021DE9FE
:101DC200021DE9021DF3021DFD021E07021E100282
:101DD2001E19021E22021E2B021E34804378A2E22A
:101DE200FF1249DD021E8678A2E2FF12387E021E31
:101DF2008678A2E2FF123A24021E8678A2E2FF123D
:101E0200496C021E8678A2E2FF124927807678A2E8
:101E1200E2FF12493E806D78A2E2FF1249558064CA
:101E220078A2E2FF1247FA805B78A2E2FF124983AE
:101E3200805278A2E2FF12499A80497816E2B40CE5
:101E4200005041901E4CF8282873021E70021E7723
:101E5200021E83021E83021E7D021E80021E80025B
:101E62001E80021E80021E80021E80021E807816C4
:101E72007401F2800FE47816F280091244EF124ADC
:101E820040124B137816E2B40C005065901E95F880
:101E9200282873021EB9021EBE021EC3021EC802F9
:101EA2001ECD021ED2021ED7021EDC021EE1021E3F
:101EB200E6021EEB021EF012430380351237F08059
:101EC20030123386802B123178802612195F8021DE
:101ED2001245F2801C124B5C801712390C801212D0
:101EE2004B63800D12399880081224BC8003124A79
:101EF20075781BE204F2781AE204F2300725781CA6
:101F0200E2B4061F781AE275F00584E5F07014C396
:101F1200780FE264809480400A08E22401F218E219
:101F22003400F2781BE2D3943B4002E4F2781AE2E6
:101F3200D3943B5003021C74E4F27811E204F27869
:101F42001CE275F003A424A8F582E43424F583E4AA
:0E1F520093FE740193AA06F9120966021C742C
:10222900007F7F40407F7F007F7F08087F7F00031A
:102239001F227E7F0300007F7F49497F360040408F
:102249007F7F4040007F7F4848783000003E7F41D3
:10225900416322007F7F4848783000031F227E7F38
:10226900030000707808087F7F0040407F7F40406E
:10227900007F7F49497F3600007F7F40407F7F0094
:1022890040407F7F4040007F7F08087F7F00003EFD
:102299007F414163220060731B0F7C70007F7F497F
:1022A900494F4600007F7F49497F36003E7F4141C3
:1022B9006322007F7F0814636300007C7C40407CBC
:1022C9007C007C7C10107C7C000C3C48787C0C00E9
:1022D900007C7C54547C280040407C7C4040007C3D
:1022E9007C505070200000387C44446C28007C7C71
:1022F90050507020000C3C48787C0C000060701035
:10230900107C7C0040407C7C4040007C7C54547CA8
:102319002800007C7C40407C7C0040407C7C404024
:10232900007C7C10107C7C0000387C44446C2800C4
:1023390064741C187060007C7C54545C4800007CF8
:102349007C54547C2800387C44446C28007C7C10E4
:10235900386C440000607F7F60006F6F007F3F1022
:102369001F103F7F007F7F4949007F7F63361C0034
:102379001F3F6C6C3F1F00607F7F60007F7F494972
:102389003F7F4C7F3F007F7F0303003F7F4C7F3FB0
:10239900007F7F6C6C370000003E41417149493E26
:1023A900000000063A433A06000000007F7F686893
:1023B900003E7F417F3E007F3F180C7E7F00607F9B
:1023C9007F607F7F41633E1C006F6F00327B496FE6
:1023D90026007F7F446C38007F3F101F103F7F002D
:1023E9006F6F007F7F63361C007F7F6C6C387F7F47
:1023F900497F36007F7F6C6C37006F6F003E7F41ED
:102409004D2E0000003E41417149493E0000000047
:1024190000000011117D1111000000000000007F73
:102429007F417F7F007F7F381C7F7F000000000095
:102439000000007F7F417F7F007F7F6C6C007F7F82
:102449006C6C00000000607F7F6000730B7E7C0075
:102459007F7F4C380036007F7F49497F36007F7F78
:102469004C4E7B3100360000705070003E7F634156
:10247900410000000011117D111100007F413E0053
:1024890032492600224936002345390022493600BF
:10249900207F000012345555555555543210054AC0
:1024A900C2023D8C023D8C023D8C023D8C023D8C6A
:0324B900004AD006
:10405800810E00820FFFFF81160081150281110079
:0B406800811C00810000810100C18468
:10455F00E4F59375943FF5917592FFF5957596FF78
:10456F00F5B175B27F7837E27819F2C206A2C79219
:10457F00051240BB78127401F2087400F20874D669
:02458F00F22216
:0D000E0053B0807590FF75A0FF43803F2226
:103034007801E2FEC3940550117819E2FDEEB5055E
:103044000312000E7801E204F222E47801F2120085
:103054000E20050A18E2FEC374159EFF8004780052
:10306400E2FFEFB41600400302310E903076F828E8
:1030740028730230B80230BC0230C00230C40230BF
:10308400C80230CC0230D00230D40230D80230DC56
:103094000230E00230E40230E80230EC0230F002A8
:1030A40030F40230F80230FC023100023104023103
:1030B4000802310CC2908052C291804EC292804A62
:1030C400C2938046C2948042C295803EC296803AA2
:1030D400C2978036C2A08032C2A1802EC2A2802AAA
:1030E400C2A38026C2A48022C2A5801EC2A6801AC2
:1030F400C2A78016C2808012C281800EC282800A5A
:10310400C2838006C2848002C28520050CC3741564
:103114009F2408F8E6F5B0804474082FF8E6FEC44E
:103124005402FDEEC4131354014DFE74082FF8E647
:10313400FD131354044EFEED54084EFE74082FF88C
:10314400E6FD25E025E054104EFEEDC454204EFE6D
:1031540074082FF8E6C4333354404EF5B07800E2D7
:1031640004F2E2D39415400BE4F2A2C792052006C0
:0331740002D2067E
:013177002235
:0B4B1300E47816F27811F2781CF22210
:103CA800123ED3781DE27068300467C2047845E29A
:103CB800603908E2FF781FE26F70307847E2FF78DA
:103CC8001EE2B507267820E27E007BFE2447F9EE47
:103CD8003400FA12068B603A7836E2FF7C007D3CAD
:103CE8001206FA7829EEF208EFF2227846E2FF335C
:103CF80095E0FE781FE2D39FEE6480F874809840C8
:103D080011781EE2700C7832E260077F28024A853B
:023D1800D204D3
:013D1A002286
:0C40AF007812E4F2087400F2087408F2C1
:1040BB007835E214601514601C14602314602A8098
:1040CB000078177400F2087482F22278177400F2E9
:1040DB000874AAF22278177400F20874D2F22278CC
:1040EB00177400F20874FAF22278177401F208744C
:0340FB0022F2228C
:1042790078A37424F2087485F2E4FFEFC39416500E
:104289003478A3E2FC08E2F5828C83E493FE781289
:10429900E2FB08E2FA08E2F9EE1206C60F78A4E298
:1042A9002401F218E23400F27814E22401F218E24F
:0542B9003400F280C694
:0142BE0022DD
:102EE0007834E224FE6078147003022F9914700382
:102EF000022FC82404701E781BE2FEC3940F5005F5
:102F0000E4FF022FF5EEC3942D50057F03022FF549
:102F1000E4FF022FF5781BE2FEC394055005E4FFA1
:102F2000022FF5EEC3940D50057F01022FF5EEC37D
:102F3000941650057F02022FF5EEC3942750057FAB
:102F400003022FF5EEC3943050057F02022FF5EEF9
:102F5000C3943850057F01022FF5E4FF022FF57866
:102F60001BE2FEC394065005E4FF022FF5EEC39466
:102F70001250047F03807EEEC3941E50047F0480B1
:102F800074EEC3942A50047F05806AEEC3943650D1
:102F9000047F068060E4FF805C781BE2FEC3940738
:102FA0005004E4FF804FEEC3941650047F07804521
:102FB000EEC3942550047F03803BEEC39434500449
:102FC0007F088031E4FF802D781BE2FEC394075018
:102FD00004E4FF8020EEC3941650047F018016EEB7
:102FE000C3942550047F02800CEEC3943450047FB8
:102FF000018002E4FFE4FEEEC39404503675F00451
:10300000EFA42EF582E435F0F583E582241EF582E7
:10301000E5833400F583E493FD7812E2FB08E2FADD
:1030200008E2F9ED1206C60EE22401F218E23400BD
:03303000F280C467
:01303300227A
:03328100E4FBFD6E
:0A32840078A7EFF208EDF208EBF274
:10328E00E408F278AAE2FDC39404506B78A8E270C9
:10329E004608E2600C78A7E275F00A84D3940040E9
:1032AE003678A7E275F00A8475F004A47C002DFF31
:1032BE00EC35F0FE7818E22FFF18E23EFE78ABF206
:1032CE0008EFF2F5828E83E493FF7812E2FB08E2B8
:1032DE00FA08E2F9EF800B7812E2FB08E2FA08E254
:1032EE00F9E41206C678AAE204F27814E22401F296
:1032FE0018E23400F2808C7812E2FB08E2FA08E25F
:10330E00F9E41206C6E22401F218E23400F2E4787F
:10331E00AAF278AAE2FDC39404505C78A8E2703752
:10332E0018E275F00A84E5F075F004A47C002DFF18
:10333E00EC35F0FE7818E22FFF18E23EFE78ABF285
:10334E0008EFF2F5828E83E493FF7812E2FB08E237
:10335E00FA08E2F9EF800B7812E2FB08E2FA08E2D3
:10336E00F9E41206C678AAE204F27814E22401F215
:07337E0018E23400F2809B0D
:013385002225
:1047D800781FE2FDD39418500618E2943C40030277
:1047E8004279AF05123281122EE0781EE2FF1232B2
:0247F80081221C
:10414D007822E2D3940C500718E2FD94204003022C
:10415D004279AF057B01E4FD123284E4FFEFC39495
:10416D00045020EF90002293FE7812E2FB08E2FA51
:10417D0008E2F9EE1206C60FE22401F218E234004D
:0D418D00F280DA7822E2FFE4FBFD123284BA
:01419A002202
:103554007820E214B40700507090356B75F003A422
:10356400C58325F0C5837302358002358B023596F9
:103574000235A10235AC0235B70235C278A37422F4
:10358400F2087429F2804B78A37422F208743FF293
:10359400804078A37422F2087455F2803578A374BD
:1035A40022F208746BF2802A78A37422F2087481E0
:1035B400F2801F78A37422F2087497F2801478A31F
:1035C4007422F20874ADF2800978A37424F20874AA
:1035D40085F2E4FFEFC39416503478A3E2FC08E2CA
:1035E400F5828C83E493FE7812E2FB08E2FA08E2A7
:1035F400F9EE1206C60F78A4E22401F218E23400B0
:0E360400F27814E22401F218E23400F280C6DB
:013612002295
:10297C007842E278A4F27825E2FF78A4E22FF212F2
:10298C004B955016124B4C7C007D0512076178A4B8
:10299C00EFF230E01FE204F2801A124B84EF601B5E
:1029AC001200037C007D0512076178A4EFF230E081
:1029BC0003E204F278A4E2A2E713F278A4E2FFD3D4
:1029CC00648094E35003022A63E418F278A3E2C310
:1029DC00940450207812E2FB08E2FA08E2F9E412BF
:1029EC0006C678A3E204F27814E22401F218E23469
:1029FC0000F280D8E478A3F278A3E2FEC3940550E9
:102A0C0026EE90007493FE7812E2FB08E2FA08E2DC
:102A1C00F9EE1206C678A3E204F27814E22401F26D
:102A2C0018E23400F280D17812E2FB08E2FA08E2F4
:102A3C00F9E41206C6E22401F218E23400F218E2BC
:102A4C00FB08E2FA08E2F9E41206C6E22401F218E5
:102A5C00E23400F2022B69D3EF64809489405CE489
:102A6C0078A3F278A3E2FFC39405507B08E2FE75CD
:102A7C00F00A120669FD3395E08D82F58374051218
:102A8C00092FE5822FF582E43583F583E582244214
:102A9C00F582E5833400F583E493FF7812E2FB08BA
:102AAC00E2FA08E2F9EF1206C678A3E204F278140F
:102ABC00E22401F218E23400F280A8E478A3F27860
:102ACC00A3E2C3940550207812E2FB08E2FA08E274
:102ADC00F9E41206C678A3E204F27814E22401F2B7
:102AEC0018E23400F280D87812E2FB08E2FA08E22D
:102AFC00F9E41206C6E22401F218E23400F2E4789A
:102B0C00A3F278A3E2FFC39405505208E2FE75F0DD
:102B1C000A120669AEF0EEFD3395E08D82F58374F2
:102B2C000512092FE5822FF582E43583F583E582C2
:102B3C002442F582E5833400F583E493FF7812E2B6
:102B4C00FB08E2FA08E2F9EF1206C678A3E204F2F7
:102B5C007814E22401F218E23400F280A57812E233
:102B6C00FB08E2FA08E2F9E41206C6E22401F218C4
:102B7C00E23400F218E2FB08E2FA08E2F9E4120689
:102B8C00C6E22401F218E23400F2E478A3F278A34E
:102B9C00E2FFC394095026EF90007993FF7812E27C
:102BAC00FB08E2FA08E2F9EF1206C678A3E204F297
:0D2BBC007814E22401F218E23400F280D116
:012BC90022E9
:10272900124B3CAB07AA06E478A5F278A5E2FFC3F1
:1027390064809484500D74022FF8E4F278A5E204C1
:10274900F280E878A57403F2D3EB9400EA648094EC
:1027590080500978A5E26480948040297C007D0A34
:10276900AF03AE0212076178A5E22402F8EDF27810
:10277900A5E214F27C007D0AAF03AE02120761AA3A
:1027890006AB0780C3E478A5F278A5E2FDC36480AF
:102799009484504A7802E275F004A4FFED3395E081
:1027A900FCEF2DFFE5F03CFE7818E22FFF18E23E22
:1027B900FE78A3F208EFF2F5828E83E493FF781294
:1027C900E2FB08E2FA08E2F9EF1206C678A5E2048C
:1027D900F27814E22401F218E23400F280AB7812A4
:1027E900E2FB08E2FA08E2F9E41206C6E22401F281
:1027F90018E23400F2E478A5F278A5E2FDC364801A
:102809009484504A7803E275F004A4FFED3395E00F
:10281900FCEF2DFFE5F03CFE7818E22FFF18E23EB1
:10282900FE78A3F208EFF2F5828E83E493FF781223
:10283900E2FB08E2FA08E2F9EF1206C678A5E2041B
:10284900F27814E22401F218E23400F280AB781233
:10285900E2FB08E2FA08E2F9E41206C6E22401F210
:1028690018E23400F2E478A5F278A5E2FDC36480A9
:102879009484504A7804E275F004A4FFED3395E09E
:10288900FCEF2DFFE5F03CFE7818E22FFF18E23E41
:10289900FE78A3F208EFF2F5828E83E493FF7812B3
:1028A900E2FB08E2FA08E2F9EF1206C678A5E204AB
:1028B900F27814E22401F218E23400F280AB7812C3
:1028C900E2FB08E2FA08E2F9E41206C6E22401F2A0
:1028D90018E23400F218E2FB08E2FA08E2F974039C
:1028E9001206C6E22401F218E23400F218E2FB08EB
:1028F900E2FA08E2F974031206C6E22401F218E2C8
:102909003400F218E2FB08E2FA08E2F9E41206C61A
:10291900E22401F218E23400F2E478A5F278A5E2A3
:10292900FDC364809484504A7805E275F004A4FFDD
:10293900ED3395E0FCEF2DFFE5F03CFE7818E22F32
:10294900FF18E23EFE78A3F208EFF2F5828E83E4E7
:1029590093FF7812E2FB08E2FA08E2F9EF1206C6E1
:1029690078A5E204F27814E22401F218E23400F2C4
:0229790080AB31
:01297B002239
:1011FC00E478A6F208F2124B955005124B54800974
:10120C00124B84BF600A124B4478A6EEF208EFF240
:10121C00E478A5F278A5E2FFC364809485500D7440
:10122C00062FF8E4F278A5E204F280E878A57404BD
:10123C00F2D378A7E2940018E29400500818E26404
:10124C00809480403278A6E2FA08E2FB7C007D0AAA
:10125C00FFAE0212070C78A5E22406F8EDF278A591
:10126C00E214F27C007D0AAF03AE0212070C78A6E2
:10127C00EEF208EFF280BA7806E260030213F3781C
:10128C00A5F278A5E2FDC364809484504A7807E205
:10129C0075F004A4FFED3395E0FCEF2DFFE5F03C79
:1012AC00FE7818E22FFF18E23EFE78A3F208EFF268
:1012BC00F5828E83E493FF7812E2FB08E2FA08E2EF
:1012CC00F9EF1206C678A5E204F27814E22401F2D2
:1012DC0018E23400F280AB7812E2FB08E2FA08E282
:1012EC00F9E41206C6E22401F218E23400F2E478C2
:1012FC00A5F278A5E2FDC364809484504A7808E294
:10130C0075F004A4FFED3395E0FCEF2DFFE5F03C08
:10131C00FE7818E22FFF18E23EFE78A3F208EFF2F7
:10132C00F5828E83E493FF7812E2FB08E2FA08E27E
:10133C00F9EF1206C678A5E204F27814E22401F261
:10134C0018E23400F280AB7812E2FB08E2FA08E211
:10135C00F9E41206C6E22401F218E23400F218E2B3
:10136C00FB08E2FA08E2F974031206C6E22401F261
:10137C0018E23400F218E2FB08E2FA08E2F9E4128F
:10138C0006C6E22401F218E23400F2E478A5F27801
:10139C00A5E2FDC364809484400302155A7809E2E7
:1013AC0075F004A4FFED3395E0FCEF2DFFE5F03C68
:1013BC00FE7818E22FFF18E23EFE78A3F208EFF257
:1013CC00F5828E83E493FF7812E2FB08E2FA08E2DE
:1013DC00F9EF1206C678A5E204F27814E22401F2C1
:1013EC0018E23400F280A87812E2FB08E2FA08E274
:1013FC00F9E41206C6E22401F218E23400F2E478B1
:10140C00A5F278A5E2FDC364809484504A7806E284
:10141C0075F004A4FFED3395E0FCEF2DFFE5F03CF7
:10142C00FE7818E22FFF18E23EFE78A3F208EFF2E6
:10143C00F5828E83E493FF7812E2FB08E2FA08E26D
:10144C00F9EF1206C678A5E204F27814E22401F250
:10145C0018E23400F280AB7812E2FB08E2FA08E200
:10146C00F9E41206C6E22401F218E23400F2E47840
:10147C00A5F278A5E2FDC364809484504A7807E213
:10148C0075F004A4FFED3395E0FCEF2DFFE5F03C87
:10149C00FE7818E22FFF18E23EFE78A3F208EFF276
:1014AC00F5828E83E493FF7812E2FB08E2FA08E2FD
:1014BC00F9EF1206C678A5E204F27814E22401F2E0
:1014CC0018E23400F280AB7812E2FB08E2FA08E290
:1014DC00F9E41206C6E22401F218E23400F2E478D0
:1014EC00A5F278A5E2FDC364809484504A7808E2A2
:1014FC0075F004A4FFED3395E0FCEF2DFFE5F03C17
:10150C00FE7818E22FFF18E23EFE78A3F208EFF205
:10151C00F5828E83E493FF7812E2FB08E2FA08E28C
:10152C00F9EF1206C678A5E204F27814E22401F26F
:10153C0018E23400F280AB7812E2FB08E2FA08E21F
:10154C00F9E41206C6E22401F218E23400F2781231
:10155C00E2FB08E2FA08E2F9E41206C6E22401F220
:10156C0018E23400F218E2FB08E2FA08E2F97462BD
:10157C001206C6E22401F218E23400F218E2FB086B
:10158C00E2FA08E2F974641206C6E22401F218E2E7
:10159C003400F218E2FB08E2FA08E2F974081206C9
:1015AC00C6E22401F218E23400F218E2FB08E2FA77
:1015BC0008E2F974131206C6E22401F218E23400B0
:1015CC00F218E2FB08E2FA08E2F974231206C6E20A
:0815DC002401F218E23400F2D0
:0115E40022E4
:1045C300781FE2FFC3941850257837E26406701E03
:1045D300EF781F30E009E2C31390249B938008E235
:0F45E300C31390249B93C4540FFF7819EFF22257
:104303001240AF1245C3781CE2B40700503090430B
:1043130018F828287302432D02432F024332024325
:104323003502433802433B02433E801202414D02B1
:10433300355402297C0227290211FC023BB912479A
:02434300D8227E
:04452800E49308F21E
:10452C00ED1206A412068BFF78A8E2D36480F8EF94
:10453C00648098400678A7E21206C612068BFF78B4
:10454C00A7E2C36480F8EF648098500678A8E21262
:03455C0006C6226E
:1049DD007BFE7A007915AD0778A77402F208740B87
:0549ED00F212452C222E
:1037F0007815E224FEB40A00506690380875F0038C
:10380000A4C58325F0C5837302382602382C0238FC
:103810003202383802383E02384402384A02385000
:1038200002385602385C7E237F5D80347E237F73AE
:10383000802E7E237F8980287E237F9F80227E2387
:103840007FB5801C7E237FCB80167E237FE1801096
:103850007E237FF7800A7E247F0D80047E247F6F85
:10386000E4FDEDC3941650158F828E83E493FC74AF
:0D387000082DF8A6040D0FBF00010E80E525
:01387D002228
:103386001240AF781AE2FFC3940F5004C200800CBB
:10339600EFC3942D5004D2008002C2007824E2705C
:1033A6007678A3F278A3E2C3940950207812E2FB60
:1033B60008E2FA08E2F9E41206C678A3E204F27813
:1033C60014E22401F218E23400F280D8E478A3F281
:1033D60078A3E2FFC394045026EF90002A93FF7867
:1033E60012E2FB08E2FA08E2F9EF1206C678A3E257
:1033F60004F27814E22401F218E23400F280D17863
:103406001DE2FF7824E2FE700A300003EE60047DC0
:1034160001806C7D008068781FE2FF7824E2FEB4AC
:10342600020B300004640260047D0180027D00E42A
:10343600FB123284E478A3F278A3E2FFC39404502B
:1034460026EF90002A93FF7812E2FB08E2FA08E2E0
:10345600F9EF1206C678A3E204F27814E22401F228
:1034660018E23400F280D1781EE2FF7824E2FEB43E
:10347600010B300004640160047D0180027D00E4DC
:04348600FB1232847F
:01348A00221F
:103178001240AF781AE2FFC3940F5004C200800CCB
:10318800EFC3942D5004D2008002C2007824E26478
:1031980006600302321E7812E2FB08E2FA08E2F93E
:1031A800E41206C6E22401F218E23400F218E2FB47
:1031B80008E2FA08E2F9E41206C6E22401F218E28B
:1031C8003400F2E4FBFD7F141232847812E2FB082B
:1031D800E2FA08E2F9E41206C6E22401F218E2343F
:1031E80000F27823E2FF08E2FEB4060B3000046424
:1031F8000660047D0180027D00E4FB1232847812AF
:10320800E2FB08E2FA08E2F9E41206C6E22401F257
:1032180018E23400F2227821E2FF7824E2FEB404B6
:103228000B300004640460047D0180027D007B0192
:10323800123284E4FFEFC394045020EF90002293ED
:10324800FE7812E2FB08E2FA08E2F9EE1206C60F6F
:10325800E22401F218E23400F280DA7822E2FF7800
:1032680024E2FEB4050B300004640560047D01808F
:08327800027D00E4FB12328428
:01328000222B
:10195F001240AF784FE2FF704C7845E278A56009EE
:10196F007424F2087423F280077424F2087439F295
:10197F00E478A3F278A3E2FEC394164003021C613D
:10198F0078A5E2FC08E2F5828C83E493FD74082EBF
:10199F00F8A60578A3E204F278A6E22401F218E291
:1019AF003400F280CFEF6401600A784FE264026086
:1019BF0003021A49781AE2FFC3940F5004C2008041
:1019CF000CEFC3942D5004D2008002C2007846E27F
:1019DF00FF784FE2FEB4010B300004640160047D18
:1019EF000180027D00E4FB123284E478A3F278A335
:1019FF00E2FFC394045026EF90002A93FF7812E27F
:101A0F00FB08E2FA08E2F9EF1206C678A3E204F245
:101A1F007814E22401F218E23400F280D17847E220
:101A2F00FF784FE2FEB4020B300004640260047DC5
:101A3F000180027D00E4FB023284781AE2FFC39436
:101A4F001B5004C200800CEFC394215004D20080BD
:101A5F0002C200784FE224FDB40700506E901A7A4C
:101A6F0075F003A4C58325F0C58373021A8F021A7C
:101A7F009A021AA5021AB0021ABB021AC6021AD18A
:101A8F0078A57422F20874C3F2804078A57422F20C
:101A9F000874D9F2803578A57422F20874EFF280B9
:101AAF002A78A57423F2087405F2801F78A5742391
:101ABF00F208741BF2801478A57423F2087431F2C3
:101ACF00800978A57423F2087447F2E478A3F278BA
:101ADF00A3E2FFC394164003021C61E408F2EF1265
:101AEF0009401B1F011B1F021B4C041B4C051B79BC
:101AFF00071B79081BA60A1BA60B1BC90D1BC90EBA
:101B0F001BEC101BEC111C0F131C0F1400001C33CB
:101B1F00784FE2FF640360057848E2704AEF640390
:101B2F006003021C337848E2FF6003300039EF6036
:101B3F0003021C33200003021C33021C2E784FE2D9
:101B4F00FF640460057849E2701DEF6404600302CE
:101B5F001C337849E2FF600330000CEF6003021C76
:101B6F0033200003021C33021C2E784FE2FF640562
:101B7F006005784AE2701DEF64056003021C33783C
:101B8F004AE2FF600330000CEF6003021C332000B9
:101B9F0003021C33021C2E784FE2FF6406600578A7
:101BAF004BE27014EF6406707B784BE2FF600330FA
:101BBF000006EF706F30006C8065784FE2FF6407AE
:101BCF006005784CE27014EF64077058784CE2FFB0
:101BDF006003300006EF704C3000498042784FE2CE
:101BEF00FF64086005784DE27014EF640870357873
:101BFF004DE2FF6003300006EF7029300026801F92
:101C0F00784FE2FF6409600418E27013EFB409140F
:101C1F00784EE2FF6003300006EF70083000057861
:101C2F00A47401F278A5E2FE08E2F5828E83E493B4
:101C3F00FF78A4E2FEEF4EFF18E22408F8A607781B
:101C4F00A3E204F278A6E22401F218E23400F202D1
:021C5F001ADE8B
:011C61002260
:104927007BFE7A007935AD0790441CE49378A7F2B3
:0749370090443012452822D4
:074B5C001240AF1247D822FE
:10493E007BFE7A007933AD0790441AE49378A7F2A0
:07494E0090442E12452822BF
:10390C007812E4F2087400F2087408F2E4FFEFC3D2
:10391C0094105020EF90244F93FE7812E2FB08E2B3
:10392C00FA08E2F9EE1206C60FE22401F218E234AC
:10393C0000F280DA7812E2FB08E2FA08E2F9E4120B
:10394C0006C6E22401F218E23400F2E4FFEFC3945D
:10395C000550387833E275F005A42FF582E435F084
:10396C00F583E5822442F582E5833400F583E49304
:10397C00FE7812E2FB08E2FA08E2F9EE1206C60F34
:0B398C00E22401F218E23400F280C2D5
:01399700220D
:104955007BFE7A007934AD0790441BE49378A7F287
:0749650090442F12452822A7
:074B63001240AF1247D822F7
:1047FA007BFE7A007937AD0790441EE49378A7F2DE
:10480A009044321245287837E27819F21245C322C9
:103998007812E4F2087400F2087408F2E4FFEFC346
:1039A80094105020EF90245F93FE7812E2FB08E217
:1039B800FA08E2F9EE1206C60FE22401F218E23420
:1039C80000F280DA7812E2FB08E2FA08E2F9E4127F
:1039D80006C6E22401F218E23400F2E4FFEFC394D1
:1039E8000550387837E275F005A42FF582E435F0F4
:1039F800F583E5822442F582E5833400F583E49378
:103A0800FE7812E2FB08E2FA08E2F9EE1206C60FA7
:0B3A1800E22401F218E23400F280C248
:013A23002280
:10496C007BFE7A007932AD07904419E49378A7F274
:07497C0090442D1245282292
:1045F2007832E260067E247F2380047E247F39E4C1
:10460200FDEDC3941650158F828E83E493FC7408DB
:0C4612002DF8A6040D0FBF00010E80E57E
:01461E002279
:104983007BFE7A007943AD0790442AE49378A7F23B
:0749930090443E124528226A
:1024BC007812E4F2087400F2087408F27843E2FF30
:1024CC00C36480948040028001D39200300005EFF9
:1024DC00F40480037843E278A6F2E478A5F278A5B8
:1024EC00E2FFC364809483500D740B2FF8E4F278F0
:1024FC00A5E204F280E878A57402F278A6E2D394FF
:10250C0000500818E264809480401E78A6E2FF75A3
:10251C00F00A8418E2240BF8E5F0F278A5E214F244
:10252C00EF75F00A8408F280D278A67403F22000CA
:10253C0004E22405F2780BE2701178A6E22405F28D
:10254C00780CE2700678A6E22405F2E478A5F2781D
:10255C00A6E2FF18E2FD3395E0FCC3ED9F7480F812
:10256C006C9850207812E2FB08E2FA08E2F9E412C7
:10257C0006C678A5E204F27814E22401F218E234DB
:10258C0000F280CB300046E478A5F278A5E2C36473
:10259C0080948450217812E2FB08E2FA08E2F97484
:1025AC00081206C678A5E204F27814E22401F218A7
:1025BC00E23400F280D57812E2FB08E2FA08E2F984
:1025CC00E41206C6E22401F218E23400F2780BE2BF
:1025DC00D394004070E478A5F278A5E2FDC3648042
:1025EC009484504A780BE275F004A4FFED3395E027
:1025FC00FCEF2DFFE5F03CFE7818E22FFF18E23ED1
:10260C00FE78A3F208EFF2F5828E83E493FF781242
:10261C00E2FB08E2FA08E2F9EF1206C678A5E2043A
:10262C00F27814E22401F218E23400F280AB781252
:10263C00E2FB08E2FA08E2F9E41206C6E22401F22F
:10264C0018E23400F2780BE2D39400500608E294BE
:10265C00004070E478A5F278A5E2FDC36480948410
:10266C00504A780CE275F004A4FFED3395E0FCEFD2
:10267C002DFFE5F03CFE7818E22FFF18E23EFE78C5
:10268C00A3F208EFF2F5828E83E493FF7812E2FB5B
:10269C0008E2FA08E2F9EF1206C678A5E204F2782D
:1026AC0014E22401F218E23400F280AB7812E2FB5F
:1026BC0008E2FA08E2F9E41206C6E22401F218E292
:1026CC003400F2E478A5F278A5E2FDC3648094842A
:1026DC00504A780DE275F004A4FFED3395E0FCEF61
:1026EC002DFFE5F03CFE7818E22FFF18E23EFE7855
:1026FC00A3F208EFF2F5828E83E493FF7812E2FBEB
:10270C0008E2FA08E2F9EF1206C678A5E204F278BC
:0C271C0014E22401F218E23400F280AB59
:01272800228E
:10499A007BFE7A007942AD07904429E49378A7F226
:0749AA0090443D1245282254
:104A75007812E4F2087400F2087408F212297C2214
:103D8C00781CE275F003A424A7F582E43424F583AF
:103D9C00E493FF7811E2D39F4052781CE204F2E4E2
:103DAC007811F2781CE2D394074002E4F2781CE21A
:103DBC00B4040B124B84EF7005781C7405F2781C5C
:103DCC00E2B40512124B84EF6460600A124B95400A
:103DDC0005781C7406F2781CE2B40610E430070275
:0D3DEC008005781CF274FF780FF208F222B7
:0E4AC2007833E2B40104E47811F2123D8C2244
:0E4AD000C3780FE2648094805003123D8C2264
:103BB900780FE2FE08E2FF24EA78A4F2EE34FF1857
:103BC900F2780EE22416FDE433FCD3EF9DEC648019
:103BD900F8EE648098400E74FF780FF208F2E478EA
:103BE9001CF27811F2E4FFEFFD78A4E22DFD18E252
:103BF9003400FCC3648094804025780EE2FBED9B81
:103C09007480F86C98501878A308E22F24D6F582AE
:103C1900E43400F583E0FE74082FF8A606800674E4
:0A3C2900082FF8E4F60FEFB416BD03
:013C3300226E
:1048F600780EE2C394FE5010E2FE04F274D62EF552
:0949060082E43400F583EFF02295
:043D1B0078A4EFF2A7
:103D1F00E4780EF278A5F278A4E214FF08E2C39FCC
:103D2F00505A12068BFDC394A0400674C02DFD801F
:103D3F000EEDC39420400674E02DFD80027D1FE43C
:103D4F00FC75F005EDA42CF582E435F0F583E582E2
:103D5F00244AF582E5833401F583E493FF64A5607B
:103D6F00031248F60CECB405D8E4FF1248F678A518
:0C3D7F00E204F2740129F9E43AFA809B96
:013D8B002215
:10001E000000000000080800001C1C00003636001E
:10002E00002436000024240000240000003030009C
:10003E00000606007F7F417F7F00007F7F000F4F0D
:10004E004979794149497F7F7878087F7F79794965
:10005E004F0F7F7F494F0F4040407F7F7F7F497F0B
:10006E007F7879497F7F3040454830705070003E30
:10007E007F6341417F41417F00007F004F494979B5
:10008E004949497F7808087F7949494F7F49494F47
:10009E004040407F7F49497F7949497F3E45413EF7
:1000AE0000217F0123454931425169460C14245FDA
:1000BE007251514E1E294906404F5060367F4936C7
:1000CE0030494A3C7E41413F00407F000F4949394B
:1000DE004949493E7C04041F7849490F7F49490725
:1000EE006040403F7E49493F7849493F7F63637F87
:1000FE0000607F006F6B6B7B6B6B6B7F7878087F1C
:10010E007B7B4B4F7F7F494F40407F7F7F6B6B7F69
:10011E007969497F007F417F00007F00004F497958
:10012E000049497F0078087F0079494F007F494F89
:10013E000040407F007F497F0079497F000000002A
:10014E00A57DA5A5A5A5700070A5A5147F147F1487
:10015E00122A7F2A24626408132336495522055039
:10016E0060A5A5A51C2241A5A541221CA5A5140884
:10017E003E081408083E08080506A5A5A5040404B3
:10018E0004A501A5A5A5A502040810203E41413EE7
:10019E00A500217F01A521434539A522414936A558
:1001AE000C14247FA57251514EA53E494926A540F7
:1001BE00474870A536494936A53249493EA512A58C
:1001CE00A5A5A50112A5A5A508142241A5141414D0
:1001DE00141441221408A520404548303E415D5577
:1001EE003C1F2444241F7F494949363E4141412248
:1001FE007F4141221C7F494949417F484848403E42
:10020E004149492F7F0808087F417F41A5A502017A
:10021E00417E407F081422417F010101A57F2018F5
:10022E00207F7F1008047F3E4141413E7F48484871
:10023E00303E4145423D7F484C4A3132494949267C
:10024E0040407F40407E0101017E700C030C707EA9
:10025E00010E017E6314081463700807087043458D
:10026E004951617F4141A5A50C123F120441417FC6
:10027E00A5A5102040201001010101014020A5A5D7
:10028E00A5021515150F7F0911110E0E1111110270
:10029E000E1111097F0E1515150C083F4840201838
:1002AE002525253E7F0810100F115F01A5A502011F
:1002BE00115EA57F040A11A5417F01A5A51F100C93
:1002CE00100F1F08100FA50E1111110E3F24222220
:1002DE001C1C2222243F1F081008A5081515150204
:1002EE00107E1101021E0101021F18060106181EC2
:1002FE000106011E110A040A11180505051E111327
:10030E00151911083641A5A57FA5A5A5A541360845
:10031E00A5A508100810A5A5A5A5A5A5021E3F1EFA
:10032E00023049294936184525451E0201417E40B5
:10033E002A1C771C2A3F202020607F7F7F7F7F7FB3
:10034E007F7F7F7F3F692969217F7F7F7F7F3E4946
:10035E0049412208142A14227F7F7F7F7F1E29277E
:10036E00211E7F7F7F7F7F413F41A5A500304848FA
:10037E003009097D0909417F41A5A5115F01A5A598
:10038E001F101058A57F7F7F7F7F7F7F7F7F7F7FAE
:10039E007F7F7F7F0E5515550C7F7F7F7F7F0E15DC
:1003AE0015110A22142A14087F7F7F7F7F7F7F7F9B
:1003BE007F7F7F7F7F7F7F511F51A5A53F444444A0
:1003CE003F7F494949467F494949367F4040406011
:1003DE00033E427E037F4949494177087F087741B2
:1003EE00494949367F0408107F3F0264083F7F0861
:1003FE00142241011E20407F7F2018207F7F080895
:10040E00087F3E4141413E7F4040407F7F48484803
:10041E00303E4141412240407F4040700909097EF3
:10042E003C42FF423C63140814637F01017F01705C
:10043E000808087F7F017F017F7E027E027F407F5A
:10044E000909067F0906007F7F0911110E22414915
:10045E00493E7F083E413E314A4C487F02151515F4
:10046E000F1E292949061F15150AA51F101018A5BC
:10047E00030E121E030E1515150C1B041F041B1163
:10048E0015150AA51F0204081F1F4224481F1F042A
:10049E000A11A50708101FA51F0804081F1F040432
:1004AE001FA50E1111110E1F10101FA51F141212D1
:1004BE000C0E1111110210101F1010180505051E3B
:1004CE000C129F120C110A040A111F01011F0118B0
:1004DE0004041FA51F011F011F1E021E021F101F55
:1004EE000505021F0502001F1F050502A50A1115AD
:0C04FE00150E1F040E110E081516141F19
:1046A40000000001010100FF003B3B17071F0C63E2
:1046B400FF630000001F003B005A0078009700B51C
:0A46C40000D400F301110130014E93
:103F3F007822E2FFD3940240047E0080027E017853
:103F4F0023E2240CC39EFDEE75F00CA42F24FEF982
:103F5F00EDFF7821E22FFFE433FEED1313543F7C86
:103F6F00002FFBEC3EFAE975F01FA4FFAEF07D0CBD
:103F7F0012070CEF2BFFEE3ACF24FFCF34FFFE7C5E
:103F8F00007D0712070CAF057820EFF2700374075E
:013F9F00F22F
:013FA00022FE
:104792007822E2FFB4021008E2540360047E1D8016
:1047A200027E1CAF06800BEFD3940740010FEF444B
:0247B2001EFFE8
:0147B40022E2
:1040FE007FD01248C27F0A1246F67F811246F61210
:10410E004AA47FD01248C27F0D1246F67F81124616
:10411E00F67F041246F6E4FF1246F67843E2FF12EB
:10412E0046F6124AA4123ED37820E278A3F2123F4A
:0E413E003F7820E2FF78A3E26F600312464C48
:01414C002250
:1046CE007FD01248C2E4FF1246F6E478A3F278A334
:1046DE00E2FFD39402500D1247B51246F678A3E2CC
:0746EE0004F280EA124AA465
:0146F50022A2
:10464C00123F3F7FD01248C27F031246F678A47403
:10465C0003F278A4E2FFD39406500D1247B512462C
:0B466C00F678A4E204F280EA124AA4EF
:014677002220
:1049F2007FD01248C27F101246F67843E2FF124679
:054A0200F6124AA42297
:103ED3007FD01248C2E4FF1246F6124AA47FD112E1
:103EE30048C2E478A4F278A4E2FFD39406502BEFFF
:103EF300B40603C38001D3920112459178A5EFF272
:103F0300124A9578A4E27C007BFE241DF9EC340070
:103F1300FAEF1206C6E204F280CC124AA47FD01252
:103F230048C27F111246F6124AA47FD11248C2C278
:0B3F3300011245917825EFF2124AA41C
:013F3E002260
:04387E0078A3EFF24A
:103882007824E2FFFD7C00241DF9EC3400FA78A4D0
:1038920074FEF208EAF208E9F27BFF74AD2DF9EC4E
:1038A2003446FA12068BFEEF24A4F9EC3446FA12DF
:1038B200068BFD7824E2B40405124792AE0778A382
:1038C200E2FF08E2FB08E2FA08E2F9EF1206A47846
:1038D200A4E2FB08E2FA08E2F912068BFFD3EE64D7
:1038E20080F8EF6480984004ED1206C678A4E2FBEB
:1038F20008E2FA08E2F912068BFFC3ED6480F8EFE2
:093902006480985004EE1206C620
:01390B002299
:104746007824E2601024FE600A24FE24FD5004242E
:1047560006700E800678247404F2227824E214F29D
:074766002278247402F22204
:10447C007822E2FF25E024B4F582E43446F5831873
:10448C00E2FD7401932DFDE4933400FC7823E25497
:10449C0003700CEFD3940240067E007F0180047EF3
:0A44AC00007F00ED2FFFEC3EFE2222
:0F4A9500EFC4540F75F00AA4FEEF540F2EFF224A
:1047B5007E007BFE741D2FF9EE3400FA12068BFF86
:1047C500EF75F00A84C454F0FEEF75F00A84E5F045
:0347D5002EFF2292
:104A6400124B7FD2C1124B7FA2C29203C2C1A203D6
:014A7400221F
:074B6A00A20292C2024A649C
:1048A80078A3EFF2D2C1D2C2124B7FC2C2124B7FA1
:0A48B800C2C178A3E2FF12471E22DE
:1048C20078D3EFF2D2C1D2C2124B7FC2C2124B7F57
:0A48D200C2C178D3E2FF1246F622BD
:0F4AA400C2C1C2C2124B7FD2C1124B7FD2C222FB
:0446F60078D4EFF293
:1046FA00E408F2F278D4E2339202124B6A78D4E2F6
:10470A00FF25E0F208E204F2E2C3940840E6D2028E
:03471A00124B6AD5
:01471D002279
:04471E0078A4EFF29A
:10472200E408F2F278A4E2339202124B6A78A4E22D
:10473200FF25E0F208E204F2E2C3940840E6D2C2A6
:03474200124A64B4
:014745002251
:10459100D2C2E478D4F218F278D4E2FF25E0F21224
:1045A1004A64500678D4E24401F278D3E204F2E29C
:1045B100C3940840E3A201B39202124B6A78D4E299
:0145C100FFFA
:0145C20022D6
:044B7F007F02DFFED4
:014B8300220F
:0A4B1E00EF60077E13DEFE1F80F635
:014B2800226A
:0E4AB300EF600B7E127DEBDDFEDEFC1F80F25D
:014AC10022D2
:10407300812D00812B0082290000812C00812EFAE2
:0A408300812F008226000081280032
:10348B00E4FF20C6010F20C504EF4402FF20C40453
:10349B00EF4404FFEF602A7828E2FEB5071D18E21F
:1034AB002401F218E23400F208E2647D700218E2A3
:1034BB007035EEC454F0782FF2802C7828EFF28020
:1034CB00267826E2FE08E2FFD39419EE64809480FE
:1034DB00400FEF947DEE64809480500508E2782FC6
:1034EB00F2E47826F208F2782EE26005E214F2801C
:1034FB0028782E74FAF218E26003E214F2782BE2C9
:10350B006003E214F2782AE2700218E2600B782A68
:10351B00E224FFF218E234FFF2782CE26005E214A9
:10352B00F2800E782AE2700218E26005782C74FAA9
:10353B00F2782CE2540ED39408400B782EE2D394FD
:08354B007D4005C2C322D2C37A
:013553002255
:104A8500782CEFF2782E74FAF2E47829F208F22203
:064B7100782FE2FFE4F2E0
:014B7700221B
:10440400FF00020000010500071E01010101010077
:1044140000000000FF000100000000000000000098
:104424000000000000F78000FF01050404010601FC
:0C443400173B01010101010101097F0299
:03408D008130007F
:103FA100D200E478A4F278A4E2FFC39409501D7E04
:103FB100007BFE74382FF9EE3400FA12068BF460A0
:103FC10004C200800778A4E204F280DA30002EE413
:103FD10078A4F278A4E2FF7C007BFF2404F9EC349E
:103FE10044FA12068BFEEF1B2431F9EC3400FAEE91
:0D3FF1001206C6E204F2E2B414D91243C76E
:013FFE0022A0
:1044B600E478A3F278A3E2FDC3941450287830E29E
:1044C60025E0FE7C00E42DFFEC3EFE12490F78A3AA
:1044D600E27C007BFE2431F9EC3400FAEF1206C6CA
:0844E600E204F280CF123FA1B5
:0144EE0022AB
:1043C7007830E2FF7E001249C7E478A5F278A5E2CB
:1043D700FDC3941450267830E225E0FE7C00E42DDE
:1043E700FFEC3EFE7BFE74312DF9EC3400FA120629
:0C43F7008BFD1248DC78A5E204F280D1B6
:014403002296
:1049B10000000000000000000000FF01173B0101A2
:0649C1000101010101FFEC
:1044EF00E478A3F278A3E2FFFD3395E0FC7BFE7442
:1044FF00382DF974003CFA12068BFEEF3395E0FC71
:10450F0074452DF974003CFAEE1206C6E204F2E28D
:08451F00B40AD1784F74FFF2D9
:014527002271
:10444000E478A3F278A3E2FFFD3395E0FC7BFE74F1
:10445000452DF974003CFA12068BFEEF3395E0FC13
:1044600074382DF974003CFAEE1206C6E204F2E24A
:0B447000B40AD11243C7784F74FFF26A
:01447B00221E
:104A0700784FE2C3648094894003E4F222784FE24E
:034A170004F22284
:043A240078A3EFF2A2
:103A2800784FE2FFFD3395E0FC74452DF974003CB6
:103A3800FA78A474FEF208EAF208E9F27BFF74BC93
:103A48002DF974493CFA12068BFEEFFD3395E0FC24
:103A580074B12DF974493CFA12068BFF78A3E2FD84
:103A680008E2FB08E2FA08E2F9ED1206A478A4E2FB
:103A7800FB08E2FA08E2F912068BFDD3EE6480F83F
:103A8800ED6480984004EF1206C678A4E2FB08E2D1
:103A9800FA08E2F912068BFDC3EF6480F8ED648042
:073AA800985004EE1206C65F
:013AAF0022F4
:0D4AFA00E4F5C7F5C5F5C675C380F5C42207
:10490F0075C78275C5018FC4EEF5C375C65A75C6D6
:07491F00A500AFC2124AFA25
:01492600226E
:1048DC0075C78275C5028FC4EEF5C3AF058FC2755F
:0A48EC00C65A75C6A500124AFA224A
:1049C70075C78275C5038FC4EEF5C375C65A75C61C
:0649D700A500124AFA22BD
:014B980022FA
:104A1A00438E805389F0E4F58A758CF7C28DD28C67
:034A2A00D2A922EC
:094B3300124A1A124B98D2AF226B
:03000B0002419B14
:10419B00C0E0C0F0C083C082C0D075D000C000C0EA
:1041AB0001C002C003C004C005C006C007123034F2
:1041BB007850E204F2E2D394204005E4F212348BFF
:1041CB00D007D006D005D004D003D002D001D00048
:0B41DB00D0D0D082D083D0F0D0E032F2
:03001B00024B99FC
:014B990032E9
:1015E500D120CDCEC2DBCC20C3CEC4CECC2121218F
:1015F50000D0EEE6E4E5F1F2E2EE20F5F0E8F1F2F6
:10160500EEE2EE2E00D1F2E0F0FBE920CDEEE2FBBA
:10161500E920E3EEE42E00CAF0E5F9E5EDE8E52082
:10162500C3EEF1EFEEE4EDE52E00D2E0F2FCFFEDC6
:10163500E8ED20E4E5EDFC2E00C4E5EDFC20E2F14B
:10164500E5F520E2EBFEE1EBB8EDEDFBF52E00C490
:10165500E5EDFC20E7E0F9E8F2EDE8EAE020CEF27E
:10166500E5F7E5F1F2E2E02E00CCE5E6E4F3EDE0A6
:10167500F0EEE4EDFBE920E6E5EDF1EAE8E920E44A
:10168500E5EDFC2E00C4E5EDFC20ECEEF0FFEAE014
:101695002DEFEEE4E2EEE4EDE8EAE02E00C4E5ED40
:1016A500FC20F1ECE5F5E02E00C4E5EDFC20EAEECA
:1016B500F1ECEEEDE0E2F2E8EAE82E00CFF0E0E74B
:1016C500E4EDE8EA20C2E5F1EDFB20E820D2F0F3F5
:1016D500E4E02E00C4E5EDFC20EFEEE1E5E4FB21BE
:1016E500212100C4E5EDFC20EFE8EEEDE5F0E8E8AA
:1016F5002E00C4E5EDFC20EFEEE3F0E0EDE8F7EDBC
:10170500E8EAE02E00C4E5EDFC20E7E0F9E8F2FBAD
:1017150020E4E5F2E5E92E00C4E5EDFC20D0CED1CC
:10172500D1C8C82E00C4E5EDFC20ECEEEBEEE4E5F7
:10173500E6E82E00C4E5EDFC20F1E5ECFCE82C2004
:10174500EBFEE1E2E820E820E2E5F0EDEEF1F2E87B
:101755002E00C4E5EDFC20C2EEE7E4F3F8EDEE2D36
:10176500E4E5F1E0EDF2EDFBF520E2EEE9F1EA2E3C
:1017750000C4E5EDFC20C2EEE5EDEDEE2DE2EEE771
:10178500E4F3F8EDFBF520F1E8EB2E00C4E5EDFC04
:1017950020E7EDE0EDE8E92E00C4E5EDFC20F2E5FB
:1017A500F1F2E8F0EEE2F9E8EAE02E00C4E5EDFC3E
:1017B50020F3F7E8F2E5EBFF2E00C4E5EDFC20F0A1
:1017C500EEE6E4E5EDE8FF20C4E5E4E020CCEEF04C
:1017D500EEE7E02E00C4E5EDFC20FDEDE5F0E3E5E8
:1017E500F2E8EAE02E00C4E5EDFC20EFF0EEE3F0D0
:1017F500E0ECECE8F1F2E02E00C4E5EDFC20ECE5D0
:10180500E4E8F6E8EDF1EAEEE3EE20F0E0E1EEF2F1
:10181500EDE8EAE02E00C4E5EDFC20F1E8F1F2E5A3
:10182500ECEDEEE3EE20E0E4ECE8EDE8F1F2F0E0DB
:10183500F2EEF0E02E00C4E5EDFC20C2EEE5EDEDA4
:10184500EE2DCCEEF0F1EAEEE3EE20D4EBEEF2E095
:101855002E00CCE5E6E4F3EDE0F0EEE4EDFBE92067
:10186500E4E5EDFC20EFE8E2E02E00C4E5EDFC2028
:10187500F1F2F0EEE8F2E5EBFF2E00C4E5EDFC2019
:10188500F2E0EDEAE8F1F2E02E00C4E5EDFC20E03F
:10189500E2F2EEECEEE1E8EBE8F1F2E02E00C4E571
:1018A500EDFC20ECE0F2E5F0E82E0001011115E574
:1018B50001071415F6010E12160A011313161C0161
:1018C500190F162F020E16163E02171A1654030884
:1018D5001C166E031318168A04010C16A2040C13A9
:1018E50016AE05011816C105090F16D905130F16F1
:1018F500E8051C1316F7060113170A060C0D171D2C
:10190500061B0F172A07081E173908021F17570845
:101915000C1B177609010D1791090913179E0A0566
:101925000E17B10B121B17BF0C161117DA61001336
:1019350017EB36071D17FE770520181B77071C18B0
:101945003B1805191857280710187029070F188014
:0A1955007A0714188F7B070D18A302
:02409000C10766
:103FFF007820E278A4F27F057851E4F208DFFC7FA5
:10400F00057821E278A4F278A4E2D3648094874003
:10401F0006E224F9F280F0124792AE07E4FFEFC3F5
:10402F0094055024EEFD78A4E2F9FB3395E0FAD322
:10403F00EB9D7480F86A98500F74512FF8E9F20FC6
:08404F0078A4E22407F280D6F8
:014057002246
:10483A007855E2FF700C7821E2FE7854E2B5060A58
:0C484A00D3227821E2B50702D322C3225A
:104A2D0074512FF8E2FF7821E2FEEFB50603D38033
:034A3D0001C32290
:102D6500C207E4780EF2123FFFE478A3F278A3E2FB
:102D7500FFC394234003022EDF300703022EDFEF4B
:102D850075F005A424B0F582E43418F583E493FFC7
:102D950054F0FEC4540F1424FB503F7003022E2B35
:102DA500147003022E6524076003022ED178A3E276
:102DB50075F005A424B1F582E43418F583E493FE97
:102DC5007821E2FDEE6D6003022ED7EF540FFF0868
:102DD500E26F6003022ED7022E9D78A3E2FF75F005
:102DE50005A424B0F582E43418F583E493FE540F6A
:102DF500FD7822E26D6003022ED7EF75F005A4245D
:102E0500B1F582E43418F583E493FF7820E26F602E
:102E150003022ED7EE5470C4540F14FF124A2D40EE
:102E250003022ED7807212447CAC06AD0778A3E26C
:102E3500FB75F005A424B0F582E43418F583E4931A
:102E45005401FEEB75F005A424B1F582E43418F5C0
:102E550083E493FBEB6D7002EC6E7076D207803CD9
:102E650078A3E2FF75F005A424B0F582E43418F5E3
:102E750083E493540FFE7822E26E7056EF75F005E9
:102E8500A424B1F582E43418F583E493FF7820E2B5
:102E95006F703F12483A503AD20778A3E2FE75F0B8
:102EA50005A424B2F582E43418F583E493FFEE75A6
:102EB500F005A424B3F582E43418F583E493FC7497
:102EC5000193AA04F97BFF123D1B8006C207E47833
:0A2ED5000EF278A3E204F2022D725F
:012EDF0022D0
:104092008175EC815C00825D0000825600008276B0
:0240A20000001C
:10481A0078A3EFF208EDF27875E2FF1248C278A3A6
:10482A00E2FF1246F678A4E2FF1246F6124AA422E2
:0446780078A3EFF242
:10467C007875E2FF1248C278A3E2FF1246F678750D
:10468C00E24401FF1248C2C20112459178A4EFF234
:07469C00124AA478A4E2FF1A
:0146A30022F4
:0443450078D0EFF24B
:104349007875E2FF1248C278D0E2FF1246F6787516
:10435900E24401FF1248C2D201124591EFF8E47913
:10436900D2F3E819F3C20112459178D1E2F208E2D9
:0C4379004FF2124AA478D1E2FE08E2FFE5
:014385002215
:0443860078A3EFF237
:10438A007875E2FF1248C278A3E2FF1246F6787502
:10439A00E24401FF1248C2D20112459178A4E4F224
:1043AA0008EFF2C201124591EFFE78A4E24EF2083C
:0C43BA00E2F2124AA478A4E2FE08E2FF3E
:0143C60022D4
:044B8900124345226C
:044B8D001243862227
:0436130078BBEFF29F
:103617007875E2FF1248C278BBE2FF1246F678756A
:10362700E24401FF1248C2D201124591E4FCFDFEBB
:10363700780C12091078BC12092378BCE2FB08E267
:10364700F908E2FA08E2CBF8C000C001C002C003E3
:10365700D201124591E4FCFDFE7804120910D00353
:10366700D002D001D000EB4FFFEA4EFEE94DFDE856
:103677004CFC78BC12092378BCE2FB08E2F908E2AB
:10368700FA08E2CBF8C000C001C002C003C20112B1
:103697004591EFC4540FFFD003D002D001D000EB07
:1036A7004FFFEAFEE9FDE8FC78BC120923124AA4A1
:0D36B70078BCE2FC08E2FD08E2FE08E2FF3C
:0136C40022E3
:103AB0007FAA124345785FEEF208EFF27FAC124323
:103AC000457861EEF208EFF27FAE1243457863EE7F
:103AD000F208EFF27FB01243457865EEF208EFF29C
:103AE0007FB21243457867EEF208EFF27FB41243DB
:103AF000457869EEF208EFF27FB6124345786BEE37
:103B0000F208EFF27FB8124345786DEEF208EFF25B
:103B10007FBA124345786FEEF208EFF27FBC124392
:103B2000457871EEF208EFF27FBE1243457873EEEE
:053B3000F208EFF22293
:10375F007F88124386787CEEF208EFF27F8A124B55
:10376F008D787EEEF208EFF27F8C124B8D7880EE23
:10377F00F208EFF27F8E1243867882EEF208EFF2B4
:10378F007F90124B8D7884EEF208EFF27F92124BFE
:10379F008D7886EEF208EFF27F94124B8D7888EEDB
:1037AF00F208EFF27F96124B8D788AEEF208EFF265
:1037BF007F98124B8D788CEEF208EFF27F9A124BB6
:1037CF008D788EEEF208EFF27F9C124B8D7890EE93
:1037DF00F208EFF27F9E124B8D7892EEF208EFF225
:0137EF0022B7
:103C340012375F7FA11246787894EFF27FE1124B3E
:103C44008D7895EEF208EFF27FE31246787897EFDD
:103C5400F27FE4124678EF75F010A4FFAEF0C007CF
:103C6400C0067FE5124678EF540FFDD0E07898F255
:103C7400D0E04D08F27FE6124678EF75F010A4FF0D
:103C8400AEF0C007C0067FE5124678EFC4540FFDBE
:103C9400D0E0789AF2D0E04D08F27FE712467878C7
:043CA4009CEFF2227D
:0E4ADE00E4FD7FF512481A7DAB7FF402481A02
:0A4B29007D057FF212481A024ADEF1
:04476D0078CFEFF220
:104771007875E2FF1248C27FF41246F678CFE2FF65
:104781001246F6124AA47F05124AB37FF612434538
:014791002205
:0D4AEC007FF3124678EF30E003D38001C362
:014AF900229A
:103B35007FEC1248A8B39200124AA43000077875AA
:103B450074ECF280137FEE1248A8B39200124AA4D7
:103B5500300005787574EEF23000097FD012467892
:103B6500785CEFF2785CE2FF6003B4FF05E4785C13
:103B7500F222EF6455601C7DB67FE012481A7F95EE
:103B8500124AB37F958007124AEC50077F64124AA8
:103B9500B380F4785CE224AA24FD500B24F9600D6F
:103BA500240B700F023AB012375F024ADE123C3422
:033BB500124B2987
:013BB80022EA
:100DB5007F2E12476D78CBEEF208EFF27F341247A3
:100DC5006D78CDEEF208EFF2785CE26455600302CF
:100DD50011FB78CBE2FE08E2FFE4FCFDC006C0078C
:100DE5007869E2FE08E2FBAA06D007D006C3EF9BAE
:100DF500FFEE9AFEED9400FDEC9400FCC004A905FD
:100E0500AA06AB077867E2FE08E2FFE4FCFDD00026
:100E1500120797780F1208FC78A31209237871E25C
:100E2500FE08E2FFEE3395E0FDFC780B120910C0D9
:100E350004C005C006C0077873E2FE08E2FFEE3382
:100E450095E0FDFC78A3E2FB08E2F908E2FA08E286
:100E5500CBF8EB2FFBEA3EFAE93DF9E83CF8D00781
:100E6500D006D005D0041242BF78A712092378A76F
:100E7500E2FC08E2FD08E2FE08E2FF78A3E2FB08D7
:100E8500E2F908E2FA08E2CBF8EB2FFFEA3EFEE9C9
:100E95003DFDE83CFC78B312092378B3E2FC08E297
:100EA500FD08E2FE08E22408FFE43EFEE43DFDE421
:100EB5003CFC78041208FC785DEEF208EFF278B39A
:100EC500E2FC08E2FD08E2FE08E22460FFEE34F0F1
:100ED500FEED34FFFDEC34FFFC0812092378B7E280
:100EE500FC08E2FD08E2FE08E2FFA804A905AA063F
:100EF500FB120797780C1208FC78BB12092378615E
:100F0500E2FE08E2FFEE3395E0FDFC78B7E2FB0870
:100F1500E2F908E2FA08E2CBF8120797C004C00527
:100F2500C006C007786DE2FE08E2FFEE3395E0FDEE
:100F3500FC78BBE2FB08E2F908E2FA08E2CBF8121A
:100F45000797D003D002D001D000EF2BFFEE3AFE79
:100F5500ED39FDEC38FC780B1208FC78AB1209234F
:100F6500785FE2FE08E2FFEE3395E0FDFCE47B04EA
:100F7500FAF9F812079778ABE2FB08E2F908E2FA0A
:100F850008E2CBF8EB2FFFEA3EFEE93DFDE83CFC2D
:100F9500EF2402FFE43EFEE43DFDE43CFC78021252
:100FA50008FC78AF1209237863E2FE08E2FFEE330E
:100FB50095E0FDFC78B7E2FB08E2F908E2FA08E201
:100FC500CBF8120797780D1208FC78A3120923783D
:100FD5006BE2FE08E2FFEE3395E0FDFC78BBE2FB39
:100FE50008E2F908E2FA08E2CBF81207977810123E
:100FF50008FC78A712092378A7E2FC08E2FD08E2BD
:10100500FE08E2FF78A3E2FB08E2F908E2FA08E24B
:10101500CBF8EB2FFFEA3EFEE93DFDE83CFCEF2473
:1010250002FFE43EFEE43DFDE43CFC78021208FCD0
:1010350078AB12092378ABE2FC08E2FD08E2FE0872
:10104500E22400FFEE3480FEE43DFDE43CFCC004F8
:10105500A905AA06AB077865E2FE08E2FFE4FCFDF8
:10106500D000120797780F1208E978C31209237880
:10107500CDE2FE08E2FFE4FCFDC004C005C006C0E9
:101085000778AFE2FC08E2FD08E2FE08E2FBAA06EB
:10109500A905A804D007D006D005D004C3EF9BFF4F
:1010A500EE9AFEED99FDEC98FCE47B507AC3F9F8D5
:1010B50012079778C712092378C3E2FB08E2F908FB
:1010C500E2FA08E2CBF8C00078C7E2FC08E2FD08C6
:1010D500E2FE08E2FFD0001208227801120910781A
:1010E500BF12092378BFE2FC08E2FD08E2FE08E230
:1010F500FF78081208FCC004C005C006C00778BF09
:10110500E2FC08E2FD08E2FE08E2FF78081208FCAE
:10111500D003D002D001D00012079778A31209237B
:10112500E47FDE7E0BFDFC78A3E2FB08E2F908E232
:10113500FA08E2CBF812079778101208FC78A31288
:1011450009237F437EE37DFF7CFF78BFE2FB08E256
:10115500F908E2FA08E2CBF812079778101208FCB2
:1011650078A712092378A7E2FC08E2FD08E2FE0849
:10117500E2FF78A3E2FB08E2F908E2FA08E2CBF81D
:10118500EB2FFFEA3EFEE93DFDE83CFCEF24CFFFF7
:10119500EE340EFEE43DFDE43CFC78041208FC78D8
:1011A500BFE2FB08E2F908E2FA08E2CBF8EB2FFF11
:1011B500EA3EFEE93DFDE83CFC78AB12092378AB3D
:1011C500E2FC08E2FD08E2FE08E2FFEC1205AA7B5C
:1011D500B07A507955784112050D7858120923785F
:1011E50058E2FC08E2FD08E2FE08E2FF1205E87895
:0611F50056EEF208EFF2D5
:0111FB0022D1
:102BCA007FFA12361378B7120923E4FFFE7D08FC58
:102BDA0078B7E2FB08E2F908E2FA08E2CBF8C31296
:102BEA0008D87003022D64787CE2FE08E2FFE4FC58
:102BFA00FD7801120910AB07AA06A905C004C00591
:102C0A00C006C00778B7E2FC08E2FD08E2FE08E267
:102C1A00FF78031208E9D003D002D001D000C3EF35
:102C2A009BFFEE9AFEED99FDEC98FCC004A905AA5B
:102C3A0006AB07787EE2FE08E2FFEE3395E0FDFC84
:102C4A00D000120797780B1208E978B31209237893
:102C5A007CE2FE08E2FFE4FCFDAB07AA06F9C00429
:102C6A00C005C006C00778B7E2FC08E2FD08E2FE2C
:102C7A0008E2FF78041208E9D003D002D001D0009C
:102C8A00C3EF9BFFEE9AFEED99FDEC98FCC004C0E1
:102C9A0005C006C007787CE2FE08E2FFE4FCFDAB53
:102CAA0007AA06F9C004C005C006C00778B7E2FC47
:102CBA0008E2FD08E2FE08E2FF78041208E9D00300
:102CCA00D002D001D000C3EF9BFFEE9AFEED99FD32
:102CDA00EC98FCD003D002D001D000120797780CF0
:102CEA001208E9C004A905AA06AB077880E2FE0823
:102CFA00E2FFEE3395E0FDFCD000120797780E1242
:102D0A0008E978B3E2FB08E2F908E2FA08E2CBF84C
:102D1A00EB2FFFEA3EFEE93DFDE83CFC787812091C
:102D2A0023E47F05FEFDFC7878E2FB08E2F908E27D
:102D3A00FA08E2CBF8120797EF2480FFE43EFEE49C
:102D4A003DFDE43CFC78081208FCE47B0AFAF9F839
:0A2D5A001242BF785DEEF208EFF2BE
:012D6400224C
:10096C00122BCA7FF712361378A31209237878E278
:10097C00FC08E2FD08E2FE08E2FF78011208FCE444
:10098C002FFFEE3406FEED34FFFDEC34FFFC78A7B0
:10099C0012092378A7E2FC08E2FD08E2FE08E2FF58
:1009AC0078021208FCC004C005C006C00778A7E294
:1009BC00FC08E2FD08E2FE08E2FF78021208FCD017
:1009CC0003D002D001D000120797780B1208FCC09C
:1009DC0004A905AA06AB07788CE2FE08E2FFEE3309
:1009EC0095E0FDFCD00012079778AB12092378AB89
:1009FC00E2FB08E2F908E2FA08E2CBF8C000C00119
:100A0C00C002C003788AE2FE08E2FFEE3395E0FDF7
:100A1C00FC78A7E2FB08E2F908E2FA08E2CBF8124C
:100A2C0007977801120910D003D002D001D000EB47
:100A3C002FFFEA3EFEE93DFDE83CFC78AB120923B2
:100A4C007888E2FE08E2FFEE3395E0FDFC781012A8
:100A5C000910C004C005C006C00778ABE2FC08E270
:100A6C00FD08E2FE08E2FF78021208FCD003D00277
:100A7C00D001D000EF2BFFEE3AFEED39FDEC38FC47
:100A8C0078AB12092378A7E2FC08E2FD08E2FE0825
:100A9C00E2FF78021208FCC004C005C006C007784B
:100AAC00A7E2FC08E2FD08E2FE08E2FF7802120869
:100ABC00FCD003D002D001D000120797780D120899
:100ACC00FCC004A905AA06AB077886E2FE08E2FF83
:100ADC00EE3395E0FDFCD00012079778031208FC6A
:100AEC00C004C005C006C0077884E2FE08E2FFEE31
:100AFC003395E0FDFC78A7E2FB08E2F908E2FA087E
:100B0C00E2CBF812079778011208FCD003D002D080
:100B1C0001D000EB2FFFEA3EFEE93DFDE83CFC78FE
:100B2C00121208FC78A712092378A7E2FC08E2FD50
:100B3C0008E2FE08E22400FFEE3480FEE43DFDE412
:100B4C003CFCC004A905AA06AB077882E2FE08E2C9
:100B5C00FFE4FCFDD000120797780F1208FC78A771
:100B6C0012092378A7E2FC08E2FD08E2FE08E2FF86
:100B7C00EC4D4E4F7003020DB478ABE2FC08E2FD75
:100B8C0008E2FE08E2FF780C1208FCC004C005C0A5
:100B9C0006C00778A3E2FB08E2F908E2FA08E2CB08
:100BAC00F8C3E49BFFE49AFE741099FDE498FCD022
:100BBC0003D002D001D000C3EF9BFFEE9AFEED995B
:100BCC00FDEC98FCE47B357A0CF9F812079778AFBA
:100BDC00120923E4FFFEFD7C8078AFE2FB08E2F90A
:100BEC0008E2FA08E2CBF8C31208D8503A78AFE220
:100BFC00FC08E2FD08E2FE08E2FF7801120910C0D1
:100C0C0004C005C006C00778A7E2FC08E2FD08E2B4
:100C1C00FE08E2FBAA06A905A804D007D006D00559
:100C2C00D004120822803078A7E2FC08E2FD08E22A
:100C3C00FE08E2FFC004A905AA06AB0778AFE2FCE8
:100C4C0008E2FD08E2FE08E2FFD000120822E47B75
:100C5C0002FAF9F812079778AF12092378AFE2FC81
:100C6C0008E2FD08E2FE08E2FF78031208E9C0047E
:100C7C00C005C006C00778AFE2FC08E2FD08E2FE42
:100C8C0008E2FF78031208E9D003D002D001D000AB
:100C9C00120797780D1208E9C004A905AA06AB073C
:100CAC007892E2FE08E2FFEE3395E0FDFCD00012F4
:100CBC000797780C1208FC78A712092378AFE2FC8E
:100CCC0008E2FD08E2FE08E2FF78021208E9C0041F
:100CDC00A905AA06AB077890E2FE08E2FFEE339571
:100CEC00E0FDFCD000120797780D1208FC78AB12CF
:100CFC00092378AFE2FB08E2F908E2FA08E2CBF844
:100D0C00C000C001C002C00378ABE2FC08E2FD08E1
:100D1C00E2FE08E2FF78A7E2FB08E2F908E2FA0833
:100D2C00E2CBF8EB2FFFEA3EFEE93DFDE83CFCC0D0
:100D3C0004A905AA06AB07788EE2FE08E2FFEE33A3
:100D4C0095E0FDFCD000EB2FFFEA3EFEE93DFDE80F
:100D5C003CFC78041208FCD003D002D001D000EB8C
:100D6C002FFFEA3EFEE93DFDE83CFC78AF1209237B
:100D7C0078AFE2FC08E2FD08E2FE08E2FFE41205AF
:100D8C00AA7BB07A507955784112050D7858120922
:100D9C00237858E2FC08E2FD08E2FE08E2FF1205A7
:080DAC00E87856EEF208EFF2C0
:010DB400221C
:101F6000122BCA7FFD124345E4FCFD78A31209231E
:101F7000E4FF7E80FDFC78A3E2FB08E2F908E2FAC8
:101F800008E2CBF8C31208C270030222287878E274
:101F9000FC08E2FD08E2FE08E22400FFEE34D4FE75
:101FA000ED34FEFDEC34FFFC78A71209237897E2AC
:101FB000FFE4FCFDFE78A7E2FB08E2F908E2FA087C
:101FC000E2CBF8120797780B1208FCE42FFFEE34EF
:101FD00080FEE43DFDE43CFCC004C005C006C00733
:101FE000789CE2FF3395E0FEFDFC78A7E2FB08E277
:101FF000F908E2FA08E2CBF8120797780A1208FC0F
:10200000D003D002D001D000120797780A1208FC42
:10201000E42FFFE43EFEED3420FDE43CFCC004A9C7
:1020200005AA06AB077895E2FE08E2FFEE3395E0DD
:10203000FDFCD000120797E42FFFEE3420FEE43DB4
:10204000FDE43CFC780E1208FCC004C005C006C0CC
:10205000077898E2FE08E2FFEE3395E0FDFC781485
:10206000120910C004C005C006C00778A3E2FC082E
:10207000E2FD08E2FE08E2FF780E120910D003D05C
:1020800002D001D000C3EF9BFFEE9AFEED99FDEC6C
:1020900098FCC004C005C006C007789AE2FE08E2BA
:1020A000FFEE3395E0FDFC78A7E2FB08E2F908E2D9
:1020B000FA08E2CBF8120797A804A905AA06AB070D
:1020C000D007D006D005D004C3EF9BFFEE9AFEEDFB
:1020D00099FDEC98FCE42FFFEE3440FEE43DFDE476
:1020E0003CFC780F1208FCD003D002D001D00012C3
:1020F000079778A712092378A7E2FC08E2FD08E217
:10210000FE08E2FFC004C005C006C00778A7E2FCD5
:1021100008E2FD08E2FE08E2FF780F1208FCC004A6
:10212000C005C006C00778A7E2FC08E2FD08E2FE91
:1021300008E2FF780F1208FCD003D002D001D000D3
:1021400012079778071208FCC004A905AA06AB0776
:102150007894E2FFE4FCFDFED000120797780412A9
:1021600008FCA804A905AA06AB07D007D006D0052D
:10217000D004C3EF9BFFEE9AFEED99FDEC98FC783E
:10218000A712092378A7E2FCEC335007E4FFFEFD19
:10219000FC800D78A7E2FC08E2FD08E2FE08E2FF01
:1021A00078A7120923E4FFFEFD7C1978A7E2FB085B
:1021B000E2F908E2FA08E2CBF8D31208C24008E4D8
:1021C000FFFEFD7C19800D78A7E2FC08E2FD08E225
:1021D000FE08E2FF78A712092378A7E2FC08E2FDD7
:1021E00008E2FE08E2FF780C1208FC78A712092327
:1021F00078A7E2FC08E2FD08E2FE08E2FFEC120527
:10220000AA7B0A7AD77923784112050D78581209EA
:10221000237858E2FC08E2FD08E2FE08E2FF12051E
:08222000E87876EEF208EFF217
:012228002293
:044B910012096C2277
:074B780012096C121F6022FC
:10488D00785CE224AA24FD500B24F9600A240B70F5
:0B489D0009020DB5024B91124B78226E
:08000300785DE2FE08E2FF2235
:084B3C007856E2FE08E2FF22B8
:084B44007876E2FE08E2FF2290
:054B8400785CE2FF2255
:0A40A400C108829D0000829F000009
:0D42310078ADEBF208EAF208E9F208EDF2D0
:10423E007F801248C2E478B1F278B0E2FF08E2FE65
:10424E00C39F5023EEFF78AFE22FF218E23400F254
:10425E0018E2FB08E2FA08E2F912068BFF1246F6A4
:0A426E0078B1E204F280D2124AA4F3
:014278002223
:0D41E60078ADEBF208EAF208E9F208EDF21C
:1041F3007F811248C2E478B1F278B0E2FF08E2C3EB
:104203009F5022D20112459178ADE2FB08E2FA08F1
:10421300E2F978B1E2F582758300EF1206D878B13E
:0D422300E204F280D4C201124591124AA4B7
:01423000226B
:10461F0078A9EFF208EBF208EAF208E9F27BFE7AEA
:10462F000079A97D011242317F14124AB378AAE2B0
:0D463F00FB08E2FA08E2F97D021241E622D2
:103DF9007BFE7A0079A77FF312461F78A7E2FFE4DA
:103E0900FCFDFE7808120910C004A905AA06AB0733
:103E190078A8E2FFD000EB4FFFEAFEE9FDE8FC7865
:103E2900A312092378A30808E2FE08E254FCFFE480
:103E3900FDFC78A3120923E47FA47E44FDFC78A34A
:103E4900E2FB08E2F908E2FA08E2CBF812079778F0
:0C3E5900101208FCEF24B3FFEE34EDFE65
:013E6500223A
:103E66007BFE7A0079A77FF512461F78A7E2FFE46A
:103E7600FCFDFE7808120910C004A905AA06AB07C6
:103E860078A8E2FFD000EB4FFFEAFEE9FDE8FC78F8
:103E9600A312092378A30808E2FE08E254FCFFE413
:103EA600FDFC78A3120923E47FD47E30FDFC78A3C1
:103EB600E2FB08E2F908E2FA08E2CBF81207977883
:0C3EC600101208FCEF24A8FFEE34FDFEF3
:013ED20022CD
:0C4B07007F801248A8B39208124AA42232
:10485600123DF97C007D0A120761789DEEF208EFA1
:0C486600F2123E66789FEEF208EFF2229C
:084B4C00789DE2FE08E2FF2261
:084B5400789FE2FE08E2FF2257
:034B9500A2082251
:10050A0002065EEC5D046005E859047003020654B5
:10051A0012061F580460F6EC4860F2EC7004FDFE07
:10052A00FF22C860DB2481C85009C39860025006C4
:10053A0002065B9850CAF582E9294B4A7005AB82DC
:10054A0002064A75F0007C1A7880C3EF9BEE9AED9A
:10055A0099400DC3EF9BFFEE9AFEED99FDE842F03C
:10056A00DC23ACF0D0E0FFD0E0FED0E0FDAB82208F
:10057A00E7101BEB60BAEC2CFCEF33FFEE33FEED19
:10058A0033FD020636E803F830E705C0F075F000DF
:10059A00EF2FFFEE33FEED33FD40B830E7C280AAFD
:1005AA0075F020800E75F010800575F0087D007ECC
:1005BA00007F003392D530D5031208B4EC334010D3
:1005CA00EF33FFEE33FEED33FDEC33FCD5F0ED22D5
:0E05DA00E5F0247EA2D513CC92E7CDCEFF2211
:1005E800EDD2E7CD33EC3392D524814006E4FFFE0B
:1005F800FDFC22FCE4CFCECDCC24E0501174FF806A
:10060800EDC3CC13CCCD13CDCE13CECF13CF047006
:07061800F030D5DE0208B44A
:10061F00E9D2E7C933E833F892D5EDD2E7CD33EC21
:07062F0033FC5002B2D5229A
:10063600EC30E7100FBF000C0EBE00080DBD000425
:100646000BEB6014A2D5EB13FCED92E7FD2274FFD1
:10065600FCFDFEFF22E480F8A2D574FF13FC7D802A
:03066600E480EF3E
:1036DF00021C62E493A3F8E493A34003F68001F283
:1036EF0008DFF48029E493A3F85407240CC8C333EC
:1036FF00C4540F4420C8834004F456800146F6DFBB
:10370F00E4800B0102040810204080904058E47EB2
:10371F00019360BCA3FF543F30E509541FFEE493AF
:10372F00A360010ECF54C025E060A840B8E493A376
:10373F00FAE493A3F8E493A3C8C582C8CAC583CAA1
:10374F00F0A3C8C582C8CAC583CADFE9DEE780BE59
:0140AE000011
:10066900C2D530F707B2D563F0FF05F030E70CB219
:10067900D5F4048463F0FF05F080018430D502F4D9
:02068900042249
:10068B00BB010689828A83E0225002E722BBFE026D
:09069B00E32289828A83E49322A0
:1006A400BB010989828A83F8E028F022500327F7E6
:1006B40022BBFE05F8E328F3228A838982F8E493B7
:0206C4002822EA
:1006C600BB010689828A83F0225002F722BBFE0113
:0206D600F3220D
:1006D800F8BB010DE58229F582E5833AF583E8F058
:1006E800225006E92582C8F622BBFE05E92582C804
:0206F800F222EC
:1006FA00EF8DF0A4A8F0CF8CF0A428CE8DF0A42E14
:02070A00FE22CD
:10070C00BC000BBE0029EF8DF084FFADF022E4CCD1
:10071C00F875F008EF2FFFEE33FEEC33FCEE9DEC9A
:10072C00984005FCEE9DFE0FD5F0E9E4CEFD22EDE0
:10073C00F8F5F0EE8420D21CFEADF075F008EF2F2A
:10074C00FFED33FD4007985006D5F0F222C398FD1B
:05075C000FD5F0EA22B8
:10076100C2D5EC30E709B2D5E4C39DFDE49CFCEEB3
:1007710030E715B2D5E4C39FFFE49EFE12070CC318
:10078100E49DFDE49CFC800312070C30D507C3E413
:060791009FFFE49EFE2222
:10079700E88FF0A4CC8BF0A42CFCE98EF0A42CFC01
:1007A7008AF0EDA42CFCEA8EF0A4CDA8F08BF0A47F
:1007B7002DCC3825F0FDE98FF0A42CCD35F0FCEBDE
:1007C7008EF0A4FEA9F0EB8FF0A4CFC5F02ECD39A3
:0F07D700FEE43CFCEAA42DCE35F0FDE43CFC2210
:1007E60075F008758200EF2FFFEE33FECD33CDCCCA
:1007F60033CCC58233C5829BED9AEC99E58298404D
:100806000CF582EE9BFEED9AFDEC99FC0FD5F0D629
:10081600E4CEFBE4CDFAE4CCF9A88222B800C1B953
:100826000059BA002DEC8BF084CFCECDFCE5F0CB91
:10083600F97818EF2FFFEE33FEED33FDEC33FCEBCA
:1008460033FB10D703994004EB99FB0FD8E5E4F985
:10085600FA227818EF2FFFEE33FEED33FDEC33FC72
:10086600C933C910D7059BE99A4007EC9BFCE99A66
:10087600F90FD8E0E4C9FAE4CCFB2275F010EF2FAB
:10088600FFEE33FEED33FDCC33CCC833C810D707AB
:100896009BEC9AE899400AED9BFDEC9AFCE899F8E6
:0E08A6000FD5F0DAE4CDFBE4CCFAE4C8F92279
:1042BF00C2D5E830E70FB2D5E4C39BFBE49AFAE42A
:1042CF0099F9E498F8EC30E717B2D51242F51208D5
:1042DF0022E4C39BFBE49AFAE499F9E498F880038B
:1042EF0012082230D50DE4C39FFFE49EFEE49DFD2E
:0442FF00E49CFC221D
:0E08B400C3E49FFFE49EFEE49DFDE49CFC2255
:1008C200EB9FF5F0EA9E42F0E99D42F0EC6480C8AD
:0608D20064809845F0224D
:1008D800EB9FF5F0EA9E42F0E99D42F0E89C45F076
:0108E80022ED
:1008E900E8600FECC313FCED13FDEE13FEEF13FFED
:0308F900D8F12211
:1008FC00E86010ECA2E713FCED13FDEE13FEEF1312
:04090C00FFD8F022FE
:10091000E8600FEFC333FFEE33FEED33FDEC33FC45
:03092000D8F122E9
:0C092300ECF208EDF208EEF208EFF22210
:10092F00F5F0C582A4C582C5F0C583A42583F583E0
:01093F002295
:10094000D083D082F8E4937012740193700DA3A346
:1009500093F8740193F5828883E47374029368605A
:06096000EFA3A3A380DF5A
:060966008A838982E4731C
:00000001FF
