:03000000022CB718
:102CB70078FFE4F6D8FD9000007F007E03E4F0A3E0
:0A2CC700DFFCDEFA758120022D0CFF
:103B5A001237CF1238B1123DEC1234E0123841124A
:0B3B6A002A5D123DCA782574FFF2228C
:103D3B003005FD12000EC2AF1237CFD2AFE47817A9
:023D4B00F22262
:103D4D003005FD12000EC2AF1236E1D2AFE4781786
:023D5D00F22250
:10092D00787C7401F2123B5A7F14123D80782E743C
:10093D0002F23005FDC205781BE275F00A84E5F080
:10094D00702E7817E2FF600964026024EF64036083
:10095D001F782EE27014740AF2123E2EEF6003120D
:10096D00050A123E335003123CED12308C12233720
:10097D00123E22787BEFF2600FE2C3941050047F99
:10098D001480027F28123D80787BE224FE700302E2
:10099D000A6324FE7003020A6824F47003020B0834
:1009AD00240F6003020B517817E214B40B004003BF
:1009BD00020B519009CE75F003A4C58325F0C583B4
:1009CD00730209EF020A23020A2E020A40020A5D8F
:1009DD00020A5D020A5D020A5D020A5D020A5A02FE
:1009ED000A5D7816E2FF24FD601A14601D24F8508C
:1009FD001F240A6003020B5178257402F27817EF59
:100A0D00F2020B51782574068003E4784FF28000D2
:100A1D007816E2020B437825E270121239F4020BBC
:100A2D004E7825E2B4040612399E020B4E123A6C32
:100A3D00020B51784FE2FF70057845E26004EFB488
:100A4D00090512371E8009123D02020B51123CD8C6
:100A5D00123D4D020B4E787C7401F2787BE2B404AA
:100A6D00040874FFF27817E2B40C004003020B5136
:100A7D00900A84F8282873020AA8020AAA020AB466
:100A8D00020AB4020ABE020AC8020AD2020ADB0234
:100A9D000AE4020AED020AF6020AFF8043787CE2BC
:100AAD00FF123CC3020B51787CE2FF122DDF020BCB
:100ABD0051787CE2FF122F85020B51787CE2FF12F8
:100ACD003C52020B51787CE2FF123C0D8076787C13
:100ADD00E2FF123C24806D787CE2FF123C3B806487
:100AED00787CE2FF123B1E805B787CE2FF123C6952
:100AFD008052787CE2FF123C8080497817E2B40C7A
:100B0D00005041900B17F8282873020B3B020B4243
:100B1D00020B4E020B4E020B48020B4B020B4B020B
:100B2D000B4B020B4B020B4B020B4B020B4B781773
:100B3D007401F2800FE47817F28009123841123DEA
:100B4D003B123DD67817E2B40C005065900B60F85F
:100B5D00282873020B84020B89020B8E020B930261
:100B6D000B98020B9D020BA2020BA7020BAC020B02
:100B7D00B1020BB6020BBB12369F8035122D518080
:100B8D0030122958802B12274A802612141E8021DC
:100B9D00123944801C123E0D8017122E6D801212D8
:100BAD003E14800D122EF98008121C678003123D31
:100BBD0070781CE204F2781BE204F2300625781DF1
:100BCD00E2B4061F781BE275F00584E5F07014C3DE
:100BDD007810E264809480400A08E22401F218E261
:100BED003400F2781CE2D3943B4002E4F2781BE22D
:100BFD00D3943B500302093FE4F27812E204F278F9
:100C0D001DE2B407004003020D04900C1EF82828C5
:100C1D0073020C33020C40020C4D020C60020C9A54
:100C2D00020CCF020CF17812E2D3940550030209A5
:100C3D003F80187812E2D39402500302093F800BD3
:100C4D007812E2D39402500302093F781DE204F2B8
:100C5D00020CEE7812E2D39402500302093F123EC9
:100C6D002EEF6007781D7404F28020123E3350077A
:100C7D00781D7405F2801430060D781D7406F2E4AB
:100C8D007810F208F28004E4781DF280547812E2B4
:100C9D00D39402500302093F123E2EEF64606005AB
:100CAD00123E335007781DE204F2801430060D78A1
:100CBD001D7406F2E47810F208F28004E4781DF257
:100CCD00801F7812E2D39402500302093F30060DC3
:100CDD00781D7406F2E47810F208F28004E4781DB1
:100CED00F2E48017C37810E2648094804003020917
:100CFD003FE4781DF28004E4781DF27812F20209C7
:010D0D003FA6
:1019E900007F7F40407F7F007F7F08087F7F000363
:1019F9001F227E7F0300007F7F49497F36004040D8
:101A09007F7F4040007F7F4848783000003E7F411B
:101A1900416322007F7F4848783000031F227E7F80
:101A2900030000707808087F7F0040407F7F4040B6
:101A3900007F7F49497F3600007F7F40407F7F00DC
:101A490040407F7F4040007F7F08087F7F00003E45
:101A59007F414163220060731B0F7C70007F7F49C7
:101A6900494F4600007F7F49497F36003E7F41410B
:101A79006322007F7F0814636300007C7C40407C04
:101A89007C007C7C10107C7C000C3C48787C0C0031
:101A9900007C7C54547C280040407C7C4040007C85
:101AA9007C505070200000387C44446C28007C7CB9
:101AB90050507020000C3C48787C0C00006070107D
:101AC900107C7C0040407C7C4040007C7C54547CF1
:101AD9002800007C7C40407C7C0040407C7C40406D
:101AE900007C7C10107C7C0000387C44446C28000D
:101AF90064741C187060007C7C54545C4800007C41
:101B09007C54547C2800387C44446C28007C7C102C
:101B1900386C440000607F7F60006F6F007F3F106A
:101B29001F103F7F007F7F4949007F7F63361C007C
:101B39001F3F6C6C3F1F00607F7F60007F7F4949BA
:101B49003F7F4C7F3F007F7F0303003F7F4C7F3FF8
:101B5900007F7F6C6C370000003E41417149493E6E
:101B6900000000063A433A06000000007F7F6868DB
:101B7900003E7F417F3E007F3F180C7E7F00607FE3
:101B89007F607F7F41633E1C006F6F00327B496F2E
:101B990026007F7F446C38007F3F101F103F7F0075
:101BA9006F6F007F7F63361C007F7F6C6C387F7F8F
:101BB900497F36007F7F6C6C37006F6F003E7F4135
:101BC9004D2E0000003E41417149493E0000000090
:101BD90000000011117D1111000000000000007FBC
:101BE9007F417F7F007F7F381C7F7F0000000000DE
:101BF9000000007F7F417F7F007F7F6C6C007F7FCB
:101C09006C6C00000000607F7F6000730B7E7C00BD
:101C19007F7F4C380036007F7F49497F36007F7FC0
:101C29004C4E7B3100360000705070003E7F63419E
:101C3900410000000011117D111100007F413E009B
:101C49003249260022493600234539002249360007
:0E1C5900207F00001234555555555554321059
:10344000810F008210FFFF81170081160281120098
:0C345000811D008100008101008102014B
:1038B100E4F59375943FF5917592FFF5957596FF33
:1038C100F5B175B27F7838E2781AF2C205A2C792D3
:1038D1000412349D78137401F2087400F20874B074
:0238E100F222D1
:0D000E0053B0807590FF75A0FF43803F2226
:102606007801E2FEC394055011781AE2FDEEB50595
:102616000312000E7801E204F222E47801F21200BD
:102626000E20040A18E2FEC374159EFF800478008B
:10263600E2FFEFB4160040030226E0902648F82891
:10264600287302268A02268E0226920226960226E1
:102656009A02269E0226A20226A60226AA0226AED4
:102666000226B20226B60226BA0226BE0226C202F8
:1026760026C60226CA0226CE0226D20226D6022660
:10268600DA0226DEC2908052C291804EC292804A01
:10269600C2938046C2948042C295803EC296803ADA
:1026A600C2978036C2A08032C2A1802EC2A2802AE2
:1026B600C2A38026C2A48022C2A5801EC2A6801AFA
:1026C600C2A78016C2808012C281800EC282800A92
:1026D600C2838006C2848002C28520040CC374159E
:1026E6009F2408F8E6F5B0804474082FF8E6FEC487
:1026F6005402FDEEC4131354014DFE74082FF8E680
:10270600FD131354044EFEED54084EFE74082FF8C4
:10271600E6FD25E025E054104EFEEDC454204EFEA5
:1027260074082FF8E6C4333354404EF5B07800E20F
:1027360004F2E2D39415400BE4F2A2C792042005FA
:0327460002D205B7
:01274900226D
:0B3DD600E47817F27812F2781DF22258
:10308C0012324F781EE2706A7802E2606AE4F278DB
:10309C0045E2603908E2FF7820E26F70307847E251
:1030AC00FF781FE2B507267821E27E007BFE2447DD
:1030BC00F9EE3400FA121743603D7837E2FF7C00DA
:1030CC007D3C1217B2782AEEF208EFF2227846E233
:1030DC00FF3395E0FE7820E2D39FEE6480F8748095
:1030EC00984014781FE2700F7833E2600A7F280250
:0730FC003D8078027401F22F
:0131030022A9
:0C3491007813E4F2087400F2087408F2EA
:10349D007836E214601514601C14602314602A80C1
:1034AD000078187400F2087482F22278187400F211
:1034BD000874AAF22278187400F20874D2F22278F5
:1034CD00187400F20874FAF22278187401F2087474
:0334DD0022F222B6
:103BC300901C45E4FFEFC39416500DE493FE740874
:083BD3002FF8A6060FA380EDF8
:013BDB0022C7
:1024B2007835E224FE607814700302256B147003F1
:1024C20002259A2404701E781CE2FEC3940F500564
:1024D200E4FF0225C7EEC3942D50057F030225C7F2
:1024E200E4FF0225C7781CE2FEC394055005E4FF11
:1024F2000225C7EEC3940D50057F010225C7EEC326
:10250200941650057F020225C7EEC3942750057F1B
:10251200030225C7EEC3943050057F020225C7EEA1
:10252200C3943850057F010225C7E4FF0225C7780E
:102532001CE2FEC394065005E4FF0225C7EEC394D5
:102542001250047F03807EEEC3941E50047F0480E9
:1025520074EEC3942A50047F05806AEEC394365009
:10256200047F068060E4FF805C781CE2FEC394076F
:102572005004E4FF804FEEC3941650047F07804559
:10258200EEC3942550047F03803BEEC39434500481
:102592007F088031E4FF802D781CE2FEC39407504F
:1025A20004E4FF8020EEC3941650047F018016EEEF
:1025B200C3942550047F02800CEEC3943450047FF0
:1025C200018002E4FFE4FEEEC39404503675F00489
:1025D200EFA42EF582E435F0F583E582241EF58220
:1025E200E5833400F583E493FD7813E2FB08E2FA15
:1025F20008E2F9ED12177E0EE22401F218E234002D
:03260200F280C49F
:0126050022B2
:03285300E4FBFDA6
:0A2856007881EFF208EDF208EBF2D2
:10286000E408F27884E2FDC39404506B7882E2704D
:102870004608E2600C7881E275F00A84D394004047
:10288000367881E275F00A8475F004A47C002DFF8F
:10289000EC35F0FE7819E22FFF18E23EFE7885F263
:1028A00008EFF2F5828E83E493FF7813E2FB08E2EF
:1028B000FA08E2F9EF800B7813E2FB08E2FA08E28B
:1028C000F9E412177E7884E204F27815E22401F22A
:1028D00018E23400F2808C7813E2FB08E2FA08E296
:1028E000F9E412177EE22401F218E23400F2E478EF
:1028F00084F27884E2FDC39404505C7882E27037FD
:1029000018E275F00A84E5F075F004A47C002DFF50
:10291000EC35F0FE7819E22FFF18E23EFE7885F2E2
:1029200008EFF2F5828E83E493FF7813E2FB08E26E
:10293000FA08E2F9EF800B7813E2FB08E2FA08E20A
:10294000F9E412177E7884E204F27815E22401F2A9
:0729500018E23400F2809B45
:01295700225D
:103AFC007820E2FDD39418500618E2943C4003025F
:103B0C003BC3AF051228531224B2781FE2FF1228D0
:023B1C00532232
:10352F007823E2D3940C500718E2FD942040030255
:10353F003BC3AF057B01E4FD122856E4FFEFC394B4
:10354F00045020EF90002293FE7813E2FB08E2FA7A
:10355F0008E2F9EE12177E0FE22401F218E23400AE
:0D356F00F280DA7823E2FFE4FBFD1228561B
:01357C00222C
:102BF8007821E214B407005070902C0F75F003A4EC
:102C0800C58325F0C58373022C24022C2F022C3A8D
:102C1800022C45022C50022C5B022C66787D74191C
:102C2800F20874E9F2804B787D7419F20874FFF2A7
:102C38008040787D741AF2087415F28035787D74B6
:102C48001AF208742BF2802A787D741AF2087441FB
:102C5800F2801F787D741AF2087457F28014787D18
:102C6800741AF208746DF28009787D741CF2087485
:102C780045F2E4FFEFC394165034787DE2FC08E295
:102C8800F5828C83E493FE7813E2FB08E2FA08E20B
:102C9800F9EE12177E0F787EE22401F218E2340072
:0E2CA800F27815E22401F218E23400F280C640
:012CB60022FB
:102127007843E2787EF27826E2FF787EE22FF2E2C9
:10213700FFD3648094E350030221D0E418F2787D42
:10214700E2C3940450207813E2FB08E2FA08E2F9AC
:10215700E412177E787DE204F27815E22401F21882
:10216700E23400F280D8E4787DF2787DE2FEC39411
:10217700055026EE90007493FE7813E2FB08E2FA0E
:1021870008E2F9EE12177E787DE204F27815E22470
:1021970001F218E23400F280D17813E2FB08E2FA88
:1021A70008E2F9E412177EE22401F218E23400F2A1
:1021B70018E2FB08E2FA08E2F9E412177EE22401CA
:1021C700F218E23400F20222D6D3EF6480948940F9
:1021D7005CE4787DF2787DE2FFC39405507B08E2EA
:1021E700FE75F00A121721FD3395E08D82F5837491
:1021F700051219B2E5822FF582E43583F583E5826E
:102207002442F582E5833400F583E493FF7813E2F3
:10221700FB08E2FA08E2F9EF12177E787DE204F292
:102227007815E22401F218E23400F280A8E4787D00
:10223700F2787DE2C3940550207813E2FB08E2FAB6
:1022470008E2F9E412177E787DE204F27815E224B9
:1022570001F218E23400F280D87813E2FB08E2FAC0
:1022670008E2F9E412177EE22401F218E23400F2E0
:10227700E4787DF2787DE2FFC39405505208E2FED0
:1022870075F00A121721AEF0EEFD3395E08D82F559
:102297008374051219B2E5822FF582E43583F5833D
:1022A700E5822442F582E5833400F583E493FF78E1
:1022B70013E2FB08E2FA08E2F9EF12177E787DE2F3
:1022C70004F27815E22401F218E23400F280A578CE
:1022D70013E2FB08E2FA08E2F9E412177EE22401AE
:1022E700F218E23400F218E2FB08E2FA08E2F9E435
:1022F70012177EE22401F218E23400F2E4787DF24C
:10230700787DE2FFC394095026EF90007993FF7818
:1023170013E2FB08E2FA08E2F9EF12177E787DE292
:0F23270004F27815E22401F218E23400F280D1BA
:012336002284
:101ED400123DF5AB07AA06E4787FF2787FE2FFC3F0
:101EE40064809484500D74032FF8E4F2787FE20444
:101EF400F280E8787F7403F2D3EB9400EA64809470
:101F0400805009787FE26480948040297C007D0AB7
:101F1400AF03AE02121819787FE22403F8EDF278C9
:101F24007FE214F27C007D0AAF03AE02121819AAF4
:101F340006AB0780C3E4787FF2787FE2FDC3648058
:101F44009484504A7803E275F004A4FFED3395E0DD
:101F5400FCEF2DFFE5F03CFE7819E22FFF18E23E7E
:101F6400FE787DF208EFF2F5828E83E493FF781316
:101F7400E2FB08E2FA08E2F9EF12177E787FE20446
:101F8400F27815E22401F218E23400F280AB7813FF
:101F9400E2FB08E2FA08E2F9E412177EE22401F215
:101FA40018E23400F2E4787FF2787FE2FDC36480C3
:101FB4009484504A7804E275F004A4FFED3395E06C
:101FC400FCEF2DFFE5F03CFE7819E22FFF18E23E0E
:101FD400FE787DF208EFF2F5828E83E493FF7813A6
:101FE400E2FB08E2FA08E2F9EF12177E787FE204D6
:101FF400F27815E22401F218E23400F280AB78138F
:10200400E2FB08E2FA08E2F9E412177EE22401F2A4
:1020140018E23400F2E4787FF2787FE2FDC3648052
:102024009484504A7805E275F004A4FFED3395E0FA
:10203400FCEF2DFFE5F03CFE7819E22FFF18E23E9D
:10204400FE787DF208EFF2F5828E83E493FF781335
:10205400E2FB08E2FA08E2F9EF12177E787FE20465
:10206400F27815E22401F218E23400F280AB78131E
:10207400E2FB08E2FA08E2F9E412177EE22401F234
:1020840018E23400F218E2FB08E2FA08E2F97403F9
:1020940012177EE22401F218E23400F218E2FB087F
:1020A400E2FA08E2F9740312177EE22401F218E25C
:1020B4003400F218E2FB08E2FA08E2F9E412177EAF
:1020C400E22401F218E23400F2E4787FF2787FE24D
:1020D400FDC364809484504A7806E275F004A4FF3A
:1020E400ED3395E0FCEF2DFFE5F03CFE7819E22F8F
:1020F400FF18E23EFE787DF208EFF2F5828E83E46B
:1021040093FF7813E2FB08E2FA08E2F9EF12177E74
:10211400787FE204F27815E22401F218E23400F246
:0221240080AB8E
:012126002296
:100D0E00123E05AB07AA06E4787FF2787FE2FFC3B6
:100D1E0064809485500D74072FF8E4F2787FE20416
:100D2E00F280E8787F7404F2D3EB9400EA940050DA
:100D3E0009787FE26480948040297C007D0AAF03AD
:100D4E00AE021217C4787FE22407F8EDF2787FE244
:100D5E0014F27C007D0AAF03AE021217C4AA06ABD2
:100D6E000780C57807E26003020EE1787FF2787F94
:100D7E00E2FDC364809484504A7808E275F004A4BE
:100D8E00FFED3395E0FCEF2DFFE5F03CFE7819E228
:100D9E002FFF18E23EFE787DF208EFF2F5828E8389
:100DAE00E493FF7813E2FB08E2FA08E2F9EF121778
:100DBE007E787FE204F27815E22401F218E2340024
:100DCE00F280AB7813E2FB08E2FA08E2F9E41217BC
:100DDE007EE22401F218E23400F2E4787FF2787FAA
:100DEE00E2FDC364809484504A7809E275F004A44D
:100DFE00FFED3395E0FCEF2DFFE5F03CFE7819E2B8
:100E0E002FFF18E23EFE787DF208EFF2F5828E8318
:100E1E00E493FF7813E2FB08E2FA08E2F9EF121707
:100E2E007E787FE204F27815E22401F218E23400B3
:100E3E00F280AB7813E2FB08E2FA08E2F9E412174B
:100E4E007EE22401F218E23400F218E2FB08E2FA24
:100E5E0008E2F9740312177EE22401F218E234005C
:100E6E00F218E2FB08E2FA08E2F9E412177EE22435
:100E7E0001F218E23400F2E4787FF2787FE2FDC3EB
:100E8E00648094844003021048780AE275F004A44A
:100E9E00FFED3395E0FCEF2DFFE5F03CFE7819E217
:100EAE002FFF18E23EFE787DF208EFF2F5828E8378
:100EBE00E493FF7813E2FB08E2FA08E2F9EF121767
:100ECE007E787FE204F27815E22401F218E2340013
:100EDE00F280A87813E2FB08E2FA08E2F9E41217AE
:100EEE007EE22401F218E23400F2E4787FF2787F99
:100EFE00E2FDC364809484504A7807E275F004A43E
:100F0E00FFED3395E0FCEF2DFFE5F03CFE7819E2A6
:100F1E002FFF18E23EFE787DF208EFF2F5828E8307
:100F2E00E493FF7813E2FB08E2FA08E2F9EF1217F6
:100F3E007E787FE204F27815E22401F218E23400A2
:100F4E00F280AB7813E2FB08E2FA08E2F9E412173A
:100F5E007EE22401F218E23400F2E4787FF2787F28
:100F6E00E2FDC364809484504A7808E275F004A4CC
:100F7E00FFED3395E0FCEF2DFFE5F03CFE7819E236
:100F8E002FFF18E23EFE787DF208EFF2F5828E8397
:100F9E00E493FF7813E2FB08E2FA08E2F9EF121786
:100FAE007E787FE204F27815E22401F218E2340032
:100FBE00F280AB7813E2FB08E2FA08E2F9E41217CA
:100FCE007EE22401F218E23400F2E4787FF2787FB8
:100FDE00E2FDC364809484504A7809E275F004A45B
:100FEE00FFED3395E0FCEF2DFFE5F03CFE7819E2C6
:100FFE002FFF18E23EFE787DF208EFF2F5828E8327
:10100E00E493FF7813E2FB08E2FA08E2F9EF121715
:10101E007E787FE204F27815E22401F218E23400C1
:10102E00F280AB7813E2FB08E2FA08E2F9E4121759
:10103E007EE22401F218E23400F27813E2FB08E2B9
:10104E00FA08E2F9E412177EE22401F218E2340003
:10105E00F218E2FB08E2FA08E2F9746212177EE275
:10106E002401F218E23400F218E2FB08E2FA08E278
:10107E00F9746412177EE22401F218E23400F218B9
:10108E00E2FB08E2FA08E2F9740812177EE2240184
:10109E00F218E23400F218E2FB08E2FA08E2F97400
:1010AE001312177EE22401F218E23400F218E2FB6A
:1010BE0008E2FA08E2F9742312177EE22401F2180C
:0410CE00E23400F216
:0110D20022FB
:103915007820E2FFC3941850257838E26406701EBB
:10392500EF782030E009E2C313901C5B938008E236
:0F393500C313901C5B93C4540FFF781AEFF22258
:10369F00123491123915781DE2B40700503090366C
:1036AF00B4F82828730236C90236CB0236CE02365A
:1036BF00D10236D40236D70236DA801202352F0203
:1036CF002BF8022127021ED4020D0E023011123ADE
:0236DF00FC22CB
:04387A00E49308F2D9
:10387E00ED12175C121743FF7882E2D36480F8EFE3
:10388E0064809840067881E212177E121743FF7803
:10389E0081E2C36480F8EF64809850067882E21269
:0338AE00177E2260
:103CC3007BFE7A007916AD0778817402F208740BD3
:053CD300F212387E2210
:102D51007816E224FEB40A005066902D6975F003DE
:102D6100A4C58325F0C58373022D87022D8D022D05
:102D710093022D99022D9F022DA5022DAB022DB19B
:102D8100022DB7022DBD7E1B7F1D80347E1B7F333C
:102D9100802E7E1B7F4980287E1B7F5F80227E1BC9
:102DA1007F75801C7E1B7F8B80167E1B7FA1801010
:102DB1007E1B7FB7800A7E1B7FCD80047E1C7F2F08
:102DC100E4FDEDC3941650158F828E83E493FC7459
:0D2DD100082DF8A6040D0FBF00010E80E5CF
:012DDE0022D2
:10295800123491781BE2FFC3940F5004C200800C1C
:10296800EFC3942D5004D2008002C2007825E27093
:1029780076787DF2787DE2C3940950207813E2FBE3
:1029880008E2FA08E2F9E412177E787DE204F278A8
:1029980015E22401F218E23400F280D8E4787DF2DE
:1029A800787DE2FFC394045026EF90002A93FF78C5
:1029B80013E2FB08E2FA08E2F9EF12177E787DE2EB
:1029C80004F27815E22401F218E23400F280D1789A
:1029D8001EE2FF7825E2FE700A300003EE60047DF7
:1029E80001806C7D0080687820E2FF7825E2FEB4E3
:1029F800020B300004640260047D0180027D00E463
:102A0800FB122856E4787DF2787DE2FFC3940450E7
:102A180026EF90002A93FF7813E2FB08E2FA08E217
:102A2800F9EF12177E787DE204F27815E22401F2BC
:102A380018E23400F280D1781FE2FF7825E2FEB474
:102A4800010B300004640160047D0180027D00E414
:042A5800FB122856EF
:012A5C002257
:10274A00123491781BE2FFC3940F5004C200800C2C
:10275A00EFC3942D5004D2008002C2007825E264AF
:10276A000660030227F07813E2FB08E2FA08E2F9AE
:10277A00E412177EE22401F218E23400F218E2FBB6
:10278A0008E2FA08E2F9E412177EE22401F218E2FA
:10279A003400F2E4FBFD7F141228567813E2FB089A
:1027AA00E2FA08E2F9E412177EE22401F218E234AE
:1027BA0000F27824E2FF08E2FEB4060B300004645B
:1027CA000660047D0180027D00E4FB12285678131E
:1027DA00E2FB08E2FA08E2F9E412177EE22401F2C7
:1027EA0018E23400F2227822E2FF7825E2FEB404ED
:1027FA000B300004640460047D0180027D007B01CB
:10280A00122856E4FFEFC394045020EF900022935D
:10281A00FE7813E2FB08E2FA08E2F9EE12177E0FDD
:10282A00E22401F218E23400F280DA7823E2FF7837
:10283A0025E2FEB4050B300004640560047D0180C6
:08284A00027D00E4FB12285698
:012852002263
:10141E00123491784FE2FF704C7845E2787F600984
:10142E00741BF20874E3F28007741BF20874F9F26D
:10143E00E4787DF2787DE2FEC39416400302172015
:10144E00787FE2FC08E2F5828C83E493FD74082E2B
:10145E00F8A605787DE204F27880E22401F218E223
:10146E003400F280CFEF6401600A784FE2640260CC
:10147E0003021508781BE2FFC3940F5004C20080CC
:10148E000CEFC3942D5004D2008002C2007846E2C5
:10149E00FF784FE2FEB4010B300004640160047D5E
:1014AE000180027D00E4FB122856E4787DF2787DFF
:1014BE00E2FFC394045026EF90002A93FF7813E2C4
:1014CE00FB08E2FA08E2F9EF12177E787DE204F2E9
:1014DE007815E22401F218E23400F280D17847E266
:1014EE00FF784FE2FEB4020B300004640260047D0C
:1014FE000180027D00E4FB022856781BE2FFC394B4
:10150E001B5004C200800CEFC394215004D2008003
:10151E0002C200784FE224FDB40700506E901539D8
:10152E0075F003A4C58325F0C5837302154E02150D
:10153E005902156402156F02157A0215850215906F
:10154E00787F741AF2087483F28040787F741AF2EE
:10155E00087499F28035787F741AF20874AFF280AD
:10156E002A787F741AF20874C5F2801F787F741A75
:10157E00F20874DBF28014787F741AF20874F1F2B8
:10158E008009787F741BF2087407F2E4787DF27894
:10159E007DE2FFC394164003021720E408F2EF1217
:1015AE0019C315DE0115DE02160B04160B051638CF
:1015BE000716380816650A16650B16880D16880E5E
:1015CE0016AB1016AB1116CE1316CE14000016F273
:1015DE00784FE2FF640360057848E2704AEF6403D7
:1015EE0060030216F27848E2FF6003300039EF60C4
:1015FE00030216F22000030216F20216ED784FE2F5
:10160E00FF640460057849E2701DEF640460030214
:10161E0016F27849E2FF600330000CEF6003021609
:10162E00F22000030216F20216ED784FE2FF640577
:10163E006005784AE2701DEF640560030216F278C9
:10164E004AE2FF600330000CEF60030216F2200046
:10165E00030216F20216ED784FE2FF64066005787B
:10166E004BE27014EF6406707B784BE2FF60033040
:10167E000006EF706F30006C8065784FE2FF6407F4
:10168E006005784CE27014EF64077058784CE2FFF6
:10169E006003300006EF704C3000498042784FE214
:1016AE00FF64086005784DE27014EF6408703578B9
:1016BE004DE2FF6003300006EF7029300026801FD8
:1016CE00784FE2FF6409600418E27013EFB4091456
:1016DE00784EE2FF6003300006EF700830000578A8
:1016EE007E7401F2787FE2FE08E2F5828E83E49347
:1016FE00FF787EE2FEEF4EFF18E22408F8A6077888
:10170E007DE204F27880E22401F218E23400F20263
:02171E00159D17
:0117200022A6
:103C0D007BFE7A007936AD0790381FE4937881F208
:073C1D0090383212387A22C0
:073E0D00123491123AFC226D
:103C24007BFE7A007934AD0790381DE4937881F2F5
:073C340090383012387A22AB
:102E6D007813E4F2087400F2087408F2E4FFEFC37B
:102E7D0094105020EF901C0F93FE7813E2FB08E2A4
:102E8D00FA08E2F9EE12177E0FE22401F218E2348D
:102E9D0000F280DA7813E2FB08E2FA08E2F9E412B4
:102EAD00177EE22401F218E23400F2E4FFEFC3943E
:102EBD000550387834E275F005A42FF582E435F02D
:102ECD00F583E5822442F582E5833400F583E493AE
:102EDD00FE7813E2FB08E2FA08E2F9EE12177E0F14
:0B2EED00E22401F218E23400F280C27F
:012EF80022B7
:103C3B007BFE7A007935AD0790381EE4937881F2DC
:073C4B0090383112387A2293
:073E1400123491123AFC2266
:103B1E007BFE7A007938AD07903821E4937881F2F4
:103B2E0090383412387A7838E2781AF2123915222F
:102EF9007813E4F2087400F2087408F2E4FFEFC3EF
:102F090094105020EF901C1F93FE7813E2FB08E207
:102F1900FA08E2F9EE12177E0FE22401F218E23400
:102F290000F280DA7813E2FB08E2FA08E2F9E41227
:102F3900177EE22401F218E23400F2E4FFEFC394B1
:102F49000550387838E275F005A42FF582E435F09C
:102F5900F583E5822442F582E5833400F583E49321
:102F6900FE7813E2FB08E2FA08E2F9EE12177E0F87
:0B2F7900E22401F218E23400F280C2F2
:012F8400222A
:103C52007BFE7A007933AD0790381CE4937881F2C9
:073C620090382F12387A227E
:103944007833E260067E1B7FE380047E1B7FF9E40C
:10395400FDEDC3941650158F828E83E493FC740896
:0C3964002DF8A6040D0FBF00010E80E539
:013970002234
:103C69007BFE7A007944AD0790382DE4937881F290
:073C790090384012387A2256
:101C67007813E4F2087400F2087408F27844E2FF8B
:101C7700C36480948040028001D39200300005EF56
:101C8700F40480037844E27880F2E4787FF2787F86
:101C9700E2FFC364809483500D740C2FF8E4F2784C
:101CA7007FE204F280E8787F7402F27880E2D394CE
:101CB70000500818E264809480401E7880E2FF7527
:101CC700F00A8418E2240CF8E5F0F2787FE214F2C7
:101CD700EF75F00A8408F280D278807403F220004E
:101CE70004E22405F2780CE270117880E22405F210
:101CF700780DE270067880E22405F2E4787FF278C6
:101D070080E2FF18E2FD3395E0FCC3ED9F7480F895
:101D17006C9850207813E2FB08E2FA08E2F9E41223
:101D2700177E787FE204F27815E22401F218E23494
:101D370000F280CB300046E4787FF2787FE2C3641C
:101D470080948450217813E2FB08E2FA08E2F974E0
:101D57000812177E787FE204F27815E22401F21860
:101D6700E23400F280D57813E2FB08E2FA08E2F9E0
:101D7700E412177EE22401F218E23400F2780CE252
:101D8700D394004070E4787FF2787FE2FDC36480EB
:101D97009484504A780CE275F004A4FFED3395E083
:101DA700FCEF2DFFE5F03CFE7819E22FFF18E23E2D
:101DB700FE787DF208EFF2F5828E83E493FF7813C5
:101DC700E2FB08E2FA08E2F9EF12177E787FE204F5
:101DD700F27815E22401F218E23400F280AB7813AE
:101DE700E2FB08E2FA08E2F9E412177EE22401F2C4
:101DF70018E23400F2780CE2D39400500608E2941B
:101E0700004070E4787FF2787FE2FDC364809484B9
:101E1700504A780DE275F004A4FFED3395E0FCEF2E
:101E27002DFFE5F03CFE7819E22FFF18E23EFE7821
:101E37007DF208EFF2F5828E83E493FF7813E2FBDD
:101E470008E2FA08E2F9EF12177E787FE204F278E7
:101E570015E22401F218E23400F280AB7813E2FBBA
:101E670008E2FA08E2F9E412177EE22401F218E226
:101E77003400F2E4787FF2787FE2FDC364809484D3
:101E8700504A780EE275F004A4FFED3395E0FCEFBD
:101E97002DFFE5F03CFE7819E22FFF18E23EFE78B1
:101EA7007DF208EFF2F5828E83E493FF7813E2FB6D
:101EB70008E2FA08E2F9EF12177E787FE204F27877
:0C1EC70015E22401F218E23400F280ABB6
:011ED30022EC
:103C80007BFE7A007943AD0790382CE4937881F27B
:073C900090383F12387A2240
:103D70007813E4F2087400F2087408F21221272282
:103011007810E2FE08E2FF24EA787EF2EE34FF182F
:10302100F2780FE22416FDE433FCD3EF9DEC6480CB
:10303100F8EE648098400E74FF7810F208F2E4789C
:103041001DF27812F2E4FFEFFD787EE22DFD18E229
:103051003400FCC3648094804025780FE2FBED9B33
:103061007480F86C985018787D08E22F24B0F582AE
:10307100E43400F583E0FE74082FF8A60680067498
:0A308100082FF8E4F60FEFB416BDB7
:01308B002222
:103BDC00780FE2C394FE5010E2FE04F274B02EF59E
:093BEC0082E43400F583EFF022BD
:04310400787EEFF2F0
:10310800E4780FF2787FF2787EE214FF08E2C39F3A
:10311800505A121743FDC394A0400674C02DFD8079
:103128000EEDC39420400674E02DFD80027D1FE45F
:10313800FC75F005EDA42CF582E435F0F583E58205
:10314800244AF582E5833401F583E493FF64A5609E
:1031580003123BDC0CECB405D8E4FF123BDC787FAF
:0C316800E204F2740129F9E43AFA809BB9
:013174002238
:10001E000000000000080800001C1C00003636001E
:10002E00002436000024240000240000003030009C
:10003E00000606007F7F417F7F00007F7F000F4F0D
:10004E004979794149497F7F7878087F7F79794965
:10005E004F0F7F7F494F0F4040407F7F7F7F497F0B
:10006E007F7879497F7F3040454830705070003E30
:10007E007F6341417F41417F00007F004F494979B5
:10008E004949497F7808087F7949494F7F49494F47
:10009E004040407F7F49497F7949497F3E45413EF7
:1000AE0000217F0123454931425169460C14245FDA
:1000BE007251514E1E294906404F5060367F4936C7
:1000CE0030494A3C7E41413F00407F000F4949394B
:1000DE004949493E7C04041F7849490F7F49490725
:1000EE006040403F7E49493F7849493F7F63637F87
:1000FE0000607F006F6B6B7B6B6B6B7F7878087F1C
:10010E007B7B4B4F7F7F494F40407F7F7F6B6B7F69
:10011E007969497F007F417F00007F00004F497958
:10012E000049497F0078087F0079494F007F494F89
:10013E000040407F007F497F0079497F000000002A
:10014E00A57DA5A5A5A5700070A5A5147F147F1487
:10015E00122A7F2A24626408132336495522055039
:10016E0060A5A5A51C2241A5A541221CA5A5140884
:10017E003E081408083E08080506A5A5A5040404B3
:10018E0004A501A5A5A5A502040810203E41413EE7
:10019E00A500217F01A521434539A522414936A558
:1001AE000C14247FA57251514EA53E494926A540F7
:1001BE00474870A536494936A53249493EA512A58C
:1001CE00A5A5A50112A5A5A508142241A5141414D0
:1001DE00141441221408A520404548303E415D5577
:1001EE003C1F2444241F7F494949363E4141412248
:1001FE007F4141221C7F494949417F484848403E42
:10020E004149492F7F0808087F417F41A5A502017A
:10021E00417E407F081422417F010101A57F2018F5
:10022E00207F7F1008047F3E4141413E7F48484871
:10023E00303E4145423D7F484C4A3132494949267C
:10024E0040407F40407E0101017E700C030C707EA9
:10025E00010E017E6314081463700807087043458D
:10026E004951617F4141A5A50C123F120441417FC6
:10027E00A5A5102040201001010101014020A5A5D7
:10028E00A5021515150F7F0911110E0E1111110270
:10029E000E1111097F0E1515150C083F4840201838
:1002AE002525253E7F0810100F115F01A5A502011F
:1002BE00115EA57F040A11A5417F01A5A51F100C93
:1002CE00100F1F08100FA50E1111110E3F24222220
:1002DE001C1C2222243F1F081008A5081515150204
:1002EE00107E1101021E0101021F18060106181EC2
:1002FE000106011E110A040A11180505051E111327
:10030E00151911083641A5A57FA5A5A5A541360845
:10031E00A5A508100810A5A5A5A5A5A5021E3F1EFA
:10032E00023049294936184525451E0201417E40B5
:10033E002A1C771C2A3F202020607F7F7F7F7F7FB3
:10034E007F7F7F7F3F692969217F7F7F7F7F3E4946
:10035E0049412208142A14227F7F7F7F7F1E29277E
:10036E00211E7F7F7F7F7F413F41A5A500304848FA
:10037E003009097D0909417F41A5A5115F01A5A598
:10038E001F101058A57F7F7F7F7F7F7F7F7F7F7FAE
:10039E007F7F7F7F0E5515550C7F7F7F7F7F0E15DC
:1003AE0015110A22142A14087F7F7F7F7F7F7F7F9B
:1003BE007F7F7F7F7F7F7F511F51A5A53F444444A0
:1003CE003F7F494949467F494949367F4040406011
:1003DE00033E427E037F4949494177087F087741B2
:1003EE00494949367F0408107F3F0264083F7F0861
:1003FE00142241011E20407F7F2018207F7F080895
:10040E00087F3E4141413E7F4040407F7F48484803
:10041E00303E4141412240407F4040700909097EF3
:10042E003C42FF423C63140814637F01017F01705C
:10043E000808087F7F017F017F7E027E027F407F5A
:10044E000909067F0906007F7F0911110E22414915
:10045E00493E7F083E413E314A4C487F02151515F4
:10046E000F1E292949061F15150AA51F101018A5BC
:10047E00030E121E030E1515150C1B041F041B1163
:10048E0015150AA51F0204081F1F4224481F1F042A
:10049E000A11A50708101FA51F0804081F1F040432
:1004AE001FA50E1111110E1F10101FA51F141212D1
:1004BE000C0E1111110210101F1010180505051E3B
:1004CE000C129F120C110A040A111F01011F0118B0
:1004DE0004041FA51F011F011F1E021E021F101F55
:1004EE000505021F0502001F1F050502A50A1115AD
:0C04FE00150E1F040E110E081516141F19
:1039CA0000000001010100FF003B3B17071F0C63C9
:1039DA00FF630000001F003B005A0078009700B503
:0A39EA0000D400F301110130014E7A
:103327007823E2FFD3940240047E0080027E017876
:1033370024E2240CC39EFDEE75F00CA42F24FEF9A5
:10334700EDFF7822E22FFFE433FEED1313543F7CA9
:10335700002FFBEC3EFAE975F01FA4FFAEF07D0CE1
:103367001217C4EF2BFFEE3ACF24FFCF34FFFE7CBA
:10337700007D071217C4AF057821EFF270037407B9
:01338700F253
:013388002222
:103A93007823E2FFB4021008E2540360047E1D8021
:103AA300027E1CAF06800BEFD3940740010FEF4457
:023AB3001EFFF4
:013AB50022EE
:1034E0007FD0123B8F7F0A123A1C7F81123A1C1246
:1034F0003D9F7FD0123B8F7F0D123A1C7F81123A85
:103500001C7F04123A1CE4FF123A1C7844E2FF12BA
:103510003A1C123D9F12324F7821E2787DF212332D
:0E352000277821E2FF787DE26F600312399E6A
:01352E00227A
:1039F4007FD0123B8FE4FF123A1CE4787DF2787D8D
:103A0400E2FFD39402500D123AB6123A1C787DE2CA
:073A140004F280EA123D9F5D
:013A1B002288
:10399E001233277FD0123B8F7F03123A1C787E742E
:1039AE0003F2787EE2FFD39406500D123AB6123A25
:0B39BE001C787EE204F280EA123D9FBC
:0139C90022DB
:103CD8007FD0123B8F7F10123A1C7844E2FF123AD1
:053CE8001C123D9F22AB
:10324F007FD0123B8FE4FF123A1C123D9F7FD112A9
:10325F003B8FE4787EF2787EE2FFD39406502BEF1B
:10326F00B40603C38001D392011238E3787FEFF2E3
:10327F00123D90787EE27C007BFE241EF9EC340038
:10328F00FAEF12177EE204F280CC123D9F7FD0122C
:10329F003B8F7F11123A1C123D9F7FD1123B8FC281
:0B32AF00011238E37826EFF2123D9F79
:0132BA0022F1
:042DDF00787DEFF21A
:102DE3007825E2FFFD7C00241EF9EC3400FA787E9E
:102DF30074FEF208EAF208E9F27BFF74D32DF9ECD2
:102E03003439FA121743FEEF24CAF9EC3439FA12B3
:102E13001743FD7825E2B40405123A93AE07787D93
:102E2300E2FF08E2FB08E2FA08E2F9EF12175C7826
:102E33007EE2FB08E2FA08E2F9121743FFD3EE64DD
:102E430080F8EF6480984004ED12177E787EE2FBF1
:102E530008E2FA08E2F9121743FFC3ED6480F8EFC2
:092E63006480985004EE12177E01
:012E6C002243
:103A6C007825E2601024FE600A24FE24FD50042414
:103A7C0006700E800678257404F2227825E214F282
:073A8C002278257402F222EA
:103795007823E2FF25E024DAF582E43439F583184D
:1037A500E2FD7401932DFDE4933400FC7824E2548A
:1037B50003700CEFD3940240067E007F0180047EE7
:0A37C500007F00ED2FFFEC3EFE2216
:0F3D9000EFC4540F75F00AA4FEEF540F2EFF225C
:103AB6007E007BFE741E2FF9EE3400FA121743FFC8
:103AC600EF75F00A84C454F0FEEF75F00A84E5F051
:033AD6002EFF229E
:103D5F00123E29D2C1123E29A2C29203C2C1A203AE
:013D6F002231
:073E1B00A20292C2023D5F0A
:103B7500787DEFF2D2C1D2C2123E29C2C2123E29CD
:0A3B8500C2C1787DE2FF123A44222B
:103B8F0078ADEFF2D2C1D2C2123E29C2C2123E2983
:0A3B9F00C2C178ADE2FF123A1C2209
:0F3D9F00C2C1C2C2123E29D2C1123E29D2C222D3
:043A1C0078AEEFF29F
:103A2000E408F2F278AEE2339202123E1B78AEE284
:103A3000FF25E0F208E204F2E2C3940840E6D20275
:033A4000123E1B18
:013A43002260
:043A4400787EEFF2A7
:103A4800E408F2F2787EE2339202123E1B787EE2BC
:103A5800FF25E0F208E204F2E2C3940840E6D2C28D
:033A6800123D5FAD
:013A6B002238
:1038E300D2C2E478AEF218F278AEE2FF25E0F2122B
:1038F3003D5F500678AEE24401F278ADE204F2E2B5
:10390300C3940840E3A201B39202123E1B78AEE2D5
:01391300FFB4
:013914002290
:043E29007F02DFFE37
:013E2D002272
:0A3DE100EF60077E13DEFE1F80F680
:013DEB0022B5
:0E3DAE00EF600B7E127DEBDDFEDEFC1F80F26F
:013DBC0022E4
:10345C00812E00812C00822A0000812D00812FFA00
:0A346C008130008227000081290052
:102B2F00E4FF20C6010F20C504EF4402FF20C404B8
:102B3F00EF4404FFEF602A7829E2FEB5071D18E283
:102B4F002401F218E23400F208E2647D700218E208
:102B5F007035EEC454F07830F2802C7829EFF28083
:102B6F00267827E2FE08E2FFD39419EE6480948062
:102B7F00400FEF947DEE64809480500508E278302A
:102B8F00F2E47827F208F2782FE26005E214F2807F
:102B9F0028782F74FAF218E26003E214F2782CE22C
:102BAF006003E214F2782BE2700218E2600B782BCC
:102BBF00E224FFF218E234FFF2782DE26005E2140E
:102BCF00F2800E782BE2700218E26005782D74FA0D
:102BDF00F2782DE2540ED39408400B782FE2D39461
:082BEF007D4005C2C322D2C3E0
:012BF70022BB
:103D8000782DEFF2782F74FAF2E4782AF208F22212
:063E22007830E2FFE4F23B
:013E28002277
:10380800FF00010000010500071E01010101010080
:10381800000000FF000100000000000000000000A0
:1038280000000000F780FF01050404010601173BB2
:0938380001010101010101097FF8
:03347600813100A1
:10338900D200E4787EF2787EE2FFC39409501D7E74
:10339900007BFE74392FF9EE3400FA121743F460FA
:1033A90004C2008007787EE204F280DA30002EE45D
:1033B900787EF2787EE2FF7C007BFF2408F9EC340A
:1033C90038FA121743FEEF1B2432F9EC3400FAEEF7
:0D33D90012177EE204F2E2B413D91236E1BD
:0133E60022C4
:1037CF00E4787DF2787DE2FDC3941350287831E2DE
:1037DF0025E0FE7C00E42DFFEC3EFE123BF5787DEC
:1037EF00E27C007BFE2432F9EC3400FAEF12177EF4
:0837FF00E204F280CF123389CD
:01380700229E
:1036E1007831E2FF7E00123CADE4787FF2787FE230
:1036F100FDC3941350267831E225E0FE7C00E42DD1
:10370100FFEC3EFE7BFE74322DF9EC3400FA121709
:0C37110043FD123BA9787FE204F280D156
:01371D002289
:103C970000000000000000000000FF01173B0101C9
:063CA7000101010101FF13
:10384100E4787DF2787DE2FFFD3395E0FC7BFE7448
:10385100392DF974003CFA121743FEEF3395E0FC61
:1038610074452DF974003CFAEE12177EE204F2E27F
:08387100B40AD1784F74FFF294
:01387900222C
:10371E00E4787DF2787DE2FFFD3395E0FC7BFE746C
:10372E00452DF974003CFA121743FEEF3395E0FC79
:10373E0074392DF974003CFAEE12177EE204F2E2AF
:0B374E00B40AD11236E1784F74FFF28C
:01375900224D
:103D0200784FE2C3648094894003E4F222784FE260
:033D120004F22296
:042F8500787DEFF272
:102F8900784FE2FFFD3395E0FC74452DF974003C60
:102F9900FA787E74FEF208EAF208E9F27BFF74A27D
:102FA9002DF9743C3CFA121743FEEFFD3395E0FC12
:102FB90074972DF9743C3CFA121743FF787DE2FDB2
:102FC90008E2FB08E2FA08E2F9ED12175C787EE202
:102FD900FB08E2FA08E2F9121743FDD3EE6480F820
:102FE900ED6480984004EF12177E787EE2FB08E2D8
:102FF900FA08E2F9121743FDC3EF6480F8ED648023
:07300900985004EE12177E3F
:01301000229D
:0D3DBD00E4F5C7F5C5F5C675C380F5C42251
:103BF50075C78275C5018FC4EEF5C375C65A75C6FE
:073C0500A500AFC2123DBD96
:013C0C002295
:103BA90075C78275C5028FC4EEF5C3AF058FC2759F
:0A3BB900C65A75C6A500123DBD22D4
:103CAD0075C78275C5038FC4EEF5C375C65A75C643
:063CBD00A500123DBD222E
:013E36002269
:103D1500438E805389F0E4F58A758CF7C28DD28C79
:033D2500D2A922FE
:093DEC00123D15123E36D2AF2241
:03000B0002357D3E
:10357D00C0E0C0F0C083C082C0D075D000C000C014
:10358D0001C002C003C004C005C006C00712260654
:10359D007850E204F2E2D394204005E4F2122B2F8E
:1035AD00D007D006D005D004D003D002D001D00072
:0B35BD00D0D0D082D083D0F0D0E0321C
:03001B00023E376B
:013E37003258
:1010D300D120CDCEC2DBCC20C3CEC4CECC212121A6
:1010E30000D0EEE6E4E5F1F2E2EE20F5F0E8F1F20D
:1010F300EEE2EE2E00D1F2E0F0FBE920CDEEE2FBD2
:10110300E920E3EEE42E00CAF0E5F9E5EDE8E52099
:10111300C3EEF1EFEEE4EDE52E00D2E0F2FCFFEDDD
:10112300E8ED20E4E5EDFC2E00C4E5EDFC20E2F162
:10113300E5F520E2EBFEE1EBB8EDEDFBF52E00C4A7
:10114300E5EDFC20E7E0F9E8F2EDE8EAE020CEF295
:10115300E5F7E5F1F2E2E02E00CCE5E6E4F3EDE0BD
:10116300F0EEE4EDFBE920E6E5EDF1EAE8E920E461
:10117300E5EDFC2E00C4E5EDFC20ECEEF0FFEAE02B
:101183002DEFEEE4E2EEE4EDE8EAE02E00C4E5ED57
:10119300FC20F1ECE5F5E02E00C4E5EDFC20EAEEE1
:1011A300F1ECEEEDE0E2F2E8EAE82E00CFF0E0E762
:1011B300E4EDE8EA20C2E5F1EDFB20E820D2F0F30C
:1011C300E4E02E00C4E5EDFC20EFEEE1E5E4FB21D5
:1011D300212100C4E5EDFC20EFE8EEEDE5F0E8E8C1
:1011E3002E00C4E5EDFC20EFEEE3F0E0EDE8F7EDD3
:1011F300E8EAE02E00C4E5EDFC20E7E0F9E8F2FBC5
:1012030020E4E5F2E5E92E00C4E5EDFC20D0CED1E3
:10121300D1C8C82E00C4E5EDFC20ECEEEBEEE4E50E
:10122300E6E82E00C4E5EDFC20F1E5ECFCE82C201B
:10123300EBFEE1E2E820E820E2E5F0EDEEF1F2E892
:101243002E00C4E5EDFC20C2EEE7E4F3F8EDEE2D4D
:10125300E4E5F1E0EDF2EDFBF520E2EEE9F1EA2E53
:1012630000C4E5EDFC20C2EEE5EDEDEE2DE2EEE788
:10127300E4F3F8EDFBF520F1E8EB2E00C4E5EDFC1B
:1012830020E7EDE0EDE8E92E00C4E5EDFC20F3F7FF
:10129300E8F2E5EBFF2E00C4E5EDFC20F0EEE6E41A
:1012A300E5EDE8FF20C4E5E4E020CCEEF0EEE7E076
:1012B30000C4E5EDFC20EFF0EEE3F0E0ECECE8F148
:1012C300F2E02E00C4E5EDFC20ECE5E4E8F6E8ED01
:1012D300F1EAEEE3EE20F0E0E1EEF2EDE8EAE02EF3
:1012E30000C4E5EDFC20F1E8F1F2E5ECEDEEE3EE10
:1012F30020E0E4ECE8EDE8F1F2F0E0F2EEF0E02ECD
:1013030000C4E5EDFC20C2EEE5EDEDEE2DCCEEF0F4
:10131300F1EAEEE3EE20D4EBEEF2E02E00CCE5E6CC
:10132300E4F3EDE0F0EEE4EDFBE920E4E5EDFC2091
:10133300EFE8E2E02E00C4E5EDFC20F1F2F0EEE888
:10134300F2E5EBFF2E00C4E5EDFC20F2E0EDEAE868
:10135300F1F2E02E00C4E5EDFC20E0E2F2EEECEE6B
:10136300E1E8EBE8F1F2E02E00C4E5EDFC20ECE06F
:10137300F2E5F0E82E0001011110D301071410E487
:10138300010E1210F8011313110A01190F111D0296
:101393000E16112C02171A114203081C115C0313B9
:1013A30018117804010C1190040C13119C050118F9
:1013B30011AF05090F11C705130F11D6051C131122
:1013C300E506011311F8060C0D120B061B0F12187C
:1013D30007081E122708021F1245080C1B12640976
:1013E300010D127F0A050E128C0B121A129A61005C
:1013F3001312B436071D12C777052012E477071CB2
:1014030013041805191320280710133929070F137C
:0B141300497A071413587B070D136C77
:02347900C1068A
:1033E7007821E2787EF27F057851E4F208DFFC7FEE
:1033F700057822E2787EF2787EE2D3648094874073
:1034070006E224F9F280F0123A93AE07E4FFEFC325
:1034170094055024EEFD787EE2F9FB3395E0FAD36C
:10342700EB9D7480F86A98500F74512FF8E9F20FEA
:08343700787EE22407F280D642
:01343F00226A
:103B3E007855E2FF700C7822E2FE7854E2B5060A60
:0C3B4E00D3227822E2B50702D322C32262
:103D280074512FF8E2FF7822E2FEEFB50603D38044
:033D380001C322A2
:10233700C206E4780FF21233E7E4787DF2787DE2A3
:10234700FFC3942140030224B13006030224B1EFF6
:1023570075F005A42479F582E43413F583E493FF3B
:1023670054F0FEC4540F1424FB503F70030223FDA6
:10237700147003022437240760030224A3787DE244
:1023870075F005A4247AF582E43413F583E493FE0B
:102397007822E2FDEE6D60030224A9EF540FFF08D7
:1023A700E26F60030224A902246F787DE2FF75F0D3
:1023B70005A42479F582E43413F583E493FE540FDE
:1023C700FD7823E26D60030224A9EF75F005A424CC
:1023D7007AF582E43413F583E493FF7821E26F60A2
:1023E700030224A9EE5470C4540F14FF123D284071
:1023F700030224A98072123795AC06AD07787DE2F7
:10240700FB75F005A42479F582E43413F583E4938E
:102417005401FEEB75F005A4247AF582E43413F534
:1024270083E493FBEB6D7002EC6E7076D206803C12
:10243700787DE2FF75F005A42479F582E43413F57D
:1024470083E493540FFE7823E26E7056EF75F00520
:10245700A4247AF582E43413F583E493FF7821E228
:102467006F703F123B3E503AD206787DE2FE75F020
:1024770005A4247BF582E43413F583E493FFEE751A
:10248700F005A4247CF582E43413F583E493FC740B
:102497000193AA04F97BFF1231048006C206E4788F
:0A24A7000FF2787DE204F2022344F4
:0124B1002208
:0B347B008258000082560000817000A3
:04375A0078AAEFF268
:10375E007FEE123B8F78AAE2FF123A1C7FEF123BEC
:10376E008FD2011238E3EFF8E479ACF3E819F3C223
:10377E00011238E378ABE2F208E24FF2123D9F7885
:06378E00ABE2FE08E2FFC1
:013794002212
:102A5D007FEE123B75B392003000167FD0123A1CF8
:102A6D00123D9F7FEF123B8FC2011238E37870EF5A
:102A7D00F2123D9F7870E26003B4FF05E47870F2C6
:102A8D00227FEE123B8F7FE0123A1C7FB6123A1C6A
:102A9D00123D9F7F96123DAE7F96123DAE7FAA12DC
:102AAD00375A785AEEF208EFF27FAC12375A785C4B
:102ABD00EEF208EFF27FAE12375A785EEEF208EFC3
:102ACD00F27FB012375A7860EEF208EFF27FB21251
:102ADD00375A7862EEF208EFF27FB412375A786403
:102AED00EEF208EFF27FB612375A7866EEF208EF83
:102AFD00F27FB812375A7868EEF208EFF27FBA1209
:102B0D00375A786AEEF208EFF27FBC12375A786CBA
:102B1D00EEF208EFF27FBE12375A786EEEF208EF42
:012B2D00F2B5
:012B2E002284
:053E2E007870E2FF22A4
:043AD90078A9EFF2E7
:103ADD007FEE123B8F7FF4123A1C78A9E2FF123A67
:0E3AED001C123D9F7F05123DAE7FF612375A28
:013AFB0022A8
:10050A007F2E123AD978A5EEF208EFF27F34123A2A
:10051A00D978A7EEF208EFF27870E2645560030228
:10052A00092C78A5E2FE08E2FFE4FCFDC006C0073C
:10053A007864E2FE08E2FBAA06D007D006C3EF9B66
:10054A00FFEE9AFEED9400FDEC9400FCC004A905B0
:10055A00AA06AB077862E2FE08E2FFE4FCFDD000DF
:10056A0012184F780F12197F787D1219A6786CE24B
:10057A00FE08E2FFEE3395E0FDFC780B121993C0FA
:10058A0004C005C006C007786EE2FE08E2FFEE333B
:10059A0095E0FDFC787DE2FB08E2F908E2FA08E260
:1005AA00CBF8EB2FFBEA3EFAE93DF9E83CF8D00735
:1005BA00D006D005D00412365B78811219A678814C
:1005CA00E2FC08E2FD08E2FE08E2FF787DE2FB08B1
:1005DA00E2F908E2FA08E2CBF8EB2FFFEA3EFEE97D
:1005EA003DFDE83CFC788D1219A6788DE2FC08E204
:1005FA00FD08E2FE08E22408FFE43EFEE43DFDE4D5
:10060A003CFC780412197F7858EEF208EFF2788DE4
:10061A00E2FC08E2FD08E2FE08E22460FFEE34F0A4
:10062A00FEED34FFFDEC34FFFC081219A67891E2C6
:10063A00FC08E2FD08E2FE08E2FFA804A905AA06F2
:10064A00FB12184F780C12197F78951219A6785C4C
:10065A00E2FE08E2FFEE3395E0FDFC7891E2FB084A
:10066A00E2F908E2FA08E2CBF812184FC004C00512
:10067A00C006C0077868E2FE08E2FFEE3395E0FDA7
:10068A00FC7895E2FB08E2F908E2FA08E2CBF812F4
:10069A00184FD003D002D001D000EF2BFFEE3AFE64
:1006AA00ED39FDEC38FC780B12197F78851219A602
:1006BA00785AE2FE08E2FFEE3395E0FDFCE47B04A3
:1006CA00FAF9F812184F7885E2FB08E2F908E2FA1B
:1006DA0008E2CBF8EB2FFFEA3EFEE93DFDE83CFCE1
:1006EA00EF2402FFE43EFEE43DFDE43CFC78021206
:1006FA00197F78891219A6785EE2FE08E2FFEE33C6
:10070A0095E0FDFC7891E2FB08E2F908E2FA08E2DA
:10071A00CBF812184F780D12197F787D1219A67826
:10072A0066E2FE08E2FFEE3395E0FDFC7895E2FB17
:10073A0008E2F908E2FA08E2CBF812184F78101228
:10074A00197F78811219A67881E2FC08E2FD08E295
:10075A00FE08E2FF787DE2FB08E2F908E2FA08E225
:10076A00CBF8EB2FFFEA3EFEE93DFDE83CFCEF2427
:10077A0002FFE43EFEE43DFDE43CFC780212197FF0
:10078A0078851219A67885E2FC08E2FD08E2FE08DF
:10079A00E22400FFEE3480FEE43DFDE43CFCC004AC
:1007AA00A905AA06AB077860E2FE08E2FFE4FCFDB1
:1007BA00D00012184F780F12196C789D1219A6786A
:1007CA00A7E2FE08E2FFE4FCFDC004C005C006C0C3
:1007DA00077889E2FC08E2FD08E2FE08E2FBAA06C5
:1007EA00A905A804D007D006D005D004C3EF9BFF03
:1007FA00EE9AFEED99FDEC98FCE47B507AC3F9F889
:10080A0012184F78A11219A6789DE2FB08E2F9089E
:10081A00E2FA08E2CBF8C00078A1E2FC08E2FD089F
:10082A00E2FE08E2FFD0001218DA78011219937872
:10083A00991219A67899E2FC08E2FD08E2FE08E29C
:10084A00FF780812197FC004C005C006C00778994E
:10085A00E2FC08E2FD08E2FE08E2FF780812197FCE
:10086A00D003D002D001D00012184F787D1219A6F9
:10087A00E47FDE7E0BFDFC787DE2FB08E2F908E20C
:10088A00FA08E2CBF812184F781012197F787D1205
:10089A0019A67F437EE37DFF7CFF7899E2FB08E29D
:1008AA00F908E2FA08E2CBF812184F781012197F09
:1008BA0078811219A67881E2FC08E2FD08E2FE08B6
:1008CA00E2FF787DE2FB08E2F908E2FA08E2CBF8F7
:1008DA00EB2FFFEA3EFEE93DFDE83CFCEF24CFFFAB
:1008EA00EE340EFEE43DFDE43CFC780412197F78F8
:1008FA0099E2FB08E2F908E2FA08E2CBF8EB2FFFEB
:10090A00EA3EFEE93DFDE83CFCE47B03FAF9F81215
:10091A00184FE47B28FAF9F812365B7856EEF2089B
:02092A00EFF2EA
:01092C0022A8
:080003007858E2FE08E2FF223A
:083DF5007856E2FE08E2FF220D
:0A348600C107827700008279000080
:0D3613007887EBF208EAF208E9F208EDF220
:103620007F80123B8FE4788BF2788AE2FF08E2FE1B
:10363000C39F5023EEFF7889E22FF218E23400F2A4
:1036400018E2FB08E2FA08E2F9121743FF123A1CEB
:0A365000788BE204F280D2123D9F55
:01365A00224D
:0D35C8007887EBF208EAF208E9F208EDF26C
:1035D5007F81123B8FE4788BF2788AE2FF08E2C3A1
:1035E5009F5022D2011238E37887E2FB08E2FA08FD
:1035F500E2F9788BE2F582758300EF121790788BEC
:0D360500E204F280D4C2011238E3123D9FAE
:013612002295
:103971007883EFF208EBF208EAF208E9F27BFE7ACB
:103981000079837D011236137F14123DAE7884E2F3
:0D399100FB08E2FA08E2F97D021235C822B7
:103175007BFE7A0079817FF31239717881E2FFE471
:10318500FCFDFE7808121993C004A905AA06AB0731
:103195007882E2FFD000EB4FFFEAFEE9FDE8FC781C
:1031A5007D1219A6787D0808E2FE08E254FCFFE4CA
:1031B500FDFC787D1219A6E47FA47E44FDFC787D94
:1031C500E2FB08E2F908E2FA08E2CBF812184F78B8
:0C31D5001012197FEF24B3FFEE34EDFE62
:0131E10022CB
:1032BB007BFE7A0079757FF51239717875E2FFE440
:1032CB00FCFDFE7808121993C004A905AA06AB07EA
:1032DB007876E2FFD000EB4FFFEAFEE9FDE8FC78E1
:1032EB00711219A678710808E2FE08E254FCFFE49B
:1032FB00FDFC78711219A6E47F7DFEFDFC7871E26E
:10330B00FB08E2F908E2FA08E2CBF812184F781042
:0B331B0012197FEF24FAFFEE34FFFED2
:013326002284
:1031E2007BFE7A0079817FF51239717881E2FFE402
:1031F200FCFDFE7808121993C004A905AA06AB07C4
:103202007882E2FFD000EB4FFFEAFEE9FDE8FC78AE
:103212007D1219A6787D0808E2FE08E254FCFFE45C
:10322200FDFC787D1219A6E47FD47E30FDFC787D0A
:10323200E2FB08E2F908E2FA08E2CBF812184F784A
:0C3242001012197FEF24A8FFEE34FDFEEF
:01324E00225D
:0C3DCA007F80123B75B39207123D9F22D0
:103CED001231757877EEF208EFF21231E27879EE53
:053CFD00F208EFF222C5
:083DFD007877E2FE08E2FF22E4
:083E05007879E2FE08E2FF22D9
:033E3300A20722C1
:102CD10002092DE493A3F8E493A34003F68001F2E3
:102CE10008DFF48029E493A3F85407240CC8C33304
:102CF100C4540F4420C8834004F456800146F6DFD3
:102D0100E4800B0102040810204080903440E47EEE
:102D1100019360BCA3FF543F30E509541FFEE493C7
:102D2100A360010ECF54C025E060A840B8E493A38E
:102D3100FAE493A3F8E493A3C8C582C8CAC583CAB9
:102D4100F0A3C8C582C8CAC583CADFE9DEE780BE71
:01349000003B
:10172100C2D530F707B2D563F0FF05F030E70CB250
:10173100D5F4048463F0FF05F080018430D502F410
:02174100042280
:10174300BB010689828A83E0225002E722BBFE02A4
:09175300E32289828A83E49322D7
:10175C00BB010989828A83F8E028F022500327F71D
:10176C0022BBFE05F8E328F3228A838982F8E493EE
:02177C00282221
:10177E00BB010689828A83F0225002F722BBFE014A
:02178E00F32244
:10179000F8BB010DE58229F582E5833AF583E8F08F
:1017A000225006E92582C8F622BBFE05E92582C83B
:0217B000F22223
:1017B200EF8DF0A4A8F0CF8CF0A428CE8DF0A42E4B
:0217C200FE2205
:1017C400BC000BBE0029EF8DF084FFADF022E4CC09
:1017D400F875F008EF2FFFEE33FEEC33FCEE9DECD2
:1017E400984005FCEE9DFE0FD5F0E9E4CEFD22ED18
:1017F400F8F5F0EE8420D21CFEADF075F008EF2F62
:10180400FFED33FD4007985006D5F0F222C398FD52
:051814000FD5F0EA22EF
:10181900C2D5EC30E709B2D5E4C39DFDE49CFCEEEA
:1018290030E715B2D5E4C39FFFE49EFE1217C4C387
:10183900E49DFDE49CFC80031217C430D507C3E482
:061849009FFFE49EFE2259
:10184F00E88FF0A4CC8BF0A42CFCE98EF0A42CFC38
:10185F008AF0EDA42CFCEA8EF0A4CDA8F08BF0A4B6
:10186F002DCC3825F0FDE98FF0A42CCD35F0FCEB15
:10187F008EF0A4FEA9F0EB8FF0A4CFC5F02ECD39DA
:0F188F00FEE43CFCEAA42DCE35F0FDE43CFC2247
:10189E0075F008758200EF2FFFEE33FECD33CDCC01
:1018AE0033CCC58233C5829BED9AEC99E582984084
:1018BE000CF582EE9BFEED9AFDEC99FC0FD5F0D661
:1018CE00E4CEFBE4CDFAE4CCF9A88222B800C1B98B
:1018DE000059BA002DEC8BF084CFCECDFCE5F0CBC9
:1018EE00F97818EF2FFFEE33FEED33FDEC33FCEB02
:1018FE0033FB10D703994004EB99FB0FD8E5E4F9BD
:10190E00FA227818EF2FFFEE33FEED33FDEC33FCA9
:10191E00C933C910D7059BE99A4007EC9BFCE99A9D
:10192E00F90FD8E0E4C9FAE4CCFB2275F010EF2FE2
:10193E00FFEE33FEED33FDCC33CCC833C810D707E2
:10194E009BEC9AE899400AED9BFDEC9AFCE899F81D
:0E195E000FD5F0DAE4CDFBE4CCFAE4C8F922B0
:10365B00C2D5E830E70FB2D5E4C39BFBE49AFAE49A
:10366B0099F9E498F8EC30E717B2D51236911218A5
:10367B00DAE4C39BFBE49AFAE499F9E498F8800343
:10368B001218DA30D50DE4C39FFFE49EFEE49DFDD6
:04369B00E49CFC228D
:10196C00E8600FECC313FCED13FDEE13FEEF13FF59
:03197C00D8F1227D
:10197F00E86010ECA2E713FCED13FDEE13FEEF137E
:04198F00FFD8F0226B
:10199300E8600FEFC333FFEE33FEED33FDEC33FCB2
:0319A300D8F12256
:0C19A600ECF208EDF208EEF208EFF2227D
:1019B200F5F0C582A4C582C5F0C583A42583F5834D
:0119C2002202
:1019C300D083D082F8E4937012740193700DA3A3B3
:1019D30093F8740193F5828883E4737402936860C7
:0619E300EFA3A3A380DFC7
:00000001FF
